:100000000C9409060C9431060C9431060C943106BC
:100010000C9431060C9431060C9431060C94310684
:100020000C9431060C9431060C9433290C94A229BB
:100030000C9431060C9431060C9431060C94310664
:100040000C9431060C9431060C9431060C94310654
:100050000C9431060C9431060C9431060C94D42B7C
:100060000C9431060C9431060C9431060C94310634
:100070000C9431060C9431060C9431060C94310624
:100080000C9431060C9431060C9431060C94310614
:100090000C9431060C9431060C9431060C94310604
:1000A0000C9431060C9431060C94310650324238CF
:1000B000424F4F4B4B454550455200503142313431
:1000C000484F5553450050636230434F4C4C4152AA
:1000D0000050644230554E4445414420444F47004F
:1000E00050666231465249454E4400502C423053CE
:1000F0004F494C00502042305645494E00507E42F8
:100100003052415720574154455200502B623044E1
:100110004F4F520050236230504152544954494F7E
:100120004E0050626230424544005068623043489D
:1001300041495200506F62305441424C45004445A1
:100140005354524F59EEDB204946204C4F57204D17
:10015000454D0053484F57EEDB204F52204F4EEE97
:10016000DB555345EE02004E455854204F574E453F
:1001700052EE0220414D4F4E47EE02005741495486
:10018000204F4E45204D494E55544500494E205272
:10019000455741524420594F552043414E0A4F5232
:1001A00044455220464F4F4420414E44205049433D
:1001B0004B530A46524F4D204F5448455220564902
:1001C0004C4C414745530A464F52204E4558542007
:1001D000594541522E0A0A474F4F44204C55434B34
:1001E0002100594F55204C49564520494E20434F38
:1001F0004D4D554E4953540A4D494E494E47205690
:10020000494C4C4147452E0A0A312059454152205C
:10021000455155414C203920444159532E0A0A5921
:100220004F5552205441534B20544F2046554C4675
:10023000494C4C0A414E4E55414C20434F414C20B5
:100240004D494E494E470A504C414E2E00484F4DA5
:1002500045005A5A5A0044524F5000474F54004EDE
:100260004F54204F574E4552004157415920465256
:100270004F4D00444953415050454152454400447C
:10028000524F575359005448495253545900544FF0
:10029000494C45540048554E475259005343454E2A
:1002A000450034012A0122011401C20AE40AD90AD4
:1002B0006B080B01FD00F400E2088A081803DD0258
:1002C000D202EB00E000D100C600CD0AE902BB007B
:1002D000AC0050744237544F494C4554005064426E
:1002E000313244524F5753590050614236414456BF
:1002F000454E545552455200502F423133504943D8
:100300004B005068423048554E47455200502142FC
:1003100030424F54544C4500507442305448495276
:1003200053540050734239534C4545500020002926
:100330000042494E44002800192000EE2000290008
:100340002C412D4F574E4552002C412D53454C45C5
:1003500043540028444F574E2D4E4558540000003A
:100360000000003E5B4F5B3E3E6B4F6B3E1C3E7C95
:100370003E1C183C7E3C181C577D571C1C5E7F5E43
:100380001C00183C1800FFE7C3E7FF001824180002
:10039000FFE7DBE7FF30483A060E26297929264099
:1003A0007F050507407F05253F5A3CE73C5A7F3EC5
:1003B0001C1C08081C1C3E7F14227F22145F5F0057
:1003C0005F5F06097F017F006689956A60606060F3
:1003D0006094A2FFA29408047E040810207E2010DE
:1003E00008082A1C08081C2A08081E101010100CE7
:1003F0001E0C1E0C30383E3830060E3E0E06000035
:1004000000000000005F00000007000700147F14D8
:100410007F14242A7F2A1223130864623649562047
:10042000500008070300001C2241000041221C006C
:100430002A1C7F1C2A08083E08080080703000082B
:1004400008080808000060600020100804023E51FF
:1004500049453E00427F4000724949494621414991
:100460004D331814127F1027454545393C4A4949F8
:100470003141211109073649494936464949291E62
:100480000000140000004034000000081422411451
:1004900014141414004122140802015909063E41A3
:1004A0005D594E7C1211127C7F494949363E4141CB
:1004B00041227F4141413E7F494949417F09090924
:1004C000013E414151737F0808087F00417F410090
:1004D0002040413F017F081422417F404040407F3F
:1004E000021C027F7F0408107F3E4141413E7F098C
:1004F0000909063E4151215E7F09192946264949CD
:10050000493203017F01033F4040403F1F2040200C
:100510001F3F4038403F631408146303047804030A
:100520006159494D43007F414141020408102000B8
:100530004141417F04020102044040404040000329
:1005400007080020545478407F28444438384444F5
:100550004428384444287F385454541800087E09ED
:100560000218A4A49C787F0804047800447D40000D
:100570002040403D007F1028440000417F40007C27
:10058000047804787C080404783844444438FC181F
:1005900024241818242418FC7C0804040848545403
:1005A000542404043F44243C4040207C1C20402030
:1005B0001C3C4030403C44281028444C9090907C97
:1005C0004464544C440008364100000077000000A9
:1005D0004136080002010204023C2623263C1EA1EB
:1005E000A161123A4040207A38545455592155554A
:1005F00079412154547841215554784020545579FB
:10060000400C1E527212395555555939545454598B
:1006100039555454580000457C410002457D420044
:1006200001457C40F0292429F0F0282528F07C544D
:100630005545002054547C547C0A097F493249496D
:1006400049323248484832324A4848303A414121DA
:100650007A3A42402078009DA0A07D394444443934
:100660003D4040403D3C24FF2424487E4943662BC6
:100670002FFC2F2BFF0929F620C0887E0903205468
:100680005479410000447D413048484A3238404066
:10069000227A007A0A0A727D0D19317D2629292FC6
:1006A00028262929292630484D40203808080808DE
:1006B00008080808382F10C8ACBA2F102834FA00E0
:1006C000007B000008142A142222142A1408950022
:1006D000220095AA005500AAAA55AA55AA00000012
:1006E000FF00101010FF00141414FF001010FF0082
:1006F000FF1010F010F0141414FC001414F700FF95
:100700000000FF00FF1414F404FC141417101F1051
:10071000101F101F1414141F00101010F000000000
:10072000001F101010101F10101010F0100000000B
:10073000FF101010101010101010FF10000000FF1C
:10074000140000FF00FF00001F10170000FC04F45D
:1007500014141710171414F404F40000FF00F71415
:10076000141414141414F700F7141414171410109C
:100770001F101F141414F4141010F010F000001FB8
:10078000101F0000001F14000000FC140000F010F7
:10079000F01010FF10FF141414FF141010101F009D
:1007A000000000F010FFFFFFFFFFF0F0F0F0F0FF9F
:1007B000FFFF0000000000FFFF0F0F0F0F0F384476
:1007C0004438447C2A2A3E147E02020606027E0237
:1007D0007E0263554941633844443C04407E201EF8
:1007E0002006027E020299A5E7A5991C2A492A1C27
:1007F0004C7201724C304A4D4D303048784830BC14
:10080000625A463D3E494949007E0101017E2A2A3D
:100810002A2A2A44445F444440514A444040444ABE
:1008200051400000FF0103E080FF000008086B6BEF
:10083000083612362436060F090F06000018180075
:1008400000001010003040FF0101001F01011E00D8
:10085000191D1712003C3C3C3C0000000000D5F084
:100860008D14A1C881CFD9F1AF200050204230575C
:10087000414C4C005066623046494C544552005041
:1008800021623131574154455200506D42304D493B
:100890004E440A494E444956494455414C20544817
:1008A0004154200A4645454C532C2050455243455F
:1008B000495645532C200A57494C4C532C20414E45
:1008C0004420455350454349414C4C59200A524518
:1008D00041534F4E5320414E44205448494E4B53B0
:1008E0002E00506C42324C4946450A4C4956494EFE
:1008F00047205448494E472E200A4C49464520433C
:1009000041555345532048554E4745522C200A54D3
:1009100048495253542C20534C4545502C205741A4
:100920005354452C200A494C4C4E45535320414EBC
:100930004420425245415448452E200A594F5520E3
:1009400043414E204C4F53542049542E00EE202D4D
:100950002027454C454D454E54204F4627002E201C
:100960002D20464C4F4F5220284E4F5448494E4759
:100970002900DB202D204F424A20554E444552206D
:10098000435552534F52000220594F5528484F4C5F
:1009900044204120544F204D4F564529007C01678B
:1009A0000153013E01444F20594F552057414E54A9
:1009B00020544F205345450A20424F54204D4F4468
:1009C000453F20412859292F42284E2900E2018C19
:1009D000015025423130464F4F44005049434B535C
:1009E000207C204155544F5049434B555000434FB4
:1009F000414C207C204E45454400464F4F44207CCE
:100A00002041202D2054414B45004D414E2831209E
:100A1000464F4F4420454143482900424F4F4B4BDE
:100A200045455045523A003A00440059002D03957F
:100A3000028E0286027F02730269025F025B025627
:100A400002520231039C024D024C4F5700080B002A
:100A50000202020000090400000102020000052455
:100A600000100105240101010424020605240600EA
:100A7000010705810310004009040100020A00007B
:100A80000007050202400000070583024000000441
:100A900003090412010002EF0201404123368000E5
:100AA000010102030141726475696E6F204C4C4371
:100AB0000041726475696E6F204C656F6E6172647F
:100AC0006F0050406230504C4159455200503942FD
:100AD000354F55545349444500503C4234415343EB
:100AE000454E4400503E423344455343454E440036
:100AF0005300533D3D3D3D3D3D3D3D3D3D3D3D3D37
:100B00003D3D3D3D3D3D3D3D202020623D3D3D3D47
:100B10003D3D3D3D3D3D3D3D3D3D3D3D2B232B235D
:100B20003D3D3D3D3D3D3D3D3D3D3D3D3D3D3D3101
:100B3000402020683D3D3D3D3D3D3D3D3D3D3D3DF1
:100B40003D3D3D3D2020206F3D3D3D3D3D3D3D3DFA
:100B50003D3D3D3D3D3D3D3D232323233D3D3D3D2D
:100B60003D3D3D3D3D3D3D3D3D3D3D3D3D3D3D3DB5
:100B70003D3D3D3D3D3D3D3D3D3D3D3D3D3D3D00E2
:100B8000533D3D3D3D3D3D3D3D7E7E7E3D3D3D3DBC
:100B90003D3D3D3D3D3D3D3D3D3D3D3D3D7E397E07
:100BA0003D3D3D3D3D3D3D3D3D3D3D3D3D3D3D3D75
:100BB0003D2020203D3D3D3D3D3D3D3D3D3D3D3DBC
:100BC0003D3D3D3D32204020313D3D3D3D3D3D3DA3
:100BD0003D3D3D3D3D3D3D3D3D2020203D3D3D3D9C
:100BE0003D3D3D3D3D3D3D3D3D3D3D3D3D3D3E3D34
:100BF0003D3D3D3D3D3D3D3D3D3D3D3D3D3D3D3D25
:100C00003D3D3D3D3D3D3D3D3D3D3D3D3D001E2C81
:100C1000683411241FBECFEFDAE0DEBFCDBF11E094
:100C2000A0E0B1E0EAE0FEE602C005900D92A23D30
:100C3000B107D9F726E0A2EDB1E001C01D92A93CB1
:100C4000B207E1F716E0C8E0D6E004C02197FE0144
:100C50000E94DE36C730D107C9F70E94D92C0C9408
:100C6000F8360C94000080E008950F931F93CF9303
:100C7000DF938B01C091B706D091B806209791F011
:100C800086E0C93BD807A1F0E881F9810288F389A1
:100C9000E02DB801CE010995009751F0FC011783B2
:100CA0000683EC01CE01DF91CF911F910F91089542
:100CB0000C80DD81C02DE2CF0F931F93CF93DF9384
:100CC0008C01C091B706D091B806209791F086E0CC
:100CD000C93BD807A1F0E881F9810288F389E02DAA
:100CE000B801CE010995009751F0FC0117830683E6
:100CF000EC01CE01DF91CF911F910F9108950C80EF
:100D0000DD81C02DE2CFEF92FF920F931F93CF931F
:100D1000DF936115710511F420E024C0142FEB015D
:100D20007C01E881F981008CF18DE02DCB010995E2
:100D3000082FD70154968D919C91DC01ED91FC9187
:100D4000008CF18DE02D09950813E6CFE881F9813B
:100D50000688F789E02DCE01099521E018171906BC
:100D6000D9F2D4F2822FDF91CF911F910F91FF9092
:100D7000EF900895FC0180910F06882311F13FB791
:100D8000F89482E08093E9002091F200822F90E0B5
:100D90001816190614F481E090E0882339F0289899
:100DA00044E640930E064091F1004083222339F03F
:100DB0002091F200211103C02BE62093E8003FBFF1
:100DC00008958FEF9FEF08952FB7F89483E08093F5
:100DD000E9009091E800892F807295FF04C09091FE
:100DE000F20080E4891B2FBF0895809106068111CF
:100DF0000DC082E08093020684E080930306109287
:100E000005061092040681E08093060682E096E0D3
:100E10000895CF93DF931F92CDB7DEB76983DC01CE
:100E2000ED91FC910280F381E02D41E050E0BE01A4
:100E30006F5F7F4F09950F90DF91CF91089583E009
:100E40008093E9008091F200882319F08AE380936F
:100E5000E80008950E94E40690E00895CF93DF93A0
:100E60001F92CDB7DEB7FC018485958597FD08C03C
:100E70002FEF3FEF358724870F90DF91CF910895B3
:100E8000CE0101960E94BA06019719F4898190E07B
:100E9000F3CF8FEF9FEFF0CF0F931F93CF93DF939D
:100EA0001F92CDB7DEB78C01FC018485958597FF35
:100EB0000BC0CE0101960E94BA06019771F4898198
:100EC00090E0F80195878487F801848595850F90D7
:100ED000DF91CF911F910F9108958FEF9FEFF1CF89
:100EE000FC018485958597FD0BC09FB7F89482E03F
:100EF0008093E9008091F2009FBF90E001960895F1
:100F00009FB7F89482E08093E9008091F2009FBF40
:100F100090E008954091FC055091FD052091FA055F
:100F20003091FB0542175307B4F49091E800957097
:100F3000E1F39091E80092FD19C08093F100809157
:100F4000FC059091FD0501968F739927892B19F463
:100F50008EEF8093E8008091FC059091FD0501964D
:100F60009093FD058093FC0581E0089580E008954D
:100F7000EF92FF920F931F93CF93DF93F82E192FC9
:100F8000E62E042F81E0860F880F0E948A0783E0F7
:100F90000E948A07CF2DD12FEC0EFD2EF11CCE150D
:100FA000DF05B9F007FF13C0FE0184910E948A0794
:100FB000182F80E00E948A07812321968111EFCFAC
:100FC000DF91CF911F910F91FF90EF90089588814D
:100FD000EDCF81E0F5CFDF92EF92FF920F931F9359
:100FE000CF93DF93D82E8A01EB017B01E40EF51E2F
:100FF000CE15DF0559F0D7FE12C0FE0184910E9484
:101000008A0721968111F4CF0FEF1FEFC801DF91FE
:10101000CF911F910F91FF90EF90DF9008958881FD
:10102000EECF0F931F93CF93DF931F92CDB7DEB711
:1010300082E0898342E450E06DE47AE080E80E9437
:10104000EB070E94F506DC0112960D911C9101152B
:10105000110589F0D801ED91FC910280F381E02D1A
:10106000BE016F5F7F4FC801099597FD04C0F8016D
:1010700000851185ECCF89810F90DF91CF911F9171
:101080000F910895615030F02091F100FC01208310
:101090000196F8CF289884E680930E060895AF92C3
:1010A000BF92CF92DF92EF92FF920F931F93CF9355
:1010B000DF936C017B018B01040F151FEB015E01B7
:1010C000AE18BF08C017D10759F06991D601ED914C
:1010D000FC910190F081E02DC6010995892B79F7EB
:1010E000C501DF91CF911F910F91FF90EF90DF909D
:1010F000CF90BF90AF9008953FB7F8948091D905F5
:101100009091DA05A091DB05B091DC0526B5A89B8E
:1011100005C02F3F19F00196A11DB11D3FBFBA2F89
:10112000A92F982F8827BC01CD01620F711D811D49
:10113000911D42E0660F771F881F991F4A95D1F7CE
:1011400008958F929F92AF92BF92CF92DF92EF92CB
:10115000FF926B017C010E947C084B015C01C11471
:10116000D104E104F104B9F00E947C0868197909FE
:101170008A099B09683E73408105910580F321E04F
:10118000C21AD108E108F10888EE880E83E0981EA3
:10119000A11CB11CE4CFFF90EF90DF90CF90BF90E7
:1011A000AF909F908F90089565E070E080E090E0B0
:1011B0000C94A1088F929F92AF92BF92CF92DF9230
:1011C000EF92FF920F931F93CF93DF936C017B01FC
:1011D0008A0180911B01882309F45CC080910F066D
:1011E000882309F457C08091010680FF05C08091D3
:1011F000E00082608093E000E801B12C8AEFA82E25
:1012000093E0892E2AE3922E209711F4BB20D9F186
:101210000E94E40681110AC0AA94AA20D9F161E0D3
:1012200070E080E090E00E94A108EECF8C171D06D0
:1012300011F00CF08C2F9FB7F8948092E900209168
:10124000E80025FD02C09FBFDFCF282F30E0C21B82
:10125000D30BF701815020F041914093F100FACF78
:10126000E20EF31EBB2021F09092E800B12CEBCFF0
:101270008091E80085FDE7CF9092E800BB24B3940D
:10128000209709F3F3CF5D9884E68093000610164B
:1012900011063CF081E090E0F6019383828310E038
:1012A00000E0C801DF91CF911F910F91FF90EF9067
:1012B000DF90CF90BF90AF909F908F9008958FB1A7
:1012C0008095807F669B88601C9B8460089580E089
:1012D000E8EDF1E081118FEF0024819381938193F8
:1012E00081930394D1F71092E8051092E7051092CC
:1012F000EA051092E90508956F927F928F929F926E
:10130000AF92BF92CF92DF92EF92FF920F931F9313
:10131000CF93DF936D3079F0C091E705D091E80568
:101320006A30D1F41092EA051092E9052896D0931C
:10133000E805C093E70581E090E0DF91CF911F9130
:101340000F91FF90EF90DF90CF90BF90AF909F9064
:101350008F907F906F900895C090D701B090040156
:101360004091E9055091EA0585E0689FF00111245C
:10137000E25AFC4F9A01812C90E1D92E95E010E0C1
:10138000891629F0BF016F5F7F4F1491FB01BE01E9
:1013900088E0A82E10FD16C09C2CCB1014C016950A
:1013A000AA946F5F7F4FA110F5CF83942F5F3F4FBB
:1013B00096E08912E3CF4A5F5F4F5093EA0540936E
:1013C000E905B9CF9B2C2038310548F76034710509
:1013D00030F7CB0101E081FD04E080FD000F82FDCC
:1013E0000295887FD89ED0011124A20FA852BE4F2B
:1013F0008C9190FE03C0802B8C93D1CF00958023DD
:10140000FBCF81EC96E00C947C09682F81EC96E090
:101410000C947C090F931F93CF93DF938C01D0E042
:10142000C0E0F801EC0FFD1F6491662341F081ECF0
:1014300096E00E947C09892B11F02196F2CFCE0113
:10144000DF91CF911F910F9108959091EB05982313
:1014500029F49091EC05982381E009F480E0089547
:10146000E8EDF1E080E0A0E0B8E000800EBC811182
:10147000012C1197A0FDFDCF0192B9F70DB408958D
:10148000DF92EF92FF920F931F93CF93DF938C0124
:10149000EB01F12CE12CDD24D394D8011C964D9165
:1014A0005C911D971E962D913C911F97429FC00104
:1014B000439F900D529F900D1124E816F906F4F405
:1014C0005096ED91FC91C701880F991FE80FF91F05
:1014D00080819181009771F08C179D0709F4D12CC0
:1014E000DC01ED91FC910684F785E02D60E170E070
:1014F0000995F0CFBFEFEB1AFB0ACFCFE881F98156
:101500000684F785E02D60E170E0CE010995009733
:1015100021F0BC01C8010E94400ADD2071F0E88181
:10152000F9810284F385E02DCE01DF91CF911F91E7
:101530000F91FF90EF90DF900994DF91CF911F9171
:101540000F91FF90EF90DF900895089590E080E074
:10155000089590E080E008954F925F926F927F929D
:101560008F929F92AF92BF92CF92DF92EF92FF92B3
:101570000F931F93CF93DF935C013B012A01690115
:10158000CC0CDD1CDC0150968D909C9051978C0CFE
:101590009D1CF401C081D1810330110509F4A8C05C
:1015A000D0F40130110509F44AC00230110509F4E4
:1015B0007EC0CE01DF91CF911F910F91FF90EF90F0
:1015C000DF90CF90BF90AF909F908F907F906F9063
:1015D0005F904F9008950430110541F005301105DA
:1015E00041F7209731F7F182E082E3CF2097A9F00D
:1015F00056968D919C918C179D0739F0E881F98161
:101600000284F385E02DCE010995D5015096ED9128
:10161000FC91EC0DFD1D11821082F50180899189EC
:10162000FC01EC0DFD1D71826082440C551C840D83
:10163000951DDC011D921C92D0E0C0E0BACF20972E
:10164000A9F0FC01868997898C179D0739F0E881FC
:10165000F9810284F385E02DCE010995D5015096DC
:10166000ED91FC91EC0DFD1D11821082F501C089F8
:10167000D189CC0DDD1DD701ED91FC910088F18958
:10168000E02DC701099599838883F5012089318967
:10169000C20ED31ED6018D919C91DC01ED91FC917F
:1016A0000684F785E02D61E070E00995C5CF2097AD
:1016B00009F07FCFD701ED91FC910088F189E02DF1
:1016C000C7010995F40191838083D50150962D912E
:1016D0003C91C20ED31EF60180819181DC01ED9117
:1016E000FC910684F785E02D61E070E0099561CFFB
:1016F0002097A9F0E881F9810684F785E02D66E05E
:1017000070E0CE010995892B51F0D50150962D91AD
:101710003C91C20ED31EF601C081D1814ACFD501C2
:1017200050968D919C91FC01EC0DFD1D2081318125
:10173000440C551C840D951DDC012D933C93718246
:1017400060827ACF8F929F92AF92BF92CF92DF92B8
:10175000EF92FF920F931F93CF93DF93FC01EB0166
:101760008A016485758546855785649FC001659F9C
:10177000900D749F900D1124D12CC12CC816D90640
:101780006CF5A089B189A601440F551FA40FB51FA0
:10179000AD90BC9046014FEF841A940AAC16BD067A
:1017A000D9F4C4010E94CA36892B41F07901BE01E7
:1017B000CF019401A6010E94AC0A5C01C501DF9132
:1017C000CF911F910F91FF90EF90DF90CF90BF903E
:1017D000AF909F908F9008956401D0CF5E01EECFBF
:1017E000AF92BF92CF92DF92EF92FF920F931F932F
:1017F000CF93DF93EC016B018A016C857D854E856B
:101800005F85649FC001659F900D749F900D1124AA
:10181000F0E0E0E0E817F9074CF5A889B989AF01D5
:10182000440F551FA40FB51FAD90BC90AC14BD0460
:10183000D9F4CF010E94CA36892B51F07901B60143
:10184000CE019F0121503109AF010E94AC0A5C0119
:10185000C501DF91CF911F910F91FF90EF90DF9025
:10186000CF90BF90AF9008953196D4CF5601F0CF6E
:10187000CF92DF92EF92FF920F931F93CF93DF935C
:10188000DC0179011C96CD90DC901D971E968D9100
:101890009C911F97C89E8001C99E100DD89E100D67
:1018A0001124F0E0E0E0E017F1072CF550968D915F
:1018B0009C9151979F01220F331F820F931FEC01C0
:1018C0008881998186179707A1F496012E0F3F1FF3
:1018D000201731072CF48A01CD01AF010E94AC0A18
:1018E000DF91CF911F910F91FF90EF90DF90CF90FC
:1018F00008953196D8CFCB01F3CFEF92FF920F939B
:101900001F93CF93DF93DC0179011C962D913C91BD
:101910001D971E968D919C911F97289F8001299F4E
:10192000100D389F100D1124F0E0E0E0E017F107F2
:1019300014F55096CD91DC915197CF01880F991FE6
:10194000C80FD91F888199818617970791F4EF01F5
:10195000C21BD30B9E01D7FD05C08A01CD01AF018B
:101960000E94AC0ADF91CF911F910F91FF90EF90F1
:1019700008953196DBCFCB01F5CF83E5089590E054
:1019800080E0089590E080E008950895EF92FF923E
:101990000F931F93CF93DF93EC018A016B31710595
:1019A00008F0A4C06952734FFB010C94DE36F20CB0
:1019B0005A0D760D760D760D760D5C0DAE0D760D0D
:1019C000760D760D760D760D760D760D760D8A0DEB
:1019D000A00D760DA70D5A0D760D760D620D8D0DAD
:1019E000760D540D209709F44BC0E881F9810684E7
:1019F000F785E02D60E170E0CE010995F12CE12C36
:101A00000817190709F47E01E881F9810684F78532
:101A1000E02D60E170E0CE010995EC01E114F104E4
:101A200009F3E881F9810684F785E02D60E170E033
:101A3000CE010995EC01892BC1F0D801ED91FC9103
:101A40000684F785E02D61E170E0C8010995892BD6
:101A5000F9F4D801ED91FC910684F785E02D61E160
:101A600070E0C8010995892BE1F6D701ED91FC9151
:101A70000484F585E02DAE0160E170E0C7010995B1
:101A8000C801DF91CF911F910F91FF90EF900895C2
:101A9000E881F9810684F785E02D61E170E0CE01EF
:101AA0000995892BB1F2E1CF8A858F70452B09F01A
:101AB000806F8A878E01E4CF8A85877F452BC9F3A3
:101AC0008860F7CF2E813F81FA01868197812817A0
:101AD000390781F3E881F9810684F785E02D60E11B
:101AE00070E0CE010995EC01009719F410E000E0D8
:101AF000C7CFE881F9810684F785E02D61E170E0C8
:101B00000995892B99F72E813F81D80116968D91E1
:101B10009C91DDCF59874887B3CF48855985198770
:101B200008874115510509F4ABCFD801ED91FC911F
:101B30000484F585E02D60E170E0C8010995BACF15
:101B40008A858B7F452B09F4B4CF8460B2CF8A8518
:101B50008D7F452B09F4ADCF8260ABCF8A858E7F18
:101B6000452B09F0A6CF8160A4CFFC018681978127
:101B70000C945C0680E50895DC011696ED91FC91CD
:101B8000339680E04AE024912053330B2A3031050C
:101B900040F49491849F900D1124892F80533196A5
:101BA000F2CF90E00895FC01868197810396FC01B5
:101BB00024912053330B2A30310510F40196F7CFCE
:101BC0000895089580E00895EF92FF920F931F9378
:101BD000CF93DF938C017B01EA0140911406509171
:101BE0001506E881F9810484F585E02D6AE070E04E
:101BF000CE010995E881F9810484F585E02DA701DE
:101C000062E170E0CE010995E881F9810484F585EF
:101C1000E02DA80165E170E0CE01099580E0DF913B
:101C2000CF911F910F91FF90EF9008954F925F9287
:101C30006F927F928F929F92AF92BF92CF92DF92DC
:101C4000EF92FF920F931F93CF93DF93EC0180915C
:101C5000180690911906009739F0DC01ED91FC917E
:101C60000284F385E02D09958091D4019091D501EE
:101C7000009739F0DC01ED91FC910284F385E02DB1
:101C800009958091D2019091D301009739F0DC0140
:101C9000ED91FC910284F385E02D099584EC91E0AF
:101CA0000E945C069093D5018093D40188EC91E06A
:101CB0000E945C069093D3018093D201CE010E94D2
:101CC0005C0690931906809318064091D4015091B8
:101CD000D501DC01ED91FC910484F585E02D6CE0EB
:101CE00070E0099580911806909119064091D201F3
:101CF0005091D301DC01ED91FC910484F585E02D38
:101D00006DE070E009958091180690911906DC014C
:101D1000ED91FC910684F785E02D6BE070E009956C
:101D20008091180690911906DC01ED91FC910684D2
:101D3000F785E02D63E070E00995892B89F78091A4
:101D4000180690911906DC01ED91FC910684F78547
:101D5000E02D61E070E00995892B89F78091D4012D
:101D60009091D501DC01ED91FC910688F789E02D79
:101D700009957C018091D2019091D301DC01ED9114
:101D8000FC910688F789E02D09955C01BAE0C03F17
:101D9000DB0709F48CC02196512C84E1482E92ED8A
:101DA000692E92E0792E4A9CF0014B9CF00D112493
:101DB000EE0DFF1DEC0FFD1F8491803229F1FAE03A
:101DC000C03FDF0709F1882E082E000C99084091CA
:101DD000160650911706DA011696ED91FC91319690
:101DE000E491E815190409F065C0809118069091F6
:101DF0001906DC01ED91FC910484F585E02D67E185
:101E000070E0099555245394809118069091190615
:101E1000DC01ED91FC910684F785E02D64E070E033
:101E20000995EFEFEE1AFE0A892B09F0BCCF8091DD
:101E3000180690911906DC01ED91FC910684F78556
:101E4000E02D63E070E00995892B89F78091D4013A
:101E50009091D501DC01ED91FC910688F789E02D88
:101E600009957C01BFEFAB1ABB0A809118069091CF
:101E70001906DC01ED91FC910684F785E02D62E006
:101E800070E00995892B09F08ECF852DDF91CF91D8
:101E90001F910F91FF90EF90DF90CF90BF90AF9088
:101EA0009F908F907F906F905F904F900895C0EFBC
:101EB000DAE072CF02EA12E08D33B9F580911806AC
:101EC00090911906DC01ED91FC910684F785E02DD7
:101ED00066E070E00995892B89F48091180690914D
:101EE00019064091120650911306DC01ED91FC9108
:101EF0000484F585E02D66E070E0099500911806F0
:101F000010911906D801ED91FC91C484D584068402
:101F1000F785E02D66E070E0C8010995AC0167E146
:101F200070E0C801F60109956FCFF8018591949191
:101F3000FC013196E491E8151904F1F4F80185915A
:101F400094910E945C066C01DC01ED91FC9104848B
:101F5000F585E02DAC0167E070E0099580911806E9
:101F600090911906DC01ED91FC910484F585E02D3A
:101F7000A60167E170E009950E5F1F4F60167106BC
:101F8000A1F642CFCF93DF93EC0180911806909198
:101F90001906DC01ED91FC910684F785E02D63E0E4
:101FA00070E00995892B89F78091180690911906A0
:101FB000DC01ED91FC910684F785E02D61E070E095
:101FC0000995892B89F78091180690911906DC01F3
:101FD000ED91FC910684F785E02D67E170E00995AD
:101FE0000097F1F0FC01268137812C173D0779F429
:101FF0008091180690911906DC01ED91FC91068400
:10200000F785E02D67E170E0DF91CF9109940190B1
:10201000F081E02D0684F785E02D60E170E0DFCFF0
:102020008091180690911906DC01ED91FC910684CF
:10203000F785E02D64E070E00995892B21F6809109
:10204000180690911906DC01ED91FC910684F78544
:10205000E02D63E070E00995892B89F780911806DF
:1020600090911906DC01ED91FC910684F785E02D35
:1020700062E070E00995892B09F0A5CF90E080E03F
:10208000DF91CF910895EF92FF920F931F93CF931B
:10209000DF937B01EA0184EE9AE00E94C20F8C017B
:1020A000892B09F44BC0E881F9810484F585E02D82
:1020B000A7016BE170E0CE010995E816F906E9F495
:1020C000D801ED91FC910688F789E02DC8010995AA
:1020D000880F991FFC01E659F94F0190F081E02D1E
:1020E0009701AE01B801C801099582E0DF91CF9157
:1020F0001F910F91FF90EF90089540911406509119
:102100001506E881F9810484F585E02D6AE070E028
:10211000CE010995E881F9810484F585E02DA801B7
:1021200062E170E0CE010995E881F9810484F585CA
:10213000E02DA70165E170E0CE01099580E0D6CFE2
:102140000F931F93CF93DF932091160630911706BC
:102150002817390709F0B6C08091F705882309F4DC
:1021600064C0EB0188E193E00E945C068C018091E1
:10217000160690911706DC01ED91FC910484F5851B
:10218000E02DA80167E170E00995892B09F452C0A0
:102190000115110541F0D801ED91FC910284F38500
:1021A000E02DC801099589ED9AE00E94C20F8C01CB
:1021B000892B09F47AC08091180690911906DC01E8
:1021C000ED91FC910484F585E02DAE016BE170E0AA
:1021D0000995C817D907E1F5D801ED91FC9106885A
:1021E000F789E02DC8010995209116063091170650
:1021F0004091180650911906880F991FFC01E65965
:10220000F94F0190F081E02DB801C8010995E881EE
:10221000F9810484F585E02D50E040E063E170E051
:10222000CE0109950E94300A81E0DF91CF911F9184
:102230000F9108950115110541F0D801ED91FC9120
:102240000284F385E02DC801099584EE9AE0ADCFB4
:102250008091180690911906409114065091150628
:10226000DC01ED91FC910484F585E02D6AE070E0DD
:1022700009958091180690911906DC01ED91FC9169
:102280000484F585E02DA80162E170E00995809154
:10229000180690911906DC01ED91FC910484F585F6
:1022A000E02DAE0165E170E00995E881F9810484D3
:1022B000F585E02D50E040E063E170E0CE01099546
:1022C0000E94300A80E0B1CF1092E6051092E50539
:1022D0008091180690911906DC01ED91FC9106841D
:1022E000F785E02D63E070E00995892B31F080914E
:1022F000E6058F5F8093E605EBCF809118069091FD
:102300001906DC01ED91FC910684F785E02D61E072
:1023100070E00995892B31F08091E5058F5F8093FE
:10232000E505EBCF0895CF93DF93EC0162307105A3
:10233000F9F030F461307105A9F080E090E00FC051
:102340006730710539F066317105B9F78EE20E9488
:10235000050A04C08A859B85892B79F3CE01DF911C
:10236000CF91089588859985019699878887F6CFBA
:10237000888599850197F9CFEF92FF920F931F936C
:10238000CF93DF938C01EA016E30710531F06F302D
:10239000710591F1D0E0C0E027C0E881F98106889D
:1023A000F789E02DCA0109957C01D801ED91FC91D6
:1023B0000688F789E02DC80109958E159F05A4F0C0
:1023C000E881F9810688F789E02DCE010995EC01B5
:1023D000D801ED91FC910688F789E02DC801099597
:1023E000C817D907BCF6E801CE01DF91CF911F9144
:1023F0000F91FF90EF900895E881F9810688F789A1
:10240000E02DCA0109957C01D801ED91FC91068867
:10241000F789E02DC80109958E159F0524F3E88101
:10242000F9810688F789E02DCE0109957C01D80154
:10243000ED91FC910688F789E02DC8010995E81611
:10244000F90694F2A7CF83E40895FC018085918575
:10245000089580E00895FC01868197810C945C06C4
:10246000089590E080E008958F929F92AF92BF927E
:102470000F931F93CF93DF93CDB7DEB7A1970FB61E
:10248000F894DEBF0FBECDBF19A2423008F44AE077
:102490008E010F5D1F4F842E912CB12CA12CA50114
:1024A00094010E948D36E62FB901CA01EA3044F545
:1024B000E05DD801EE938D01232B242B252B79F79A
:1024C00090E080E0109769F0FD0101900020E9F7AD
:1024D0003197AF014A1B5B0BBD0189EB96E00E946F
:1024E0004F08A1960FB6F894DEBF0FBECDBFDF91A7
:1024F000CF911F910F91BF90AF909F908F900895B3
:10250000E95CD7CF682F70E090E080E04AE00C945F
:10251000341242E050E06BEC71E089EB96E00C94F1
:102520004F08CF93DF930E940A0AEC010E948912A0
:102530008C0F9D1FDF91CF910895CF92DF92EF9284
:10254000FF920F931F93CF93DF937C016A01660F75
:10255000771FEB01C35DD54F04EF11E00E946709BF
:102560001092EA051092E9051092E8051092E7052D
:10257000E114F10461F1D701ED91FC910684F78536
:10258000E02D66E170E0C70109950E948912FE0105
:10259000859194910E949112C114D10451F0D601F9
:1025A000ED91FC910488F589E02DC60109950E9402
:1025B0000A0A0E94300A0150110981F6DF91CF9179
:1025C0001F910F91FF90EF90DF90CF9008958CE9CD
:1025D00092E00E940A0AD9CFCF92DF92EF92FF9247
:1025E0000F931F93CF93DF937C018FEFE816F806CC
:1025F00041F480911C01815080931C01F12CE12C4D
:1026000009C0A1E0EA16F104C9F780911C018F5FAF
:1026100080931C018091180690911906009769F02B
:102620004091160650911706DC01ED91FC9104844F
:10263000F585E02D60E170E0099580911C01811124
:102640002CC080E89BE00E94160EC82FCC23D9F145
:102650008091180690911906409114065091150624
:10266000DC01ED91FC910484F585E02D65E070E0DE
:10267000099580911806909119064091160650917F
:102680001706DC01ED91FC910484F585E02D62E1F3
:1026900070E00995D0E0C0E000C18F3F81F482EF87
:1026A0009AE00E94160EC82F50E040E06DE070E006
:1026B00080911606909117060E949D12C7CF80EF59
:1026C0009AE00E94160E80911C01D0E0C0E08E3F7F
:1026D00071F084EE9AE00E945C06EC01E881F981D9
:1026E0000484F585E02DAC0161E170E0099589ED88
:1026F0009AE00E945C068C01DC01ED91FC9104845F
:10270000F585E02DAC0161E170E00995D801ED910E
:10271000FC91C484D5848DEC9AE00E945C06AC01E7
:1027200060E170E0C801F60109958091180690916A
:1027300019064091160650911706DC01ED91FC91A7
:102740000484F585E02D60E170E00995809118061C
:10275000909119064091140650911506DC01ED91F7
:10276000FC910484F585E02D65E070E00995809189
:102770001806909119064091120650911306DC013B
:10278000ED91FC910484F585E02D66E070E00995FB
:102790008091180690911906DC01ED91FC9104845A
:1027A000F585E02D50E040E06BE070E00995892B65
:1027B00009F4BBCF80911C018E3F09F4F5C08091D4
:1027C000180690911906DC01ED91FC910484F585C1
:1027D000E02DEF2809F49AC0AE0168E070E0099599
:1027E0008091180690911906409114065091150693
:1027F000DC01ED91FC910484F585E02D6AE070E048
:1028000009958091180690911906DC01ED91FC91D3
:102810000484F585E02DAE0162E170E009958091B8
:10282000180690911906DC01ED91FC910484F58560
:10283000E02DA80168E070E009958091180690915C
:1028400019064091140650911506DC01ED91FC919A
:102850000484F585E02D6AE070E009958091180602
:1028600090911906DC01ED91FC910484F585E02D31
:10287000A80162E170E0099580911806909119060F
:102880004091160650911706DC01ED91FC910484ED
:10289000F585E02D69E070E009958091160690912C
:1028A0001706DC01ED91FC910684F785E02D60E1CF
:1028B00070E00995909311068093100680911006A0
:1028C00090911106009709F473C0DC01ED91FC9121
:1028D0000684F785E02D61E170E00995892B89F088
:1028E000809118069091190640911006509111069A
:1028F000DC01ED91FC910484F585E02D69E070E048
:1029000009958091100690911106CBCFA80168E03F
:1029100070E009958091180690911906409114066F
:1029200050911506DC01ED91FC910484F585E02DB4
:102930006AE070E009958091180690911906DC0113
:10294000ED91FC910484F585E02DA80162E170E031
:1029500009958091180690911906DC01ED91FC9182
:102960000484F585E02DAE0168E070E00995809162
:102970001806909119064091140650911506DC0135
:10298000ED91FC910484F585E02D6AE070E00995F5
:102990008091180690911906DC01ED91FC91048458
:1029A000F585E02DAE0165CFEF2809F038CFD1CF06
:1029B00080911806909119064091140650911506C1
:1029C000DC01ED91FC910484F585E02D6AE070E076
:1029D00009958091180690911906DC01ED91FC9102
:1029E0000484F585E02DAE0162E170E009958091E7
:1029F0001806909119064091140650911506DC01B5
:102A0000ED91FC910484F585E02D6AE070E0099574
:102A10008091180690911906409112065091130664
:102A2000DC01ED91FC910484F585E02D66E070E019
:102A3000099582EC9AE00E94C20FDF91CF911F911D
:102A40000F91FF90EF90DF90CF900C9464118091E4
:102A50001606909117062817390769F480911C0112
:102A6000811106C08FEF9FEF0E94EC1281E0089564
:102A700081E090E0F9CF80E008951F93CF93DF933A
:102A8000EC01162F0E9467091092EA051092E905E1
:102A90001092E8051092E70583E593E00E940A0A88
:102AA00089E493E0111109C08091160690911706F0
:102AB0008C179D0721F480E493E00E940A0A8EE3BC
:102AC00093E00E9491128091100690911106892B3B
:102AD000B9F48091ED059091EE05892B89F4D0939E
:102AE0001106C0931006E881F9810684F785E02D70
:102AF00060E170E0CE0109959093EE058093ED05BD
:102B00008BE393E00E940A0A8091100690911106CF
:102B1000DC01ED91FC910488F589E02D09950E9476
:102B2000911288E393E00E940A0A8091ED0590914A
:102B3000EE05009749F1DC01ED91FC910684F785E3
:102B4000E02D61E170E00995892BF1F48091ED05AC
:102B50009091EE05DC01ED91FC910684F785E02D66
:102B600066E070E00995892B09F064C08091ED055D
:102B70009091EE05DC01ED91FC910488F589E02D42
:102B800009950E94911206C08091ED059091EE0585
:102B9000009781F780E10E94250A882369F18091DE
:102BA000ED059091EE05009739F1DC01ED91FC9176
:102BB0000684F785E02D61E170E00995A091ED05AF
:102BC000B091EE05892B21F0B0931106A093100669
:102BD000ED91FC9111970684F785E02D60E170E09E
:102BE000CD0109959093EE058093ED05892B21F495
:102BF000D093EE05C093ED0588E00E94250A882356
:102C000009F4B1C0112339F18091ED059091EE05E1
:102C1000009721F4809110069091110610921106F0
:102C2000109210061092EE051092ED05DF91CF91F3
:102C30001F91089586E393E00E940A0A81E393E0DE
:102C40000E940A0A8FE293E00E940A0A8DE293E052
:102C50000E940A0A8BCF80911606909117068C1756
:102C60009D0709F080C08091ED059091EE050097D9
:102C700009F479C0DC01ED91FC910684F785E02D23
:102C800066E070E00995892B09F06DC0809110060F
:102C900090911106DC01ED91FC910684F785E02D01
:102CA00060E170E00995EC018091100690911106A9
:102CB0004091ED055091EE05DC01ED91FC9104840D
:102CC000F585E02D70E060E009952097B1F0E8818E
:102CD000F9810684F785E02D61E170E0CE01099568
:102CE000892BE9F4E881F9810684F785E02D60E11C
:102CF00070E0CE010995EC01E8CF80911806909123
:102D000019064091100650911106DC01ED91FC91DD
:102D10000484F585E02D69E170E00995EC014091AE
:102D2000ED055091EE05E881F9810484F585E02DEB
:102D300068E170E0CE0109954091ED055091EE05F6
:102D400068E070E0CE010E949D1210921106109270
:102D500010061092EE051092ED0584E090E090933D
:102D60000B0180930A0184E00E94250A8823C1F0A8
:102D700010921106109210061092EE051092ED05B9
:102D80001092F2051092F1051092F4051092F305DD
:102D90001092F80584E090E090930B0180930A0173
:102DA00090E080E043CF0F931F93CF93DF932115E3
:102DB000310579F1E90188EF92E00E945C068C010F
:102DC000E881F9810484F585E02DAC0167E170E0CC
:102DD000CE010995892B19F5A80168E070E0CE01B4
:102DE0000E949D12E881F9810484F585E02DA801F7
:102DF00068E170E0CE010995809116069091170662
:102E0000C817D90731F489E090E090930B018093C3
:102E10000A0180E0DF91CF911F910F910895011574
:102E2000110551F3D801ED91FC910284F385E02D59
:102E3000C8010995E1CF0F931F93CF93DF930091C2
:102E40001606109117060817190709F046C0EB017E
:102E500087E090E090930B0180930A017093F60550
:102E60006093F5050E9467091092EA051092E90542
:102E70001092E8051092E705D801ED91FC910684C7
:102E8000F785E02D66E170E0C80109950DE21AE0D2
:102E9000F801859194910E949112E7E3FAE08591FF
:102EA00094910E949112E9E3FAE0859194910E9435
:102EB0000A0AF801859194910E949112FE01EE0F89
:102EC000FF1FE35DF54F859194910E940A0ADF91FF
:102ED000CF911F910F910C94300A50E040E065E0D3
:102EE00070E0DF91CF911F910F910C949D120F9381
:102EF0001F93CF93DF938C01232B31F18091160622
:102F00009091170668177907F9F4CA01EB01DA0105
:102F1000ED91FC910484F585E02DA80170E060E05E
:102F2000099570E060E0C8010E941B1783E293E0FE
:102F30000E945C06E881F9810484F585E02DAC01EE
:102F400068E170E0CE01099580E0DF91CF911F919B
:102F50000F910895AF92BF92CF92DF92EF92FF92BE
:102F60000F931F93CF93DF932115310509F457C0B9
:102F70007901EA018B016C0188E193E00E945C0613
:102F80005C01D701ED91FC910484F585E02DAC0145
:102F900067E170E0C70109957C01A114B10441F01B
:102FA000D501ED91FC910284F385E02DC5010995D1
:102FB000E114F104A1F170E060E0C7010E941B1769
:102FC000E881F9810484F585E02DA70170E060E0D7
:102FD000CE01099570E060E0C6010E941B17E881F0
:102FE000F9810484F585E02DA60170E060E0CE0152
:102FF00009958DE093E00E945C06EC01AC0168E06D
:1030000070E0C8010E949D12D801ED91FC910484EA
:10301000F585E02DAE0168E170E0C801099580E01A
:10302000DF91CF911F910F91FF90EF90DF90CF90A4
:10303000BF90AF900895CF92DF92EF92FF920F93DF
:103040001F93CF93DF932115310509F440C0890107
:10305000EA017C0182E093E00E945C066C01D801E9
:10306000ED91FC910484F585E02DAC0167E170E001
:10307000C80109958C01C114D10441F0D601ED912C
:10308000FC910284F385E02DC60109950115110517
:10309000F1F070E060E0C8010E941B17E881F9813F
:1030A0000484F585E02DA80170E060E0CE0109956B
:1030B00070E060E0C7010E941B17E881F981048479
:1030C000F585E02DA70170E060E0CE01099580E074
:1030D000DF91CF911F910F91FF90EF90DF90CF90F4
:1030E00008950F931F93CF93DF938C01EB01E88139
:1030F000F9810684F785E02D6AE170E0CE0109953B
:10310000892B71F150E040E06AE070E0CE010E944E
:103110009D12E881F9810484F585E02D50E040E0BE
:1031200063E170E0CE010995E881F9810684F785B5
:10313000E02D60E170E0CE010995EC01009751F0BF
:10314000E881F9810684F785E02D61E170E0099559
:10315000892BF9F280E0DF91CF911F910F910895B3
:1031600070E060E0C8010E941B17809118069091E2
:103170001906DC01ED91FC910484F585E02DA80190
:1031800070E060E009951092110610921006E2CFEF
:103190000F931F93CF93DF938A01E9018091160665
:1031A000909117062817390751F48FEF9FEF0E946F
:1031B000EC1281E0DF91CF911F910F91089520973C
:1031C00081F070E060E0C9010E941B17D801ED9109
:1031D000FC910484F585E02DAE0170E060E0C8014B
:1031E000099580E0E7CF0F931F93CF93DF938A0178
:1031F000E90180911606909117062817390751F4B6
:1032000081E090E00E94EC1281E0DF91CF911F916C
:103210000F910895209781F070E060E0C9010E944D
:103220001B17D801ED91FC910484F585E02DAE01CA
:1032300070E060E0C801099580E0E7CFCF92DF92AF
:10324000EF92FF920F931F93CF93DF93EB017A01DD
:1032500082E093E00E945C068C0180910D01853034
:1032600009F052C080910C0181114EC0E881F981B2
:103270000484F585E02DA80167E170E0CE01099591
:10328000892B09F041C0E881F9810484F585E02D9E
:10329000A80168E170E0CE010995A80168E070E03E
:1032A000CE010E949D1288E193E00E945C068C0191
:1032B00080910D01833009F458C080910D01833055
:1032C00009F075C080910C01811171C0E881F9810C
:1032D0000484F585E02DA80167E170E0CE01099531
:1032E000892B09F464C063E070E0CE010E941B17D3
:1032F000D701ED91FC910484F585E02DAE0170E0DD
:1033000060E0C701099557C080910D01853061F0DB
:103310000115110541F2D801ED91FC910284F3856C
:10332000E02DC8010995BFCF80910C018111F0CF2C
:10333000E881F9810484F585E02DA80167E170E05A
:10334000CE010995892B21F361E070E0CE010E9446
:103350001B17D701ED91FC910484F585E02DAE019A
:1033600070E060E0C70109959ECF80910C0181114A
:10337000A4CFE881F9810484F585E02DA80167E1F7
:1033800070E0CE010995892B09F097CFE881F9818A
:103390000484F585E02DA80168E170E0CE0109956F
:1033A000A80168E070E0CE010E949D1204C00115E2
:1033B000110509F044C08DED92E00E945C068C017D
:1033C00080910D01882309F443C080910D01882369
:1033D00009F460C00115110509F08DC082ED92E07D
:1033E0000E945C068C0180910D01843009F48CC030
:1033F00080910D01843009F0A9C080910C018111E8
:10340000A5C0E881F9810484F585E02DA80167E174
:1034100070E0CE010995892B09F498C062E070E054
:10342000CE010E941B17D701ED91FC910484F58514
:10343000E02DAE0170E060E0C70109958AC0D801B7
:10344000ED91FC910284F385E02DC8010995B3CF7D
:1034500080910C018111B9CFE881F9810484F5854F
:10346000E02DA80167E170E0CE010995892B09F0F4
:10347000ACCFE881F9810484F585E02DA80168E1ED
:1034800070E0CE010995A80168E070E0CE010E94CD
:103490009D12A4CF80910C0181119CCFE881F9810C
:1034A0000484F585E02DA80167E170E0CE0109955F
:1034B000892B09F48FCFD701ED91FC91C484D58479
:1034C000E881F9810484F585E02DA80167E170E0C9
:1034D000CE010995AC0170E060E0C701F6010995E5
:1034E00070E060E0C8010E941B1783E293E00E9435
:1034F0005C068C01BECFD801ED91FC910284F3856E
:10350000E02DC80109956ACF80910C01811170CF1F
:10351000E881F9810484F585E02DA80167E170E078
:10352000CE010995892B09F063CFE881F9810484E4
:10353000F585E02DA80168E170E0CE010995A801AC
:1035400068E070E0CE010E949D1203C001151105D4
:1035500051F480E0DF91CF911F910F91FF90EF9098
:10356000DF90CF900895D801ED91FC910284F3850E
:10357000E02DC8010995EDCF20E831E0FC01318351
:10358000208380899189009711F00C940835089563
:10359000CF93DF93EC010E94BC1ACE01DF91CF9153
:1035A0000C9408350C9408350C9408350C940835A7
:1035B000CF93DF93EB0188E190E00E946C34DC0153
:1035C00013961C921E92129717961C921E92169793
:1035D00015961C921E9214971092D60180E891E0E5
:1035E00011969C938E9319961C921E9218971B9677
:1035F0001C921E921A971D961C921E921C971F9643
:103600001C921E921E9751961C921E925097539692
:103610001C921E92529755961C921E925497579642
:103620001C921E925697FE0184918335A1F4219637
:103630005396DC93CE9352978091D601882339F02C
:10364000109729F0CD010E94C81AB0E0A0E0CD018A
:10365000DF91CF91089589E58093D601EDCFCF9387
:10366000DF93EB018BE090E00E946C34DC01139659
:103670001C921E92129717961C921E9216971596E0
:103680001C921E9214971092D60182E691E0119638
:103690009C938E9319961C921E9218971A961C92C0
:1036A0001A97FE0184918035C1F43296E49183E04B
:1036B000E23409F48BE01A968C931A978091D60124
:1036C000882339F0109729F0CD010E94D21AB0E07A
:1036D000A0E0CD01DF91CF91089589E58093D601D7
:1036E000EDCF2F923F924F925F926F927F928F9287
:1036F0009F92AF92BF92CF92DF92EF92FF920F9381
:103700001F93CF93DF9300D000D0CDB7DEB79C835B
:103710008B835B01342E29830A8310E000E0F12CB7
:10372000E12CAB81BC811C964D915C911D971E963E
:103730002D913C911F97429FC001439F900D529F36
:10374000900D1124081719070CF048C06801CC0C23
:10375000DD1C5096ED91FC91EC0DFD1D8081918159
:103760000097C9F1DC01ED91FC91008CF18DE02D09
:103770000995982EEB81FC8184899589DC01ED9176
:10378000FC91008CF18DE02D0995981224C0AB813D
:10379000BC815096ED91FC91EC0DFD1D80819181D5
:1037A000DC01ED91FC910688F789E02D0995E8167A
:1037B000F9068CF4EB81FC8180899189C80ED91EB1
:1037C000D6018D919C91DC01ED91FC910688F789E1
:1037D000E02D09957C010F5F1F4FA3CF32E0432EF0
:1037E000512C311003C02701F12CE12C0FEF1FEFFA
:1037F000E414F50409F4E0C0912C812CD12CC12CE7
:10380000EB81FC814485558526853785429FC00123
:10381000439F900D529F900D1124881699060CF02D
:1038200049C03401660C771C0088F189E02DE60D53
:10383000F71D808191810097C9F1DC01ED91FC9128
:10384000008CF18DE02D0995282EEB81FC81848977
:103850009589DC01ED91FC91008CF18DE02D0995AD
:10386000281224C0EB81FC8180899189680E791E21
:10387000D3018D919C91DC01ED91FC910688F78933
:10388000E02D09958E159F0589F4BFEFCB1ADB0A51
:103890000E94DD3596010D2C000C440B550B0E9447
:1038A0005B36672B682B692B09F48401EFEF8E1AC6
:1038B0009E0AA6CFF981F11121C0CD2809F472C06A
:1038C000000F111FAB81BC815096ED91FC91E00F70
:1038D000F11F80819181009739F0DC01ED91FC911D
:1038E0000284F385E02D0995AB81BC815096ED9162
:1038F000FC91E00FF11FB182A08234C0B1E0CB1681
:10390000D10409F047C0000F111FAB81BC81509654
:10391000ED91FC91E00FF11F80819181009739F0CA
:10392000DC01ED91FC910284F385E02D0995EB819A
:10393000FC8186899789E088F188E00EF11EDC0120
:10394000ED91FC910088F189E02D0995F7019183B3
:103950008083AB81BC815096ED91FC91E00FF11F0B
:10396000A080B180C5010F900F900F900F90DF9154
:10397000CF911F910F91FF90EF90DF90CF90BF906C
:10398000AF909F908F907F906F905F904F903F90FF
:103990002F900895BA81BB2329F0E2E0CE16D1041E
:1039A0000CF08ECF332021F0B1E0EB1AF10820CFDC
:1039B000EFEFEE1AFE0A1CCFB12CA12CD3CF9F92B1
:1039C000AF92BF92CF92DF92EF92FF920F931F932D
:1039D000CF93DF936831710508F074C0FB01EC01EF
:1039E000EC50F34E0C94DE360C1DED1D101E341EF3
:1039F0004B1E621D811D621D621D8F1D621D6C1E8E
:103A0000661E691E621D621D621D711D621D951D6F
:103A1000621D621DA21EC71DE881F9810684F7851B
:103A2000E02D67E170E009958C018A859B85DC01BA
:103A3000ED91FC910688F789E02D09952C853D854F
:103A4000829F7001839FF00C929FF00C1124888557
:103A50009985DC01ED91FC910688F789E02D0995A7
:103A60008E0D9F1D4C855D852E853F85429FD00123
:103A7000439FB00D529FB00D11242889398950E021
:103A800040E070E060E04A175B0794F4FA01EE0F43
:103A9000FF1FE20FF31F0190F081E02D309729F016
:103AA000E017F10711F46F5F7F4F4F5F5F4FEBCF70
:103AB000880F991F280F391FF90111821082623077
:103AC00071051CF080E090E01EC001151105D1F3D6
:103AD000D801ED91FC910284F385E02DC801099590
:103AE000F1CFE881F9810684F785E02D66E070E08A
:103AF000099501E021E040E0BC01CE010E94711B6C
:103B000002C08E899F89DF91CF911F910F91FF9005
:103B1000EF90DF90CF90BF90AF909F90089500E01E
:103B200021E040E070E060E0E8CFF12CE12C4C8532
:103B30005D852E853F85429FC001439F900D529F1A
:103B4000900D1124E816F9060CF0BCCF8701000F88
:103B5000111FE889F989E00FF11F80819181009799
:103B600091F0DC01ED91FC910684F785E02D63E195
:103B700070E00995892B39F0E889F989E00FF11F88
:103B800080819181C0CFBFEFEB1AFB0AD0CF88852F
:103B90009985DC01ED91FC910688F789E02D099566
:103BA0008C018A859B85DC01ED91FC910688F78963
:103BB000E02D09952C853D85FC01E29FC001E39F26
:103BC000900DF29F900D1124800F911F880F991F67
:103BD000E889F989E80FF91FD3CF8A859B85DC0135
:103BE000ED91FC910684F785E02D62E070E0099587
:103BF0008A859B85DC01ED91FC910688F789E02D93
:103C00000995AA85BB8597FF5FC0ED91FC9111973F
:103C10000684F785E02D61E070E0CD01099552CF73
:103C20008A859B85DC01ED91FC910684F785E02D6A
:103C300061E070E009950E851F858A859B85DC0112
:103C4000ED91FC910688F789E02D0995AA85BB8541
:103C500080179107CCF1ED91FC9111970684F785BF
:103C6000E02D62E070E0D9CF88859985DC01ED9187
:103C7000FC910684F785E02D62E070E00995888567
:103C80009985DC01ED91FC910688F789E02D099575
:103C9000A885B985B8CF88859985DC01ED91FC911F
:103CA0000684F785E02D61E070E009950C851D859F
:103CB00088859985DC01ED91FC910688F789E02DD6
:103CC0000995A885B985C4CFCD011DCF8885998573
:103CD0001ACF8A859B8517CF88859985DC01ED9160
:103CE000FC910688F789E02D09959D878C878A8548
:103CF0009B85DC01ED91FC910688F789E02D099503
:103D00009F878E872C853D85829F8001839F100D24
:103D1000929F100D1124C801880F991F0115B0E45E
:103D20001B0710F08FEF9FEF0E946C34FC010150D5
:103D3000110917FD03C011921192F9CF888B998B4D
:103D4000CE01E1CE88859985DC01ED91FC91068854
:103D5000F789E02D09956C018A859B85DC01ED9141
:103D6000FC910688F789E02D09955C0110E000E0E0
:103D7000992493948E859F85081719070CF0A2CE7D
:103D8000F12CE12C4C855D85E416F506BCF5EC14B0
:103D9000FD0439F40A151B0521F4109204019092D8
:103DA000D701409F9001419F300D509F300D11244D
:103DB0002E0D3F1DC901880F991FE889F989E80F69
:103DC000F91F80819181009789F0DC01ED91FC91D0
:103DD0000684F785E02D66E170E009959092040174
:103DE0001092D701BFEFEB1AFB0ACCCFEA89FB890F
:103DF000E20FF31F84910E94050AF0CF0E948912FE
:103E00000F5F1F4FB7CF2F923F924F925F926F92EB
:103E10007F928F929F92AF92BF92CF92DF92EF925A
:103E2000FF920F931F93CF93DF93CDB7DEB72B97FE
:103E30000FB6F894DEBF0FBECDBF9B878A87788709
:103E40006F832A0179011801DC011C964D915C9168
:103E50001D971E968D919C911F97489F9001499F99
:103E6000300D589F300D1124012BC9F050964D9103
:103E70005C9190E080E0912C812C82179307FCF4F8
:103E8000FC01EE0FFF1FE40FF51F60817181EF81D0
:103E9000F8856E177F0709F44C010196EECF4901B2
:103EA000330FAA08BB0881149104A104B10439F0AE
:103EB0000E94DD35A50194010E945B364B019401FF
:103EC000220F331F3E832D83AA85BB8550960D910B
:103ED0001C91020F131FD201ED91FC910088F18912
:103EE000E02DC2010995F80191838083D701ED91FE
:103EF000FC910484F585E02DA70167E070E0C7011F
:103F00000995E1E0F0E0FA83E98353E0852E912CF6
:103F1000A12CB12C29813A81232B09F4BEC11C822A
:103F20001B8210E000E0712C612CAA85BB851C96D9
:103F30004D915C911D971E962D913C911F97429F2C
:103F4000C001439F900D529F900D1124EB81FC8185
:103F5000E817F9070CF013C16F01CC0CDD1C50966B
:103F6000ED91FC91EC0DFD1D80819181009709F48C
:103F70007DC0DC01ED91FC91008CF18DE02D099567
:103F80008987D201ED91FC91008CF18DE02DC20169
:103F90000995B985B8136AC0EFEF6E1A7E0AC3019E
:103FA000800F911F06970CF467C02114310409F0AB
:103FB0006EC0AA85BB855096ED91FC915197EC0D92
:103FC000FD1D60817181970145E050E0CD010E94A7
:103FD0007D0CC301800F911F06970CF46EC0211455
:103FE000310409F075C0AA85BB855096ED91FC910E
:103FF0005197EC0DFD1D60817181970145E050E006
:10400000CD010E94380CC301800F911F06970CF45C
:1040100075C02114310409F07CC0AA85BB85509677
:10402000ED91FC915197EC0DFD1D6081718197011F
:1040300045E050E0CD010E94F00BC301800F911FBD
:1040400006970CF47CC02114310409F083C0EA8582
:10405000FB8580899189C80ED91ED6016D917C910E
:10406000970145E050E0CF010E94A20BEB81FC815B
:104070003196FC83EB8359CF0E94DD35A501940175
:104080000E945B36672B682B692B09F48ECFAA85BB
:10409000BB855096ED91FC915197EC0DFD1D608113
:1040A00071819B0142E050E0CD010E947D0C892B83
:1040B00009F08FCF0F5F1F4F8CCF0E94DD35A50118
:1040C00094010E945B36672B682B692B09F487CF1C
:1040D000AA85BB855096ED91FC915197EC0DFD1D85
:1040E000608171819B0142E050E0CD010E94380C5B
:1040F000892B09F088CF0F5F1F4F85CF0E94DD35D8
:10410000A50194010E945B36672B682B692B09F48B
:1041100080CFAA85BB855096ED91FC915197EC0D0F
:10412000FD1D608171819B0142E050E0CD010E9444
:10413000F00B892B09F081CF0F5F1F4F7ECF0E94BC
:10414000DD35A50194010E945B36672B682B692B36
:1041500009F479CFEA85FB8580899189C80ED91E3B
:10416000D6016D917C919B0142E050E0CF010E940D
:10417000A20B892B09F07ACF0F5F1F4F77CF011564
:10418000110551F4F5E06F16710424F42114310483
:1041900009F4C4C01A821982060D171D07301105D3
:1041A0000CF4B8CED12CC12C1A821982AA85BB85F9
:1041B0001C964D915C911D971E962D913C911F97D9
:1041C000429FC001439F900D529F900D1124C8162D
:1041D000D9060CF09FCE8601000F111F5096ED916D
:1041E000FC91E00FF11F80819181009709F451C08B
:1041F000DC01ED91FC91008CF18DE02D0995782E7C
:10420000D201ED91FC91008CF18DE02DC201099558
:1042100078123FC0AA85BB855096ED91FC915197CD
:10422000E00FF11F60817181970145E050E0CD0101
:104230000E947D0CAA85BB855096ED91FC9151970B
:10424000E00FF11F60817181970145E050E0CD01E1
:104250000E94F00BAA85BB855096ED91FC91519779
:10426000E00FF11F60817181970145E050E0CD01C1
:104270000E94A20BEA85FB8580899189080F191F8E
:10428000D8016D917C91970145E050E0CF010E94EB
:10429000380CBFEFCB1ADB0A89CF0A851B85EF816B
:1042A000F885EF2B09F1AA85BB855096ED91FC911D
:1042B0002D813E81E20FF31F80819181009739F0BB
:1042C000DC01ED91FC910284F385E02D0995AA852E
:1042D000BB855096ED91FC912D813E81E20FF31F3D
:1042E0008F81988591838083C8012B960FB6F894AF
:1042F000DEBF0FBECDBFDF91CF911F910F91FF9019
:10430000EF90DF90CF90BF90AF909F908F907F9075
:104310006F905F904F903F902F90089500E010E0D5
:10432000BECF7F928F929F92AF92BF92CF92DF9239
:10433000EF92FF920F931F93CF93DF93EC017A01DB
:104340006D31710508F02DC067557E4DFB010C9451
:10435000DE36E42257256A257D259025DE24E924D2
:10436000D1217D2494249824FE2451255425D12143
:10437000D1210E24D121F424BE23D1212423A3252D
:104380002A25D121A622D1211922C621E881F9812D
:104390000484F585E02D69E170E009958C01892B95
:1043A00019F4F12CE12CB1C2E881F9810684F7857A
:1043B000E02D63E070E0CE010995892BA9F7E88133
:1043C000F9810684F785E02D61E070E0CE01099562
:1043D000892BA9F7E881F9810684F785E02D67E14B
:1043E00070E0CE0109950817190709F48EC2E8811B
:1043F000F9810684F785E02D64E070E0CE0109952F
:10440000892B41F7E881F9810684F785E02D63E087
:1044100070E0CE010995892BA9F7E881F98106841E
:10442000F785E02D62E070E0CE010995892B91F6C9
:10443000B8CFE881F9810684F785E02D67E170E067
:1044400009958C01E881F9810684F785E02D67E103
:1044500070E0CE010995980150E040E0BC01CE012A
:104460000E947D0CE816F90609F44FC2E881F98133
:104470000684F785E02D67E170E0CE0109958C0197
:10448000E881F9810684F785E02D67E170E0CE01CF
:104490000995980150E040E0BC01CE010E94F00B6C
:1044A000E816F90609F431C2E881F9810684F78536
:1044B000E02D67E170E0CE0109958C01E881F9817A
:1044C0000684F785E02D67E170E0CE01099598013B
:1044D00050E040E0BC01CE010E94A20BE816F906B4
:1044E00009F413C2E881F9810684F785E02D67E1BC
:1044F00070E0CE0109958C01E881F9810684F78589
:10450000E02D67E170E0CE010995980150E040E0B0
:10451000BC01CE010E94380CE816F90609F4F5C179
:10452000E881F9810684F785E02D67E170E0CE012E
:10453000DF91CF911F910F91FF90EF90DF90CF907F
:10454000BF90AF909F908F907F90099410E000E013
:104550004C855D852E853F85429FC001439F900D10
:10456000529F900D1124081719070CF01ACF6801FB
:10457000CC0CDD1CE889F989EC0DFD1D8081918151
:104580000097F9F0DC01ED91FC910684F785E02DB0
:1045900060E170E00995E889F989EC0DFD1DC080A6
:1045A000D180009771F08E159F0509F40EC4DC01CF
:1045B000ED91FC910684F785E02D60E170E00995AE
:1045C000F0CF0F5F1F4FC4CF452B09F4EACE10E0A8
:1045D00000E04C855D852E853F85429FC001439F4D
:1045E000900D529F900D11240817190744F568018A
:1045F000CC0CDD1CE889F989EC0DFD1D80819181D1
:104600000097D1F0DC01ED91FC910484F585E02D5B
:10461000A70170E060E00995E889F989EC0DFD1DBE
:10462000808191818E159F0539F48E899F89E816C6
:10463000F90611F0118210820F5F1F4FCACFB70128
:10464000CE010E94400AADCE9A0150E040E0B70191
:104650000E947D0C6C014FE7BC01CE010E948306D5
:10466000182F0FE7882351F0D601ED91FC910688B1
:10467000F789E02DC6010995082F11E0970150E058
:1046800040E0B701CE010E94380C6C01402FBC0104
:10469000CE010E948306882351F0D601ED91FC9152
:1046A0000688F789E02DC6010995082F12E09701C9
:1046B00050E040E0B701CE010E94F00B6C01402FAA
:1046C000BC01CE010E948306882351F0D601ED91F2
:1046D000FC910688F789E02DC6010995082F13E0A3
:1046E000970150E040E0B701CE010E94A20B6C019F
:1046F000402FBC01CE010E948306882381F0D601A1
:10470000ED91FC910688F789E02DC6010995970186
:1047100043E050E0B701CE010E94A20B10C011117E
:1047200009C00E94DD3525E030E040E050E00E9405
:104730005B36162F123091F020F4113039F07E01E3
:10474000E4C0133099F01430D1F7E1CF970143E082
:1047500050E0B701CE010E947D0CF1CF970143E0FC
:1047600050E0B701CE010E94380CE9CF970143E039
:1047700050E0B701CE010E94F00BE1CFF12CE12C0B
:104780004C855D852E853F85429FC001439F900DDE
:10479000529F900D1124E816F9060CF002CE870105
:1047A000000F111FE889F989E00FF11F80819181C5
:1047B000009781F1DC01ED91FC910484F585E02DF9
:1047C000AC0163E170E00995E889F989E00FF11F18
:1047D00080819181DC01ED91FC910684F785E02DCB
:1047E00060E170E009958C010097A1F0DC01ED918A
:1047F000FC910484F585E02DAC0163E170E009953E
:10480000D801ED91FC910684F785E02D60E170E020
:10481000C801E8CFBFEFEB1AFB0AB2CF8C899D89A4
:10482000009739F0DC01ED91FC910284F385E02DD5
:1048300009951D8A1C8A10E000E04C855D852E8557
:104840003F85429FC001439F900D529F900D1124C0
:10485000081719070CF043C06801CC0CDD1CE8896F
:10486000F989EC0DFD1D80819181009771F18E1504
:104870009F0559F12E893F898217930731F1C701AE
:10488000BB24B394E889F989EC0DFD1D009781F0F4
:10489000208131812817390709F4B12CDC01ED9111
:1048A000FC910684F785E02D60E170E00995EACF80
:1048B000BB2059F040815181E881F9810484F5855C
:1048C000E02D70E060E0CE01099588899989C80ED5
:1048D000D91EF601118210820F5F1F4FAECF8E8955
:1048E0009F89009739F0DC01ED91FC910284F385FA
:1048F000E02D09951F8A1E8A22CF00E020E041E0CA
:10490000B701CE010E94711B7C01C701DF91CF91DD
:104910001F910F91FF90EF90DF90CF90BF90AF90DD
:104920009F908F907F90089500E020E040E0E8CFD6
:1049300010E000E04C855D852E853F85429FC001DB
:10494000439F900D529F900D1124081719070CF0EA
:10495000F6CE6801CC0CDD1CE889F989EC0DFD1D53
:1049600080819181009739F1DC01ED91FC91008CFF
:10497000F18DE02D0995B82ED701ED91FC91008CB9
:10498000F18DE02DC7010995B81215C0E889F989A4
:10499000EC0DFD1D80819181009739F0DC01ED91D6
:1049A000FC910284F385E02D0995E889F989EC0DE5
:1049B000FD1D118210820F5F1F4FBCCFDA01ED91F8
:1049C000FC910088F189E02DCA0109959D8B8C8BA3
:1049D000B6CEDA01ED91FC910088F189E02DCA0193
:1049E00009959F8B8E8BABCE2E893F894C895D8933
:1049F00001E010E0B7010E94031F86CF2E893F8996
:104A00004C895D8910E000E0B7010E94031F7C0122
:104A10002C853D858E859F85289FA001299F500D5F
:104A2000389F500D112490E080E0841795070CF01A
:104A30006CCFE889F9899C01220F331FE20FF31F25
:104A400020813181232B21F42E893F8931832083DA
:104A50000196EBCF8A859B85DC01ED91FC91068860
:104A6000F789E02D09952C853D85829F8001839FE4
:104A7000100D929F100D112488859985DC01ED9110
:104A8000FC910688F789E02D0995800F911F880F0A
:104A9000991F08891989800F911FFC01F182E0821A
:104AA00034CF598748877DCC5B874A877ACC9A0177
:104AB00043E050E0B701DF91CF911F910F91FF903C
:104AC000EF90DF90CF90BF90AF909F908F907F90AE
:104AD0000C947D0C9A0143E050E0B701DF91CF9137
:104AE0001F910F91FF90EF90DF90CF90BF90AF900C
:104AF0009F908F907F900C94380C9A0143E050E087
:104B0000B701DF91CF911F910F91FF90EF90DF9050
:104B1000CF90BF90AF909F908F907F900C94F00BB0
:104B20009A0143E050E0B701DF91CF911F910F91BF
:104B3000FF90EF90DF90CF90BF90AF909F908F90BD
:104B40007F900C94A20B88859985DC01ED91FC91F6
:104B50000688F789E02D09955C018A859B85DC0133
:104B6000ED91FC910688F789E02D09954C0110E044
:104B700000E0772473948E859F85081719070CF041
:104B800010CCD12CC12C2C853D85C216D3060CF03F
:104B900017C1CA14DB0439F40815190521F4109261
:104BA00004017092D701209FC001219F900D309F7A
:104BB000900D11248C0D9D1D880F991F288939890E
:104BC000820F931FFC01608171816115710509F4E9
:104BD00085C06E157F05F9F48C859D85089F900131
:104BE000099F300D189F300D11242C0D3D1DC9015A
:104BF000880F991FE889F989E80FF91F8081918151
:104C0000009709F08CC0EA89FB89E20FF31F8491B9
:104C10000E94050A8DC09B0150E040E0CE010E9439
:104C20007D0CE816F906C1F22C853D85029FC00176
:104C3000039F900D129F900D11248C0D9D1D880FC8
:104C4000991F28893989820F931FDC016D917C910E
:104C50009B0150E040E0CE010E94380CE816F906B6
:104C600009F4BACF2C853D85029FC001039F900DAA
:104C7000129F900D11248C0D9D1D880F991F28895E
:104C80003989820F931FFC01608171819B0150E083
:104C900040E0CE010E94A20BE816F90609F49CCF71
:104CA0002C853D85029FC001039F900D129F900DA2
:104CB00011248C0D9D1D880F991F28893989820F19
:104CC000931FDC016D917C919B0150E040E0CE018F
:104CD0000E94F00BE816F90609F47ECF2C853D857D
:104CE000029FC001039F900D129F900D11248C0D07
:104CF0009D1D880F991F28893989820F931FFC01F8
:104D000080819181009799F580E20E94050A709256
:104D100004011092D701BFEFCB1ADB0A34CFDC01BC
:104D2000ED91FC910684F785E02D66E170E0099530
:104D30002C853D85029FC001039F900D129F900D11
:104D400011248C0D9D1D880F991F28893989820F88
:104D5000931FFC0180819181DC01ED91FC91048421
:104D6000F585E02DAC0167E070E00995D0CFDC015E
:104D7000ED91FC910684F785E02D67E070E00995E0
:104D8000892B11F62C853D85029FC001039F900D54
:104D9000129F900D11248C0D9D1D880F991F28893D
:104DA0003989820F931FFC0180819181DC01ED9193
:104DB000FC910684F785E02D66E170E00995A7CFA8
:104DC0000E9489120F5F1F4FD6CE76019ECDCF93E2
:104DD000DF93FB013697E531F10538F5EC01ED5035
:104DE000F94D0C94DE36322736271527152715275F
:104DF00015271527152715271527082712271527E3
:104E00000D27152715273A271527152715271827A2
:104E100088859985DF91CF9108958A8581FF05C0A6
:104E2000CE01F8CF8A8582FDFBCF90E080E0F2CF03
:104E30002A85822F82958F70815030E1839FC00137
:104E400011242F70282B2A87CE0122952F7011F75D
:104E5000E881F9810484F585E02DAE016AE170E016
:104E60000995E3CF8A8583FDDBCFDFCF8A8580FD7F
:104E7000D7CFDBCFEE81FF8131968491803421F44E
:104E800082E00E94050ACCCF8491813611F481E042
:104E9000F8CF8491863611F483E0F3CF8491833286
:104EA00011F483E1EECF84918F3611F486E0E9CFDF
:104EB0008491883611F48EE8E4CF8491823611F41F
:104EC00082E9DFCF84918E3311F48FE1DACF8491C0
:104ED0008C3311F48EE1D5CF8491893311F48FEDA9
:104EE000D0CF8491813311F48EEDCBCF8491823376
:104EF00011F48DEDC6CF84918E3781F40E94DD359B
:104F000022E030E040E050E00E945B36672B682BE7
:104F1000692B11F080EBB5CF81EBB3CF8491B1CF8A
:104F2000BF92CF92DF92EF92FF920F931F93CF9396
:104F3000DF93B0901C012FEFB21609F478C0EA019C
:104F40008B010E94DD356B017C014091140650916C
:104F50001506E881F9810484F585E02D6AE070E0AA
:104F6000CE0109952B2D30E02B5F3F4F032E000C17
:104F7000440B550BC701B6010E945B366F3F7F4F54
:104F800009F055C089EE92E00E94C20F892B09F00A
:104F90004EC08DEC9AE00E94C20F892B09F447C0E5
:104FA000E881F9810484F585E02D50E040E06BE173
:104FB00070E0CE010995892BD1F589EE92E00E942F
:104FC0005C067C01AC0168E070E090E080E00E944B
:104FD0009D12E881F9810484F585E02DA80162E144
:104FE00070E0CE010995E881F9810484F585E02D12
:104FF000A70169E070E0CE010995D701ED91FC9120
:105000000484F585E02DA70167E070E0C7010995EC
:10501000D701ED91FC91C485D58582EE98E00E9480
:105020005C06AC0160E170E0C701FE01099580E01B
:10503000DF91CF911F910F91FF90EF90DF90CF9074
:10504000BF900895DC01ED91FC910484F585E02D7D
:1050500050E040E063E170E0099586E090E09093D5
:105060000B0180930A016091000170910101809110
:105070000201909103016F5F7F4F8F4F9F4F6093AD
:1050800000017093010180930201909303012AE0D3
:1050900030E040E050E00E948D3660930C016111D9
:1050A00005C080910D018F5F80930D0180910D01EE
:1050B0008A3039F480910E0110920D018F5F809338
:1050C0000E0180910E018A3009F049C010920E0144
:1050D00080910F018F5F80930F018091F9052091DE
:1050E0000701909108013BEA239F312D1124369549
:1050F000409106018217D8F0290F20930801340F40
:10510000309306010E94DD358091F90590910701E9
:10511000891B8093F90580910801909109018917F5
:10512000D8F48F5F80930901109208010895980FB9
:1051300090930801622F0E94BE36839F400D112478
:10514000409306012150209307012A3010F40E9459
:10515000DD351092F905DFCF891B80930801089592
:105160000F931F93CF93DF938B018CE090E00E940D
:105170006C34EC011B821A821F821E821D821C82EB
:105180001092D60184E491E0998388831986188669
:1051900081E090E09B878A87F8018081833431F435
:1051A000C80101960E9435360097A1F489E58093E5
:1051B000D6018091D601882339F0209729F0CE01BD
:1051C0000E94D41AD0E0C0E0CE01DF91CF911F91B0
:1051D0000F91089599878887ECCFEF92FF920F93F4
:1051E0001F93CF93DF937C018CE090E00E946C349E
:1051F000EC011B821A821F821E821D821C82109269
:10520000D60184E491E0998388831986188681E029
:1052100090E09B878A878FEC91E00E94353600975B
:10522000B9F489E58093D60101E010E0F7018085AB
:105230009185081719077CF4E881F9810684F785C0
:10524000E02D61E070E0CE0109950F5F1F4FEECFBA
:1052500099878887E9CFCE01DF91CF911F910F9178
:10526000FF90EF9008951F920F920FB60F921124A6
:105270008F939F938091E1009091E100937F9093B1
:10528000E10083FF0FC01092E90091E09093EB00E2
:105290001092EC0092E39093ED0010920F0698E0CC
:1052A0009093F00082FF22C093E09093E9009091E8
:1052B000F200992319F09AE39093E8009091000688
:1052C000992341F09091000691509093000691111E
:1052D00001C05D9A90910E06992341F090910E06BF
:1052E000915090930E06911101C0289A84FF18C026
:1052F0008091E2008E7E81608093E2008091E100E7
:105300008F7E8093E100809101068E7E8061809384
:1053100001069F918F910F900FBE0F901F901895CF
:1053200080FFF7CF8091E2008E7E80618093E20063
:105330008091E1008E7E8093E100809101068E7E57
:105340008160E5CF1F920F920FB60F921124CF927A
:10535000DF92EF92FF920F931F932F933F934F9300
:105360005F936F937F938F939F93AF93BF93EF93CD
:10537000FF93CF93DF93CDB7DEB76C97DEBFCDBF82
:105380001092E9008091E80083FF25C068E0CE011B
:1053900045960E94420882EF8093E8008D8987FF3E
:1053A00039C09091E80090FFFCCF982F907609F0DB
:1053B00034C19E894F89588D2F89F88C911131C045
:1053C000803861F58091FF058093F1001092F10023
:1053D0008EEF8093E8006C960FB6F894DEBF0FBE98
:1053E000CDBFDF91CF91FF91EF91BF91AF919F9191
:1053F0008F917F916F915F914F913F912F911F916D
:105400000F91FF90EF90DF90CF900F900FBE0F9015
:105410001F9018959EEF9093E800C7CF1092F1006F
:10542000D5CF913059F48111D3CF4130510581F658
:105430008091FF058D7F8093FF05CACF933049F49B
:105440008111C6CF4130510519F68091FF05826068
:10545000F2CF953041F48091E80080FFFCCF2068C6
:105460002093E300B5CF963009F0A9C00B8D1C8DB9
:1054700022E01092E9001092FD051092FC05F21254
:105480002EC01092FB051092FA050E9411081F828F
:1054900099E09983FA8291E09E8390EA98879AEF47
:1054A00099872091FC053091FD05275F3F4F3C8394
:1054B0002B838D831092E9001092FD051092FC055C
:1054C0001093FB050093FA0549E050E0BE016F5FC1
:1054D0007F4F80E00E94EB070E94110879CF109364
:1054E000FB050093FA050E94F506DC0112960D916A
:1054F0001C910115110509F451C1D801ED91FC91E0
:105500000480F581E02DBE016B5E7F4FC8010995D7
:10551000009709F03EC1F80100851185EACFF3E05C
:10552000FF120EC08F89882309F440C0823061F4D5
:1055300040E860E181EB9AE00E94B807811148CF12
:1055400081E28093EB0047CF813029F440E86BE0A3
:1055500085EA9AE0F1CF833099F70E94F506DC01E5
:105560001296ED90FC908E010F5F1F4F6801E114C1
:10557000F10479F0D701ED91FC910680F781E02DDF
:10558000B801C7010995080F111DF701E084F184E6
:10559000EECFD8011C92F60101900020E9F7319777
:1055A000BF016C197D0940E0C601C6CF6FE87AE003
:1055B000FB01449150E080E80E94EB0709CF97304F
:1055C00009F4BECF983021F481E08093F10000CF40
:1055D000993009F0FDCE837009F0B2CFE8E2F1E036
:1055E00081E031E096E32191222371F08093E9007C
:1055F0003093EB00DF0111972C912093EC009093F6
:10560000ED008F5F873079F78EE78093EA00109284
:10561000EA008F8980930F06DBCE8B8D9C8D1092D4
:10562000E9001092FD051092FC059093FB05809314
:10563000FA05898D811192C08E899D89913A49F42C
:10564000813209F07DCF47E050E064E171E080E015
:10565000B3CF913209F074CF833269F48F89988D7A
:10566000B0E0A0E08093100190931101A09312018B
:10567000B0931301ADCE803269F48091E80082FFCF
:10568000FCCF67E084E191E00E9442088BEF8093B9
:10569000E8009ECE823209F09BCE8F8980931B0159
:1056A000EEEFFFE7859194918B3F9C4D51F1E0E047
:1056B000F8E08091140190911501A0911601B0912C
:1056C0001701803B9440A105B105F1F480911B01C5
:1056D00080FD1AC0EE3F8AE0F80789F587E797E773
:1056E00091838083809160008093FE0588E19BE038
:1056F0000FB6F894A895809360000FBE9093600059
:1057000067CEEEEFFAE0D5CF80819181873797475A
:1057100009F05ECEA895809160008861809360005A
:105720008091FE0580936000EE3F2AE0F20789F049
:105730008091FE0A9091FF0A9183808349CE8081F7
:1057400091818737980751F29093FF0A8093FE0A60
:10575000C5CF1092FF0A1092FE0A3ACE0E94F506BB
:10576000DC0112960D911C910115110509F4E8CE8A
:10577000D801ED91FC910190F081E02DBE016B5EAE
:105780007F4FC8010995811123CEF801008511854D
:10579000EBCF181619060CF41BCED2CEF1E0FF1297
:1057A000BECE63E97AE004CF1F920F920FB60F923C
:1057B00011242F933F938F939F93AF93BF93809127
:1057C000DD059091DE05A091DF05B091E0053091F7
:1057D000D80523E0230F2D3758F50196A11DB11DE3
:1057E0002093D8058093DD059093DE05A093DF0517
:1057F000B093E0058091D9059091DA05A091DB0581
:10580000B091DC050196A11DB11D8093D90590933F
:10581000DA05A093DB05B093DC05BF91AF919F91B2
:105820008F913F912F910F900FBE0F901F90189561
:1058300026E8230F0296A11DB11DD2CFCF93DF938F
:10584000EAE1F6E01382128288EE93E0A0E0B0E095
:1058500084839583A683B78382E391E091838083D9
:105860008FEF9FEF95878487EFE9F6E0138212822E
:10587000178216828091B7069091B806958384832B
:1058800080E891E0918380831186108613861286CA
:105890001586148617861686118A108A138A128A2C
:1058A000158A148A178A168AC4E9D6E01B821A82DE
:1058B0001F821E82FD83EC8382E691E099838883B8
:1058C000198618861A86A8E8B6E013961C921E92CE
:1058D000129717961C921E9216971596DC93CE93EC
:1058E000149784E491E011969C938E9319961C92E0
:1058F0001E92189781E090E01B969C938E931A97C6
:10590000EAE6F6E080EA90E19183808384EE9DE010
:10591000938382838EE199E19583848383EF98E179
:105920009783868388EC98E19187808780E997E266
:105930009387828783E490E19587848783E396E069
:105940009787868783ED96E1918B808B81E798E13D
:10595000938B828B8BE198E1958B848B8AEA97E11C
:10596000978B868B87E797E1918F808F82EE9DE002
:10597000938F828F87E295E1958F848FE1ECF6E03B
:10598000138212828CEB91E091838083E9EBF6E045
:10599000138212828EE991E09183808317821682AE
:1059A000B583A483F093B806E093B706DF91CF9157
:1059B0000895CF93DF931F92CDB7DEB7789484B567
:1059C000826084BD84B5816084BD85B5826085BDFB
:1059D00085B5816085BD80916E00816080936E0089
:1059E000109281008091810082608093810080917B
:1059F000810081608093810080918000816080932C
:105A0000800080919100826080939100809191004C
:105A100081608093910080919000816080939000DC
:105A20008091C10084608093C1008091C100826038
:105A30008093C1008091C10081608093C1008091FA
:105A4000C30081608093C3008091C0008260809316
:105A5000C0008091C20081608093C20080917A0072
:105A6000846080937A0080917A00826080937A00CB
:105A700080917A00816080937A0080917A008068BA
:105A800080937A0010920F061092FF051092010683
:105A90008091D70081608093D70080EA8093D800FE
:105AA00089B5806189BD89B5826089BD09B400FE70
:105AB000FDCF61E070E080E090E00E94A10880915D
:105AC000D8008F7C80618093D8008091E000807F37
:105AD0008093E0008091E1008E7E8093E1008DE074
