:100000000C9484060C94AC060C94AC060C94AC06D0
:100010000C94AC060C94AC060C94AC060C94AC0698
:100020000C94AC060C94AC060C94ED280C945C2952
:100030000C94AC060C94AC060C94AC060C94AC0678
:100040000C94AC060C94AC060C94AC060C94AC0668
:100050000C94AC060C94AC060C94AC060C948E2B51
:100060000C94AC060C94AC060C94AC060C94AC0648
:100070000C94AC060C94AC060C94AC060C94AC0638
:100080000C94AC060C94AC060C94AC060C94AC0628
:100090000C94AC060C94AC060C94AC060C94AC0618
:1000A0000C94AC060C94AC060C94AC065038423060
:1000B000686F7573650050374230686F75736500FF
:1000C00050364230686F7573650050354230686F46
:1000D0007573650050344230686F75736500503336
:1000E0004230686F7573650050324238626F6F6BD3
:1000F0006B65657065720050314230686F7573656D
:1001000000506E62304E5043005074423661647647
:10011000656E747572657200506342306D696E650C
:1001200072005048423068697474657200504642EB
:100130003066696C6C65720050424230626F737356
:10014000005054423074687265617400502462300B
:10015000676F6C6400503D42306661726D00502CD8
:100160004230736F696C00502B4230646F6F7200C5
:100170005025423070697400502142306379616EBD
:10018000005021423067726179005021423070691D
:100190006E6B005021423062726F776E00502142C8
:1001A000306F72616E6765005021423070757270F9
:1001B0006C650050214230677265656E00502142C7
:1001C000306D696C6B0050214230626C756520693E
:1001D0006E6B0050214230726564005021423062E3
:1001E0006C61636B0050214238626F6F7A6500501A
:1001F0007E42306F696C00507E4230626C6F6F647B
:1002000000507E42307261772077617465720064BD
:10021000657374726F79EEDB206966204C4F57204E
:100220006D656D0073686F77EEDB204F52206F6E47
:10023000EEDB757365EE02006E657874206F776E85
:100240006572EE0220616D6F6E67EE020077616984
:1002500074206F6E65206D696E75746500496E203F
:1002600072657761726420796F752063616E0A6FC1
:100270007264657220666F6F6420616E64207069BD
:10028000636B730A66726F6D206F74686572207697
:10029000696C6C616765730A666F72206E6578744D
:1002A00020796561722E0A0A476F6F64206C75634E
:1002B0006B2100596F75206C69766520696E20632B
:1002C0006F6D6D756E6973740A6D696E696E672006
:1002D00076696C6C6167652E0A0A312079656172F6
:1002E00020657175616C203920646179732E0A0A6A
:1002F000596F7572207461736B20746F2066756C12
:1003000066696C6C0A616E6E75616C20636F616CFE
:10031000206D696E696E670A706C616E2E005A7A84
:100320007A0064726F7000676F74006E6F74206F74
:10033000776E657200617761792066726F6D006417
:10034000697361707065617265640064726F777360
:1003500079007468697273747900746F696C65747C
:100360000068756E677279007363656E6500B00B27
:10037000DB0BD00B5E09700167010102BB0BFA09B0
:10038000A209F5030B04C103B6035E0155014C013C
:100390008109410138012D01220172096709C40B4D
:1003A000180109010101F700E800DE00D400CA00CD
:1003B000C000B600AC0050744237746F696C65744D
:1003C00000506442313264726F77737900E501DB6B
:1003D00001D301C601BD01B301A8019D0193018AAA
:1003E00001810178010102F701EF015054423133DC
:1003F0007069636B005068423068756E67657200A3
:1004000050214230626F74746C65005074423074D5
:10041000686972737400505A4239736C6565700074
:100420002000290062696E64002800192000EE2077
:10043000005D002C412D6F776E6572002C412D738D
:10044000656C656374005B444F574E2D6E65787420
:100450000000000000003E5B4F5B3E3E6B4F6B3E7A
:100460001C3E7C3E1C183C7E3C181C577D571C1CB7
:100470005E7F5E1C00183C1800FFE7C3E7FF001812
:10048000241800FFE7DBE7FF30483A060E262979FB
:100490002926407F050507407F05253F5A3CE73C5C
:1004A0005A7F3E1C1C08081C1C3E7F14227F22140D
:1004B0005F5F005F5F06097F017F006689956A6064
:1004C0006060606094A2FFA29408047E040810207B
:1004D0007E201008082A1C08081C2A08081E101074
:1004E00010100C1E0C1E0C30383E3830060E3E0E1E
:1004F00006000000000000005F0000000700070089
:10050000147F147F14242A7F2A122313086462366E
:10051000495620500008070300001C2241000041FA
:10052000221C002A1C7F1C2A08083E080800807034
:100530003000080808080800006060002010080467
:10054000023E5149453E00427F40007249494946BA
:100550002141494D331814127F1027454545393C38
:100560004A49493141211109073649494936464925
:1005700049291E0000140000004034000000081447
:1005800022411414141414004122140802015909C0
:10059000063E415D594E7C1211127C7F4949493615
:1005A0003E414141227F4141413E7F494949417F8E
:1005B000090909013E414151737F0808087F004144
:1005C0007F41002040413F017F081422417F40408D
:1005D00040407F021C027F7F0408107F3E41414162
:1005E0003E7F090909063E4151215E7F09192946CE
:1005F000264949493203017F01033F4040403F1FE4
:100600002040201F3F4038403F6314081463030418
:100610007804036159494D43007F41414102040878
:100620001020004141417F0402010204404040404B
:1006300040000307080020545478407F2844443881
:100640003844444428384444287F385454541800CB
:10065000087E090218A4A49C787F0804047800444A
:100660007D40002040403D007F1028440000417F35
:1006700040007C047804787C0804047838444444BE
:1006800038FC1824241818242418FC7C08040408B6
:10069000485454542404043F44243C4040207C1CCF
:1006A0002040201C3C4030403C44281028444C90C2
:1006B00090907C4464544C4400083641000000771C
:1006C0000000004136080002010204023C262326F5
:1006D0003C1EA1A161123A4040207A385454555929
:1006E0002155557941215454784121555478402061
:1006F000545579400C1E527212395555555939547A
:1007000054545939555454580000457C4100024511
:100710007D420001457C40F0292429F0F02825285D
:10072000F07C545545002054547C547C0A097F4980
:1007300032494949323248484832324A4848303AC8
:100740004141217A3A42402078009DA0A07D394461
:100750004444393D4040403D3C24FF2424487E49E8
:1007600043662B2FFC2F2BFF0929F620C0887E091A
:100770000320545479410000447D413048484A32B6
:10078000384040227A007A0A0A727D0D19317D269E
:1007900029292F28262929292630484D4020380884
:1007A00008080808080808382F10C8ACBA2F102805
:1007B00034FA00007B000008142A142222142A14A0
:1007C000089500220095AA005500AAAA55AA55AA84
:1007D000000000FF00101010FF00141414FF0010A0
:1007E00010FF00FF1010F010F0141414FC0014148B
:1007F000F700FF0000FF00FF1414F404FC141417AA
:10080000101F10101F101F1414141F00101010F0D0
:10081000000000001F101010101F10101010F0101A
:10082000000000FF101010101010101010FF10002A
:100830000000FF140000FF00FF00001F1017000061
:10084000FC04F414141710171414F404F40000FF3B
:1008500000F714141414141414F700F714141417D4
:100860001410101F101F141414F4141010F010F0B2
:1008700000001F101F0000001F14000000FC1400E7
:1008800000F010F01010FF10FF141414FF141010DB
:10089000101F00000000F010FFFFFFFFFFF0F0F05E
:1008A000F0F0FFFFFF0000000000FFFF0F0F0F0F31
:1008B0000F38444438447C2A2A3E147E020206063D
:1008C000027E027E0263554941633844443C044041
:1008D0007E201E2006027E020299A5E7A5991C2A09
:1008E000492A1C4C7201724C304A4D4D30304878C8
:1008F0004830BC625A463D3E494949007E010101EB
:100900007E2A2A2A2A2A44445F444440514A4440C9
:1009100040444A51400000FF0103E080FF0000080E
:10092000086B6B083612362436060F090F060000D6
:1009300018180000001010003040FF0101001F01D6
:10094000011E00191D1712003C3C3C3C0000000039
:1009500000D5F08D14A1C881CFD9F1AF200050206F
:10096000423077616C6C0050636230636F6C6C6115
:10097000720050644230756E6465616420646F6714
:100980000050706231667269656E64005066623054
:1009900066696C74657200502162313177617465EB
:1009A0007200502042306D696E640A496E64697647
:1009B000696475616C2074686174200A6665656C91
:1009C000732C207065726365697665732C200A77D5
:1009D000696C6C732C20616E64206573706563694B
:1009E000616C6C79200A726561736F6E7320616E41
:1009F00064207468696E6B732E00502042326C69FB
:100A000066650A4C6976696E67207468696E672E40
:100A1000200A4C696665206361757365732068758B
:100A20006E6765722C200A7468697273742C207367
:100A30006C6565702C2077617374652C200A696C75
:100A40006C6E65737320616E642062726561746898
:100A5000652E200A596F752063616E206C6F737468
:100A60002069742E00EE202D2027656C656D656E63
:100A700074206F6627002E202D20666C6F6F722009
:100A8000286E6F7468696E672900DB202D206F6205
:100A90006A20756E64657220637572736F720002EE
:100AA00020796F7528686F6C64204120746F206D09
:100AB0006F766529004D02380224020F02B3025DF1
:100AC000025025423130666F6F64007069636B734A
:100AD000207C206175746F7069636B757000636F43
:100AE000616C207C206E65656400666F6F64207C9D
:100AF0002041202D2074616B65006D616E283120CE
:100B0000666F6F6420656163682900426F6F6B6B6D
:100B100065657065723A003A00440059002004612E
:100B2000035A0352034B033F0335032B03270322CE
:100B3000031E03240468034C4F5700080B000202F5
:100B40000200000904000001020200000524001058
:100B50000105240101010424020605240600010701
:100B600005810310004009040100020A000000078B
:100B7000050202400000070583024000000403094B
:100B80000412010002EF02014041233680000101FE
:100B900002030141726475696E6F204C4C43004141
:100BA000726475696E6F204C656F6E6172646F0060
:100BB00050404230706C617965720050204230764E
:100BC00065696E00503942356F75747369646500EC
:100BD000503C4234617363656E6400503E4233643E
:100BE000657363656E640053202020202020202040
:100BF00020202020202020202020202020202020F5
:100C000020202020202020202020202020202020E4
:100C100020202020202020202020202020202020D4
:100C200020202020202020202020202020202020C4
:100C300020202020202020202020202020202020B4
:100C400020202020202020202020202020202020A4
:100C50002020202020202020202020202020202094
:100C60002020202020202020202020202020202084
:100C700020202020005323232323232323237E7E8D
:100C80007E232323232323232323232323232323D9
:100C900023237E397E232323232323232323232358
:100CA000232323232323202020232323232323231D
:100CB00023232323232323232332204020312323D0
:100CC00023232323232323232323232323232020FA
:100CD00020232323232323232323232323232323E7
:100CE0002323233E232323232323232323232323B9
:100CF00023232323232323232323232323232323C4
:100D000023230000D82B403411241FBECFEFDAE09C
:100D1000DEBFCDBF11E0A0E0B1E0EAEBFDE602C02E
:100D200005900D92A23BB107D9F726E0A2EBB1E006
:100D300001C01D92AE39B207E1F716E0C3E8D6E074
:100D400004C02197FE010E94B636C238D107C9F708
:100D50000E94852C0C94D0360C94000080E00895FD
:100D60000F931F93CF93DF938B01C0918E06D09189
:100D70008F06209791F086E0C039D807A1F0E8816E
:100D8000F9810284F385E02DB801CE010995009721
:100D900051F0FC0115830483EC01CE01DF91CF916A
:100DA0001F910F9108950A80DB81C02DE2CF0F9330
:100DB0001F93CF93DF938C01C0918E06D0918F0645
:100DC000209791F086E0C039D807A1F0E881F98139
:100DD0000284F385E02DB801CE010995009751F00A
:100DE000FC0115830483EC01CE01DF91CF911F91AB
:100DF0000F9108950A80DB81C02DE2CFFC01809124
:100E0000EE05882311F13FB7F89482E08093E90062
:100E10002091F200822F90E01816190614F481E058
:100E200090E0882339F0289844E64093ED054091FE
:100E3000F1004083222339F02091F200211103C0F8
:100E40002BE62093E8003FBF08958FEF9FEF0895B2
:100E50002FB7F89483E08093E9009091E800892F00
:100E6000807295FF04C09091F20080E4891B2FBF2F
:100E700008958091E50581110DC082E08093E10520
:100E800084E08093E2051092E4051092E30581E08E
:100E90008093E50581EE95E00895CF93DF931F924F
:100EA000CDB7DEB76983DC01ED91FC910280F3815F
:100EB000E02D41E050E0BE016F5F7F4F09950F903C
:100EC000DF91CF91089583E08093E9008091F20053
:100ED000882319F08AE38093E80008950E94280788
:100EE00090E00895CF93DF931F92CDB7DEB7FC015A
:100EF0008485958597FD08C02FEF3FEF35872487C0
:100F00000F90DF91CF910895CE0101960E94FE06C9
:100F1000019719F4898190E0F3CF8FEF9FEFF0CF25
:100F20000F931F93CF93DF931F92CDB7DEB78C0142
:100F3000FC018485958597FF0BC0CE0101960E9428
:100F4000FE06019771F4898190E0F8019587848706
:100F5000F801848595850F90DF91CF911F910F91B6
:100F600008958FEF9FEFF1CFFC018485958597FD64
:100F70000BC09FB7F89482E08093E9008091F20063
:100F80009FBF90E0019608959FB7F89482E0809308
:100F9000E9008091F2009FBF90E008954091DB0549
:100FA0005091DC052091D9053091DA05421753079D
:100FB000B4F49091E8009570E1F39091E80092FD0F
:100FC00019C08093F1008091DB059091DC050196BA
:100FD0008F739927892B19F48EEF8093E800809105
:100FE000DB059091DC0501969093DC058093DB0591
:100FF00081E0089580E00895EF92FF920F931F9390
:10100000CF93DF93F82E192FE62E042F81E0860F61
:10101000880F0E94CE0783E00E94CE07CF2DD12FEC
:10102000EC0EFD2EF11CCE15DF05B9F007FF13C045
:10103000FE0184910E94CE07182F80E00E94CE0707
:10104000812321968111EFCFDF91CF911F910F91D5
:10105000FF90EF9008958881EDCF81E0F5CFDF928A
:10106000EF92FF920F931F93CF93DF93D82E8A01B5
:10107000EB017B01E40EF51ECE15DF0559F0D7FE1E
:1010800012C0FE0184910E94CE0721968111F4CFF7
:101090000FEF1FEFC801DF91CF911F910F91FF90CC
:1010A000EF90DF9008958881EECF0F931F93CF9339
:1010B000DF931F92CDB7DEB782E0898342E450E030
:1010C0006BE37BE080E80E942F080E943907DC0177
:1010D00012960D911C910115110589F0D801ED9121
:1010E000FC910280F381E02DBE016F5F7F4FC8014C
:1010F000099597FD04C0F80100851185ECCF898121
:101100000F90DF91CF911F910F910895615030F0B2
:101110002091F100FC0120830196F8CF289884E605
:101120008093ED050895AF92BF92CF92DF92EF9238
:10113000FF920F931F93CF93DF936C017B018B0181
:10114000040F151FEB015E01AE18BF08C017D107D1
:1011500059F06991D601ED91FC910190F081E02D5B
:10116000C6010995892B79F7C501DF91CF911F91B0
:101170000F91FF90EF90DF90CF90BF90AF900895C8
:101180003FB7F8948091B9059091BA05A091BB053D
:10119000B091BC0526B5A89B05C02F3F19F001965C
:1011A000A11DB11D3FBFBA2FA92F982F8827BC01C1
:1011B000CD01620F711D811D911D42E0660F771FE9
:1011C000881F991F4A95D1F708958F929F92AF92E9
:1011D000BF92CF92DF92EF92FF926B017C010E944F
:1011E000C0084B015C01C114D104E104F104B9F061
:1011F0000E94C008681979098A099B09683E7340F2
:101200008105910580F321E0C21AD108E108F108B7
:1012100088EE880E83E0981EA11CB11CE4CFFF90DD
:10122000EF90DF90CF90BF90AF909F908F900895F8
:1012300065E070E080E090E00C94E5088F929F926A
:10124000AF92BF92CF92DF92EF92FF920F931F93D4
:10125000CF93DF936C017B018A0180911B0188236E
:1012600009F45CC08091EE05882309F457C0809191
:10127000E00580FF05C08091E00082608093E0007F
:10128000E801B12C8AEFA82E93E0892E2AE3922E52
:10129000209711F4BB20D9F10E94280781110AC0C0
:1012A000AA94AA20D9F161E070E080E090E00E9469
:1012B000E508EECF8C171D0611F00CF08C2F9FB7B0
:1012C000F8948092E9002091E80025FD02C09FBFBC
:1012D000DFCF282F30E0C21BD30BF701815020F065
:1012E00041914093F100FACFE20EF31EBB2021F0B2
:1012F0009092E800B12CEBCF8091E80085FDE7CF1C
:101300009092E800BB24B394209709F3F3CF5D9843
:1013100084E68093DF05101611063CF081E090E032
:10132000F6019383828310E000E0C801DF91CF9142
:101330001F910F91FF90EF90DF90CF90BF90AF90F3
:101340009F908F9008958FB18095807F669B886075
:101350001C9B8460089580E0E8EBF1E081118FEF41
:10136000002481938193819381930394D1F7109208
:10137000C8051092C7051092CA051092C9050895B4
:101380006F927F928F929F92AF92BF92CF92DF9295
:10139000EF92FF920F931F93CF93DF936D3079F00D
:1013A000C091C705D091C8056A30D1F41092CA0522
:1013B0001092C9052896D093C805C093C70581E04F
:1013C00090E0DF91CF911F910F91FF90EF90DF9010
:1013D000CF90BF90AF909F908F907F906F90089527
:1013E000C090B701B09004014091C9055091CA0561
:1013F00085E0689FF0011124EF5AFB4F9A01812C80
:1014000090E1D92E95E010E0891629F0BF016F5FB9
:101410007F4F1491FB01BE0188E0A82E10FD16C07D
:101420009C2CCB1014C01695AA946F5F7F4FA1100F
:10143000F5CF83942F5F3F4F96E08912E3CF4A5F49
:101440005F4F5093CA054093C905B9CF9B2C2038F4
:10145000310548F76034710530F7CB0101E081FDBB
:1014600004E080FD000F82FD0295887FD89ED001A8
:101470001124A20FA854BE4F8C9190FE03C0802B64
:101480008C93D1CF00958023FBCF682F86E996E01F
:101490000C94C0090F931F93CF93DF938C01D0E07E
:1014A000C0E0F801EC0FFD1F6491662341F086E96E
:1014B00096E00E94C009892B11F02196F2CFCE014F
:1014C000DF91CF911F910F9108959091CB059823B3
:1014D00029F49091CC05982381E009F480E00895E7
:1014E000E8EBF1E080E0A0E0B8E000800EBC811104
:1014F000012C1197A0FDFDCF0192B9F70DB408950D
:10150000DF92EF92FF920F931F93CF93DF938C01A3
:10151000EB01F12CE12CDD24D394D8011A964D91E6
:101520005C911B971C962D913C911D97429FC00189
:10153000439F900D529F900D1124E816F906F4F484
:101540001E96ED91FC91C701880F991FE80FF91FB6
:1015500080819181009771F08C179D0709F4D12C3F
:10156000DC01ED91FC910680F781E02D60E170E0F7
:101570000995F0CFBFEFEB1AFB0ACFCFE881F981D5
:101580000680F781E02D60E170E0CE0109950097BB
:1015900021F0BC01C8010E94800ADD2071F0E881C1
:1015A000F9810280F381E02DCE01DF91CF911F916F
:1015B0000F91FF90EF90DF900994DF91CF911F91F1
:1015C0000F91FF90EF90DF900895089590E080E0F4
:1015D000089590E080E008954F925F926F927F921D
:1015E0008F929F92AF92BF92CF92DF92EF92FF9233
:1015F0000F931F93CF93DF935C013B012A01690195
:10160000CC0CDD1CDC011E968D909C901F978C0CE1
:101610009D1CF401C081D1810330110509F4A8C0DB
:10162000D0F40130110509F44AC00230110509F463
:101630007EC0CE01DF91CF911F910F91FF90EF906F
:10164000DF90CF90BF90AF909F908F907F906F90E2
:101650005F904F9008950430110541F00530110559
:1016600041F7209731F7F182E082E3CF2097A9F08C
:1016700054968D919C918C179D0739F0E881F981E2
:101680000280F381E02DCE010995D5011E96ED91E2
:10169000FC91EC0DFD1D11821082F5018685978568
:1016A000FC01EC0DFD1D71826082440C551C840D03
:1016B000951DDC011D921C92D0E0C0E0BACF2097AE
:1016C000A9F0FC01848995898C179D0739F0E88180
:1016D000F9810280F381E02DCE010995D5011E9696
:1016E000ED91FC91EC0DFD1D11821082F501C68576
:1016F000D785CC0DDD1DD701ED91FC910084F185DE
:10170000E02DC701099599838883F50126853785E2
:10171000C20ED31ED6018D919C91DC01ED91FC91FE
:101720000680F781E02D61E070E00995C5CF209734
:1017300009F07FCFD701ED91FC910084F185E02D78
:10174000C7010995F40191838083D5011E962D91DF
:101750003C91C20ED31EF60180819181DC01ED9196
:10176000FC910680F781E02D61E070E0099561CF82
:101770002097A9F0E881F9810680F781E02D66E0E5
:1017800070E0CE010995892B51F0D5011E962D915F
:101790003C91C20ED31EF601C081D1814ACFD50142
:1017A0001E968D919C91FC01EC0DFD1D20813181D7
:1017B000440C551C840D951DDC012D933C937182C6
:1017C00060827ACF8F929F92AF92BF92CF92DF9238
:1017D000EF92FF920F931F93CF93DF93FC01EB01E6
:1017E0008A016285738544855585649FC001659F24
:1017F000900D749F900D1124D12CC12CC816D906C0
:101800006CF5A685B785A601440F551FA40FB51F1B
:10181000AD90BC9046014FEF841A940AAC16BD06F9
:10182000D9F4C4010E94A236892B41F07901BE018E
:10183000CF019401A6010E94EC0A5C01C501DF9171
:10184000CF911F910F91FF90EF90DF90CF90BF90BD
:10185000AF909F908F9008956401D0CF5E01EECF3E
:10186000AF92BF92CF92DF92EF92FF920F931F93AE
:10187000CF93DF93EC016B018A016A857B854C85F0
:101880005D85649FC001659F900D749F900D11242C
:10189000F0E0E0E0E817F9074CF5AE85BF85AF0151
:1018A000440F551FA40FB51FAD90BC90AC14BD04E0
:1018B000D9F4CF010E94A236892B51F07901B601EB
:1018C000CE019F0121503109AF010E94EC0A5C0159
:1018D000C501DF91CF911F910F91FF90EF90DF90A5
:1018E000CF90BF90AF9008953196D4CF5601F0CFEE
:1018F000CF92DF92EF92FF920F931F93CF93DF93DC
:10190000DC0179011A96CD90DC901B971C968D9185
:101910009C911D97C89E8001C99E100DD89E100DE8
:101920001124F0E0E0E0E017F1072CF51E968D9110
:101930009C911F979F01220F331F820F931FEC0171
:101940008881998186179707A1F496012E0F3F1F72
:10195000201731072CF48A01CD01AF010E94EC0A57
:10196000DF91CF911F910F91FF90EF90DF90CF907B
:1019700008953196D8CFCB01F3CFEF92FF920F931A
:101980001F93CF93DF93DC0179011A962D913C913F
:101990001B971C968D919C911D97289F8001299FD4
:1019A000100D389F100D1124F0E0E0E0E017F10772
:1019B00014F51E96CD91DC911F97CF01880F991FCA
:1019C000C80FD91F888199818617970791F4EF0175
:1019D000C21BD30B9E01D7FD05C08A01CD01AF010B
:1019E0000E94EC0ADF91CF911F910F91FF90EF9031
:1019F00008953196DBCFCB01F5CF83E5089590E0D4
:101A000080E0089590E080E008950895CF93DF93FB
:101A1000FB013697E531F10538F5EC01EE5EF24F4A
:101A20000C94B636510D550D340D340D340D340D66
:101A3000340D340D340D340D270D310D340D2C0DB6
:101A4000340D340D590D340D340D340D370D8E8198
:101A50009F81DF91CF910895888581FF05C0CE01D8
:101A6000F8CF888582FDFBCF90E080E0F2CF28851B
:101A7000822F82958F70815030E1839FC0011124A5
:101A80002F70282B2887CE0122952F7011F7E8811F
:101A9000F9810480F581E02DAE016AE170E00995DD
:101AA000E3CF888583FDDBCFDFCF888580FDD7CF6F
:101AB000DBCFEC81FD8131968491803421F482E08A
:101AC0000E94450ACCCF8491FBCFEF92FF920F93F7
:101AD0001F93CF93DF93EC018A016B31710508F0FE
:101AE000A4C06A58724FFB010C94B636910DF90DE3
:101AF000150E150E150E150EFB0D4D0E150E150EB1
:101B0000150E150E150E150E150E150E290E3F0E7F
:101B1000150E460EF90D150E150E010E2C0E150E96
:101B2000F30D209709F44BC0E881F9810680F78115
:101B3000E02D60E170E0CE010995F12CE12C081751
:101B4000190709F47E01E881F9810680F781E02D0B
:101B500060E170E0CE010995EC01E114F10409F3B4
:101B6000E881F9810680F781E02D60E170E0CE0127
:101B70000995EC01892BC1F0D801ED91FC9106800B
:101B8000F781E02D61E170E0C8010995892BF9F436
:101B9000D801ED91FC910680F781E02D61E170E0C4
:101BA000C8010995892BE1F6D701ED91FC910480DC
:101BB000F581E02DAE0160E170E0C7010995C80133
:101BC000DF91CF911F910F91FF90EF900895E881E1
:101BD000F9810680F781E02D61E170E0CE01099581
:101BE000892BB1F2E1CF88858F70452B09F0806F8A
:101BF00088878E01E4CF8885877F452BC9F388606D
:101C0000F7CF2C813D81FA0184819581281739070E
:101C100081F3E881F9810680F781E02D60E170E0D1
:101C2000CE010995EC01009719F410E000E0C7CF50
:101C3000E881F9810680F781E02D61E170E0099586
:101C4000892B99F72C813D81D80114968D919C9117
:101C5000DDCF5F834E83B3CF4E815F811F830E83C1
:101C60004115510509F4ABCFD801ED91FC910480E9
:101C7000F581E02D60E170E0C8010995BACF888553
:101C80008B7F452B09F4B4CF8460B2CF88858D7FDC
:101C9000452B09F4ADCF8260ABCF88858E7F452B75
:101CA00009F0A6CF8160A4CFFC01848195810C94BA
:101CB000D70680E50895DC011496ED91FC913396EA
:101CC00080E04AE024912053330B2A30310540F460
:101CD0009491849F900D1124892F80533196F2CFD7
:101CE00090E00895FC01848195810396FC01249184
:101CF0002053330B2A30310510F40196F7CF0895A5
:101D0000089580E0089580911C018F3F71F0CA0111
:101D10004091F3055091F405DC01ED91FC910480B4
:101D2000F581E02D6AE070E0099580E00895EF927A
:101D3000FF920F931F93CF93DF938C017B01EA01F6
:101D40004091F3055091F405E881F9810480F58113
:101D5000E02D6AE070E0CE010995E881F981048008
:101D6000F581E02DA70162E170E0CE010995E881DF
:101D7000F9810480F581E02DA80165E170E0CE01D4
:101D8000099580E0DF91CF911F910F91FF90EF9027
:101D900008954F925F926F927F928F929F92AF922F
:101DA000BF92CF92DF92EF92FF920F931F93CF9348
:101DB000DF935C018091F7059091F805009739F069
:101DC000DC01ED91FC910280F381E02D0995809179
:101DD000B4019091B501009739F0DC01ED91FC91CF
:101DE0000280F381E02D09958091B2019091B301B9
:101DF000009739F0DC01ED91FC910280F381E02D38
:101E0000099584EA91E00E94D7069093B5018093EA
:101E1000B40188EA91E00E94D7069093B3018093C1
:101E2000B201C5010E94D7069093F8058093F7058B
:101E30004091B4015091B501DC01ED91FC91048019
:101E4000F581E02D6CE070E009958091F7059091A7
:101E5000F8054091B2015091B301DC01ED91FC9184
:101E60000480F581E02D6DE070E009958091F70523
:101E70009091F805DC01ED91FC910680F781E02D51
:101E80006BE070E009958091F7059091F805DC0111
:101E9000ED91FC910680F781E02D63E070E00995FB
:101EA000892B89F78091F7059091F805DC01ED9178
:101EB000FC910680F781E02D61E070E00995892BA7
:101EC00089F78091B4019091B501DC01ED91FC910D
:101ED0000684F785E02D09958C018091B2019091DF
:101EE000B301DC01ED91FC910684F785E02D0995A5
:101EF0006C01512C84E1482E96EB692E93E0792EEB
:101F00004C9CF0014D9CF00D1124E00FF11F319617
:101F1000EA0DFB1D8491803209F1882E082E000CF9
:101F200099084091F5055091F605DA011496ED9166
:101F3000FC913196E491E815190409F061C0809193
:101F4000F7059091F805DC01ED91FC910480F58195
:101F5000E02D67E170E00995552453948091F705D1
:101F60009091F805DC01ED91FC910680F781E02D60
:101F700064E070E009950F5F1F4F892B09F0C0CF17
:101F80008091F7059091F805DC01ED91FC910680B8
:101F9000F781E02D63E070E00995892B89F7809146
:101FA000B4019091B501DC01ED91FC910684F785B7
:101FB000E02D09958C01BFEFCB1ADB0A8091F70564
:101FC0009091F805DC01ED91FC910680F781E02D00
:101FD00062E070E00995892B09F092CF852DDF91A1
:101FE000CF911F910F91FF90EF90DF90CF90BF9016
:101FF000AF909F908F907F906F905F904F900895DB
:10200000CEE6D3E08332B1F58091F7059091F805E3
:10201000DC01ED91FC910680F781E02D66E070E037
:102020000995892B89F48091F7059091F8054091E5
:10203000F1055091F205DC01ED91FC910480F581F0
:10204000E02D66E070E00995C091F705D091F805A4
:10205000E881F981E480F5800680F781E02D66E073
:1020600070E0CE010995AC0167E170E0CE01F701A7
:10207000099574CFFE0185919491FC013196E4910C
:10208000E8151904F1F4FE01859194910E94D70698
:102090007C01DC01ED91FC910480F581E02DAC0127
:1020A00067E070E009958091F7059091F805DC01F3
:1020B000ED91FC910480F581E02DA70167E170E0CE
:1020C000099522966C167D06A9F648CFCF93DF932B
:1020D000EC018091F7059091F805DC01ED91FC9100
:1020E0000680F781E02D63E070E00995892B89F780
:1020F0008091F7059091F805DC01ED91FC91068047
:10210000F781E02D61E070E00995892B89F78091D6
:10211000F7059091F805DC01ED91FC910680F781BF
:10212000E02D67E170E009950097F1F0FC01248152
:1021300035812C173D0779F48091F7059091F805CA
:10214000DC01ED91FC910680F781E02D67E170E004
:10215000DF91CF9109940190F081E02D0680F78105
:10216000E02D60E170E0DFCF8091F7059091F805F8
:10217000DC01ED91FC910680F781E02D64E070E0D8
:102180000995892B21F68091F7059091F805DC01DE
:10219000ED91FC910680F781E02D63E070E00995F8
:1021A000892B89F78091F7059091F805DC01ED9175
:1021B000FC910680F781E02D62E070E00995892BA3
:1021C00009F0A5CF90E080E0DF91CF910895EF92E4
:1021D000FF920F931F93CF93DF937B01EA018BED67
:1021E0009BE00E9466108C01892B09F44BC0E881AA
:1021F000F9810480F581E02DA7016BE170E0CE014B
:102200000995E816F906E9F4D801ED91FC910684E8
:10221000F785E02DC8010995880F991FFC01E75B40
:10222000F94F0190F081E02D9701AE01B801C8018E
:10223000099582E0DF91CF911F910F91FF90EF9070
:1022400008954091F3055091F405E881F9810480E7
:10225000F581E02D6AE070E0CE010995E881F98111
:102260000480F581E02DA80162E170E0CE010995BE
:10227000E881F9810480F581E02DA70165E170E036
:10228000CE01099580E0D6CF1092C6051092C50503
:102290008091F7059091F805DC01ED91FC910680A5
:1022A000F781E02D63E070E00995892B31F0809192
:1022B000C6058F5F8093C605EBCF8091F70590919F
:1022C000F805DC01ED91FC910680F781E02D61E0DD
:1022D00070E00995892B31F08091C5058F5F80935F
:1022E000C505EBCF0895CF93DF93EC016230710504
:1022F000F9F030F461307105A9F080E090E00FC092
:102300006730710539F066317105B9F78EE20E94C8
:10231000450A04C088859985892B79F3CE01DF9120
:10232000CF9108958E819F8101969F838E83F6CFF2
:102330008E819F810197F9CFEF92FF920F931F93A8
:10234000CF93DF938C01EA016E30710531F06F306D
:10235000710591F1D0E0C0E027C0E881F9810684E1
:10236000F785E02DCA0109957C01D801ED91FC911A
:102370000684F785E02DC80109958E159F05A4F008
:10238000E881F9810684F785E02DCE010995EC01FD
:10239000D801ED91FC910684F785E02DC8010995DF
:1023A000C817D907BCF6E801CE01DF91CF911F9184
:1023B0000F91FF90EF900895E881F9810684F785E9
:1023C000E02DCA0109957C01D801ED91FC910684AC
:1023D000F785E02DC80109958E159F0524F3E88146
:1023E000F9810684F785E02DCE0109957C01D8019D
:1023F000ED91FC910684F785E02DC8010995E8165A
:10240000F90694F2A7CF83E40895FC0186819781B1
:10241000089580E00895FC01848195810C94D7068D
:10242000089590E080E008958F929F92AF92BF92BE
:102430000F931F93CF93DF93CDB7DEB7A1970FB65E
:10244000F894DEBF0FBECDBF19A2423008F44AE0B7
:102450008E010F5D1F4F842E912CB12CA12CA50154
:1024600094010E946536E62FB901CA01EA3044F5AD
:10247000E05DD801EE938D01232B242B252B79F7DA
:1024800090E080E0109769F0FD0101900020E9F7ED
:102490003197AF014A1B5B0BBD0186E996E00E94B4
:1024A0009308A1960FB6F894DEBF0FBECDBFDF91A3
:1024B000CF911F910F91BF90AF909F908F900895F3
:1024C000E95CD7CF682F70E090E080E04AE00C94A0
:1024D000141242E050E06BEA71E086E996E00C9459
:1024E0009308CF93DF930E944A0AEC010E9469127D
:1024F0008C0F9D1FDF91CF910895CF92DF92EF92C5
:10250000FF920F931F93CF93DF937C016A01660FB5
:10251000771FEB01C35ED44F04EF11E00E94AB09BB
:102520001092CA051092C9051092C8051092C705ED
:10253000E114F10461F1D701ED91FC910680F7817E
:10254000E02D66E170E0C70109950E946912FE0165
:10255000859194910E947112C114D10451F0D60159
:10256000ED91FC910484F585E02DC60109950E944A
:102570004A0A0E94700A0150110981F6DF91CF9139
:102580001F910F91FF90EF90DF90CF90089588E614
:1025900093E00E944A0AD9CF1F93CF93DF93EC01B7
:1025A000162F0E94AB091092CA051092C90510920D
:1025B000C8051092C70586E494E00E944A0A8CE39D
:1025C00094E0111109C08091F5059091F6058C17E2
:1025D0009D0721F483E394E00E944A0A81E394E09A
:1025E0000E9471128091EF059091F005892BB9F44A
:1025F0008091CD059091CE05892B89F4D093F0057B
:10260000C093EF05E881F9810680F781E02D60E154
:1026100070E0CE0109959093CE058093CD058EE2B2
:1026200094E00E944A0A8091EF059091F005DC0148
:10263000ED91FC910484F585E02D09950E947112BD
:102640008BE294E00E944A0A8091CD059091CE05DC
:10265000009749F1DC01ED91FC910680F781E02DB6
:1026600061E170E00995892BF1F48091CD0590919D
:10267000CE05DC01ED91FC910680F781E02D66E04E
:1026800070E00995892B09F064C08091CD05909187
:10269000CE05DC01ED91FC910484F585E02D0995D2
:1026A0000E94711206C08091CD059091CE050097D1
:1026B00081F780E10E94650A882369F18091CD0548
:1026C0009091CE05009739F1DC01ED91FC910680E7
:1026D000F781E02D61E170E00995A091CD05B09101
:1026E000CE05892B21F0B093F005A093EF05ED9175
:1026F000FC9111970680F781E02D60E170E0CD013B
:1027000009959093CE058093CD05892B21F4D09324
:10271000CE05C093CD0588E00E94650A882309F4A0
:10272000B1C0112339F18091CD059091CE0500976C
:1027300021F48091EF059091F0051092F005109230
:10274000EF051092CE051092CD05DF91CF911F912C
:10275000089589E294E00E944A0A84E294E00E948B
:102760004A0A82E294E00E944A0A80E294E00E94CF
:102770004A0A8BCF8091F5059091F6058C179D073D
:1027800009F080C08091CD059091CE05009709F4A5
:1027900079C0DC01ED91FC910680F781E02D66E0C7
:1027A00070E00995892B09F06DC08091EF0590913B
:1027B000F005DC01ED91FC910680F781E02D60E1F0
:1027C00070E00995EC018091EF059091F005409142
:1027D000CD055091CE05DC01ED91FC910480F58191
:1027E000E02D70E060E009952097B1F0E881F98173
:1027F0000680F781E02D61E170E0CE010995892B1B
:10280000E9F4E881F9810680F781E02D60E170E06C
:10281000CE010995EC01E8CF8091F7059091F8057C
:102820004091EF055091F005DC01ED91FC910480A1
:10283000F581E02D69E170E00995EC014091CD054D
:102840005091CE05E881F9810480F581E02D68E1A1
:1028500070E0CE0109954091CD055091CE0568E01C
:1028600070E0CE010E947D121092F0051092EF05EB
:102870001092CE051092CD0584E090E090930B016C
:1028800080930A0184E00E94650A8823C1F01092B7
:10289000F0051092EF051092CE051092CD05109222
:1028A000D2051092D1051092D4051092D305109242
:1028B000D70584E090E090930B0180930A0190E0AB
:1028C00080E043CF0F931F93CF93DF932115310502
:1028D00079F1E9018BEE93E00E94D7068C01E88143
:1028E000F9810480F581E02DAC0167E170E0CE0153
:1028F0000995892B19F5A80168E070E0CE010E94C6
:102900007D12E881F9810480F581E02DA80168E15C
:1029100070E0CE0109958091F5059091F605C817F4
:10292000D90731F489E090E090930B0180930A017C
:1029300080E0DF91CF911F910F910895011511054E
:1029400051F3D801ED91FC910280F381E02DC80193
:102950000995E1CF0F931F93CF93DF930091F50576
:102960001091F6050817190709F03AC0EB0187E046
:1029700090E090930B0180930A017093D6056093C9
:10298000D5050E94AB091092CA051092C905109294
:10299000C8051092C705D801ED91FC910680F7811A
:1029A000E02D66E170E0C8010995E7E2FBE0859162
:1029B00094910E947112E9E2FBE0859194910E944A
:1029C0004A0AFE01EE0FFF1FE35EF44F85919491DA
:1029D0000E944A0ADF91CF911F910F910C94700AC7
:1029E00050E040E065E070E0DF91CF911F910F91E2
:1029F0000C947D120F931F93CF93DF938C01232BA5
:102A000031F18091F5059091F60568177907F9F491
:102A1000CA01EB01DA01ED91FC910480F581E02D12
:102A2000A80170E060E0099570E060E0C8010E94D4
:102A3000AA1486E194E00E94D706E881F981048017
:102A4000F581E02DAC0168E170E0CE01099580E0F0
:102A5000DF91CF911F910F910895AF92BF92CF92C6
:102A6000DF92EF92FF920F931F93CF93DF93211585
:102A7000310509F457C07901EA018B016C018BE043
:102A800094E00E94D7065C01D701ED91FC9104808F
:102A9000F581E02DAC0167E170E0C70109957C018B
:102AA000A114B10441F0D501ED91FC910280F381B4
:102AB000E02DC5010995E114F104A1F170E060E099
:102AC000C7010E94AA14E881F9810480F581E02DF4
:102AD000A70170E060E0CE01099570E060E0C601FA
:102AE0000E94AA14E881F9810480F581E02DA601F5
:102AF00070E060E0CE01099580E094E00E94D70686
:102B0000EC01AC0168E070E0C8010E947D12D801C0
:102B1000ED91FC910480F581E02DAE0168E170E05B
:102B2000C801099580E0DF91CF911F910F91FF902F
:102B3000EF90DF90CF90BF90AF900895CF92DF924B
:102B4000EF92FF920F931F93CF93DF9321153105DF
:102B500009F440C08901EA017C0185EF93E00E94FD
:102B6000D7066C01D801ED91FC910480F581E02D30
:102B7000AC0167E170E0C80109958C01C114D10472
:102B800041F0D601ED91FC910280F381E02DC60168
:102B9000099501151105F1F070E060E0C8010E948F
:102BA000AA14E881F9810480F581E02DA80170E084
:102BB00060E0CE01099570E060E0C7010E94AA14B0
:102BC000E881F9810480F581E02DA70170E060E0E3
:102BD000CE01099580E0DF91CF911F910F91FF9079
:102BE000EF90DF90CF9008950F931F93CF93DF93D3
:102BF0008C01EB01E881F9810680F781E02D6AE123
:102C000070E0CE010995892B71F150E040E06AE057
:102C100070E0CE010E947D12E881F9810480F58187
:102C2000E02D50E040E063E170E0CE010995E881DD
:102C3000F9810680F781E02D60E170E0CE01099511
:102C4000EC01009751F0E881F9810680F781E02DD1
:102C500061E170E00995892BF9F280E0DF91CF9175
:102C60001F910F91089570E060E0C8010E94AA14BE
:102C70008091F7059091F805DC01ED91FC910480BD
:102C8000F581E02DA80170E060E009951092F00553
:102C90001092EF05E2CF8F929F92AF92BF92CF92A8
:102CA000DF92EF92FF920F931F93CF93DF93211543
:102CB000310509F48DC0E9017A018B016C0155EEF3
:102CC000A52E53E0B52ED5018D919D915D012C81EE
:102CD0003D812817390789F5D701ED91FC910480D2
:102CE000F581E02DA8016CE170E0C7010995D701DD
:102CF000ED91FC910480F581E02DAE016BE170E077
:102D0000C7010995C817D90709F070C050E040E025
:102D100070E060E0C8010E947D12D801ED91FC9145
:102D20000480F581E02DA60170E060E0C8010995FE
:102D300070E060E0C6010E94AA14BBEEAB16B3E0DF
:102D4000BB0609F63DECA32E33E0B32E45EE842EF0
:102D500043E0942EF501819191915F012C813D8199
:102D60002817390791F5D701ED91FC910480F58181
:102D7000E02DAE0169E170E0C70109950817190758
:102D8000E1F5E881F9810684F785E02DCE0109950A
:102D9000880F991FFC01E75BF94F0190F081E02D4E
:102DA0009601A701B801CE010995D801ED91FC91DA
:102DB0000480F581E02DA60170E060E0C80109956E
:102DC00070E060E0C6010E94AA148A149B0411F608
:102DD00080E0DF91CF911F910F91FF90EF90DF90F6
:102DE000CF90BF90AF909F908F900895AE0166E016
:102DF00070E0C8010E947D12A0CFAE0167E070E0D4
:102E0000C8010E947D12E1CFCF92DF92EF92FF9234
:102E10000F931F93CF93DF93EB017A0185EF93E03C
:102E20000E94D7068C0180910D01853009F052C0B7
:102E300080910C0181114EC0E881F9810480F581F7
:102E4000E02DA80167E170E0CE010995892B09F01A
:102E500041C0E881F9810480F581E02DA80168E195
:102E600070E0CE010995A80168E070E0CE010E94F3
:102E70007D128BE094E00E94D7068C0180910D01B9
:102E8000833009F458C080910D01833009F075C07A
:102E900080910C01811171C0E881F9810480F58174
:102EA000E02DA80167E170E0CE010995892B09F4B6
:102EB00064C063E070E0CE010E94AA14D701ED91D6
:102EC000FC910480F581E02DAE0170E060E0C70167
:102ED000099557C080910D01853061F001151105EC
:102EE00041F2D801ED91FC910280F381E02DC801FF
:102EF0000995BFCF80910C018111F0CFE881F98154
:102F00000480F581E02DA80167E170E0CE0109950C
:102F1000892B21F361E070E0CE010E94AA14D70151
:102F2000ED91FC910480F581E02DAE0170E060E050
:102F3000C70109959ECF80910C018111A4CFE88132
:102F4000F9810480F581E02DA80167E170E0CE01F0
:102F50000995892B09F097CFE881F9810480F581E3
:102F6000E02DA80168E170E0CE010995A80168E0B4
:102F700070E0CE010E947D1204C00115110509F018
:102F800044C081EC93E00E94D7068C0180910D0132
:102F9000882309F443C080910D01882309F460C09F
:102FA0000115110509F08DC086EB93E00E94D7064C
:102FB0008C0180910D01843009F48CC080910D0149
:102FC000843009F0A9C080910C018111A5C0E8816D
:102FD000F9810480F581E02DA80167E170E0CE0160
:102FE0000995892B09F498C062E070E0CE010E9437
:102FF000AA14D701ED91FC910480F581E02DAE017A
:1030000070E060E0C70109958AC0D801ED91FC919C
:103010000280F381E02DC8010995B3CF80910C01A6
:103020008111B9CFE881F9810480F581E02DA801F3
:1030300067E170E0CE010995892B09F0ACCFE881FA
:10304000F9810480F581E02DA80168E170E0CE01EE
:103050000995A80168E070E0CE010E947D12A4CF1E
:1030600080910C0181119CCFE881F9810480F58168
:10307000E02DA80167E170E0CE010995892B09F4E4
:103080008FCFD701ED91FC91C480D580E881F98183
:103090000480F581E02DA80167E170E0CE0109957B
:1030A000AC0170E060E0C701F601099570E060E0F6
:1030B000C8010E94AA1486E194E00E94D7068C0100
:1030C000BECFD801ED91FC910280F381E02DC801C3
:1030D00009956ACF80910C01811170CFE881F98147
:1030E0000480F581E02DA80167E170E0CE0109952B
:1030F000892B09F063CFE881F9810480F581E02D07
:10310000A80168E170E0CE010995A80168E070E0CF
:10311000CE010E947D1203C00115110551F480E01B
:10312000DF91CF911F910F91FF90EF90DF90CF90A3
:103130000895D801ED91FC910280F381E02DC80142
:103140000995EDCFAF92BF92DF92EF92FF920F936E
:103150001F93CF93DF937C01D62E8FEFE816F806EE
:1031600041F480911C01815080931C01F12CE12CD1
:1031700009C0A1E0EA16F104C9F780911C018F5F34
:1031800080931C018091F7059091F805009769F0F4
:103190004091F5055091F605DC01ED91FC9104801C
:1031A000F581E02D60E170E0099580911C018111AD
:1031B00029C185E79CE00E94C90E811177C18091E9
:1031C0001C01D0E0C0E08F3F71F08BED9BE00E94CE
:1031D000D706EC01E881F9810480F581E02DAC018E
:1031E00061E170E0099580ED9BE00E94D7068C01BB
:1031F000DC01ED91FC910480F581E02DAC0161E1F1
:1032000070E00995D801ED91FC91A480B58084EC23
:103210009BE00E94D706AC0160E170E0C801F501B7
:1032200009958091F7059091F8054091F505509129
:10323000F605DC01ED91FC910480F581E02D60E163
:1032400070E009958091F7059091F8054091F3059C
:103250005091F405DC01ED91FC910480F581E02DA5
:1032600065E070E009958091F7059091F80540912F
:10327000F1055091F205DC01ED91FC910480F5819E
:10328000E02D66E070E009958091F7059091F805D2
:10329000DC01ED91FC910480F581E02D50E040E0EF
:1032A0006BE070E00995892B09F4BBCF80911C017C
:1032B0008F3F09F4F8C08091F7059091F805DC0183
:1032C000ED91FC910480F581E02DEF2809F49DC07B
:1032D000AE0168E070E009958091F7059091F805DE
:1032E0004091F3055091F405DC01ED91FC910480CF
:1032F000F581E02D6AE070E009958091F7059091E5
:10330000F805DC01ED91FC910480F581E02DAE0122
:1033100062E170E009958091F7059091F805DC0174
:10332000ED91FC910480F581E02DA80168E070E04A
:1033300009958091F7059091F8054091F30550911A
:10334000F405DC01ED91FC910480F581E02D6AE04B
:1033500070E009958091F7059091F805DC01ED91F9
:10336000FC910480F581E02DA80162E170E00995EF
:103370008091F7059091F8054091F5055091F6057B
:10338000DC01ED91FC910480F581E02D69E070E0B5
:1033900009958091F5059091F605DC01ED91FC9180
:1033A0000680F781E02D60E170E009959093F005CB
:1033B0008093EF058091EF059091F005009709F457
:1033C0009AC0DC01ED91FC910680F781E02D61E16E
:1033D00070E00995892B89F08091F7059091F805A7
:1033E0004091EF055091F005DC01ED91FC910480D6
:1033F000F581E02D69E070E009958091EF059091ED
:10340000F005CBCF87EE9BE0D6CEA80168E070E058
:1034100009958091F7059091F8054091F305509139
:10342000F405DC01ED91FC910480F581E02D6AE06A
:1034300070E009958091F7059091F805DC01ED9118
:10344000FC910480F581E02DA80162E170E009950E
:103450008091F7059091F805DC01ED91FC910480D5
:10346000F581E02DAE0168E070E009958091F705E7
:103470009091F8054091F3055091F405DC01ED9130
:10348000FC910480F581E02D6AE070E0099580915F
:10349000F7059091F805DC01ED91FC910480F58130
:1034A000E02DAE0162CFEF2899F235CF8091F7057C
:1034B0009091F8054091F3055091F405DC01ED91F0
:1034C000FC910480F581E02D65E070E00995809124
:1034D000F7059091F8054091F5055091F605DC014E
:1034E000ED91FC910480F581E02D62E170E0099599
:1034F000D0E0C0E04ECF8091F7059091F805409163
:10350000F3055091F405DC01ED91FC910480F58107
:10351000E02D6AE070E009958091F7059091F8053B
:10352000DC01ED91FC910480F581E02DAE0162E1BA
:1035300070E00995DD20A9F180911C01882389F1B3
:103540000E94B53522E030E040E050E00E94333682
:10355000EB0190E080E00091F7051091F805D801AB
:10356000ED91FC91E480F5808C179D07D4F48BEBF2
:103570009BE00E94D706AC0166E070E0C801F7014D
:1035800009958091F7059091F805DC01ED91FC918A
:103590000680F781E02D61E170E0099581E090E01F
:1035A000DACF8091F7059091F8054091F30550919D
:1035B000F405DC01ED91FC910480F581E02D6AE0D9
:1035C00070E009958091F7059091F8054091F1051B
:1035D0005091F205DC01ED91FC910480F581E02D24
:1035E00066E070E0099580EB9BE00E946610DF9139
:1035F000CF911F910F91FF90EF90DF90BF90AF9010
:103600000C9444110F931F93CF93DF938A01E90128
:103610008091F5059091F6052817390759F461E076
:103620008FEF9FEF0E94A21881E0DF91CF911F9151
:103630000F910895209781F070E060E0C9010E9429
:10364000AA14D801ED91FC910480F581E02DAE0122
:1036500070E060E0C801099580E0E7CF0F931F9309
:10366000CF93DF938A01E9018091F5059091F605EA
:103670002817390759F461E081E090E00E94A21810
:1036800081E0DF91CF911F910F910895209781F0F4
:1036900070E060E0C9010E94AA14D801ED91FC918C
:1036A0000480F581E02DAE0170E060E0C80109956D
:1036B00080E0E7CF2F923F924F925F926F927F927E
:1036C0008F929F92AF92BF92CF92DF92EF92FF9232
:1036D0000F931F93CF93DF9300D000D0CDB7DEB709
:1036E0009C838B835B01342E29830A8310E000E0E6
:1036F000F12CE12CAB81BC811A964D915C911B970A
:103700001C962D913C911D97429FC001439F900DA7
:10371000529F900D1124081719070CF048C068013A
:10372000CC0CDD1C1E96ED91FC91EC0DFD1D8081F5
:1037300091810097C9F1DC01ED91FC910088F1893C
:10374000E02D0995982EEB81FC8182899389DC011B
:10375000ED91FC910088F189E02D0995981224C023
:10376000AB81BC811E96ED91FC91EC0DFD1D80811D
:103770009181DC01ED91FC910684F785E02D09959E
:10378000E816F9068CF4EB81FC8186859785C80ED6
:10379000D91ED6018D919C91DC01ED91FC9106849E
:1037A000F785E02D09957C010F5F1F4FA3CF32E015
:1037B000432E512C311003C02701F12CE12C0FEFC7
:1037C0001FEFE414F50409F4E0C0912C812CD12CF6
:1037D000C12CEB81FC814285538524853585429F30
:1037E000C001439F900D529F900D11248816990699
:1037F0000CF049C03401660C771C0684F785E02D77
:10380000E60DF71D808191810097C9F1DC01ED91F2
:10381000FC910088F189E02D0995282EEB81FC812F
:1038200082899389DC01ED91FC910088F189E02D7A
:103830000995281224C0EB81FC8186859785680E46
:10384000791ED3018D919C91DC01ED91FC91068450
:10385000F785E02D09958E159F0589F4BFEFCB1AEA
:10386000DB0A0E94B53596010D2C000C440B550B5C
:103870000E943336672B682B692B09F48401EFEF24
:103880008E1A9E0AA6CFF981F11121C0CD2809F424
:1038900072C0000F111FAB81BC811E96ED91FC918F
:1038A000E00FF11F80819181009739F0DC01ED91EB
:1038B000FC910280F381E02D0995AB81BC811E96BD
:1038C000ED91FC91E00FF11FB182A08234C0B1E014
:1038D000CB16D10409F047C0000F111FAB81BC818A
:1038E0001E96ED91FC91E00FF11F80819181009770
:1038F00039F0DC01ED91FC910280F381E02D099516
:10390000EB81FC8184899589E684F784E00EF11EC1
:10391000DC01ED91FC910084F185E02D0995F70122
:1039200091838083AB81BC811E96ED91FC91E00F69
:10393000F11FA080B180C5010F900F900F900F90E4
:10394000DF91CF911F910F91FF90EF90DF90CF907B
:10395000BF90AF909F908F907F906F905F904F90AF
:103960003F902F900895BA81BB2329F0E2E0CE1654
:10397000D1040CF08ECF332021F0B1E0EB1AF10826
:1039800020CFEFEFEE1AFE0A1CCFB12CA12CD3CF23
:103990002F923F924F925F926F927F928F929F925F
:1039A000AF92BF92CF92DF92EF92FF920F931F934D
:1039B000CF93DF93CDB7DEB72B970FB6F894DEBF6A
:1039C0000FBECDBF9B878A8778876F832A017901D5
:1039D0001801DC011A964D915C911B971C968D91F4
:1039E0009C911D97489F9001499F300D589F300D25
:1039F0001124012BC9F01E964D915C9190E080E05E
:103A0000912C812C82179307FCF4FC01EE0FFF1F11
:103A1000E40FF51F60817181EF81F8856E177F07D4
:103A200009F44C010196EECF4901330FAA08BB08F7
:103A300081149104A104B10439F00E94B535A501A7
:103A400094010E9433364B019401220F331F3E83B1
:103A50002D83AA85BB851E960D911C91020F131F05
:103A6000D201ED91FC910084F185E02DC201099510
:103A7000F80191838083D701ED91FC910480F58159
:103A8000E02DA70167E070E0C7010995E1E0F0E0F3
:103A9000FA83E98353E0852E912CA12CB12C298146
:103AA0003A81232B09F4BEC11C821B8210E000E086
:103AB000712C612CAA85BB851A964D915C911B9740
:103AC0001C962D913C911D97429FC001439F900DE4
:103AD000529F900D1124EB81FC81E817F9070CF03F
:103AE00013C16F01CC0CDD1C1E96ED91FC91EC0D09
:103AF000FD1D80819181009709F47DC0DC01ED916D
:103B0000FC910088F189E02D09958987D201ED911A
:103B1000FC910088F189E02DC2010995B985B8139F
:103B20006AC0EFEF6E1A7E0AC301800F911F45979E
:103B30000CF467C02114310409F06EC0AA85BB855E
:103B40001E96ED91FC911F97EC0DFD1D608171811A
:103B5000970145E050E0CD010E94BD0CC301800FEC
:103B6000911F45970CF46EC02114310409F075C003
:103B7000AA85BB851E96ED91FC911F97EC0DFD1D4E
:103B800060817181970145E050E0CD010E94780C81
:103B9000C301800F911F45970CF475C021143104A7
:103BA00009F07CC0AA85BB851E96ED91FC911F97FC
:103BB000EC0DFD1D60817181970145E050E0CD0164
:103BC0000E94300CC301800F911F45970CF47CC0FC
:103BD0002114310409F083C0EA85FB858685978529
:103BE000C80ED91ED6016D917C91970145E050E039
:103BF000CF010E94E20BEB81FC813196FC83EB83C9
:103C000059CF0E94B535A50194010E943336672B28
:103C1000682B692B09F48ECFAA85BB851E96ED9182
:103C2000FC911F97EC0DFD1D608171819B0142E0AD
:103C300050E0CD010E94BD0C892B09F08FCF0F5FA2
:103C40001F4F8CCF0E94B535A50194010E943336D9
:103C5000672B682B692B09F487CFAA85BB851E9635
:103C6000ED91FC911F97EC0DFD1D608171819B0111
:103C700042E050E0CD010E94780C892B09F088CFFA
:103C80000F5F1F4F85CF0E94B535A50194010E949B
:103C90003336672B682B692B09F480CFAA85BB8547
:103CA0001E96ED91FC911F97EC0DFD1D60817181B9
:103CB0009B0142E050E0CD010E94300C892B09F0BD
:103CC00081CF0F5F1F4F7ECF0E94B535A5019401B4
:103CD0000E943336672B682B692B09F479CFEA856C
:103CE000FB8586859785C80ED91ED6016D917C917E
:103CF0009B0142E050E0CF010E94E20B892B09F0CA
:103D00007ACF0F5F1F4F77CF0115110551F4F4E102
:103D10006F16710424F42114310409F4C4C01A820A
:103D20001982060D171D063111050CF4B8CED12CE1
:103D3000C12C1A821982AA85BB851A964D915C9175
:103D40001B971C962D913C911D97429FC001439F4C
:103D5000900D529F900D1124C816D9060CF09FCEDD
:103D60008601000F111F1E96ED91FC91E00FF11FCF
:103D700080819181009709F451C0DC01ED91FC91A3
:103D80000088F189E02D0995782ED201ED91FC9102
:103D90000088F189E02DC201099578123FC0AA85FB
:103DA000BB851E96ED91FC911F97E00FF11F60817E
:103DB0007181970145E050E0CD010E94BD0CAA85BC
:103DC000BB851E96ED91FC911F97E00FF11F60815E
:103DD0007181970145E050E0CD010E94300CAA8529
:103DE000BB851E96ED91FC911F97E00FF11F60813E
:103DF0007181970145E050E0CD010E94E20BEA8518
:103E0000FB8586859785080F191FD8016D917C91D8
:103E1000970145E050E0CF010E94780CBFEFCB1A2C
:103E2000DB0A89CF0A851B85EF81F885EF2B09F125
:103E3000AA85BB851E96ED91FC912D813E81E20FF6
:103E4000F31F80819181009739F0DC01ED91FC91A5
:103E50000280F381E02D0995AA85BB851E96ED9120
:103E6000FC912D813E81E20FF31F8F819885918314
:103E70008083C8012B960FB6F894DEBF0FBECDBF6E
:103E8000DF91CF911F910F91FF90EF90DF90CF9036
:103E9000BF90AF909F908F907F906F905F904F906A
:103EA0003F902F90089500E010E0BECF7F928F9258
:103EB0009F92AF92BF92CF92DF92EF92FF920F93B9
:103EC0001F93CF93DF93EC017A016D31710508F0F8
:103ED0002DC06259704EFB010C94B636A9207F2389
:103EE0009223A523B82306231123961FA522BC22C3
:103EF000C022262379237C23961F961F3622961FE5
:103F00001C23E621961FE920CB235223961F6B200A
:103F1000961FDE1F8B1FE881F9810480F581E02D5B
:103F200069E170E009958C01892B19F4F12CE12CE1
:103F300014C3E881F9810680F781E02D63E070E029
:103F4000CE010995892BA9F7E881F9810680F781CF
:103F5000E02D61E070E0CE010995892BA9F7E88199
:103F6000F9810680F781E02D67E170E0CE010995C7
:103F70000817190709F4F1C2E881F9810680F78171
:103F8000E02D64E070E0CE010995892B41F7E881CE
:103F9000F9810680F781E02D63E070E0CE0109959C
:103FA000892BA9F7E881F9810680F781E02D62E08D
:103FB00070E0CE010995892B91F6B8CFE881F9819F
:103FC0000680F781E02D67E170E009958C01E881BA
:103FD000F9810680F781E02D67E170E0CE01099557
:103FE000980150E040E0BC01CE010E94BD0CE816F3
:103FF000F90609F4B2C2E881F9810680F781E02D63
:1040000067E170E0CE0109958C01E881F9810680B5
:10401000F781E02D67E170E0CE010995980150E04D
:1040200040E0BC01CE010E94300CE816F90609F40C
:1040300094C2E881F9810680F781E02D67E170E0A4
:10404000CE0109958C01E881F9810680F781E02D88
:1040500067E170E0CE010995980150E040E0BC01B5
:10406000CE010E94E20BE816F90609F476C2E88157
:10407000F9810680F781E02D67E170E0CE010995B6
:104080008C01E881F9810680F781E02D67E170E01D
:10409000CE010995980150E040E0BC01CE010E949C
:1040A000780CE816F90609F458C2E881F98106800F
:1040B000F781E02D67E170E0CE01DF91CF911F9194
:1040C0000F91FF90EF90DF90CF90BF90AF909F90B7
:1040D0008F907F90099410E000E04A855B852C85E5
:1040E0003D85429FC001439F900D529F900D11242A
:1040F000081719070CF01ACF6801CC0CDD1CEE85EF
:10410000FF85EC0DFD1D808191810097F9F0DC01A8
:10411000ED91FC910680F781E02D60E170E009955A
:10412000EE85FF85EC0DFD1DC080D180009771F0FC
:104130008E159F0509F471C4DC01ED91FC91068098
:10414000F781E02D60E170E00995F0CF0F5F1F4F20
:10415000C4CF452B09F4EACE10E000E04A855B8528
:104160002C853D85429FC001439F900D529F900D2D
:1041700011240817190744F56801CC0CDD1CEE85E5
:10418000FF85EC0DFD1D808191810097D1F0DC0150
:10419000ED91FC910480F581E02DA70170E060E0D5
:1041A0000995EE85FF85EC0DFD1D808191818E15B1
:1041B0009F0539F48C899D89E816F90611F0118262
:1041C00010820F5F1F4FCACFB701CE010E94800A35
:1041D000ADCE9A0150E040E0B7010E94BD0C8C01C9
:1041E000009709F088C0B12C5FE7C52ED12C97014C
:1041F00050E040E0B701CE010E94780C8C0100979E
:1042000049F1DC01ED91FC910088F189E02D0995DF
:10421000A82E8A899B89DC01ED91FC910088F189A7
:10422000E02D0995A81216C0D801ED91FC910684E5
:10423000F785E02DC80109958C159D055CF4D80122
:10424000ED91FC910684F785E02DC80109956C017C
:1042500042E0B42E970150E040E0B701CE010E9449
:10426000300C8C01009749F1DC01ED91FC91008844
:10427000F189E02D0995A82E8A899B89DC01ED91B1
:10428000FC910088F189E02D0995A81216C0D8018B
:10429000ED91FC910684F785E02DC80109958C15F8
:1042A0009D055CF4D801ED91FC910684F785E02D25
:1042B000C80109956C0133E0B32E970150E040E04E
:1042C000B701CE010E94E20B8C01009709F03EC0BD
:1042D000B2E0BB1609F46AC0E3E0BE1609F46EC092
:1042E000F1E0BF1261C0970143E050E0B701CE0199
:1042F0000E94BD0C59C0DC01ED91FC910088F18950
:10430000E02D0995D82E8A899B89DC01ED91FC91DD
:104310000088F189E02D0995D81265CFD801ED917B
:10432000FC910684F785E02DC80109958F3791052A
:104330000CF059CFD801ED91FC910684F785E02D62
:10434000C80109956C01BB24B39451CFDC01ED91F8
:10435000FC910088F189E02D0995A82E8A899B8916
:10436000DC01ED91FC910088F189E02D0995A812FE
:10437000AFCFD801ED91FC910684F785E02DC801FF
:1043800009958C159D050CF0A3CFD801ED91FC91FA
:104390000684F785E02DC8010995970143E050E0B8
:1043A000B701CE010E94E20B7E01D7C0970143E026
:1043B00050E0B701CE010E94780CF6CF970143E0A0
:1043C00050E0B701CE010E94300CEECFF12CE12C71
:1043D0004A855B852C853D85429FC001439F900D9A
:1043E000529F900D1124E816F9060CF09FCD87011D
:1043F000000F111FEE85FF85E00FF11F8081918175
:10440000009781F1DC01ED91FC910480F581E02DB4
:10441000AC0163E170E00995EE85FF85E00FF11FC7
:1044200080819181DC01ED91FC910680F781E02D86
:1044300060E170E009958C010097A1F0DC01ED913D
:10444000FC910480F581E02DAC0163E170E00995F9
:10445000D801ED91FC910680F781E02D60E170E0DC
:10446000C801E8CFBFEFEB1AFB0AB2CF8A899B895C
:10447000009739F0DC01ED91FC910280F381E02D91
:1044800009951B8A1A8A10E000E04A855B852C8515
:104490003D85429FC001439F900D529F900D112476
:1044A000081719070CF043C06801CC0CDD1CEE8521
:1044B000FF85EC0DFD1D80819181009771F18E15B6
:1044C0009F0559F12C893D898217930731F1C70166
:1044D000BB24B394EE85FF85EC0DFD1D009781F0A4
:1044E000208131812817390709F4B12CDC01ED91C5
:1044F000FC910680F781E02D60E170E00995EACF3C
:10450000BB2059F040815181E881F9810480F58117
:10451000E02D70E060E0CE0109958E859F85C80E84
:10452000D91EF601118210820F5F1F4FAECF8C890A
:104530009D89009739F0DC01ED91FC910280F381B7
:10454000E02D09951D8A1C8A2FCF00E020E041E074
:10455000B701CE010E945A1B7C01C701DF91CF91A8
:104560001F910F91FF90EF90DF90CF90BF90AF9091
:104570009F908F907F90089500E020E040E0E8CF8A
:1045800010E000E04A855B852C853D85429FC00197
:10459000439F900D529F900D1124081719070CF09E
:1045A00003CF6801CC0CDD1CEE85FF85EC0DFD1DF5
:1045B00080819181009739F1DC01ED91FC910088B7
:1045C000F189E02D0995B82ED701ED91FC91008875
:1045D000F189E02DC7010995B81215C0EE85FF8558
:1045E000EC0DFD1D80819181009739F0DC01ED918A
:1045F000FC910280F381E02D0995EE85FF85EC0D9D
:10460000FD1D118210820F5F1F4FBCCFDA01ED91AB
:10461000FC910084F185E02DCA0109959B8B8A8B62
:10462000C3CEDA01ED91FC910084F185E02DCA0141
:1046300009959D8B8C8BB8CE2C893D894A895B89E5
:1046400001E010E0B7010E94C81C86CF2C893D898B
:104650004A895B8910E000E0B7010E94C81C7C0118
:104660002A853B858C859D85289FA001299F500D1B
:10467000389F500D112490E080E0841795070CF0CE
:104680006CCFEE85FF859C01220F331FE20FF31FD5
:1046900020813181232B21F42C893D893183208392
:1046A0000196EBCF88859985DC01ED91FC9106841C
:1046B000F785E02D09952A853B85829F8001839FA0
:1046C000100D929F100D11248E819F81DC01ED91C0
:1046D000FC910684F785E02D0995800F911F880FC6
:1046E000991F0E851F85800F911FFC01F182E082CA
:1046F00034CF5F834E831ACC5987488717CC9A01F1
:1047000043E050E0B701DF91CF911F910F91FF90EF
:10471000EF90DF90CF90BF90AF909F908F907F9061
:104720000C94BD0C9A0143E050E0B701DF91CF91AA
:104730001F910F91FF90EF90DF90CF90BF90AF90BF
:104740009F908F907F900C94780C9A0143E050E0FA
:10475000B701DF91CF911F910F91FF90EF90DF9004
:10476000CF90BF90AF909F908F907F900C94300C23
:104770009A0143E050E0B701DF91CF911F910F9173
:10478000FF90EF90DF90CF90BF90AF909F908F9071
:104790007F900C94E20B8E819F81DC01ED91FC9166
:1047A0000684F785E02D09955C0188859985DC01F3
:1047B000ED91FC910684F785E02D09954C0110E000
:1047C00000E0772473948C859D85081719070CF0F9
:1047D000ADCBD12CC12C2A853B85C216D3060CF05B
:1047E00017C1CA14DB0439F40815190521F4109215
:1047F00004017092B701209FC001219F900D309F4E
:10480000900D11248C0D9D1D880F991F2E853F85BD
:10481000820F931FFC01608171816115710509F49C
:1048200085C06E157F05F9F48A859B85089F9001E8
:10483000099F300D189F300D11242C0D3D1DC9010D
:10484000880F991FEE85FF85E80FF91F8081918100
:10485000009709F08CC0E889F989E20FF31F849171
:104860000E94450A8DC09B0150E040E0CE010E94AD
:10487000BD0CE816F906C1F22A853B85029FC001EE
:10488000039F900D129F900D11248C0D9D1D880F7C
:10489000991F2E853F85820F931FDC016D917C91BE
:1048A0009B0150E040E0CE010E94780CE816F9062A
:1048B00009F4BACF2A853B85029FC001039F900D62
:1048C000129F900D11248C0D9D1D880F991F2E8510
:1048D0003F85820F931FFC01608171819B0150E035
:1048E00040E0CE010E94E20BE816F90609F49CCFE5
:1048F0002A853B85029FC001039F900D129F900D5A
:1049000011248C0D9D1D880F991F2E853F85820FC8
:10491000931FDC016D917C919B0150E040E0CE0142
:104920000E94300CE816F90609F47ECF2A853B85F3
:10493000029FC001039F900D129F900D11248C0DBA
:104940009D1D880F991F2E853F85820F931FFC01A7
:1049500080819181009799F580E20E94450A7092CA
:1049600004011092B701BFEFCB1ADB0A34CFDC0190
:10497000ED91FC910680F781E02D66E170E00995EC
:104980002A853B85029FC001039F900D129F900DC9
:1049900011248C0D9D1D880F991F2E853F85820F38
:1049A000931FFC0180819181DC01ED91FC910480D9
:1049B000F581E02DAC0167E070E00995D0CFDC0116
:1049C000ED91FC910680F781E02D67E070E009959C
:1049D000892B11F62A853B85029FC001039F900D0C
:1049E000129F900D11248C0D9D1D880F991F2E85EF
:1049F0003F85820F931FFC0180819181DC01ED9145
:104A0000FC910680F781E02D66E170E00995A7CF63
:104A10000E9469120F5F1F4FD6CE76019ECDDC013A
:104A2000ED91FC910480F581E02D50E040E063E1E0
:104A300070E0099586E090E090930B0180930A0165
:104A40006091000170910101809102019091030138
:104A50006F5F7F4F8F4F9F4F6093000170930101F5
:104A600080930201909303012AE030E040E050E09F
:104A70000E94653660930C01611105C080910D01A3
:104A80008F5F80930D0180910D018A3039F4809100
:104A90000E0110920D018F5F80930E0180910E0127
:104AA0008A3009F049C010920E0180910F018F5F8A
:104AB00080930F018091D805209107019091080102
:104AC0003BEA239F312D1124369540910601821730
:104AD000D8F0290F20930801340F309306010E946B
:104AE000B5358091D80590910701891B8093D80531
:104AF00080910801909109018917D8F48F5F809304
:104B00000901109208010895980F90930801622FEF
:104B10000E949636839F400D112440930601215038
:104B2000209307012A3010F40E94B5351092D80561
:104B3000DFCF891B80930801089520E731E0FC0155
:104B40003183208386859785009711F00C94E0349B
:104B50000895CF93DF93EC010E949D25CE01DF9154
:104B6000CF910C94E0340C94E0340C94E0340C9429
:104B7000E0349F92AF92BF92CF92DF92EF92FF927A
:104B80000F931F93CF93DF936831710508F074C0C2
:104B9000FB01EC01E253FA4D0C94B636E625C7262C
:104BA000EA260E2725273C265B263C263C2669263E
:104BB0003C264627402743273C263C263C264B26BE
:104BC0003C266F263C263C267C27A126E881F981DD
:104BD0000680F781E02D67E170E009958C018885FA
:104BE0009985DC01ED91FC910684F785E02D09950E
:104BF0002A853B85829F7001839FF00C929FF00C69
:104C000011248E819F81DC01ED91FC910684F78552
:104C1000E02D09958E0D9F1D4A855B852C853D8570
:104C2000429FD001439FB00D529FB00D11242E859D
:104C30003F8550E040E070E060E04A175B0794F485
:104C4000FA01EE0FFF1FE20FF31F0190F081E02D3C
:104C5000309729F0E017F10711F46F5F7F4F4F5F36
:104C60005F4FEBCF880F991F280F391FF901118271
:104C70001082623071051CF080E090E01EC00115CA
:104C80001105D1F3D801ED91FC910280F381E02D63
:104C9000C8010995F1CFE881F9810680F781E02DFF
:104CA00066E070E0099501E021E040E0BC01CE0142
:104CB0000E945A1B02C08C899D89DF91CF911F9160
:104CC0000F91FF90EF90DF90CF90BF90AF909F90AB
:104CD000089500E021E040E070E060E0E8CFF12CD2
:104CE000E12C4A855B852C853D85429FC001439F11
:104CF000900D529F900D1124E816F9060CF0BCCFD0
:104D00008701000F111FEE85FF85E00FF11F8081E5
:104D10009181009791F0DC01ED91FC910680F78183
:104D2000E02D63E170E00995892B39F0EE85FF8570
:104D3000E00FF11F80819181C0CFBFEFEB1AFB0A1A
:104D4000D0CF8E819F81DC01ED91FC910684F785A7
:104D5000E02D09958C0188859985DC01ED91FC9108
:104D60000684F785E02D09952A853B85FC01E29FA5
:104D7000C001E39F900DF29F900D1124800F911FB1
:104D8000880F991FEE85FF85E80FF91FD3CF88851F
:104D90009985DC01ED91FC910680F781E02D62E0C0
:104DA00070E0099588859985DC01ED91FC91068478
:104DB000F785E02D0995A885B98597FF5FC0ED912E
:104DC000FC9111970680F781E02D61E070E0CD0144
:104DD000099552CF88859985DC01ED91FC9106807B
:104DE000F781E02D61E070E009950C851D858885CF
:104DF0009985DC01ED91FC910684F785E02D0995FC
:104E0000A885B98580179107CCF1ED91FC91119798
:104E10000680F781E02D62E070E0D9CF8E819F811E
:104E2000DC01ED91FC910680F781E02D62E070E0FD
:104E300009958E819F81DC01ED91FC910684F785B7
:104E4000E02D0995AE81BF81B8CF8E819F81DC01B5
:104E5000ED91FC910680F781E02D61E070E009950D
:104E60000A851B858E819F81DC01ED91FC91068472
:104E7000F785E02D0995AE81BF81C4CFCD011DCF4F
:104E80008E819F811ACF8885998517CF8E819F81CA
:104E9000DC01ED91FC910684F785E02D09959B8757
:104EA0008A8788859985DC01ED91FC910684F785D8
:104EB000E02D09959D878C872A853B85829F8001FF
:104EC000839F100D929F100D1124C801880F991F08
:104ED0000115B0E41B0710F08FEF9FEF0E944434E0
:104EE000FC010150110917FD03C011921192F9CF75
:104EF0008E879F87CE01E1CE8E819F81DC01ED916F
:104F0000FC910684F785E02D09956C0188859985CB
:104F1000DC01ED91FC910684F785E02D09955C019B
:104F200010E000E0992493948C859D85081719075B
:104F30000CF0A2CEF12CE12C4A855B85E416F50637
:104F4000BCF5EC14FD0439F40A151B0521F410928C
:104F500004019092B701409F9001419F300D509FF6
:104F6000300D11242E0D3F1DC901880F991FEE85AC
:104F7000FF85E80FF91F80819181009789F0DC019E
:104F8000ED91FC910680F781E02D66E170E00995D6
:104F9000909204011092B701BFEFEB1AFB0ACCCF3D
:104FA000E889F989E20FF31F84910E94450AF0CF46
:104FB0000E9469120F5F1F4FB7CFCF93DF93EB01B2
:104FC00086E190E00E944434DC0115961C921E920A
:104FD000149713961C921E9212971092B60180E7B6
:104FE00091E011969C938E9317961C921E921697A1
:104FF00019961C921E9218971B961C921E921A9735
:105000001D961C921E921C971F961C921E921E9714
:1050100051961C921E92509753961C921E92529734
:1050200055961C921E925497FE0184918335A1F4EB
:1050300021965196DC93CE9350978091B6018823A8
:1050400039F0109729F0CD010E94A925B0E0A0E029
:10505000CD01DF91CF91089589E58093B601EDCF21
:10506000CF93DF93EB0189E090E00E944434DC01B0
:1050700015961C921E92149713961C921E921297CC
:105080001092B6018AE591E011969C938E93179643
:105090001C921E92169718961C921897FE018491E6
:1050A0008035C1F43296E49183E0E23409F48BE078
:1050B00018968C9318978091B601882339F0109731
:1050C00029F0CD010E94B325B0E0A0E0CD01DF9131
:1050D000CF91089589E58093B601EDCF0F931F938B
:1050E000CF93DF938B018AE090E00E944434EC017F
:1050F0001D821C821B821A821092B60184E491E008
:10510000998388831F821E8281E090E09987888737
:10511000F8018081833431F4C80101960E940D3674
:105120000097A1F489E58093B6018091B6018823A8
:1051300039F0209729F0CE010E94B525D0E0C0E0DB
:10514000CE01DF91CF911F910F9108959F838E83A0
:10515000ECCFEF92FF920F931F93CF93DF937C01DD
:105160008AE090E00E944434EC011D821C821B8284
:105170001A821092B60184E491E0998388831F8299
:105180001E8281E090E0998788878FEA91E00E94F3
:105190000D360097B9F489E58093B60101E010E07F
:1051A000F70186819781081719077CF4E881F98156
:1051B0000680F781E02D61E070E0CE0109950F5F78
:1051C0001F4FEECF9F838E83E9CFCE01DF91CF912A
:1051D0001F910F91FF90EF9008951F920F920FB6BD
:1051E0000F9211248F939F938091E1009091E100A1
:1051F000937F9093E10083FF0FC01092E90091E04C
:105200009093EB001092EC0092E39093ED001092DB
:10521000EE0598E09093F00082FF22C093E0909317
:10522000E9009091F200992319F09AE39093E80035
:105230009091DF05992341F09091DF059150909373
:10524000DF05911101C05D9A9091ED05992341F020
:105250009091ED0591509093ED05911101C0289A20
:1052600084FF18C08091E2008E7E81608093E2000E
:105270008091E1008F7E8093E1008091E0058E7E39
:1052800080618093E0059F918F910F900FBE0F90EA
:105290001F90189580FFF7CF8091E2008E7E80618D
:1052A0008093E2008091E1008E7E8093E100809106
:1052B000E0058E7E8160E5CF1F920F920FB60F92B0
:1052C0001124CF92DF92EF92FF920F931F932F93AF
:1052D0003F934F935F936F937F938F939F93AF937E
:1052E000BF93EF93FF93CF93DF93CDB7DEB76C9768
:1052F000DEBFCDBF1092E9008091E80083FF25C09A
:1053000068E0CE0145960E94860882EF8093E8000F
:105310008D8987FF39C09091E80090FFFCCF982FCE
:10532000907609F034C19E894F89588D2F89F88C69
:10533000911131C0803861F58091DE058093F100D4
:105340001092F1008EEF8093E8006C960FB6F894FF
:10535000DEBF0FBECDBFDF91CF91FF91EF91BF9127
:10536000AF919F918F917F916F915F914F913F91FD
:105370002F911F910F91FF90EF90DF90CF900F90A2
:105380000FBE0F901F9018959EEF9093E800C7CF27
:105390001092F100D5CF913059F48111D3CF413023
:1053A000510581F68091DE058D7F8093DE05CACFA1
:1053B000933049F48111C6CF4130510519F68091DF
:1053C000DE058260F2CF953041F48091E80080FFE5
:1053D000FCCF20682093E300B5CF963009F0A9C038
:1053E0000B8D1C8D22E01092E9001092DC051092CA
:1053F000DB05F2122EC01092DA051092D9050E9438
:1054000055081F8299E09983FA8291E09E8390EA81
:1054100098879AEF99872091DB053091DC05275F0B
:105420003F4F3C832B838D831092E9001092DC0563
:105430001092DB051093DA050093D90549E050E09E
:10544000BE016F5F7F4F80E00E942F080E945508C9
:1054500079CF1093DA050093D9050E943907DC0152
:1054600012960D911C910115110509F451C1D80135
:10547000ED91FC910480F581E02DBE016B5E7F4FC4
:10548000C8010995009709F03EC1F8010085118512
:10549000EACFF3E0FF120EC08F89882309F440C0E1
:1054A000823061F440E860E18FE99BE00E94FC07F4
:1054B000811148CF81E28093EB0047CF813029F4FE
:1054C00040E86BE083E99BE0F1CF833099F70E94DD
:1054D0003907DC011296ED90FC908E010F5F1F4F93
:1054E0006801E114F10479F0D701ED91FC91068097
:1054F000F781E02DB801C7010995080F111DF701CB
:10550000E084F184EECFD8011C92F60101900020D6
:10551000E9F73197BF016C197D0940E0C601C6CF9C
:105520006DE77BE0FB01449150E080E80E942F088A
:1055300009CF973009F4BECF983021F481E08093F1
:10554000F10000CF993009F0FDCE837009F0B2CFA1
:10555000E8E2F1E081E031E096E32191222371F06D
:105560008093E9003093EB00DF0111972C91209399
:10557000EC009093ED008F5F873079F78EE7809392
:10558000EA001092EA008F898093EE05DBCE8B8DC6
:105590009C8D1092E9001092DC051092DB0590932F
:1055A000DA058093D905898D811192C08E899D89F4
:1055B000913A49F4813209F07DCF47E050E064E14F
:1055C00071E080E0B3CF913209F074CF833269F497
:1055D0008F89988DB0E0A0E0809310019093110125
:1055E000A0931201B0931301ADCE803269F4809183
:1055F000E80082FFFCCF67E084E191E00E9486082A
:105600008BEF8093E8009ECE823209F09BCE8F898B
:1056100080931B01EEEFFFE7859194918B3F9C4DAA
:1056200051F1E0E0F8E08091140190911501A09112
:105630001601B0911701803B9440A105B105F1F42A
:1056400080911B0180FD1AC0EE3F8AE0F80789F5C2
:1056500087E797E791838083809160008093DD05E1
:1056600088E19BE00FB6F894A895809360000FBE88
:105670009093600067CEEEEFFAE0D5CF8081918104
:105680008737974709F05ECEA895809160008861C2
:10569000809360008091DD0580936000EE3F2AE0FA
:1056A000F20789F08091FE0A9091FF0A918380832E
:1056B00049CE808191818737980751F29093FF0AF4
:1056C0008093FE0AC5CF1092FF0A1092FE0A3ACECE
:1056D0000E943907DC0112960D911C9101151105EC
:1056E00009F4E8CED801ED91FC910190F081E02D14
:1056F000BE016B5E7F4FC8010995811123CEF80171
:1057000000851185EBCF181619060CF41BCED2CEEE
:10571000F1E0FF12BECE61E87BE004CF1F920F9252
:105720000FB60F9211242F933F938F939F93AF93B4
:10573000BF938091BD059091BE05A091BF05B0912A
:10574000C0053091B80523E0230F2D3758F5019699
:10575000A11DB11D2093B8058093BD059093BE0592
:10576000A093BF05B093C0058091B9059091BA058B
:10577000A091BB05B091BC050196A11DB11D809300
:10578000B9059093BA05A093BB05B093BC05BF9132
:10579000AF919F918F913F912F910F900FBE0F90DE
:1057A0001F90189526E8230F0296A11DB11DD2CF98
:1057B000CF93DF93E9EFF5E01382128288EE93E056
:1057C000A0E0B0E084839583A683B78382E391E071
:1057D000918380838FEF9FEF95878487E8E7F6E0DA
:1057E0001582148280918E0690918F069383828316
:1057F00080E791E09183808317821682118610865C
:10580000138612861586148617861686118A108AC4
:10581000138A128A158A148ACFE6D6E01D821C826A
:10582000FB83EA838AE591E0998388831F821E8245
:105830001886A5E6B6E015961C921E92149713964C
:10584000DC93CE93129784E491E011969C938E930F
:1058500017961C921E92169781E090E019969C93E1
:105860008E931897E9E4F6E08EEA96E091838083C0
:1058700087E99EE09383828384E097E19583848324
:105880008EE29BE19783868382E09BE1918780870C
:1058900083E89EE09387828787EE90E195878487EF
:1058A0008BE496E19787868782E694E1918B808BE3
:1058B00084EF95E1938B828B8EE995E1958B848BB8
:1058C0008DE295E1978B868B8AEF94E1918F808FA3
:1058D00081E89EE0938F828FE6E9F6E013821282E0
:1058E0008CE991E091838083E0E9F6E086E891E03D
:1058F0009183808315821482B383A283F0938F06F1
:10590000E0938E06DF91CF910895CF93DF931F929E
:10591000CDB7DEB7789484B5826084BD84B58160EC
:1059200084BD85B5826085BD85B5816085BD80916A
:105930006E00816080936E001092810080918100E2
:1059400082608093810080918100816080938100DA
:1059500080918000816080938000809191008260BE
:10596000809391008091910081608093910080915B
:1059700090008160809390008091C100846080934A
:10598000C1008091C10082608093C1008091C100FC
:1059900081608093C1008091C30081608093C300C7
:1059A0008091C00082608093C0008091C2008160BD
:1059B0008093C20080917A00846080937A00809105
:1059C0007A00826080937A0080917A00816080936F
:1059D0007A0080917A00806880937A001092EE05B8
:1059E0001092DE051092E0058091D70081608093CF
:1059F000D70080EA8093D80089B5806189BD89B5D8
:105A0000826089BD09B400FEFDCF61E070E080E0F6
:105A100090E00E94E5088091D8008F7C806180939F
:105A2000D8008091E000807F8093E0008091E100C9
:105A30008E7E8093E1008DE08093E200559A209A5B
:105A400081EC80937C0085B1806F85B984B1877EBD
:105A500084B984B1876E84B95E9A5F988AB1806D8B
:105A60008AB9769A6E9881B3806F81BB899880B32A
:105A70008D7080BB80E58CBD81E08DBD0E941809D2
:105A80005F9A0E9418095E985C98E1E5F9E08EE55E
:105A900099E024912EBD00000DB407FEFDCF319694
:105AA0008E179F07B1F75C9A81E88093640080911C
:105AB00065008160809365000E94700A0E94A309BE
:105AC00087FF15C05C9885EA8EBD00000DB407FE07
:105AD000FDCF5C9A2E982F982D988091640080625B
