:100000000C948E030C94B6030C94B6030C94B603B4
:100010000C94B6030C94B6030C94B6030C94B6037C
:100020000C94B6030C94B6030C944E290C94BD2981
:100030000C94B6030C94B6030C94B6030C94B6035C
:100040000C94B6030C94B6030C94B6030C94B6034C
:100050000C94B6030C94B6030C94B6030C94EF2BDB
:100060000C94B6030C94B6030C94B6030C94B6032C
:100070000C94B6030C94B6030C94B6030C94B6031C
:100080000C94B6030C94B6030C94B6030C94B6030C
:100090000C94B6030C94B6030C94B6030C94B603FC
:1000A0000C94B6030C94B6030C94B6035032423849
:1000B000424F4F4B4B454550455200503142313431
:1000C000484F55534500502042305645494E005048
:1000D0002B6230444F4F52005023623050415254F3
:1000E0004954494F4E0044455354524F59EEDB207A
:1000F0004946204C4F57204D454D0053484F57EE31
:10010000DB204F52204F4EEEDB555345EE40004E64
:10011000455854204F574E4552EE4020414D4F4ECA
:1001200047EE400057414954204F4E45204D494E1F
:1001300055544500494E2052455741524420594F8D
:10014000552043414E0A4F5244455220464F4F449A
:1001500020414E44205049434B530A46524F4D20B4
:100160004F544845522056494C4C414745530A4646
:100170004F52204E45585420594541522E0A0A47A5
:100180004F4F44204C55434B2E00594F55204C495E
:10019000564520494E20434F4D4D554E4953540A24
:1001A0004D494E494E472056494C4C4147452E0A31
:1001B0000A31205945415220455155414C203920A2
:1001C000444159532E0A0A594F5552205441534B1A
:1001D00020544F2046554C46494C4C0A414E4E55F2
:1001E000414C20434F414C204D494E494E470A5007
:1001F0004C414E2E00484F4D45005A5A5A00445229
:100200004F5000474F54004E4F54204F574E4552C9
:1002100000415741592046524F4D004449534150E7
:100220005045415245440044524F57535900544899
:10023000495253545900544F494C45540048554E67
:10024000475259000108FF04083E09093E3F252591
:100250001A1E2121123F21211E3F2525213F050580
:10026000011E21293A3F04043F213F210010212192
:100270001F3F040A313F2020203F02023F3F02047B
:100280003F1E21211E3F0909061E21112E3F09098B
:100290003622252519013F01011F20201F0F1020A4
:1002A0001F3F10103F3B04043B03043807312D234C
:1002B000211E29251E223F20003229292612212510
:1002C0001A0C0A3F08172525191E2525180139057E
:1002D000031A25251A0629291E00200000006000A7
:1002E00000100804020064000000030000003F2129
:1002F0000000213F0056393956002400007F6A6A09
:100300007F7F2B2B7FFFFFFFFF38545444563F3F26
:100310005610081008000C122121120C00022905A9
:1003200002082A1C08307E3010026C3C62534345A0
:100330004E4500533D3D3D3D3D3D3D3D3D3D3D3DFB
:100340003D3D3D3D3D3D3D3D3D202020203D3D3D51
:100350003D3D3D3D3D3D3D3D3D3D3D3D3D2B232B0B
:10036000233D3D3D3D3D3D3D3D3D3D3D3D3D3D3DD7
:1003700031402020203D3D3D3D3D3D3D3D3D3D3D0D
:100380003D3D3D3D3D202020203D3D3D3D3D3D3D11
:100390003D3D3D3D3D3D3D3D3D232323233D3D3DF5
:1003A0003D3D3D3D3D3D3D3D3D3D3D3D3D3D3D3D7D
:1003B0003D3D3D3D3D3D3D3D3D3D3D3D3D3D3D3D6D
:1003C00000533D3D3D3D3D3D3D3D7E7E7E3D3D3DC1
:1003D0003D3D3D3D3D3D3D3D3D3D3D3D3D3D7E3910
:1003E0007E3D3D3D3D3D3D3D3D3D3D3D3D3D3D3DFC
:1003F0003D3D2020203D3D3D3D3D3D3D3D3D3D3D84
:100400003D3D3D3D3D32204020313D3D3D3D3D3D6A
:100410003D3D3D3D3D3D3D3D3D3D2020203D3D3D63
:100420003D3D3D3D3D3D3D3D3D3D3D3D3D3D3D3EFB
:100430003D3D3D3D3D3D3D3D3D3D3D3D3D3D3D3DEC
:100440003D3D3D3D3D3D3D3D3D3D3D3D3D3D005105
:1004500005D800AE05A40499042305CF00C6005CAE
:1004600005D0047704C504460537052C0583048FA1
:1004700004BB00AC005300506442313244524F5729
:10048000535900503942354F555453494445005053
:100490006142374D494E455200503C42344153432E
:1004A000454E4400503E423344455343454E44007C
:1004B000502F4231335049434B0050684230485529
:1004C0004E47455200504F4230544F494C4554001E
:1004D0005054423054484952535400507342395397
:1004E0004C454550002000290042494E4400280058
:1004F000192000EE200029002C413A4F574E45525A
:10050000002C413A53454C4543540028444F574E24
:100510003A4E45585400D5F08D14A1C881CFD9F179
:10052000AF20005020423057414C4C0050636230A5
:10053000434F4C4C41520050644230554E4445416B
:100540004420444F470050666231465249454E446C
:1005500000507E423131574154455200506C423276
:100560004C4946450A4C4956494E47205448494E45
:10057000472E0A4C49464520434155534553204890
:10058000554E4745522C0A5448495253542C205337
:100590004C4545502C2057415354452E0A594F5530
:1005A0002043414E204C4F53542049542E0050407C
:1005B0006237504C4159455200EE203A2027454CB5
:1005C000454D454E54204F4627002E203A20464C9C
:1005D0004F4F5220284E4F5448494E472900DB20A8
:1005E0003A204F424A20554E4445522043555253DB
:1005F0004F52004020594F5528484F4C442041202D
:10060000544F204D4F5645290024010F01FB00E6B1
:100610000044454D4F204D4F44453F2041592F4206
:100620004E008A0134015025423130464F4F44007C
:100630005049434B53207C204155544F5049434B24
:10064000555000434F414C207C204E4545440046C8
:100650004F4F44207C2041203A2054414B45004DCF
:10066000414E283120464F4F442045414348290000
:10067000424F4F4B4B45455045523A003A004400DB
:100680005900E5043D0236022E0227021B02110228
:1006900007020302FE01FA01E9042D03F5014C4FA4
:1006A0005700080B000202020000090400000102CA
:1006B00002000005240010010524010101042402A8
:1006C0000605240600010705810310004009040106
:1006D00000020A000000070502024000000705832F
:1006E000024000000403090412010002EF0201406D
:1006F0004123368000010102030141726475696E75
:100700006F204C4C430041726475696E6F204C65DC
:100710006F6E6172646F00006C2CE03411241FBE98
:10072000CFEFDAE0DEBFCDBF11E0A0E0B1E0EAEF4D
:10073000FEE602C005900D92AA3CB107D9F726E06B
:10074000AAECB1E001C01D92A13CB207E1F713E0B1
:10075000CDE8D3E004C02197FE010E945637CC3883
:10076000D107C9F70E94232D0C9470370C94000018
:1007700080E008950F931F93CF93DF938B01C09177
:10078000B306D091B406209791F086E0C53BD80718
:10079000A1F0E881F9810288F389E02DB801CE014A
:1007A0000995009751F0FC0117830683EC01CE01F7
:1007B000DF91CF911F910F9108950C80DD81C02DA5
:1007C000E2CF0F931F93CF93DF938C01C091B306B9
:1007D000D091B406209791F086E0C53BD807A1F0F0
:1007E000E881F9810288F389E02DB801CE010995ED
:1007F000009751F0FC0117830683EC01CE01DF91D5
:10080000CF911F910F9108950C80DD81C02DE2CF13
:10081000EF92FF920F931F93CF93DF9361157105B2
:1008200011F420E024C0142FEB017C01E881F98150
:10083000008CF18DE02DCB010995082FD70154963E
:100840008D919C91DC01ED91FC91008CF18DE02D5E
:1008500009950813E6CFE881F9810688F789E02D2C
:10086000CE01099521E018171906D9F2D4F2822F8A
:10087000DF91CF911F910F91FF90EF900895FC01B0
:1008800080911106882311F13FB7F89482E080939C
:10089000E9002091F200822F90E01816190614F456
:1008A00081E090E0882339F0289844E640931006D0
:1008B0004091F1004083222339F02091F200211170
:1008C00003C02BE62093E8003FBF08958FEF9FEF12
:1008D00008952FB7F89483E08093E9009091E800A1
:1008E000892F807295FF04C09091F20080E4891BEB
:1008F0002FBF08958091080681110DC082E080937A
:10090000040684E0809305061092070610920606FE
:1009100081E08093080684E096E00895CF93DF930A
:100920001F92CDB7DEB76983DC01ED91FC910280A7
:10093000F381E02D41E050E0BE016F5F7F4F0995EC
:100940000F90DF91CF91089583E08093E90080912B
:10095000F200882319F08AE38093E80008950E944A
:10096000690490E00895CF93DF931F92CDB7DEB76F
:10097000FC018485958597FD08C02FEF3FEF3587F3
:1009800024870F90DF91CF910895CE0101960E94A8
:100990003F04019719F4898190E0F3CF8FEF9FEF27
:1009A000F0CF0F931F93CF93DF931F92CDB7DEB796
:1009B0008C01FC018485958597FF0BC0CE010196C3
:1009C0000E943F04019771F4898190E0F8019587B6
:1009D0008487F801848595850F90DF91CF911F91D1
:1009E0000F9108958FEF9FEFF1CFFC0184859585DE
:1009F00097FD0BC09FB7F89482E08093E900809147
:100A0000F2009FBF90E0019608959FB7F89482E0AE
:100A10008093E9008091F2009FBF90E0089540919B
:100A2000FE055091FF052091FC053091FD05421710
:100A30005307B4F49091E8009570E1F39091E800C9
:100A400092FD19C08093F1008091FE059091FF0501
:100A500001968F739927892B19F48EEF8093E80004
:100A60008091FE059091FF0501969093FF0580937C
:100A7000FE0581E0089580E00895DF92EF92FF92F5
:100A80000F931F93CF93DF93D82E8A01EB017B0145
:100A9000E40EF51ECE15DF0559F0D7FE12C0FE019B
:100AA00084910E940F0521968111F4CF0FEF1FEF63
:100AB000C801DF91CF911F910F91FF90EF90DF90D0
:100AC00008958881EECF0F931F93CF93DF931F92EA
:100AD000CDB7DEB782E0898342E450E062EA76E097
:100AE00080E80E943D050E947A04DC0112960D9177
:100AF0001C910115110589F0D801ED91FC9102803E
:100B0000F381E02DBE016F5F7F4FC801099597FD0E
:100B100004C0F80100851185ECCF89810F90DF9129
:100B2000CF911F910F910895615030F02091F10005
:100B3000FC0120830196F8CF289884E68093100664
:100B40000895AF92BF92CF92DF92EF92FF920F93F0
:100B50001F93CF93DF936C017B018B01040F151F53
:100B6000EB015E01AE18BF08C017D10759F06991BB
:100B7000D601ED91FC910190F081E02DC60109951F
:100B8000892B79F7C501DF91CF911F910F91FF90CC
:100B9000EF90DF90CF90BF90AF9008953FB7F8945B
:100BA0008091D1059091D205A091D305B091D40543
:100BB00026B5A89B05C02F3F19F00196A11DB11DB8
:100BC0003FBFBA2FA92F982F8827BC01CD01620FF4
:100BD000711D811D911D42E0660F771F881F991FAF
:100BE0004A95D1F708958F929F92AF92BF92CF927C
:100BF000DF92EF92FF926B017C010E94CE054B01C8
:100C00005C01C114D104E104F104B9F00E94CE05E5
:100C1000681979098A099B09683E73408105910525
:100C200080F321E0C21AD108E108F10888EE880EAD
:100C300083E0981EA11CB11CE4CFFF90EF90DF90E1
:100C4000CF90BF90AF909F908F90089565E070E037
:100C500080E090E00C94F3058F929F92AF92BF9248
:100C6000CF92DF92EF92FF920F931F93CF93DF9378
:100C70006C017B018A0180911D01882309F45CC00D
:100C800080911106882309F457C08091030680FFE4
:100C900005C08091E00082608093E000E801B12C03
:100CA0008AEFA82E93E0892E2AE3922E209711F442
:100CB000BB20D9F10E94690481110AC0AA94AA201C
:100CC000D9F161E070E080E090E00E94F305EECFA2
:100CD0008C171D0611F00CF08C2F9FB7F8948092A2
:100CE000E9002091E80025FD02C09FBFDFCF282F3B
:100CF00030E0C21BD30BF701815020F041914093AB
:100D0000F100FACFE20EF31EBB2021F09092E80032
:100D1000B12CEBCF8091E80085FDE7CF9092E80001
:100D2000BB24B394209709F3F3CF5D9884E68093B6
:100D30000206101611063CF081E090E0F601938364
:100D4000828310E000E0C801DF91CF911F910F91E5
:100D5000FF90EF90DF90CF90BF90AF909F908F90DB
:100D600008952F923F924F925F926F927F928F924F
:100D70009F92AF92BF92CF92DF92EF92FF920F932A
:100D80001F93CF93DF9300D000D01F92CDB7DEB773
:100D9000FB01BC01600F711D7A836983161617066B
:100DA0000CF0FCC0BF016E0D711D161617060CF07D
:100DB000F5C0E034F1050CF0F1C04115510509F41E
:100DC000EDC07E2F7770672EDF01F7FD179613E0D9
:100DD000B595A7951A95E1F77A2FF7FF04C066201D
:100DE00011F07FEF7A0FEE27FF27E81BF90B97FD35
:100DF00002C0F0E0E0E0A981BA81D02EA038B105B0
:100E00001CF0A0E8DA2ED81ADE1AA72F072E000C45
:100E1000BB0B7F3F0CF0A7C0FA2EF094FD8211E0CF
:100E200019836E2D677009F41982E694E694E694AE
:100E30006981E60EAE0DB11D19971CF068E0E62E33
:100E4000E71A7D80770E172D60E81603D001112474
:100E50008A0F9B1F8E0F9F1F262C062C000C330819
:100E6000A3E0CA1282C0B2E0BB83602F6D19AB81D0
:100E70006A9F602D11248A2E912CBD810B9FE00D5D
:100E8000F11D1124E89DD001E99DB00DF89DB00D34
:100E900011245A01AA0EBB1E2115310509F49A012D
:100EA000A40141505109A40FB51F2A0F3B1FAFEFFA
:100EB000B0E0062C02C0AA0FBB1F0A94E2F7AD01F6
:100EC000409550955A8349834E2C470E70E05B81C4
:100ED0005D9D600D711D1124741409F45FC0DC0167
:100EE000A053BE4FBC83AB8310E000E0512CD5145F
:100EF00009F44CC0F501E00FF11F449150E0022CC1
:100F000002C0440F551F0A94E2F7B2E0E981FA816A
:100F1000CB1641F0EBEFCE122BC0FA01E095F09525
:100F200050E040E077FC06C0AB81BC81FC90FE2223
:100F3000F42AFC92662069F0B6E0B71554F0EB8015
:100F4000FC80A0E8EA0EF11CD7014C914F23452B01
:100F50004C935394080D191D4B815C814F5F5F4F7B
:100F60005C834B83C4CF1D825ACF11E01B837DCF9E
:100F7000F901E00FF11FE491F0E0022C02C0EE0F46
:100F8000FF1F0A94E2F7E095F095CCCF7394A60E7C
:100F9000B71E260F371F80589F4F9ECF0F900F9080
:100FA0000F900F900F90DF91CF911F910F91FF90B5
:100FB000EF90DF90CF90BF90AF909F908F907F90F9
:100FC0006F905F904F903F902F900895CF92EF9247
:100FD0000F93CF93DF93DC01FA0104913196E490F3
:100FE0004E5F5F4F2223D1F0C1E0D0E09E2D97707D
:100FF00011F4D0E0C0E0EE2DE695E695E695EC0F15
:10100000FD2FF11D0E9FE0010F9FD00D11242C9F8D
:10101000C0012D9F900D1124480F591F8AEFC82E33
:1010200030E020E0CD010E94B106DF91CF910F9119
:10103000EF90CF9008958FB18095807F669B8860F8
:101040001C9B846008959091E605982329F4909163
:10105000E705982381E009F480E00895E0EDF1E0F0
:1010600080E0A0E0B8E000800EBC8111012C119757
:10107000A0FDFDCF0192B9F70DB4089580E0E0ED39
:10108000F1E081118FEF002481938193819381930B
:101090000394D1F70895DF92EF92FF920F931F937D
:1010A000CF93DF938C01EB01F12CE12CDD24D39461
:1010B000D8011C964D915C911D971E962D913C91E7
:1010C0001F97429FC001439F900D529F900D112486
:1010D000E816F906F4F45096ED91FC91C701880FDB
:1010E000991FE80FF91F80819181009771F08C178B
:1010F0009D0709F4D12CDC01ED91FC910684F78564
:10110000E02D60E170E00995F0CFBFEFEB1AFB0A2C
:10111000CFCFE881F9810684F785E02D60E170E0AA
:10112000CE010995009721F0BC01C8010E944B082F
:10113000DD2071F0E881F9810284F385E02DCE0194
:10114000DF91CF911F910F91FF90EF90DF90099465
:10115000DF91CF911F910F91FF90EF90DF90089555
:10116000089590E080E0089590E080E008954F9227
:101170005F926F927F928F929F92AF92BF92CF9227
:10118000DF92EF92FF920F931F93CF93DF935C0157
:101190003B012A016901CC0CDD1CDC0150968D90CD
:1011A0009C9051978C0C9D1CF401C081D18103301F
:1011B000110509F4A8C0D0F40130110509F44AC0A2
:1011C0000230110509F47EC0CE01DF91CF911F914D
:1011D0000F91FF90EF90DF90CF90BF90AF909F90D6
:1011E0008F907F906F905F904F900895043011051D
:1011F00041F00530110541F7209731F7F182E08287
:10120000E3CF2097A9F056968D919C918C179D075E
:1012100039F0E881F9810284F385E02DCE0109954A
:10122000D5015096ED91FC91EC0DFD1D11821082BF
:10123000F50180899189FC01EC0DFD1D71826082B0
:10124000440C551C840D951DDC011D921C92D0E0B0
:10125000C0E0BACF2097A9F0FC01868997898C1746
:101260009D0739F0E881F9810284F385E02DCE01F4
:101270000995D5015096ED91FC91EC0DFD1D118263
:101280001082F501C089D189CC0DDD1DD701ED910A
:10129000FC910088F189E02DC70109959983888325
:1012A000F50120893189C20ED31ED6018D919C9102
:1012B000DC01ED91FC910684F785E02D61E070E0A2
:1012C0000995C5CF209709F07FCFD701ED91FC910B
:1012D0000088F189E02DC7010995F401918380838D
:1012E000D50150962D913C91C20ED31EF6018081FE
:1012F0009181DC01ED91FC910684F785E02D61E0A0
:1013000070E0099561CF2097A9F0E881F981068402
:10131000F785E02D66E070E0CE010995892B51F04C
:10132000D50150962D913C91C20ED31EF601C0817D
:10133000D1814ACFD50150968D919C91FC01EC0D45
:10134000FD1D20813181440C551C840D951DDC014F
:101350002D933C93718260827ACF8F929F92AF924D
:10136000BF92CF92DF92EF92FF920F931F93CF9392
:10137000DF93FC01EB018A016485758546855785FD
:10138000649FC001659F900D749F900D1124D12C16
:10139000C12CC816D9066CF5A089B189A601440FE5
:1013A000551FA40FB51FAD90BC9046014FEF841A96
:1013B000940AAC16BD06D9F4C4010E944237892BA9
:1013C00041F07901BE01CF019401A6010E94B70846
:1013D0005C01C501DF91CF911F910F91FF90EF90BC
:1013E000DF90CF90BF90AF909F908F900895640151
:1013F000D0CF5E01EECFAF92BF92CF92DF92EF924D
:10140000FF920F931F93CF93DF93EC016B018A013F
:101410006C857D854E855F85649FC001659F900DBD
:10142000749F900D1124F0E0E0E0E817F9074CF507
:10143000A889B989AF01440F551FA40FB51FAD90FE
:10144000BC90AC14BD04D9F4CF010E944237892B63
:1014500051F07901B601CE019F0121503109AF0150
:101460000E94B7085C01C501DF91CF911F910F91D8
:10147000FF90EF90DF90CF90BF90AF90089531969E
:10148000D4CF5601F0CFCF92DF92EF92FF920F931D
:101490001F93CF93DF93DC0179011C96CD90DC90F4
:1014A0001D971E968D919C911F97C89E8001C99E85
:1014B000100DD89E100D1124F0E0E0E0E017F107C8
:1014C0002CF550968D919C9151979F01220F331FBF
:1014D000820F931FEC018881998186179707A1F4E9
:1014E00096012E0F3F1F201731072CF48A01CD01E2
:1014F000AF010E94B708DF91CF911F910F91FF902C
:10150000EF90DF90CF9008953196D8CFCB01F3CFF5
:10151000EF92FF920F931F93CF93DF93DC0179013A
:101520001C962D913C911D971E968D919C911F9715
:10153000289F8001299F100D389F100D1124F0E085
:10154000E0E0E017F10714F55096CD91DC9151974A
:10155000CF01880F991FC80FD91F888199818617DD
:10156000970791F4EF01C21BD30B9E01D7FD05C075
:101570008A01CD01AF010E94B708DF91CF911F9181
:101580000F91FF90EF9008953196DBCFCB01F5CF0F
:1015900083E5089590E080E0089590E080E008956C
:1015A0000895EF92FF920F931F93CF93DF93EC0177
:1015B0008A016B31710508F0A4C06E51754FFB01B3
:1015C0000C945637FD0A650B810B810B810B810B47
:1015D000670BB90B810B810B810B810B810B810B8D
:1015E000810B810B950BAB0B810BB20B650B810B48
:1015F000810B6D0B980B810B5F0B209709F44BC08F
:10160000E881F9810684F785E02D60E170E0CE0184
:101610000995F12CE12C0817190709F47E01E881DE
:10162000F9810684F785E02D60E170E0CE0109952F
:10163000EC01E114F10409F3E881F9810684F785EE
:10164000E02D60E170E0CE010995EC01892BC1F03D
:10165000D801ED91FC910684F785E02D61E170E001
:10166000C8010995892BF9F4D801ED91FC91068404
:10167000F785E02D61E170E0C8010995892BE1F65D
:10168000D701ED91FC910484F585E02DAE0160E178
:1016900070E0C7010995C801DF91CF911F910F91AB
:1016A000FF90EF900895E881F9810684F785E02D99
:1016B00061E170E0CE010995892BB1F2E1CF8A8515
:1016C0008F70452B09F0806F8A878E01E4CF8A8561
:1016D000877F452BC9F38860F7CF2E813F81FA01C0
:1016E000868197812817390781F3E881F98106847B
:1016F000F785E02D60E170E0CE010995EC010097DF
:1017000019F410E000E0C7CFE881F9810684F7857D
:10171000E02D61E170E00995892B99F72E813F81D9
:10172000D80116968D919C91DDCF59874887B3CF0C
:1017300048855985198708874115510509F4ABCFAC
:10174000D801ED91FC910484F585E02D60E170E015
:10175000C8010995BACF8A858B7F452B09F4B4CF90
:101760008460B2CF8A858D7F452B09F4ADCF82602E
:10177000ABCF8A858E7F452B09F0A6CF8160A4CFA1
:10178000FC01868197810C94E10380E50895DC01DA
:101790001696ED91FC91339680E04AE02491205317
:1017A000330B2A30310540F49491849F900D11241D
:1017B000892F80533196F2CF90E00895FC01868105
:1017C00097810396FC0124912053330B2A30310575
:1017D00010F40196F7CF0895089580E0089580E011
:1017E0000895EF92FF920F931F93CF93DF938C0195
:1017F0007B01EA014091F6055091F705E881F981F6
:101800000484F585E02D6AE070E0CE010995E88159
:10181000F9810484F585E02DA70162E170E0CE0135
:101820000995E881F9810484F585E02DA80165E139
:1018300070E0CE01099580E0DF91CF911F910F916B
:10184000FF90EF9008954F925F926F927F928F92E8
:101850009F92AF92BF92CF92DF92EF92FF920F933F
:101860001F93CF93DF93EC018091FA059091FB05D4
:10187000009739F0DC01ED91FC910284F385E02DB5
:1018800009958091CC019091CD01009739F0DC0150
:10189000ED91FC910284F385E02D09958091CA01B8
:1018A0009091CB01009739F0DC01ED91FC9102841D
:1018B000F385E02D099589EB91E00E94E103909377
:1018C000CD018093CC018DEB91E00E94E1039093D8
:1018D000CB018093CA01CE010E94E1039093FB05E6
:1018E0008093FA054091CC015091CD01DC01ED913E
:1018F000FC910484F585E02D6CE070E00995809101
:10190000FA059091FB054091CA015091CB01DC0191
:10191000ED91FC910484F585E02D6DE070E0099572
:101920008091FA059091FB05DC01ED91FC91068414
:10193000F785E02D6BE070E009958091FA059091B4
:10194000FB05DC01ED91FC910684F785E02D63E059
:1019500070E00995892B89F78091FA059091FB0534
:10196000DC01ED91FC910684F785E02D61E070E0EB
:101970000995892B89F78091CC019091CD01DC01EB
:10198000ED91FC910688F789E02D09957C01809105
:10199000CA019091CB01DC01ED91FC910688F78999
:1019A000E02D09955C01B4E0C537DB0709F48CC074
:1019B0002196512C84E1482E95E7692E94E0792EEA
:1019C0004A9CF0014B9CF00D1124EE0DFF1DEC0F15
:1019D000FD1F8491803229F1F4E0C537DF0709F15A
:1019E000882E082E000C99084091F8055091F905B1
:1019F000DA011696ED91FC913196E491E8151904FF
:101A000009F065C08091FA059091FB05DC01ED912C
:101A1000FC910484F585E02D67E170E0099555247B
:101A200053948091FA059091FB05DC01ED91FC91B6
:101A30000684F785E02D64E070E00995EFEFEE1A7B
:101A4000FE0A892B09F0BCCF8091FA059091FB0525
:101A5000DC01ED91FC910684F785E02D63E070E0F8
:101A60000995892B89F78091CC019091CD01DC01FA
:101A7000ED91FC910688F789E02D09957C01BFEF77
:101A8000AB1ABB0A8091FA059091FB05DC01ED9140
:101A9000FC910684F785E02D62E070E00995892BC2
:101AA00009F08ECF852DDF91CF911F910F91FF907F
:101AB000EF90DF90CF90BF90AF909F908F907F90EE
:101AC0006F905F904F900895C5E7D4E072CF0FE418
:101AD00014E08D33B9F58091FA059091FB05DC0196
:101AE000ED91FC910684F785E02D66E070E00995A4
:101AF000892B89F48091FA059091FB054091D705D7
:101B00005091D805DC01ED91FC910484F585E02D20
:101B100066E070E009950091FA051091FB05D80187
:101B2000ED91FC91C484D5840684F785E02D66E0B0
:101B300070E0C8010995AC0167E170E0C801F601E9
:101B400009956FCFF80185919491FC013196E4914C
:101B5000E8151904F1F4F801859194910E94E103CC
:101B60006C01DC01ED91FC910484F585E02DAC0164
:101B700067E070E009958091FA059091FB05DC0122
:101B8000ED91FC910484F585E02DA60167E170E0FC
:101B900009950E5F1F4F60167106A1F642CFCF93D5
:101BA000DF93EC018091FA059091FB05DC01ED914A
:101BB000FC910684F785E02D63E070E00995892BA0
:101BC00089F78091FA059091FB05DC01ED91FC917C
:101BD0000684F785E02D61E070E00995892B89F78F
:101BE0008091FA059091FB05DC01ED91FC91068452
:101BF000F785E02D67E170E009950097F1F0FC01B1
:101C0000268137812C173D0779F48091FA05909150
:101C1000FB05DC01ED91FC910684F785E02D67E181
:101C200070E0DF91CF9109940190F081E02D06845E
:101C3000F785E02D60E170E0DFCF8091FA059091AB
:101C4000FB05DC01ED91FC910684F785E02D64E055
:101C500070E00995892B21F68091FA059091FB059A
:101C6000DC01ED91FC910684F785E02D63E070E0E6
:101C70000995892B89F78091FA059091FB05DC0184
:101C8000ED91FC910684F785E02D62E070E0099506
:101C9000892B09F0A5CF90E080E0DF91CF910895E6
:101CA0001092E2051092E1058091FA059091FB05F2
:101CB000DC01ED91FC910684F785E02D63E070E096
:101CC0000995892B31F08091E2058F5F8093E205C1
:101CD000EBCF8091FA059091FB05DC01ED91FC9131
:101CE0000684F785E02D61E070E00995892B31F0DD
:101CF0008091E1058F5F8093E105EBCF0895EF922E
:101D0000FF920F931F93CF93DF938C01EA016E3004
:101D1000710531F06F30710591F1D0E0C0E027C05E
:101D2000E881F9810688F789E02DCA0109957C01CF
:101D3000D801ED91FC910688F789E02DC80109953D
:101D40008E159F05A4F0E881F9810688F789E02DBA
:101D5000CE010995EC01D801ED91FC910688F78937
:101D6000E02DC8010995C817D907BCF6E801CE01D6
:101D7000DF91CF911F910F91FF90EF900895E8812F
:101D8000F9810688F789E02DCA0109957C01D801FF
:101D9000ED91FC910688F789E02DC80109958E1513
:101DA0009F0524F3E881F9810688F789E02DCE01AB
:101DB00009957C01D801ED91FC910688F789E02D09
:101DC000C8010995E816F90694F2A7CF83E40895AF
:101DD000FC01808591850895CF92EF92FF920F9339
:101DE0001F93CF93DF931091E3056A3089F48091BC
:101DF000E5058093E405185F1093E30581E090E02A
:101E0000DF91CF911F910F91FF90EF90CF900895A8
:101E1000C62FF090CF01D091E40581E0F8120DC0FB
:101E20002FE247E452E0612F012E000C770B8D2F3B
:101E30000D2E000C990B0E94E60761E0610FCC3378
:101E400009F477C008F04AC0CC3209F47AC0A8F58A
:101E5000C73209F478C0D0F4C93109F47CC026E354
:101E6000CA31D1F085E08D0F8093E40591E0F9123D
:101E7000C5CF612F110F770B082E000C990B20E0B6
:101E800044E452E001970E94E607B8CFC83209F453
:101E90004CC024E3C93231F78D2F0D2E000C990B65
:101EA000062E000C770B30910401313009F055C03B
:101EB00047E452E00E94E607D5CFCA3348F4C03366
:101EC00080F5CE3209F445C026E2CF3229F3CACFDD
:101ED000CA3399F127E2CB33F9F2C4CFCB35B9F14C
:101EE00048F4C03461F1D0F4CE3329F125E3CF3387
:101EF00099F2B8CFC63681F030F4CD3531F121E317
:101F0000C13651F2AFCFCB3D71F0CE3E81F0CE372E
:101F100009F0A8CF22E3C0CF28E3BECF2FEB2C0FD0
:101F2000BBCF2AEEFCCF2FE2B7CF23E3B5CF20E320
:101F3000B3CF2EE2B1CF2DE2AFCF2CE2ADCF2BE26B
:101F4000ABCF25E2A9CF28E2A7CF2AE2A5CF29E28D
:101F5000A3CF24E2A1CF27E39FCFE7E4F2E00491EF
:101F6000E8E4F2E0E49049E452E02223D1F0E1E039
:101F7000F0E03E2D377011F4F0E0E0E04E2D469594
:101F8000469546954E0F5F2F511D049FF001059F0A
:101F9000F00D11242E9FA0012F9F500D1124475B9F
:101FA0005D4F2BEFC22E30E020E00E94B1065ACFE9
:101FB000682F85EB96E00C94EC0ECF93DF93FB013A
:101FC0003697E531F10538F5EC01E751F04F0C9407
:101FD000563728102C100B100B100B100B100B1079
:101FE0000B100B100B10FE0F08100B1003100B1032
:101FF0000B1030100B100B100B100E1088859985EC
:10200000DF91CF9108958A8581FF05C0CE01F8CF79
:102010008A8582FDFBCF90E080E0F2CF2A85822F77
:1020200082958F70815030E1839FC00111242F7001
:10203000282B2A87CE0122952F7011F7E881F9818C
:102040000484F585E02DAE016AE170E00995E3CFE7
:102050008A8583FDDBCFDFCF8A8580FDD7CFDBCFBD
:10206000EE81FF81319684910E94D80FCFCFCF931C
:10207000DF93EC0162307105F9F030F461307105E5
:10208000A9F080E090E00FC06730710539F066314B
:102090007105B9F78EE20E94D80F04C08A859B852E
:1020A000892B79F3CE01DF91CF91089588859985A9
:1020B000019699878887F6CF888599850197F9CF0A
:1020C0000F931F93CF93DF938C01D0E0C0E0F80112
:1020D000EC0FFD1F6491662341F085EB96E00E94B2
:1020E000EC0E892B11F02196F2CFCE01DF91CF912A
:1020F0001F910F91089580E00895FC0186819781DA
:102100000C94E103089590E080E008958F929F92EF
:10211000AF92BF920F931F93CF93DF93CDB7DEB7EC
:10212000A1970FB6F894DEBF0FBECDBF19A2423003
:1021300008F44AE08E010F5D1F4F842E912CB12CC4
:10214000A12CA50194010E940537E62FB901CA010F
:10215000EA3044F5E05DD801EE938D01232B242B6A
:10216000252B79F790E080E0109769F0FD01019050
:102170000020E9F73197AF014A1B5B0BBD0185EBEE
:1021800096E00E94A105A1960FB6F894DEBF0FBE9F
:10219000CDBFDF91CF911F910F91BF90AF909F90D6
:1021A0008F900895E95CD7CF682F70E090E080E0D1
:1021B0004AE00C94861042E050E060EC71E085EB60
:1021C00096E00C94A105CF93DF930E946010EC0180
:1021D0000E94DB108C0F9D1FDF91CF910895CF924D
:1021E000DF92EF92FF920F931F93CF93DF937C01C7
:1021F0006A01660F771FEB01CE57D94F04EF11E04C
:102200000E943E081092E5051092E4051092E30545
:10221000E114F10461F1D701ED91FC910684F78599
:10222000E02D66E170E0C70109950E94DB10FE0118
:10223000859194910E94E310C114D10451F0D6010C
:10224000ED91FC910488F589E02DC60109950E9465
:1022500060100E942E080150110991F6DF91CF9174
:102260001F910F91FF90EF90DF90CF9008958DE236
:1022700093E00E946010D9CF1F93CF93DF93EC01BE
:10228000162F0E943E081092E5051092E405109268
:10229000E3058BE095E00E94601081E095E011116C
:1022A00009C08091F8059091F9058C179D0721F4DC
:1022B00088EF94E00E94601086EF94E00E94E310A3
:1022C0008091E8059091E905892BB9F48091EA05A0
:1022D0009091EB05892B89F4D093E905C093E8052B
:1022E000E881F9810684F785E02D60E170E0CE0198
:1022F00009959093EB058093EA0583EF94E00E94A3
:1023000060108091E8059091E905DC01ED91FC9168
:102310000488F589E02D09950E94E31080EF94E090
:102320000E9460108091EA059091EB05009749F1B9
:10233000DC01ED91FC910684F785E02D61E170E010
:102340000995892BF1F48091EA059091EB05DC0168
:10235000ED91FC910684F785E02D66E070E009952B
:10236000892B09F064C08091EA059091EB05DC01AE
:10237000ED91FC910488F589E02D09950E94E31008
:1023800006C08091EA059091EB05009781F780E106
:102390000E942308882369F18091EA059091EB055A
:1023A000009739F1DC01ED91FC910684F785E02D71
:1023B00061E170E00995A091EA05B091EB05892BE8
:1023C00021F0B093E905A093E805ED91FC911197F8
:1023D0000684F785E02D60E170E0CD0109959093CA
:1023E000EB058093EA05892B21F4D093EB05C0938C
:1023F000EA0588E00E942308882309F4B1C011236C
:1024000039F18091EA059091EB05009721F48091D4
:10241000E8059091E9051092E9051092E8051092FF
:10242000EB051092EA05DF91CF911F9108958EEE92
:1024300094E00E94601089EE94E00E94601087EEA4
:1024400094E00E94601085EE94E00E9460108BCFB3
:102450008091F8059091F9058C179D0709F080C0CF
:102460008091EA059091EB05009709F479C0DC01B1
:10247000ED91FC910684F785E02D66E070E009950A
:10248000892B09F06DC08091E8059091E905DC0188
:10249000ED91FC910684F785E02D60E170E00995EF
:1024A000EC018091E8059091E9054091EA05509191
:1024B000EB05DC01ED91FC910484F585E02D70E0E5
:1024C00060E009952097B1F0E881F9810684F785ED
:1024D000E02D61E170E0CE010995892BE9F4E881F6
:1024E000F9810684F785E02D60E170E0CE01099561
:1024F000EC01E8CF8091FA059091FB054091E80549
:102500005091E905DC01ED91FC910484F585E02D05
:1025100069E170E00995EC014091EA055091EB0505
:10252000E881F9810484F585E02D68E170E0CE0151
:1025300009954091EA055091EB0568E070E0CE0105
:102540000E94EF101092E9051092E8051092EB0539
:102550001092EA0584E090E090930C0180930B01C7
:1025600084E00E9423088823C1F01092E9051092AC
:10257000E8051092EB051092EA051092EF05109213
:10258000EE051092F1051092F0051092F40584E02A
:1025900090E090930C0180930B0190E080E043CF9A
:1025A0000F931F93CF93DF932115310579F1E90143
:1025B00080EB94E00E94E1038C01E881F9810484BE
:1025C000F585E02DAC0167E170E0CE010995892B1E
:1025D00019F5A80168E070E0CE010E94EF10E881D3
:1025E000F9810484F585E02DA80168E170E0CE0151
:1025F00009958091F8059091F905C817D90731F42C
:1026000089E090E090930C0180930B0180E0DF91D2
:10261000CF911F910F9108950115110551F3D80124
:10262000ED91FC910284F385E02DC8010995E1CF7D
:10263000BF92CF92DF92EF92FF920F931F93CF93AF
:10264000DF932091F8053091F9052817390729F40F
:10265000D0910601DD2309F4E3C07A01EB0185EC9A
:1026600094E00E94E1036C01E881F9810484F5851E
:10267000E02DAC0167E170E0CE0109958C01892B5A
:1026800029F081E595E00E94CF0D8C01C114D104A1
:1026900041F0D601ED91FC910284F385E02DC60155
:1026A0000995B0900D01BB20F9F0E881F981C4844F
:1026B000D58481E595E00E94CF0DAC0167E170E023
:1026C000CE01F6010995892B09F0B5C081E595E0A9
:1026D0000E94CF0D892B09F4AEC081E595E00E94E0
:1026E000CF0D8C01BB24B3940115110509F05AC01C
:1026F00080ED94E00E94E1036C01E881F98104849B
:10270000F585E02DAC0167E170E0CE010995892BDC
:10271000A9F1C114D10441F0D601ED91FC910284DC
:10272000F385E02DC601099581E595E00E94E1035E
:102730006C01E881F9810484F585E02DAC0167E145
:1027400070E0CE0109958C0189E994E0011511052D
:10275000B9F0D801ED91FC910688F789E02DC80108
:102760000995880F991FFC01EE59F94F0190F081EE
:10277000E02D9E01A701BE01C801099584EA94E0FD
:102780000E94CF0D8C01C114D10441F0D601ED910E
:10279000FC910284F385E02DC60109950115110510
:1027A00009F486C0D701ED91FC910484F585E02DF4
:1027B000AE016BE170E0C7010995C817D90709F0B0
:1027C00053C0E881F9810484F585E02D50E040E0B4
:1027D00063E170E0CE010995BB2079F1E881F981D0
:1027E0000484F585E02DA80168E170E0CE0109952B
:1027F000D701ED91FC910484F585E02D50E040E097
:1028000067E170E0C7010995A80168E070E0809178
:10281000F8059091F9050E94EF10D0E00E942E0873
:102820008D2FDF91CF911F910F91FF90EF90DF904F
:10283000CF90BF900895B12C57CFD801ED91FC9166
:102840000688F789E02DC8010995880F991FFC01BA
:10285000EE59F94F0190F081E02D9E01A701B801DA
:10286000C8010995D82FDACF4091F6055091F705A8
:10287000D701ED91FC910484F585E02D6AE070E0CC
:10288000C7010995D701ED91FC910484F585E02DF0
:10289000A80162E170E0C7010995D701ED91FC91B3
:1028A0000484F585E02DAE0165E170E0C70109956E
:1028B000E881F9810484F585E02D50E040E063E192
:1028C00070E0CE0109950E942E08D0E0A9CF0F93A9
:1028D0001F93CF93DF930091F8051091F905081726
:1028E000190709F044C0EB0187E090E090930C01D8
:1028F00080930B017093F3056093F2050E943E08EC
:102900001092E5051092E4051092E305D801ED91CF
:10291000FC910684F785E02D66E170E0C801099519
:1029200002E816E0F801859194910E94E310ECE82A
:10293000F6E0859194910E94E310EEE8F6E085912F
:1029400094910E946010F801859194910E94E31087
:10295000FE01EE0FFF1FEE57F94F859194910E94F3
:102960006010DF91CF911F910F910C942E0850E0D1
:1029700040E065E070E0DF91CF911F910F910C94E2
:10298000EF100F931F93CF93DF938C01232B31F123
:102990008091F8059091F90568177907F9F4CA0153
:1029A000EB01DA01ED91FC910484F585E02DA8019D
:1029B00070E060E0099570E060E0C8010E94671473
:1029C0008BED94E00E94E103E881F9810484F585B0
:1029D000E02DAC0168E170E0CE01099580E0DF9167
:1029E000CF911F910F910895AF92BF92CF92DF9236
:1029F000EF92FF920F931F93CF93DF932115310531
:102A000009F440C08901EA015C0180ED94E00E9474
:102A1000E1037C01D801ED91FC910484F585E02D62
:102A2000AC0167E170E0C80109956C01E114F104A3
:102A300041F0D701ED91FC910284F385E02DC701AF
:102A40000995C114D10451F170E060E0C6010E9403
:102A50006714E881F9810484F585E02DA60170E012
:102A600060E0CE01099570E060E0C5010E94671446
:102A7000E881F9810484F585E02DA50170E060E02E
:102A8000CE01099580E0DF91CF911F910F91FF90CA
:102A9000EF90DF90CF90BF90AF90089585EC94E0D9
:102AA0000E94E1037C01D801ED91FC910484F5853D
:102AB000E02DAC0167E170E0C80109958C01E114DB
:102AC000F10441F0D701ED91FC910284F385E02DF2
:102AD000C701099501151105A9F270E060E0C80170
:102AE0000E946714E881F9810484F585E02DA8012E
:102AF000B6CFCF92DF92EF92FF920F931F93CF93B7
:102B0000DF932115310509F440C08901EA017C01F8
:102B10008AEB94E00E94E1036C01D801ED91FC91F5
:102B20000484F585E02DAC0167E170E0C8010995EA
:102B30008C01C114D10441F0D601ED91FC910284C5
:102B4000F385E02DC601099501151105F1F070E03E
:102B500060E0C8010E946714E881F9810484F5856A
:102B6000E02DA80170E060E0CE01099570E060E022
:102B7000C7010E946714E881F9810484F585E02D7E
:102B8000A70170E060E0CE01099580E0DF91CF9170
:102B90001F910F91FF90EF90DF90CF9008950F93CA
:102BA0001F93CF93DF938C01EB01E881F9810684B9
:102BB000F785E02D6AE170E0CE010995892B71F16E
:102BC00050E040E06AE070E0CE010E94EF10E88142
:102BD000F9810484F585E02D50E040E063E170E088
:102BE000CE010995E881F9810684F785E02D60E141
:102BF00070E0CE010995EC01009751F0E881F98170
:102C00000684F785E02D61E170E00995892BF9F2E2
:102C100080E0DF91CF911F910F91089570E060E007
:102C2000C8010E9467148091FA059091FB05DC01B0
:102C3000ED91FC910484F585E02DA80170E060E041
:102C400009951092E9051092E805E2CFCF92DF9244
:102C5000EF92FF920F931F93CF93DF93EB017A01D3
:102C60008AEB94E00E94E1038C0180910F01853092
:102C700009F052C080910E0181114EC0E881F981A6
:102C80000484F585E02DA80167E170E0CE01099587
:102C9000892B09F041C0E881F9810484F585E02D94
:102CA000A80168E170E0CE010995A80168E070E034
:102CB000CE010E94EF1080ED94E00E94E1038C01B0
:102CC00080910F01833009F458C080910F01833047
:102CD00009F075C080910E01811171C0E881F98100
:102CE0000484F585E02DA80167E170E0CE01099527
:102CF000892B09F464C063E070E0CE010E94671480
:102D0000D701ED91FC910484F585E02DAE0170E0D2
:102D100060E0C701099557C080910F01853061F0CF
:102D20000115110541F2D801ED91FC910284F38562
:102D3000E02DC8010995BFCF80910E018111F0CF20
:102D4000E881F9810484F585E02DA80167E170E050
:102D5000CE010995892B21F361E070E0CE010E943C
:102D60006714D701ED91FC910484F585E02DAE0147
:102D700070E060E0C70109959ECF80910E0181113E
:102D8000A4CFE881F9810484F585E02DA80167E1ED
:102D900070E0CE010995892B09F097CFE881F98180
:102DA0000484F585E02DA80168E170E0CE01099565
:102DB000A80168E070E0CE010E94EF1004C0011588
:102DC000110509F044C087E794E00E94E1038C01FB
:102DD00080910F01882309F443C080910F0188235B
:102DE00009F460C00115110509F08DC085EC94E06F
:102DF0000E94E1038C0180910F01843009F48CC0A2
:102E000080910F01843009F0A9C080910E018111D9
:102E1000A5C0E881F9810484F585E02DA80167E16A
:102E200070E0CE010995892B09F498C062E070E04A
:102E3000CE010E946714D701ED91FC910484F585C1
:102E4000E02DAE0170E060E0C70109958AC0D801AD
:102E5000ED91FC910284F385E02DC8010995B3CF73
:102E600080910E018111B9CFE881F9810484F58543
:102E7000E02DA80167E170E0CE010995892B09F0EA
:102E8000ACCFE881F9810484F585E02DA80168E1E3
:102E900070E0CE010995A80168E070E0CE010E94C3
:102EA000EF10A4CF80910E0181119CCFE881F981B0
:102EB0000484F585E02DA80167E170E0CE01099555
:102EC000892B09F48FCFD701ED91FC91C484D5846F
:102ED000E881F9810484F585E02DA80167E170E0BF
:102EE000CE010995AC0170E060E0C701F6010995DB
:102EF00070E060E0C8010E9467148BED94E00E94CE
:102F0000E1038C01BECFD801ED91FC910284F385E1
:102F1000E02DC80109956ACF80910E01811170CF13
:102F2000E881F9810484F585E02DA80167E170E06E
:102F3000CE010995892B09F063CFE881F9810484DA
:102F4000F585E02DA80168E170E0CE010995A801A2
:102F500068E070E0CE010E94EF1003C0011511057A
:102F600051F480E0DF91CF911F910F91FF90EF908E
:102F7000DF90CF900895D801ED91FC910284F38504
:102F8000E02DC8010995EDCF21E831E0FC01318346
:102F9000208380899189009711F00C9480350895E1
:102FA000CF93DF93EC010E94C417CE01DF91CF9144
:102FB0000C9480350C9480350C9480350C948035BD
:102FC000CF93DF93EB018CE190E00E94E434DC01CD
:102FD00013961C921E92129717961C921E92169789
:102FE00015961C921E9214971092CE0181E891E0E2
:102FF00011969C938E9319961C921E9218971B966D
:103000001C921E921A971D961C921E921C971F9638
:103010001C921E921E9751961C921E925097539688
:103020001C921E92529755961C921E925497579638
:103030001C921E92569759961C921E9258975B9618
:103040001C921E925A97FE0184918335A1F4219619
:103050005396DC93CE9352978091CE01882339F01A
:10306000109729F0CD010E94D017B0E0A0E0CD016B
:10307000DF91CF91089589E58093CE01EDCFCF9375
:10308000DF93EB018BE090E00E94E434DC011396C7
:103090001C921E92129717961C921E9216971596C6
:1030A0001C921E9214971092CE0183E691E0119625
:1030B0009C938E9319961C921E9218971A961C92A6
:1030C0001A97FE0184918035C1F43296E49183E031
:1030D000E23409F48BE01A968C931A978091CE0112
:1030E000882339F0109729F0CD010E94DA17B0E05B
:1030F000A0E0CD01DF91CF91089589E58093CE01C5
:10310000EDCFAF92BF92CF92DF92EF92FF920F93EB
:103110001F93CF93DF937C01C62E8FEFE816F8063E
:1031200041F480910D01815080930D01F12CE12C2F
:1031300009C0A1E0EA16F104C9F780910D018F5F83
:1031400080930D018091FA059091FB05009769F03D
:103150004091F8055091F905DC01ED91FC91048452
:10316000F585E02D60E170E0099580910D018111F8
:1031700078C181EC93E00E94230CD82E8091FA054F
:103180009091FB054091D5055091D605DC01ED915C
:10319000FC910484F585E02D6EE070E00995809146
:1031A000FA059091FB054091D5055091D605DC01BB
:1031B000ED91FC910484F585E02D6FE070E00995B8
:1031C000D110B8C180910D01D0E0C0E08E3F71F008
:1031D00084EA94E00E94E103EC01E881F98104842F
:1031E000F585E02DAC0161E170E0099589E994E095
:1031F0000E94E1038C01DC01ED91FC910484F585D2
:10320000E02DAC0161E170E00995D801ED91FC91F0
:10321000A484B58483E894E00E94E103AC0160E1FA
:1032200070E0C801F50109958091FA059091FB05C0
:103230004091F8055091F905DC01ED91FC91048471
:10324000F585E02D60E170E009958091FA05909197
:10325000FB054091F6055091F705DC01ED91FC91DD
:103260000484F585E02D65E070E009958091FA050C
:103270009091FB054091D7055091D805DC01ED9167
:10328000FC910484F585E02D66E070E0099580915D
:10329000FA059091FB054091D5055091D605DC01CA
:1032A000ED91FC910484F585E02D6EE070E00995C8
:1032B0008091FA059091FB054091D5055091D60576
:1032C000DC01ED91FC910484F585E02D6FE070E068
:1032D00009954091F8055091F90568E070E090E09B
:1032E00080E00E94EF108091FA059091FB05DC01CF
:1032F000ED91FC910484F585E02D50E040E06BE019
:1033000070E00995892B09F48FCF80910D018E3FD4
:1033100009F40DC18091FA059091FB05DC01ED9156
:10332000FC910484F585E02DEF2809F4B2C0AE01CC
:1033300068E070E009958091FA059091FB05409155
:10334000F6055091F705DC01ED91FC910484F585BB
:10335000E02D6AE070E009958091FA059091FB05F7
:10336000DC01ED91FC910484F585E02DAE0162E174
:1033700070E009958091FA059091FB05DC01ED91D3
:10338000FC910484F585E02DA80168E070E00995C2
:103390008091FA059091FB054091F6055091F70553
:1033A000DC01ED91FC910484F585E02D6AE070E08C
:1033B00009958091FA059091FB05DC01ED91FC9156
:1033C0000484F585E02DA80162E170E00995809103
:1033D000FA059091FB054091F8055091F905DC0143
:1033E000ED91FC910484F585E02D69E070E009958C
:1033F0008091F8059091F905DC01ED91FC9106842E
:10340000F785E02D60E170E009959093E9058093E0
:10341000E8058091E8059091E905009709F4AFC0AF
:10342000DC01ED91FC910684F785E02D61E170E00F
:103430000995892B89F08091FA059091FB054091BF
:10344000E8055091E905DC01ED91FC910484F585D6
:10345000E02D69E070E009958091E8059091E9051B
:10346000CBCF8F3F81F483E393E00E94230CD82ECF
:1034700050E040E06DE070E08091F8059091F90532
:103480000E94EF107BCE85E794E00E94230CD12CA4
:1034900075CEA80168E070E009958091FA059091D9
:1034A000FB054091F6055091F705DC01ED91FC918B
:1034B0000484F585E02D6AE070E009958091FA05B5
:1034C0009091FB05DC01ED91FC910484F585E02DE4
:1034D000A80162E170E009958091FA059091FB05E1
:1034E000DC01ED91FC910484F585E02DAE0168E0EE
:1034F00070E009958091FA059091FB054091F605E1
:103500005091F705DC01ED91FC910484F585E02DE7
:103510006AE070E009958091FA059091FB05DC0165
:10352000ED91FC910484F585E02DAE014DCFEF289F
:1035300099F220CF8091FA059091FB054091F60514
:103540005091F705DC01ED91FC910484F585E02DA7
:1035500065E070E009958091FA059091FB05409136
:10356000F8055091F905DC01ED91FC910484F58595
:10357000E02D62E170E00995D0E0C0E039CF8091A4
:10358000FA059091FB054091F6055091F705DC0195
:10359000ED91FC910484F585E02D6AE070E00995D9
:1035A0008091FA059091FB05DC01ED91FC9104847A
:1035B000F585E02DAE0162E170E00995CC20D9F1EE
:1035C000D11039C020910D018EEF90E0821B91093E
:1035D00064E670E00E944237EB0160E070E0CB01EE
:1035E000209741F00E9455369E01DD0F440B550B8C
:1035F0000E94D336672BF9F4C091FA05D091FB05F0
:10360000E881F9810485158581E595E00E94E10353
:10361000AC0166E070E0CE01F80109958091FA05F1
:103620009091FB05DC01ED91FC910684F785E02D7E
:1036300061E170E009958091FA059091FB05409158
:10364000F6055091F705DC01ED91FC910484F585B8
:10365000E02D6AE070E009958091FA059091FB05F4
:103660004091D7055091D805DC01ED91FC9104847F
:10367000F585E02D66E070E009958EEA95E00E9400
:10368000CF0DDF91CF911F910F91FF90EF90DF90C1
:10369000CF90BF90AF900C94500E8091F805909110
:1036A000F9052817390771F480910D0160E0811147
:1036B00006C08FEF9FEF0E94811881E0089581E09E
:1036C00090E0F9CF80E008950F931F93CF93DF939D
:1036D0008A01E9018091F8059091F90528173907C9
:1036E00059F461E08FEF9FEF0E94811881E0DF9134
:1036F000CF911F910F91089580E02097C1F370E062
:1037000060E0C9010E946714D801ED91FC91048426
:10371000F585E02DAE0170E060E0C801099582E01A
:10372000E6CF0F931F93CF93DF938A01E901809136
:10373000F8059091F9052817390759F461E081E0FF
:1037400090E00E94811881E0DF91CF911F910F914D
:10375000089580E02097C1F370E060E0C9010E9405
:103760006714D801ED91FC910484F585E02DAE013C
:1037700070E060E0C801099582E0E6CF2F923F92A9
:103780004F925F926F927F928F929F92AF92BF9271
:10379000CF92DF92EF92FF920F931F93CF93DF931D
:1037A00000D000D0CDB7DEB79C838B835B01342E75
:1037B00029830A8310E000E0F12CE12CAB81BC816D
:1037C0001C964D915C911D971E962D913C911F97D3
:1037D000429FC001439F900D529F900D11240817E6
:1037E00019070CF048C06801CC0CDD1C5096ED9117
:1037F000FC91EC0DFD1D808191810097C9F1DC01E8
:10380000ED91FC91008CF18DE02D0995982EEB81C6
:10381000FC8184899589DC01ED91FC91008CF18D0E
:10382000E02D0995981224C0AB81BC815096ED9192
:10383000FC91EC0DFD1D80819181DC01ED91FC91ED
:103840000688F789E02D0995E816F9068CF4EB81D6
:10385000FC8180899189C80ED91ED6018D919C91D9
:10386000DC01ED91FC910688F789E02D09957C013A
:103870000F5F1F4FA3CF32E0432E512C311003C0F6
:103880002701F12CE12C0FEF1FEFE414F50409F4EC
:10389000E0C0912C812CD12CC12CEB81FC81448582
:1038A000558526853785429FC001439F900D529FC5
:1038B000900D1124881699060CF049C03401660C4D
:1038C000771C0088F189E02DE60DF71D808191813C
:1038D0000097C9F1DC01ED91FC91008CF18DE02D98
:1038E0000995282EEB81FC8184899589DC01ED9175
:1038F000FC91008CF18DE02D0995281224C0EB81FC
:10390000FC8180899189680E791ED3018D919C91EB
:10391000DC01ED91FC910688F789E02D09958E1563
:103920009F0589F4BFEFCB1ADB0A0E94553696013A
:103930000D2C000C440B550B0E94D336672B682BC3
:10394000692B09F48401EFEF8E1A9E0AA6CFF98144
:10395000F11121C0CD2809F472C0000F111FAB81F5
:10396000BC815096ED91FC91E00FF11F8081918117
:10397000009739F0DC01ED91FC910284F385E02D94
:103980000995AB81BC815096ED91FC91E00FF11F40
:10399000B182A08234C0B1E0CB16D10409F047C097
:1039A000000F111FAB81BC815096ED91FC91E00F8F
:1039B000F11F80819181009739F0DC01ED91FC913C
:1039C0000284F385E02D0995EB81FC818689978936
:1039D000E088F188E00EF11EDC01ED91FC91008899
:1039E000F189E02D0995F70191838083AB81BC813A
:1039F0005096ED91FC91E00FF11FA080B180C501C0
:103A00000F900F900F900F90DF91CF911F910F911A
:103A1000FF90EF90DF90CF90BF90AF909F908F90EE
:103A20007F906F905F904F903F902F900895BA8154
:103A3000BB2329F0E2E0CE16D1040CF08ECF332068
:103A400021F0B1E0EB1AF10820CFEFEFEE1AFE0AF9
:103A50001CCFB12CA12CD3CF9F92AF92BF92CF920B
:103A6000DF92EF92FF920F931F93CF93DF93683112
:103A7000710508F074C0FB01EC01EF5BF24E0C9491
:103A80005637591D3A1E5D1E811E981EAF1DCE1D54
:103A9000AF1DAF1DDC1DAF1DB91EB31EB61EAF1D81
:103AA000AF1DAF1DBE1DAF1DE21DAF1DAF1DEF1E33
:103AB000141EE881F9810684F785E02D67E170E046
:103AC00009958C018A859B85DC01ED91FC91068826
:103AD000F789E02D09952C853D85829F7001839F94
:103AE000F00C929FF00C112488859985DC01ED91F2
:103AF000FC910688F789E02D09958E0D9F1D4C8558
:103B00005D852E853F85429FD001439FB00D529F1A
:103B1000B00D11242889398950E040E070E060E060
:103B20004A175B0794F4FA01EE0FFF1FE20FF31F31
:103B30000190F081E02D309729F0E017F10711F4A2
:103B40006F5F7F4F4F5F5F4FEBCF880F991F280F3D
:103B5000391FF90111821082623071051CF080E07A
:103B600090E01EC001151105D1F3D801ED91FC9133
:103B70000284F385E02DC8010995F1CFE881F98130
:103B80000684F785E02D66E070E0099501E021E00C
:103B900040E0BC01CE010E94BE1B02C08E899F89FD
:103BA000DF91CF911F910F91FF90EF90DF90CF9019
:103BB000BF90AF909F90089500E021E040E070E05A
:103BC00060E0E8CFF12CE12C4C855D852E853F85AA
:103BD000429FC001439F900D529F900D1124E81603
:103BE000F9060CF0BCCF8701000F111FE889F98995
:103BF000E00FF11F80819181009791F0DC01ED9140
:103C0000FC910684F785E02D63E170E00995892B2E
:103C100039F0E889F989E00FF11F80819181C0CFE7
:103C2000BFEFEB1AFB0AD0CF88859985DC01ED91B7
:103C3000FC910688F789E02D09958C018A859B8582
:103C4000DC01ED91FC910688F789E02D09952C8522
:103C50003D85FC01E29FC001E39F900DF29F900D16
:103C60001124800F911F880F991FE889F989E80FA7
:103C7000F91FD3CF8A859B85DC01ED91FC910684E9
:103C8000F785E02D62E070E009958A859B85DC016F
:103C9000ED91FC910688F789E02D0995AA85BB85F1
:103CA00097FF5FC0ED91FC9111970684F785E02D99
:103CB00061E070E0CD01099552CF8A859B85DC01DA
:103CC000ED91FC910684F785E02D61E070E00995A7
:103CD0000E851F858A859B85DC01ED91FC91068808
:103CE000F789E02D0995AA85BB8580179107CCF14E
:103CF000ED91FC9111970684F785E02D62E070E06C
:103D0000D9CF88859985DC01ED91FC910684F785F2
:103D1000E02D62E070E0099588859985DC01ED91E0
:103D2000FC910688F789E02D0995A885B985B8CF5B
:103D300088859985DC01ED91FC910684F785E02D5D
:103D400061E070E009950C851D8588859985DC0109
:103D5000ED91FC910688F789E02D0995A885B98534
:103D6000C4CFCD011DCF888599851ACF8A859B85C3
:103D700017CF88859985DC01ED91FC910688F7893C
:103D8000E02D09959D878C878A859B85DC01ED91C7
:103D9000FC910688F789E02D09959F878E872C85F1
:103DA0003D85829F8001839F100D929F100D1124ED
:103DB000C801880F991F0115B0E41B0710F08FEFA1
:103DC0009FEF0E94E434FC010150110917FD03C06C
:103DD00011921192F9CF888B998BCE01E1CE888513
:103DE0009985DC01ED91FC910688F789E02D099514
:103DF0006C018A859B85DC01ED91FC910688F78931
:103E0000E02D09955C0110E000E0992493948E85E3
:103E10009F85081719070CF0A2CEF12CE12C4C85D8
:103E20005D85E416F506BCF5EC14FD0439F40A15BD
:103E30001B0521F4109204019092CF01409F900144
:103E4000419F300D509F300D11242E0D3F1DC90193
:103E5000880F991FE889F989E80FF91F80819181FE
:103E6000009789F0DC01ED91FC910684F785E02D47
:103E700066E170E00995909204011092CF01BFEFC6
:103E8000EB1AFB0ACCCFEA89FB89E20FF31F84917E
:103E90000E94D80FF0CF0E94DB100F5F1F4FB7CFEB
:103EA0002F923F924F925F926F927F928F929F924A
:103EB000AF92BF92CF92DF92EF92FF920F931F9338
:103EC000CF93DF93CDB7DEB72F970FB6F894DEBF51
:103ED0000FBECDBF9F878E877A8769875A834983B4
:103EE00079011801DC011C964D915C911D971E967D
:103EF0008D919C911F97489F9001499F300D589F2D
:103F0000300D1124012BC9F050964D915C9190E039
:103F100080E0912C812C82179307FCF4FC01EE0FBA
:103F2000FF1FE40FF51F60817181E985FA856E1727
:103F30007F0709F44C010196EECF4901330FAA081F
:103F4000BB0881149104A104B10439F00E945536D4
:103F5000A50194010E94D3364B019401220F331F17
:103F600038872F83AE85BF8550960D911C91020F27
:103F7000131FA981BA81ED91FC9111970088F189F5
:103F8000E02DCD010995F80191838083D701ED9152
:103F9000FC910484F585E02DA70167E070E0C7017E
:103FA0000995EE85FF85808D918DDC01ED91FC9169
:103FB0000688F789E02D09952C01EE85FF85828D15
:103FC000938DDC01ED91FC910688F789E02D099530
:103FD0009C878B87E1E0F0E0FC83EB8353E0852E48
:103FE000912CA12CB12C2B813C81232B09F4C7C12E
:103FF0001E821D8210E000E0712C612CAE85BF8511
:104000001C964D915C911D971E962D913C911F978A
:10401000429FC001439F900D529F900D1124ED814E
:10402000FE81E817F9070CF019C16F01CC0CDD1CFB
:104030005096ED91FC91EC0DFD1D808191810097D2
:1040400009F483C0DC01ED91FC91008CF18DE02D31
:1040500009958D87A981BA81ED91FC911197008C0A
:10406000F18DE02DCD010995BD85B8136EC0EFEF40
:104070006E1A7E0AC301800F911F841595050CF4FA
:104080006AC02114310409F071C0AE85BF85509615
:10409000ED91FC915197EC0DFD1D608171819701AF
:1040A00045E050E0CD010E94880AC301800F911FB6
:1040B000841595050CF470C02114310409F077C003
:1040C000AE85BF855096ED91FC915197EC0DFD1D8D
:1040D00060817181970145E050E0CD010E94430A63
:1040E000C301800F911F841595050CF476C021142F
:1040F000310409F07DC0AE85BF855096ED91FC91ED
:104100005197EC0DFD1D60817181970145E050E0F4
:10411000CD010E94FB09C301800F911F84159505F5
:104120000CF47CC02114310409F083C0EE85FF85B6
:1041300080899189C80ED91ED6016D917C91970115
:1041400045E050E0CF010E94AD09ED81FE8131963E
:10415000FE83ED8353CF0E945536A50194010E9442
:10416000D336672B682B692B09F48BCFAE85BF85BF
:104170005096ED91FC915197EC0DFD1D6081718180
:104180009B0142E050E0CD010E94880A892B09F092
:104190008CCF0F5F1F4F89CF0E945536A501940128
:1041A0000E94D336672B682B692B09F485CFAE8527
:1041B000BF855096ED91FC915197EC0DFD1D6081EE
:1041C00071819B0142E050E0CD010E94430A892B9E
:1041D00009F086CF0F5F1F4F83CF0E945536A50190
:1041E00094010E94D336672B682B692B09F47FCF8B
:1041F000AE85BF855096ED91FC915197EC0DFD1D5C
:10420000608171819B0142E050E0CD010E94FB0979
:10421000892B09F080CF0F5F1F4F7DCF0E9455364D
:10422000A50194010E94D336672B682B692B09F4F2
:1042300079CFEE85FF8580899189C80ED91ED60178
:104240006D917C919B0142E050E0CF010E94AD094D
:10425000892B09F07ACF0F5F1F4F77CF011511051A
:1042600059F42B853C856216730624F4211431041D
:1042700009F4C6C01C821B82060D171D401651068C
:104280000CF0B1CED12CC12C1C821B82AE85BF8517
:104290001C964D915C911D971E962D913C911F97F8
:1042A000429FC001439F900D529F900D1124C8164C
:1042B000D9060CF098CE8601000F111F5096ED9193
:1042C000FC91E00FF11F80819181009709F453C0A8
:1042D000DC01ED91FC91008CF18DE02D0995782E9B
:1042E000A981BA81ED91FC911197008CF18DE02D9F
:1042F000CD01099578123FC0AE85BF855096ED91EE
:10430000FC915197E00FF11F60817181970145E0A9
:1043100050E0CD010E94880AAE85BF855096ED9190
:10432000FC915197E00FF11F60817181970145E089
:1043300050E0CD010E94FB09AE85BF855096ED91FE
:10434000FC915197E00FF11F60817181970145E069
:1043500050E0CD010E94AD09EE85FF8580899189ED
:10436000080F191FD8016D917C91970145E050E02D
:10437000CF010E94430ABFEFCB1ADB0A87CF0E851D
:104380001F85E985FA85EF2B09F1AE85BF8550962B
:10439000ED91FC912F813885E20FF31F808191818F
:1043A000009739F0DC01ED91FC910284F385E02D5A
:1043B0000995AE85BF855096ED91FC912F8138858A
:1043C000E20FF31F89859A8591838083C8012F9618
:1043D0000FB6F894DEBF0FBECDBFDF91CF911F9116
:1043E0000F91FF90EF90DF90CF90BF90AF909F9094
:1043F0008F907F906F905F904F903F902F90089597
:1044000000E010E0BECF7F928F929F92AF92BF925A
:10441000CF92DF92EF92FF920F931F93CF93DF9390
:10442000EC017A016D31710508F052C0655E7D4D79
:10443000FB010C9456377B23142627263A264D265B
:104440009B25A6256822482551255525BB250E26E6
:10445000112638225222A5246822B125552468222B
:10446000BB236026E72568223D236822B0225D2217
:10447000DA01ED91FC910088F189E02DCA010995DE
:104480009B8F8A8F7E01C701DF91CF911F910F9182
:10449000FF90EF90DF90CF90BF90AF909F908F9064
:1044A0007F900895DA01ED91FC910088F189E02D6B
:1044B000CA010995998F888FE5CFE881F981048435
:1044C000F585E02D69E170E009958C01892B19F4DF
:1044D000F12CE12CD8CFE881F9810684F785E02D15
:1044E00063E070E0CE010995892BA9F7E881F98195
:1044F0000684F785E02D61E070E0CE010995892BF7
:10450000A9F7E881F9810684F785E02D67E170E07D
:10451000CE0109950817190709F4B5CFE881F9818B
:104520000684F785E02D64E070E0CE010995892BC3
:1045300041F7E881F9810684F785E02D63E070E0BA
:10454000CE010995892BA9F7E881F9810684F785C1
:10455000E02D62E070E0CE010995892B91F6B8CF8D
:10456000E881F9810684F785E02D67E170E009951F
:104570008C01E881F9810684F785E02D67E170E020
:10458000CE010995980150E040E0BC01CE010E94A7
:10459000880AE816F90609F476CFE881F9810684DD
:1045A000F785E02D67E170E0CE0109958C01E88187
:1045B000F9810684F785E02D67E170E0CE01099569
:1045C000980150E040E0BC01CE010E94FB09E816D2
:1045D000F90609F458CFE881F9810684F785E02DC2
:1045E00067E170E0CE0109958C01E881F9810684CC
:1045F000F785E02D67E170E0CE010995980150E064
:1046000040E0BC01CE010E94AD09E816F90609F4AC
:104610003ACFE881F9810684F785E02D67E170E003
:10462000CE0109958C01E881F9810684F785E02D9A
:1046300067E170E0CE010995980150E040E0BC01CF
:10464000CE010E94430AE816F90609F41CCFE8815E
:10465000F9810684F785E02D67E170E0CE01DF91F6
:10466000CF911F910F91FF90EF90DF90CF90BF906F
:10467000AF909F908F907F90099410E000E04C8560
:104680005D852E853F85429FC001439F900D529FBF
:10469000900D1124081719070CF01ACF6801CC0CE3
:1046A000DD1CE889F989EC0DFD1D80819181009761
:1046B000F9F0DC01ED91FC910684F785E02D60E1D5
:1046C00070E00995E889F989EC0DFD1DC080D18065
:1046D000009771F08E159F0509F434C4DC01ED914B
:1046E000FC910684F785E02D60E170E00995F0CF3C
:1046F0000F5F1F4FC4CF452B09F4EACE10E000E056
:104700004C855D852E853F85429FC001439F900D5E
:10471000529F900D11240817190744F56801CC0C1D
:10472000DD1CE889F989EC0DFD1D808191810097E0
:10473000D1F0DC01ED91FC910484F585E02DA70119
:1047400070E060E00995E889F989EC0DFD1D808134
:1047500091818E159F0539F48E899F89E816F90697
:1047600011F0118210820F5F1F4FCACFB701CE0127
:104770000E944B08ADCE9A0150E040E0B7010E9484
:10478000880A6C014FE7BC01CE010E940804182F73
:104790000FE7882351F0D601ED91FC910688F78947
:1047A000E02DC6010995082F11E0970150E040E087
:1047B000B701CE010E94430A6C01402FBC01CE011B
:1047C0000E940804882351F0D601ED91FC910688DF
:1047D000F789E02DC6010995082F12E0970150E0F6
:1047E00040E0B701CE010E94FB096C01402FBC01E3
:1047F000CE010E940804882351F0D601ED91FC916E
:104800000688F789E02DC6010995082F13E0970166
:1048100050E040E0B701CE010E94AD096C01402F8D
:10482000BC01CE010E940804882381F0D601ED91DD
:10483000FC910688F789E02DC6010995970143E0B0
:1048400050E0B701CE010E94AD091CCE111109C084
:104850000E94553625E030E040E050E00E94D3361B
:10486000162F123091F058F4113009F00BCE970149
:1048700043E050E0B701CE010E94880A03CE133016
:1048800061F0143009F0FECDD9CF970143E050E03C
:10489000B701CE010E94430AF5CD970143E050E0F5
:1048A000B701CE010E94FB09EDCDF12CE12C4C8526
:1048B0005D852E853F85429FC001439F900D529F8D
:1048C000900D1124E816F9060CF002CE8701000FB6
:1048D000111FE889F989E00FF11F8081918100970C
:1048E00081F1DC01ED91FC910484F585E02DAC01B2
:1048F00063E170E00995E889F989E00FF11F808193
:104900009181DC01ED91FC910684F785E02D60E159
:1049100070E009958C010097A1F0DC01ED91FC910C
:104920000484F585E02DAC0163E170E00995D801C0
:10493000ED91FC910684F785E02D60E170E0C801FF
:10494000E8CFBFEFEB1AFB0AB2CF8C899D890097A5
:1049500039F0DC01ED91FC910284F385E02D09959D
:10496000888D998D009739F0DC01ED91FC910284DE
:10497000F385E02D09958A8D9B8D009739F0DC0138
:10498000ED91FC910284F385E02D0995198E188E26
:104990001B8E1A8E1D8A1C8A10E000E04C855D85F6
:1049A0002E853F85429FC001439F900D529F900DE1
:1049B0001124081719070CF043C06801CC0CDD1C4A
:1049C000E889F989EC0DFD1D80819181009771F1D5
:1049D0008E159F0559F12E893F898217930731F172
:1049E000C701BB24B394E889F989EC0DFD1D00973C
:1049F00081F0208131812817390709F4B12CDC01BD
:104A0000ED91FC910684F785E02D60E170E0099559
:104A1000EACFBB2059F040815181E881F9810484BB
:104A2000F585E02D70E060E0CE01099588899989CF
:104A3000C80ED91EF601118210820F5F1F4FAECF34
:104A40008E899F89009739F0DC01ED91FC910284F9
:104A5000F385E02D0995888D998D009739F0DC015B
:104A6000ED91FC910284F385E02D09958A8D9B8D53
:104A7000009739F0DC01ED91FC910284F385E02D83
:104A800009951F8A1E8A198E188E1B8E1A8EFACCD3
:104A900000E020E041E0B701CE010E94BE1B7C0196
:104AA000F2CC00E020E040E0F6CF10E000E04C85E2
:104AB0005D852E853F85429FC001439F900D529F8B
:104AC000900D1124081719070CF0DCCC6801CC0CF0
:104AD000DD1CE889F989EC0DFD1D8081918100972D
:104AE00039F1DC01ED91FC91008CF18DE02D0995FF
:104AF000B82ED701ED91FC91008CF18DE02DC7010E
:104B00000995B81215C0E889F989EC0DFD1D808161
:104B10009181009739F0DC01ED91FC910284F385DD
:104B2000E02D0995E889F989EC0DFD1D11821082AF
:104B30000F5F1F4FBCCFDA01ED91FC910088F18926
:104B4000E02DCA0109959D8B8C8B9CCCDA01ED91EF
:104B5000FC910088F189E02DCA0109959F8B8E8B0D
:104B600091CC2E893F894C895D8901E010E0B70125
:104B70000E94501F94CF2E893F894C895D8910E097
:104B800000E0B7010E94501F7C012C853D858E8579
:104B90009F85289FA001299F500D389F500D1124FB
:104BA00090E080E0841795070CF06DCCE889F989D6
:104BB0009C01220F331FE20FF31F20813181232B31
:104BC00021F42E893F89318320830196EBCF8A859A
:104BD0009B85DC01ED91FC910688F789E02D099514
:104BE0002C853D85829F8001839F100D929F100D23
:104BF000112488859985DC01ED91FC910688F7895F
:104C0000E02D0995800F911F880F991F0889198938
:104C1000800F911FFC01F182E08235CC59874887D3
:104C200057CC5B874A8754CC9A0143E050E0B701E8
:104C3000DF91CF911F910F91FF90EF90DF90CF9078
:104C4000BF90AF909F908F907F900C94880A9A01AC
:104C500043E050E0B701DF91CF911F910F91FF909A
:104C6000EF90DF90CF90BF90AF909F908F907F900C
:104C70000C94430A9A0143E050E0B701DF91CF91D1
:104C80001F910F91FF90EF90DF90CF90BF90AF906A
:104C90009F908F907F900C94FB099A0143E050E025
:104CA000B701DF91CF911F910F91FF90EF90DF90AF
:104CB000CF90BF90AF909F908F907F900C94AD0954
:104CC00088859985DC01ED91FC910688F789E02DB6
:104CD00009955C018A859B85DC01ED91FC91068834
:104CE000F789E02D09954C0110E000E077247394DA
:104CF0008E859F85081719070CF0EACBD12CC12CA3
:104D00002C853D85C216D3060CF017C1CA14DB04EE
:104D100039F40815190521F4109204017092CF019D
:104D2000209FC001219F900D309F900D11248C0D6C
:104D30009D1D880F991F28893989820F931FFC01B7
:104D4000608171816115710509F485C06E157F055B
:104D5000F9F48C859D85089F9001099F300D189F5F
:104D6000300D11242C0D3D1DC901880F991FE889B4
:104D7000F989E80FF91F80819181009709F08CC0B3
:104D8000EA89FB89E20FF31F84910E94D80F8DC03E
:104D90009B0150E040E0CE010E94880AE816F90627
:104DA000C1F22C853D85029FC001039F900D129F8B
:104DB000900D11248C0D9D1D880F991F288939890C
:104DC000820F931FDC016D917C919B0150E040E0CC
:104DD000CE010E94430AE816F90609F4BACF2C85E1
:104DE0003D85029FC001039F900D129F900D1124DD
:104DF0008C0D9D1D880F991F28893989820F931F5B
:104E0000FC01608171819B0150E040E0CE010E9475
:104E1000AD09E816F90609F49CCF2C853D85029F63
:104E2000C001039F900D129F900D11248C0D9D1DAC
:104E3000880F991F28893989820F931FDC016D9192
:104E40007C919B0150E040E0CE010E94FB09E816F6
:104E5000F90609F47ECF2C853D85029FC001039F92
:104E6000900D129F900D11248C0D9D1D880F991F80
:104E700028893989820F931FFC01808191810097D5
:104E800099F580E20E94D80F709204011092CF0130
:104E9000BFEFCB1ADB0A34CFDC01ED91FC91068425
:104EA000F785E02D66E170E009952C853D85029F30
:104EB000C001039F900D129F900D11248C0D9D1D1C
:104EC000880F991F28893989820F931FFC018081DF
:104ED0009181DC01ED91FC910484F585E02DAC011C
:104EE00067E070E00995D0CFDC01ED91FC9106847C
:104EF000F785E02D67E070E00995892B11F62C8588
:104F00003D85029FC001039F900D129F900D1124BB
:104F10008C0D9D1D880F991F28893989820F931F39
:104F2000FC0180819181DC01ED91FC910684F78583
:104F3000E02D66E170E00995A7CF0E94DB100F5FBE
:104F40001F4FD6CE76019FCA4F925F926F927F928B
:104F5000AF92BF92CF92DF92EF92FF920F931F9387
:104F6000CF93DF935B01EA01C0900D01D12C85E066
:104F7000C80ED11C0D2C000CEE08FF080E945536FF
:104F80002B013C014091F6055091F705E881F9812C
:104F90000484F585E02D6AE070E0CE010995C30137
:104FA000B201A70196010E94D336672B09F055C0C4
:104FB0008FE894E00E94CF0D892B09F04EC083E862
:104FC00094E00E94CF0D892B09F447C0E881F98154
:104FD0000484F585E02D50E040E06BE170E0CE0107
:104FE0000995892BD1F58FE894E00E94E1038C01AB
:104FF000AC0168E070E090E080E00E94EF10E88192
:10500000F9810484F585E02DA50162E170E0CE010F
:105010000995E881F9810484F585E02DA80169E00E
:1050200070E0CE010995D801ED91FC910484F585DD
:10503000E02DA80167E070E0C8010995D801ED9165
:10504000FC91C485D5858CE595E00E94E103AC0117
:1050500060E170E0C801FE01099580E0DF91CF9129
:105060001F910F91FF90EF90DF90CF90BF90AF9086
:105070007F906F905F904F900895DC01ED91FC91CF
:105080000484F585E02D50E040E063E170E009958F
:1050900086E090E090930C0180930B0160910001F9
:1050A0007091010180910201909103016F5F7F4F28
:1050B0008F4F9F4F60930001709301018093020115
:1050C000909303012AE030E040E050E00E94053771
:1050D00060930E01611105C080910F018F5F809375
:1050E0000F0180910F018A3039F4809110011092E4
:1050F0000F018F5F80931001809110018A3009F0B9
:1051000049C010921001809111018F5F80931101AD
:105110008091F50520910801909109013BEA239FB8
:10512000312D11243695409107018217D8F0290FAF
:1051300020930901340F309307010E945536809166
:10514000F50590910801891B8093F505809109016F
:1051500090910A018917D8F48F5F80930A01109209
:1051600009010895980F90930901622F0E94363724
:10517000839F400D11244093070121502093080183
:105180002A3010F40E9455361092F505DFCF891BA6
:105190008093090108950F931F93CF93DF938B01A1
:1051A0008CE090E00E94E434EC011B821A821F82A2
:1051B0001E821D821C821092CE0185E491E09983AB
:1051C00088831986188681E090E09B878A87F8019A
:1051D0008081833431F4C80101960E94AD36009776
:1051E000A1F489E58093CE018091CE01882339F026
:1051F000209729F0CE010E94DC17D0E0C0E0CE015C
:10520000DF91CF911F910F91089599878887ECCFF7
:10521000EF92FF920F931F93CF93DF937C018CE06B
:1052200090E00E94E434EC011B821A821F821E82ED
:105230001D821C821092CE0185E491E099838883BF
:105240001986188681E090E09B878A8784EC91E03C
:105250000E94AD360097B9F489E58093CE0101E054
:1052600010E0F70180859185081719077CF4E88123
:10527000F9810684F785E02D61E070E0CE010995A3
:105280000F5F1F4FEECF99878887E9CFCE01DF915F
:10529000CF911F910F91FF90EF9008951F920F9261
:1052A0000FB60F9211248F939F938091E1009091FC
:1052B000E100937F9093E10083FF0FC01092E9001B
:1052C00091E09093EB001092EC0092E39093ED004C
:1052D0001092110698E09093F00082FF22C093E0B4
:1052E0009093E9009091F200992319F09AE390933A
:1052F000E80090910206992341F0909102069150A6
:1053000090930206911101C05D9A90911006992325
:1053100041F090911006915090931006911101C0A8
:10532000289A84FF18C08091E2008E7E816080936D
:10533000E2008091E1008F7E8093E100809103067E
:105340008E7E8061809303069F918F910F900FBE98
:105350000F901F90189580FFF7CF8091E2008E7E0E
:1053600080618093E2008091E1008E7E8093E10075
:10537000809103068E7E8160E5CF1F920F920FB65B
:105380000F921124CF92DF92EF92FF920F931F930F
:105390002F933F934F935F936F937F938F939F933D
:1053A000AF93BF93EF93FF93CF93DF93CDB7DEB768
:1053B0006C97DEBFCDBF1092E9008091E80083FFBB
:1053C00025C068E0CE0145960E94940582EF809347
:1053D000E8008D8987FF39C09091E80090FFFCCFED
:1053E000982F907609F034C19E894F89588D2F8966
:1053F000F88C911131C0803861F58091010680935D
:10540000F1001092F1008EEF8093E8006C960FB6D9
:10541000F894DEBF0FBECDBFDF91CF91FF91EF912A
:10542000BF91AF919F918F917F916F915F914F91BC
:105430003F912F911F910F91FF90EF90DF90CF90B0
:105440000F900FBE0F901F9018959EEF9093E8005D
:10545000C7CF1092F100D5CF913059F48111D3CF3D
:105460004130510581F6809101068D7F80930106C0
:10547000CACF933049F48111C6CF4130510519F696
:10548000809101068260F2CF953041F48091E8006E
:1054900080FFFCCF20682093E300B5CF963009F061
:1054A000A9C00B8D1C8D22E01092E9001092FF051F
:1054B0001092FE05F2122EC01092FD051092FC050E
:1054C0000E9463051F8299E09983FA8291E09E838E
:1054D00090EA98879AEF99872091FE053091FF0511
:1054E000275F3F4F3C832B838D831092E9001092FE
:1054F000FF051092FE051093FD050093FC0549E0A1
:1055000050E0BE016F5F7F4F80E00E943D050E942A
:10551000630579CF1093FD050093FC050E947A0482
:10552000DC0112960D911C910115110509F451C170
:10553000D801ED91FC910480F581E02DBE016B5EF8
:105540007F4FC8010995009709F03EC1F801008519
:105550001185EACFF3E0FF120EC08F89882309F48A
:1055600040C0823061F440E860E186E097E00E944C
:10557000392C811148CF81E28093EB0047CF8130F5
:1055800029F440E86BE08AEF96E0F1CF833099F799
:105590000E947A04DC011296ED90FC908E010F5F60
:1055A0001F4F6801E114F10479F0D701ED91FC91EE
:1055B0000680F781E02DB801C7010995080F111D7C
:1055C000F701E084F184EECFD8011C92F60101903E
:1055D0000020E9F73197BF016C197D0940E0C60151
:1055E000C6CF64EE76E0FB01449150E080E80E9473
:1055F0003D0509CF973009F4BECF983021F481E002
:105600008093F10000CF993009F0FDCE837009F04E
:10561000B2CFE9E2F1E081E031E096E3219122238B
:1056200071F08093E9003093EB00DF0111972C912A
:105630002093EC009093ED008F5F873079F78EE731
:105640008093EA001092EA008F8980931106DBCEE6
:105650008B8D9C8D1092E9001092FF051092FE0533
:105660009093FD058093FC05898D811192C08E89F0
:105670009D89913A49F4813209F07DCF47E050E0AD
:1056800066E171E080E0B3CF913209F074CF8332EC
:1056900069F48F89988DB0E0A0E080931201909317
:1056A0001301A0931401B0931501ADCE803269F4BB
:1056B0008091E80082FFFCCF67E086E191E00E94E4
:1056C00094058BEF8093E8009ECE823209F09BCE4A
:1056D0008F8980931D01EEEFFFE7859194918B3FB9
:1056E0009C4D51F1E0E0F8E0809116019091170196
:1056F000A0911801B0911901803B9440A105B1051A
:10570000F1F480911D0180FD1AC0EE3F8AE0F80798
:1057100089F587E797E79183808380916000809384
:10572000000688E19BE00FB6F894A895809360008E
:105730000FBE9093600067CEEEEFFAE0D5CF808188
:1057400091818737974709F05ECEA89580916000D8
:105750008861809360008091000680936000EE3F36
:105760002AE0F20789F08091FE0A9091FF0A918366
:10577000808349CE808191818737980751F2909339
:10578000FF0A8093FE0AC5CF1092FF0A1092FE0A0C
:105790003ACE0E947A04DC0112960D911C910115FB
:1057A000110509F4E8CED801ED91FC910190F0814A
:1057B000E02DBE016B5E7F4FC8010995811123CE9C
:1057C000F80100851185EBCF181619060CF41BCED5
:1057D000D2CEF1E0FF12BECE68EE76E004CF1F928B
:1057E0000F920FB60F9211242F933F938F939F9395
:1057F000AF93BF938091D9059091DA05A091DB0515
:10580000B091DC053091D00523E0230F2D3758F5FA
:105810000196A11DB11D2093D0058093D9059093C9
:10582000DA05A093DB05B093DC058091D10590915A
:10583000D205A091D305B091D4050196A11DB11D4B
:105840008093D1059093D205A093D305B093D4054E
:10585000BF91AF919F918F913F912F910F900FBE6C
:105860000F901F90189526E8230F0296A11DB11DD9
:10587000D2CFEF92FF920F931F93CF93DF93F82E27
:10588000192FE62E042F81E0860F880F0E940F0546
:1058900083E00E940F05CF2DD12FEC0EFD2EF11CC1
:1058A000CE15DF05B9F007FF13C0FE0184910E94F9
:1058B0000F05182F80E00E940F058123219681118A
:1058C000EFCFDF91CF911F910F91FF90EF9008954F
:1058D0008881EDCF81E0F5CFCF93DF93E2E1F6E071
:1058E0001382128288EE93E0A0E0B0E08483958377
:1058F000A683B78383E391E0918380838FEF9FEF4B
:1059000095878487E7E9F6E0138212821782168270
:105910008091B3069091B4069583848381E891E0E9
:1059200091838083118610861386128615861486CD
:1059300017861686118A108A138A128A158A148A83
:10594000178A168A118E108E138E128ECCE8D6E02E
:105950001B821A821F821E82FD83EC8383E691E004
:1059600099838883198618861A86A0E8B6E013966C
:105970001C921E92129717961C921E9216971596BD
:10598000DC93CE93149785E491E011969C938E93CB
:1059900019961C921E92189781E090E01B969C939A
:1059A0008E931A97E2E6F6E088EB93E0918380838A
:1059B00081EF9BE09383828386E296E195838483E3
:1059C00081E99BE19783868384E69BE191878087C9
:1059D00084EA97E2938782878FEE9BE0958784879E
:1059E00088E193E19787868780ED92E1918B808BA8
:1059F0008FEC95E1938B828B89E795E1958B848B76
:105A000084EF94E1978B868B81EC94E1918F808F6A
:105A10008DEE9BE0938F828F8DE49BE1958F848F39
:105A2000E5EBF6E0138212828FE991E091838083A7
:105A300017821682B583A483F093B406E093B3066D
:105A4000DF91CF910895CF93DF931F92CDB7DEB74B
:105A5000789484B5826084BD84B5816084BD85B549
:105A6000826085BD85B5816085BD80916E00816055
:105A700080936E00109281008091810082608093FB
:105A800081008091810081608093810080918000FD
:105A9000816080938000809191008260809391006A
:105AA000809191008160809391008091900081604D
:105AB000809390008091C10084608093C1008091A8
:105AC000C10082608093C1008091C1008160809399
:105AD000C1008091C30081608093C3008091C000A9
