:100000000C9408060C9430060C9430060C943006C0
:100010000C9430060C9430060C9430060C94300688
:100020000C9430060C9430060C9400290C946F2923
:100030000C9430060C9430060C9430060C94300668
:100040000C9430060C9430060C9430060C94300658
:100050000C9430060C9430060C9430060C94A12BB2
:100060000C9430060C9430060C9430060C94300638
:100070000C9430060C9430060C9430060C94300628
:100080000C9430060C9430060C9430060C94300618
:100090000C9430060C9430060C9430060C94300608
:1000A0000C9430060C9430060C94300650324238D2
:1000B000626F6F6B6B6565706572005031423134F1
:1000C000686F75736500502C4230736F696C005017
:1000D0007E423072617720776174657200502B62C6
:1000E00030646F6F72005025423070697400502385
:1000F0006230706172746974696F6E005042623070
:100100006265640050686230636861697200504FD4
:1001100062307461626C650064657374726F79EE4D
:10012000DB206966204C4F57206D656D0073686F4A
:1001300077EEDB204F52206F6EEEDB757365EE02BB
:10014000006E657874206F776E6572EE0220616DC7
:100150006F6E67EE020077616974206F6E65206DC7
:10016000696E75746500496E2072657761726420EE
:10017000796F752063616E0A6F7264657220666FB5
:100180006F6420616E64207069636B730A66726FBE
:100190006D206F746865722076696C6C6167657339
:1001A0000A666F72206E65787420796561722E0A16
:1001B0000A476F6F64206C75636B2100596F75205F
:1001C0006C69766520696E20636F6D6D756E6973FD
:1001D000740A6D696E696E672076696C6C6167651B
:1001E0002E0A0A31207965617220657175616C2073
:1001F0003920646179732E0A0A596F75722074610F
:10020000736B20746F2066756C66696C6C0A616E26
:100210006E75616C20636F616C206D696E696E67CD
:100220000A706C616E2E00737765657420686F6D5F
:1002300065005A7A7A0064726F7000676F74006E9E
:100240006F74206F776E65720061776179206672D6
:100250006F6D0064697361707065617265640064DC
:10026000726F777379007468697273747900746F50
:10027000696C65740068756E677279007363656E8A
:1002800065000E010401FC00EE00B70AE20AD70A7D
:100290006308E600DD00CF00C20AFF08A7081003CC
:1002A000C302B802C600860877086C08CB0ACF02E2
:1002B000E102D902BB00AC0050744237746F696C24
:1002C000657400506442313264726F777379005004
:1002D0006342306D696E657200504E62304E50431D
:1002E0000050614236616476656E747572657200A5
:1002F00050544231337069636B0050684230687506
:100300006E6765720050214230626F74746C6500D4
:100310005074423074686972737400505A42397371
:100320006C656570002000290062696E6400280019
:10033000192000EE20005D002C412D6F776E657254
:10034000002C412D73656C656374005B444F574E00
:100350002D6E6578740000000000003E5B4F5B3E30
:100360003E6B4F6B3E1C3E7C3E1C183C7E3C181C7A
:10037000577D571C1C5E7F5E1C00183C1800FFE771
:10038000C3E7FF0018241800FFE7DBE7FF30483A17
:10039000060E2629792926407F050507407F052579
:1003A0003F5A3CE73C5A7F3E1C1C08081C1C3E7F01
:1003B00014227F22145F5F005F5F06097F017F00C8
:1003C0006689956A606060606094A2FFA2940804E8
:1003D0007E040810207E201008082A1C08081C2A09
:1003E00008081E101010100C1E0C1E0C30383E3861
:1003F00030060E3E0E06000000000000005F000008
:100400000007000700147F147F14242A7F2A122378
:100410001308646236495620500008070300001C88
:100420002241000041221C002A1C7F1C2A08083E91
:1004300008080080703000080808080800006060A4
:100440000020100804023E5149453E00427F400012
:1004500072494949462141494D331814127F1027EA
:10046000454545393C4A4949314121110907364939
:10047000494936464949291E00001400000040340D
:100480000000000814224114141414140041221412
:100490000802015909063E415D594E7C1211127C39
:1004A0007F494949363E414141227F4141413E7F9A
:1004B000494949417F090909013E414151737F087A
:1004C00008087F00417F41002040413F017F081420
:1004D00022417F404040407F021C027F7F04081081
:1004E0007F3E4141413E7F090909063E4151215E5F
:1004F0007F09192946264949493203017F01033FF3
:100500004040403F1F2040201F3F4038403F631481
:1005100008146303047804036159494D43007F4183
:1005200041410204081020004141417F04020102C0
:1005300004404040404000030708002054547840E5
:100540007F284444383844444428384444287F3879
:100550005454541800087E090218A4A49C787F08FB
:1005600004047800447D40002040403D007F102876
:10057000440000417F40007C047804787C08040437
:10058000783844444438FC1824241818242418FCCF
:100590007C08040408485454542404043F44243C74
:1005A0004040207C1C2040201C3C4030403C4428E3
:1005B0001028444C9090907C4464544C440008367D
:1005C00041000000770000004136080002010204EB
:1005D000023C2623263C1EA1A161123A4040207A0B
:1005E0003854545559215555794121545478412155
:1005F0005554784020545579400C1E52721239558A
:100600005555593954545459395554545800004586
:100610007C410002457D420001457C40F0292429AF
:10062000F0F0282528F07C545545002054547C5483
:100630007C0A097F493249494932324848483232B6
:100640004A4848303A4141217A3A42402078009D58
:10065000A0A07D39444444393D4040403D3C24FF06
:100660002424487E4943662B2FFC2F2BFF0929F6B3
:1006700020C0887E090320545479410000447D4104
:100680003048484A32384040227A007A0A0A727D5D
:100690000D19317D2629292F282629292926304878
:1006A0004D4020380808080808080808382F10C8E6
:1006B000ACBA2F102834FA00007B000008142A146A
:1006C0002222142A14089500220095AA005500AA97
:1006D000AA55AA55AA000000FF00101010FF001430
:1006E0001414FF001010FF00FF1010F010F014148D
:1006F00014FC001414F700FF0000FF00FF1414F4B2
:1007000004FC141417101F10101F101F1414141FB2
:1007100000101010F0000000001F101010101F102B
:10072000101010F010000000FF101010101010102A
:100730001010FF10000000FF140000FF00FF000079
:100740001F10170000FC04F414141710171414F4ED
:1007500004F40000FF00F714141414141414F70028
:10076000F7141414171410101F101F141414F41479
:100770001010F010F000001F101F0000001F1400E8
:100780000000FC140000F010F01010FF10FF141413
:1007900014FF141010101F00000000F010FFFFFFE6
:1007A000FFFFF0F0F0F0F0FFFFFF0000000000FF9F
:1007B000FF0F0F0F0F0F38444438447C2A2A3E1491
:1007C0007E02020606027E027E02635549416338BC
:1007D00044443C04407E201E2006027E020299A56D
:1007E000E7A5991C2A492A1C4C7201724C304A4DCB
:1007F0004D303048784830BC625A463D3E49494900
:10080000007E0101017E2A2A2A2A2A44445F4444A8
:1008100040514A444040444A51400000FF0103E037
:1008200080FF000008086B6B083612362436060F6E
:10083000090F06000018180000001010003040FFDB
:100840000101001F01011E00191D1712003C3C3C54
:100850003C0000000000D5F08D14A1C881CFD9F173
:10086000AF20005020423077616C6C0050636230E2
:10087000636F6C6C61720050644230756E646561C8
:100880006420646F670050706231667269656E64DF
:10089000005066623066696C746572005021623186
:1008A00031776174657200502042306D696E640A60
:1008B000496E646976696475616C2074686174203E
:1008C0000A6665656C732C20706572636569766570
:1008D000732C200A77696C6C732C20616E64206520
:1008E0007370656369616C6C79200A726561736FFE
:1008F0006E7320616E64207468696E6B732E005095
:100900002042326C6966650A4C6976696E672074AC
:1009100068696E672E200A4C69666520636175738D
:1009200065732068756E6765722C200A7468697239
:1009300073742C20736C6565702C207761737465FB
:100940002C200A696C6C6E65737320616E64206282
:100950007265617468652E200A596F752063616E37
:10096000206C6F73742069742E00EE202D20276593
:100970006C656D656E74206F6627002E202D2066D5
:100980006C6F6F7220286E6F7468696E672900DB68
:10099000202D206F626A20756E6465722063757207
:1009A000736F72000220796F7528686F6C64204144
:1009B00020746F206D6F76652900560141012D016D
:1009C0001801BC0166015025423130666F6F64002A
:1009D0007069636B73207C206175746F7069636BE1
:1009E000757000636F616C207C206E6565640066C5
:1009F0006F6F64207C2041202D2074616B65006D39
:100A0000616E283120666F6F64206561636829001C
:100A1000426F6F6B6B65657065723A003A00440017
:100A20005900250375026E0266025F0253024902F5
:100A30003F023B023602320229037C0227024C4F5E
:100A40005700080B00020202000009040000010226
:100A50000200000524001001052401010104240204
:100A60000605240600010705810310004009040162
:100A700000020A000000070502024000000705838B
:100A8000024000000403090412010002EF020140C9
:100A90004123368000010102030141726475696ED1
:100AA0006F204C4C430041726475696E6F204C6539
:100AB0006F6E6172646F0050404230706C61796596
:100AC0007200502042307665696E00503942356FB1
:100AD00075747369646500503C4234617363656E7C
:100AE0006400503E423364657363656E6400530076
:100AF000533D3D3D3D3D3D3D3D3D3D3D3D3D3D3D10
:100B00003D3D3D3D3D3D202020423D3D3D3D3D3D67
:100B10003D3D3D3D3D3D3D3D3D3D2B232B233D3D5D
:100B20003D3D3D3D3D3D3D3D3D3D3D3D3D3140201B
:100B300020683D3D3D3D3D3D3D3D3D3D3D3D3D3DD7
:100B40003D3D2020204F3D3D3D3D3D3D3D3D3D3D1A
:100B50003D3D3D3D3D3D232323233D3D3D3D3D3D2D
:100B60003D3D3D3D3D3D3D3D3D3D3D3D3D3D3D3DB5
:100B70003D3D3D3D3D3D3D3D3D3D3D3D3D00533DCC
:100B80003D3D3D3D3D3D3D7E7E7E3D3D3D3D3D3DD2
:100B90003D3D3D3D3D3D3D3D3D3D3D7E397E3D3D07
:100BA0003D3D3D3D3D3D3D3D3D3D3D3D3D3D3D2092
:100BB00020203D3D3D3D3D3D3D3D3D3D3D3D3D3D9F
:100BC0003D3D32204020313D3D3D3D3D3D3D3D3DA3
:100BD0003D3D3D3D3D3D3D2020203D3D3D3D3D3D9C
:100BE0003D3D3D3D3D3D3D3D3D3D3D3D3E3D3D3D34
:100BF0003D3D3D3D3D3D3D3D3D3D3D3D3D3D3D3D25
:100C00003D3D3D3D3D3D3D3D3D3D3D00EB2B6D348E
:100C100011241FBECFEFDAE0DEBFCDBF11E0A0E0B0
:100C2000B1E0E4E1FEE602C005900D92AA3BB107F7
:100C3000D9F726E0AAEBB1E001C01D92A83AB207AD
:100C4000E1F716E0C7E0D6E004C02197FE010E945C
:100C5000E336C630D107C9F70E949C2C0C94FD36B0
:100C60000C94000080E008950F931F93CF93DF93BF
:100C70008B01C0919806D0919906209791F086E05B
:100C8000CA39D807A1F0E881F9810284F385E02D03
:100C9000B801CE010995009751F0FC01158304833A
:100CA000EC01CE01DF91CF911F910F9108950A8041
:100CB000DB81C02DE2CF0F931F93CF93DF938C0185
:100CC000C0919806D0919906209791F086E0CA3994
:100CD000D807A1F0E881F9810284F385E02DB801FD
:100CE000CE010995009751F0FC0115830483EC01B6
:100CF000CE01DF91CF911F910F9108950A80DB8182
:100D0000C02DE2CFFC018091F605882311F13FB799
:100D1000F89482E08093E9002091F200822F90E025
:100D20001816190614F481E090E0882339F0289809
:100D300044E64093F5054091F1004083222339F0C9
:100D40002091F200211103C02BE62093E8003FBF61
:100D500008958FEF9FEF08952FB7F89483E0809365
:100D6000E9009091E800892F807295FF04C090916E
:100D7000F20080E4891B2FBF08958091ED05811159
:100D80000DC082E08093E90584E08093EA0510922B
:100D9000EC051092EB0581E08093ED0589EE95E07E
:100DA0000895CF93DF931F92CDB7DEB76983DC013F
:100DB000ED91FC910280F381E02D41E050E0BE0115
:100DC0006F5F7F4F09950F90DF91CF91089583E07A
:100DD0008093E9008091F200882319F08AE38093E0
:100DE000E80008950E94AC0690E00895CF93DF9349
:100DF0001F92CDB7DEB7FC018485958597FD08C0AD
:100E00002FEF3FEF358724870F90DF91CF91089523
:100E1000CE0101960E948206019719F4898190E023
:100E2000F3CF8FEF9FEFF0CF0F931F93CF93DF930D
:100E30001F92CDB7DEB78C01FC018485958597FFA5
:100E40000BC0CE0101960E948206019771F4898140
:100E500090E0F80195878487F801848595850F9047
:100E6000DF91CF911F910F9108958FEF9FEFF1CFF9
:100E7000FC018485958597FD0BC09FB7F89482E0AF
:100E80008093E9008091F2009FBF90E00196089561
:100E90009FB7F89482E08093E9008091F2009FBFB1
:100EA00090E008954091E3055091E4052091E1051B
:100EB0003091E20542175307B4F49091E800957021
:100EC000E1F39091E80092FD19C08093F1008091C8
:100ED000E3059091E40501968F739927892B19F406
:100EE0008EEF8093E8008091E3059091E4050196F0
:100EF0009093E4058093E30581E0089580E00895F0
:100F0000EF92FF920F931F93CF93DF93F82E192F39
:100F1000E62E042F81E0860F880F0E94520783E09F
:100F20000E945207CF2DD12FEC0EFD2EF11CCE15B5
:100F3000DF05B9F007FF13C0FE0184910E9452073C
:100F4000182F80E00E945207812321968111EFCF54
:100F5000DF91CF911F910F91FF90EF9008958881BD
:100F6000EDCF81E0F5CFDF92EF92FF920F931F93C9
:100F7000CF93DF93D82E8A01EB017B01E40EF51E9F
:100F8000CE15DF0559F0D7FE12C0FE0184910E94F4
:100F9000520721968111F4CF0FEF1FEFC801DF91A7
:100FA000CF911F910F91FF90EF90DF90089588816E
:100FB000EECF0F931F93CF93DF931F92CDB7DEB782
:100FC00082E0898342E450E062E47AE080E80E94B3
:100FD000B3070E94BD06DC0112960D911C9101150C
:100FE000110589F0D801ED91FC910280F381E02D8B
:100FF000BE016F5F7F4FC801099597FD04C0F801DE
:1010000000851185ECCF89810F90DF91CF911F91E1
:101010000F910895615030F02091F100FC01208380
:101020000196F8CF289884E68093F5050895AF924D
:10103000BF92CF92DF92EF92FF920F931F93CF93C5
:10104000DF936C017B018B01040F151FEB015E0127
:10105000AE18BF08C017D10759F06991D601ED91BC
:10106000FC910190F081E02DC6010995892B79F75B
:10107000C501DF91CF911F910F91FF90EF90DF900D
:10108000CF90BF90AF9008953FB7F8948091C1057D
:101090009091C205A091C305B091C40526B5A89B47
:1010A00005C02F3F19F00196A11DB11D3FBFBA2FFA
:1010B000A92F982F8827BC01CD01620F711D811DBA
:1010C000911D42E0660F771F881F991F4A95D1F73F
:1010D00008958F929F92AF92BF92CF92DF92EF923C
:1010E000FF926B017C010E9444084B015C01C1141A
:1010F000D104E104F104B9F00E94440868197909A7
:101100008A099B09683E73408105910580F321E0BF
:10111000C21AD108E108F10888EE880E83E0981E13
:10112000A11CB11CE4CFFF90EF90DF90CF90BF9057
:10113000AF909F908F90089565E070E080E090E020
:101140000C9469088F929F92AF92BF92CF92DF92D8
:10115000EF92FF920F931F93CF93DF936C017B016C
:101160008A0180911B01882309F45CC08091F605F7
:10117000882309F457C08091E80580FF05C080915D
:10118000E00082608093E000E801B12C8AEFA82E95
:1011900093E0892E2AE3922E209711F4BB20D9F1F7
:1011A0000E94AC0681110AC0AA94AA20D9F161E07C
:1011B00070E080E090E00E946908EECF8C171D0679
:1011C00011F00CF08C2F9FB7F8948092E9002091D9
:1011D000E80025FD02C09FBFDFCF282F30E0C21BF3
:1011E000D30BF701815020F041914093F100FACFE9
:1011F000E20EF31EBB2021F09092E800B12CEBCF61
:101200008091E80085FDE7CF9092E800BB24B3947D
:10121000209709F3F3CF5D9884E68093E7051016D5
:1012200011063CF081E090E0F6019383828310E0A8
:1012300000E0C801DF91CF911F910F91FF90EF90D7
:10124000DF90CF90BF90AF909F908F9008958FB117
:101250008095807F669B88601C9B8460089580E0F9
:10126000E0ECF1E081118FEF002481938193819371
:1012700081930394D1F71092D0051092CF0510926C
:10128000D2051092D10508956F927F928F929F920E
:10129000AF92BF92CF92DF92EF92FF920F931F9384
:1012A000CF93DF936D3079F0C091CF05D091D00509
:1012B0006A30D1F41092D2051092D1052896D093BD
:1012C000D005C093CF0581E090E0DF91CF911F91D1
:1012D0000F91FF90EF90DF90CF90BF90AF909F90D5
:1012E0008F907F906F900895C090BF01B0900401DF
:1012F0004091D1055091D20585E0689FF0011124FD
:10130000EA5AFC4F9A01812C90E1D92E95E010E029
:10131000891629F0BF016F5F7F4F1491FB01BE0159
:1013200088E0A82E10FD16C09C2CCB1014C016957A
:10133000AA946F5F7F4FA110F5CF83942F5F3F4F2B
:1013400096E08912E3CF4A5F5F4F5093D2054093F6
:10135000D105B9CF9B2C2038310548F76034710591
:1013600030F7CB0101E081FD04E080FD000F82FD3C
:101370000295887FD89ED0011124A20FA054BE4FA1
:101380008C9190FE03C0802B8C93D1CF009580234D
:10139000FBCFEF92FF920F931F93CF93DF938C01BC
:1013A0007B01D0E0C0E0F701EC0FFD1F64916623E4
:1013B00039F0C8010E944409892B11F02196F3CF1E
:1013C000CE01DF91CF911F910F91FF90EF90089583
:1013D000682F80EA96E00C9444099091D3059823F5
:1013E00029F49091D405982381E009F480E00895D0
:1013F000E0ECF1E080E0A0E0B8E000800EBC8111FC
:10140000012C1197A0FDFDCF0192B9F70DB40895FD
:10141000DF92EF92FF920F931F93CF93DF938C0194
:10142000EB01F12CE12CDD24D394D8011A964D91D7
:101430005C911B971C962D913C911D97429FC0017A
:10144000439F900D529F900D1124E816F906F4F475
:101450001E96ED91FC91C701880F991FE80FF91FA7
:1014600080819181009771F08C179D0709F4D12C30
:10147000DC01ED91FC910680F781E02D60E170E0E8
:101480000995F0CFBFEFEB1AFB0ACFCFE881F981C6
:101490000680F781E02D60E170E0CE0109950097AC
:1014A00021F0BC01C8010E94080ADD2071F0E8812A
:1014B000F9810280F381E02DCE01DF91CF911F9160
:1014C0000F91FF90EF90DF900994DF91CF911F91E2
:1014D0000F91FF90EF90DF900895089590E080E0E5
:1014E000089590E080E008954F925F926F927F920E
:1014F0008F929F92AF92BF92CF92DF92EF92FF9224
:101500000F931F93CF93DF935C013B012A01690185
:10151000CC0CDD1CDC011E968D909C901F978C0CD2
:101520009D1CF401C081D1810330110509F4A8C0CC
:10153000D0F40130110509F44AC00230110509F454
:101540007EC0CE01DF91CF911F910F91FF90EF9060
:10155000DF90CF90BF90AF909F908F907F906F90D3
:101560005F904F9008950430110541F0053011054A
:1015700041F7209731F7F182E082E3CF2097A9F07D
:1015800054968D919C918C179D0739F0E881F981D3
:101590000280F381E02DCE010995D5011E96ED91D3
:1015A000FC91EC0DFD1D11821082F5018685978559
:1015B000FC01EC0DFD1D71826082440C551C840DF4
:1015C000951DDC011D921C92D0E0C0E0BACF20979F
:1015D000A9F0FC01848995898C179D0739F0E88171
:1015E000F9810280F381E02DCE010995D5011E9687
:1015F000ED91FC91EC0DFD1D11821082F501C68567
:10160000D785CC0DDD1DD701ED91FC910084F185CE
:10161000E02DC701099599838883F50126853785D3
:10162000C20ED31ED6018D919C91DC01ED91FC91EF
:101630000680F781E02D61E070E00995C5CF209725
:1016400009F07FCFD701ED91FC910084F185E02D69
:10165000C7010995F40191838083D5011E962D91D0
:101660003C91C20ED31EF60180819181DC01ED9187
:10167000FC910680F781E02D61E070E0099561CF73
:101680002097A9F0E881F9810680F781E02D66E0D6
:1016900070E0CE010995892B51F0D5011E962D9150
:1016A0003C91C20ED31EF601C081D1814ACFD50133
:1016B0001E968D919C91FC01EC0DFD1D20813181C8
:1016C000440C551C840D951DDC012D933C937182B7
:1016D00060827ACF8F929F92AF92BF92CF92DF9229
:1016E000EF92FF920F931F93CF93DF93FC01EB01D7
:1016F0008A016285738544855585649FC001659F15
:10170000900D749F900D1124D12CC12CC816D906B0
:101710006CF5A685B785A601440F551FA40FB51F0C
:10172000AD90BC9046014FEF841A940AAC16BD06EA
:10173000D9F4C4010E94CF36892B41F07901BE0152
:10174000CF019401A6010E94740A5C01C501DF91DA
:10175000CF911F910F91FF90EF90DF90CF90BF90AE
:10176000AF909F908F9008956401D0CF5E01EECF2F
:10177000AF92BF92CF92DF92EF92FF920F931F939F
:10178000CF93DF93EC016B018A016A857B854C85E1
:101790005D85649FC001659F900D749F900D11241D
:1017A000F0E0E0E0E817F9074CF5AE85BF85AF0142
:1017B000440F551FA40FB51FAD90BC90AC14BD04D1
:1017C000D9F4CF010E94CF36892B51F07901B601AF
:1017D000CE019F0121503109AF010E94740A5C01C2
:1017E000C501DF91CF911F910F91FF90EF90DF9096
:1017F000CF90BF90AF9008953196D4CF5601F0CFDF
:10180000CF92DF92EF92FF920F931F93CF93DF93CC
:10181000DC0179011A96CD90DC901B971C968D9176
:101820009C911D97C89E8001C99E100DD89E100DD9
:101830001124F0E0E0E0E017F1072CF51E968D9101
:101840009C911F979F01220F331F820F931FEC0162
:101850008881998186179707A1F496012E0F3F1F63
:10186000201731072CF48A01CD01AF010E94740AC0
:10187000DF91CF911F910F91FF90EF90DF90CF906C
:1018800008953196D8CFCB01F3CFEF92FF920F930B
:101890001F93CF93DF93DC0179011A962D913C9130
:1018A0001B971C968D919C911D97289F8001299FC5
:1018B000100D389F100D1124F0E0E0E0E017F10763
:1018C00014F51E96CD91DC911F97CF01880F991FBB
:1018D000C80FD91F888199818617970791F4EF0166
:1018E000C21BD30B9E01D7FD05C08A01CD01AF01FC
:1018F0000E94740ADF91CF911F910F91FF90EF909A
:1019000008953196DBCFCB01F5CF83E5089590E0C4
:1019100080E0089590E080E008950895EF92FF92AE
:101920000F931F93CF93DF93EC018A016B31710505
:1019300008F0A4C06156734FFB010C94E336BA0C57
:10194000220D3E0D3E0D3E0D3E0D240D760D3E0D3D
:101950003E0D3E0D3E0D3E0D3E0D3E0D3E0D520D1B
:10196000680D3E0D6F0D220D3E0D3E0D2A0D550DDD
:101970003E0D1C0D209709F44BC0E881F9810680CB
:10198000F781E02D60E170E0CE010995F12CE12CAA
:101990000817190709F47E01E881F9810680F781AB
:1019A000E02D60E170E0CE010995EC01E114F10455
:1019B00009F3E881F9810680F781E02D60E170E0AC
:1019C000CE010995EC01892BC1F0D801ED91FC9174
:1019D0000680F781E02D61E170E0C8010995892B4F
:1019E000F9F4D801ED91FC910680F781E02D61E1D9
:1019F00070E0C8010995892BE1F6D701ED91FC91C2
:101A00000480F581E02DAE0160E170E0C701099529
:101A1000C801DF91CF911F910F91FF90EF90089532
:101A2000E881F9810680F781E02D61E170E0CE0167
:101A30000995892BB1F2E1CF88858F70452B09F08C
:101A4000806F88878E01E4CF8885877F452BC9F317
:101A50008860F7CF2C813D81FA0184819581281718
:101A6000390781F3E881F9810680F781E02D60E193
:101A700070E0CE010995EC01009719F410E000E048
:101A8000C7CFE881F9810680F781E02D61E170E040
:101A90000995892B99F72C813D81D80114968D9158
:101AA0009C91DDCF5F834E83B3CF4E815F811F83D7
:101AB0000E834115510509F4ABCFD801ED91FC918E
:101AC0000480F581E02D60E170E0C8010995BACF8E
:101AD00088858B7F452B09F4B4CF8460B2CF88858D
:101AE0008D7F452B09F4ADCF8260ABCF88858E7F8B
:101AF000452B09F0A6CF8160A4CFFC01848195819C
:101B00000C945B0680E50895DC011496ED91FC9140
:101B1000339680E04AE024912053330B2A3031057C
:101B200040F49491849F900D1124892F8053319615
:101B3000F2CF90E00895FC01848195810396FC0129
:101B400024912053330B2A30310510F40196F7CF3E
:101B50000895089580E0089580E00895EF92FF923F
:101B60000F931F93CF93DF938C017B01EA01409188
:101B7000FB055091FC05E881F9810480F581E02D99
:101B80006AE070E0CE010995E881F9810480F58171
:101B9000E02DA70162E170E0CE010995E881F981AD
:101BA0000480F581E02DA80165E170E0CE01099582
:101BB00080E0DF91CF911F910F91FF90EF900895FA
:101BC0004F925F926F927F928F929F92AF92BF924D
:101BD000CF92DF92EF92FF920F931F93CF93DF93F9
:101BE000EC018091FF0590910006009739F0DC012F
:101BF000ED91FC910280F381E02D09958091BC016B
:101C00009091BD01009739F0DC01ED91FC910280CB
:101C1000F381E02D09958091BA019091BB01009765
:101C200039F0DC01ED91FC910280F381E02D099502
:101C30008CEA91E00E945B069093BD018093BC0109
:101C400080EB91E00E945B069093BB018093BA0108
:101C5000CE010E945B06909300068093FF054091A1
:101C6000BC015091BD01DC01ED91FC910480F58136
:101C7000E02D6CE070E009958091FF0590910006E1
:101C80004091BA015091BB01DC01ED91FC910480BF
:101C9000F581E02D6DE070E009958091FF05909150
:101CA0000006DC01ED91FC910680F781E02D6BE0F0
:101CB00070E009958091FF0590910006DC01ED919F
:101CC000FC910680F781E02D63E070E00995892B97
:101CD00089F78091FF0590910006DC01ED91FC9160
:101CE0000680F781E02D61E070E00995892B89F786
:101CF0008091BC019091BD01DC01ED91FC910684C5
:101D0000F785E02D09957C018091BA019091BB0186
:101D1000DC01ED91FC910684F785E02D09955C01CD
:101D2000BAE0CE3EDB0709F48CC02196512C84E149
:101D3000482E98EB692E92E0792E4A9CF0014B9C3C
:101D4000F00D1124EE0DFF1DEC0FFD1F849180326C
:101D500029F1FAE0CE3EDF0709F1882E082E000CAB
:101D600099084091FD055091FE05DA011496ED9118
:101D7000FC913196E491E815190409F065C0809151
:101D8000FF0590910006DC01ED91FC910480F58146
:101D9000E02D67E170E00995552453948091FF058B
:101DA00090910006DC01ED91FC910680F781E02D19
:101DB00064E070E00995EFEFEE1AFE0A892B09F056
:101DC000BCCF8091FF0590910006DC01ED91FC9164
:101DD0000680F781E02D63E070E00995892B89F793
:101DE0008091BC019091BD01DC01ED91FC910684D4
:101DF000F785E02D09957C01BFEFAB1ABB0A8091F6
:101E0000FF0590910006DC01ED91FC910680F781C1
:101E1000E02D62E070E00995892B09F08ECF852DC9
:101E2000DF91CF911F910F91FF90EF90DF90CF90B6
:101E3000BF90AF909F908F907F906F905F904F90EA
:101E40000895CEEEDAE072CF02E812E08D33B9F5F4
:101E50008091FF0590910006DC01ED91FC910680D8
:101E6000F781E02D66E070E00995892B89F4809177
:101E7000FF05909100064091F9055091FA05DC01AB
:101E8000ED91FC910480F581E02D66E070E009950C
:101E90000091FF0510910006D801ED91FC91C480DE
:101EA000D5800680F781E02D66E070E0C8010995D5
:101EB000AC0167E170E0C801F60109956FCFF80148
:101EC00085919491FC013196E491E8151904F1F49F
:101ED000F801859194910E945B066C01DC01ED9103
:101EE000FC910480F581E02DAC0167E070E009957C
:101EF0008091FF0590910006DC01ED91FC9104803A
:101F0000F581E02DA60167E170E009950E5F1F4F96
:101F100060167106A1F642CFCF93DF93EC0180915A
:101F2000FF0590910006DC01ED91FC910680F781A0
:101F3000E02D63E070E00995892B89F78091FF051A
:101F400090910006DC01ED91FC910680F781E02D77
:101F500061E070E00995892B89F78091FF059091E8
:101F60000006DC01ED91FC910680F781E02D67E130
:101F700070E009950097F1F0FC01248135812C1760
:101F80003D0779F48091FF0590910006DC01ED9109
:101F9000FC910680F781E02D67E170E0DF91CF9141
:101FA00009940190F081E02D0680F781E02D60E139
:101FB00070E0DFCF8091FF0590910006DC01ED918C
:101FC000FC910680F781E02D64E070E00995892B93
:101FD00021F68091FF0590910006DC01ED91FC91C6
:101FE0000680F781E02D63E070E00995892B89F781
:101FF0008091FF0590910006DC01ED91FC91068037
:10200000F781E02D62E070E00995892B09F0A5CFFA
:1020100090E080E0DF91CF910895EF92FF920F93CF
:102020001F93CF93DF937B01EA0182EE9AE00E9437
:102030008C0F8C01892B09F44BC0E881F981048055
:10204000F581E02DA7016BE170E0CE010995E8165E
:10205000F906E9F4D801ED91FC910684F785E02DAD
:10206000C8010995880F991FFC01EF5AF94F01909B
:10207000F081E02D9701AE01B801C801099582E019
:10208000DF91CF911F910F91FF90EF9008954091B4
:10209000FB055091FC05E881F9810480F581E02D74
:1020A0006AE070E0CE010995E881F9810480F5814C
:1020B000E02DA80162E170E0CE010995E881F98187
:1020C0000480F581E02DA70165E170E0CE0109955E
:1020D00080E0D6CF1092CE051092CD058091FF05FD
:1020E00090910006DC01ED91FC910680F781E02DD6
:1020F00063E070E00995892B31F08091CE058F5F08
:102100008093CE05EBCF8091FF0590910006DC0116
:10211000ED91FC910680F781E02D61E070E009957A
:10212000892B31F08091CD058F5F8093CD05EBCF6A
:102130000895CF93DF93EC0162307105F9F030F42C
:1021400061307105A9F080E090E00FC06730710543
:1021500039F066317105B9F78EE20E94E80904C0D2
:1021600088859985892B79F3CE01DF91CF910895E8
:102170008E819F8101969F838E83F6CF8E819F8172
:102180000197F9CFEF92FF920F931F93CF93DF93B5
:102190008C01EA016E30710531F06F30710591F1FB
:1021A000D0E0C0E027C0E881F9810684F785E02D02
:1021B000CA0109957C01D801ED91FC910684F7854F
:1021C000E02DC80109958E159F05A4F0E881F981DD
:1021D0000684F785E02DCE010995EC01D801ED913B
:1021E000FC910684F785E02DC8010995C817D90729
:1021F000BCF6E801CE01DF91CF911F910F91FF90C6
:10220000EF900895E881F9810684F785E02DCA01F1
:1022100009957C01D801ED91FC910684F785E02DAC
:10222000C80109958E159F0524F3E881F98106847C
:10223000F785E02DCE0109957C01D801ED91FC9147
:102240000684F785E02DC8010995E816F90694F291
:10225000A7CF83E40895FC0186819781089580EAE1
:1022600096E00C94440980E00895FC0184819581F6
:102270000C945B06089590E080E008958F929F9201
:10228000AF92BF920F931F93CF93DF93CDB7DEB77B
:10229000A1970FB6F894DEBF0FBECDBF19A2423092
:1022A00008F44AE08E010F5D1F4F842E912CB12C53
:1022B000A12CA50194010E949236E62FB901CA0112
:1022C000EA3044F5E05DD801EE938D01232B242BF9
:1022D000252B79F790E080E0109769F0FD010190DF
:1022E0000020E9F73197AF014A1B5B0BBD0180EA83
:1022F00096E00E941708A1960FB6F894DEBF0FBEB5
:10230000CDBFDF91CF911F910F91BF90AF909F9064
:102310008F900895E95CD7CF682F70E090E080E05F
:102320004AE00C943E1142E050E063EB71E080EA39
:1023300096E00C941708CF93DF93BC0180EA96E0F7
:102340000E94C909EC010E9493118C0F9D1FDF911F
:10235000CF910895CF92DF92EF92FF920F931F9348
:10236000CF93DF937C016A01660F771FEB01CE5D8F
:10237000D54F04EF11E00E942F091092D205109260
:10238000D1051092D0051092CF05E114F10479F136
:10239000D701ED91FC910680F781E02D66E170E0B8
:1023A000C70109950E949311FE01859194910E94A5
:1023B0009B11C114D10469F0D601ED91FC91048404
:1023C000F585E02DC6010995BC0180EA96E00E94E2
:1023D000C9090E94F8090150110969F6DF91CF91EE
:1023E0001F910F91FF90EF90DF90CF9008956CE7D1
:1023F00072E080EA96E00E94C909D4CF1F93CF9380
:10240000DF93EC01162F0E942F091092D205109233
:10241000D1051092D0051092CF056BE473E080EAED
:1024200096E00E94C90961E473E0111109C080912E
:10243000FD059091FE058C179D0731F468E373E06C
:1024400080EA96E00E94C90986E393E00E949B110E
:102450008091F7059091F805892BB9F48091D50505
:102460009091D605892B89F4D093F805C093F70590
:10247000E881F9810680F781E02D60E170E0CE010E
:1024800009959093D6058093D50563E373E080EAC0
:1024900096E00E94C9098091F7059091F805DC014A
:1024A000ED91FC910484F585E02D09950E949B1126
:1024B00060E373E080EA96E00E94C9098091D50547
:1024C0009091D605009749F1DC01ED91FC910680D1
:1024D000F781E02D61E170E00995892BF1F480919D
:1024E000D5059091D605DC01ED91FC910680F78130
:1024F000E02D66E070E00995892B09F064C08091B9
:10250000D5059091D605DC01ED91FC910484F5850B
:10251000E02D09950E949B1106C08091D5059091F0
:10252000D605009781F780E10E94ED09882369F1C3
:102530008091D5059091D605009739F1DC01ED9198
:10254000FC910680F781E02D61E170E00995A09192
:10255000D505B091D605892B21F0B093F805A0934D
:10256000F705ED91FC9111970680F781E02D60E170
:1025700070E0CD0109959093D6058093D505892B00
:1025800021F4D093D605C093D50588E00E94ED09CB
:10259000882309F4B9C0112379F18091D505909170
:1025A000D605009721F48091F7059091F8051092D7
:1025B000F8051092F7051092D6051092D505DF9117
:1025C000CF911F9108956EE273E080EA96E00E9439
:1025D000C90969E273E080EA96E00E94C90967E2EE
:1025E00073E080EA96E00E94C90965E273E080EA40
:1025F00096E00E94C90983CF8091FD059091FE0568
:102600008C179D0709F080C08091D5059091D60563
:10261000009709F479C0DC01ED91FC910680F78107
:10262000E02D66E070E00995892B09F06DC080917E
:10263000F7059091F805DC01ED91FC910680F7819A
:10264000E02D60E170E00995EC018091F705909133
:10265000F8054091D5055091D605DC01ED91FC912E
:102660000480F581E02D70E060E009952097B1F0DD
:10267000E881F9810680F781E02D61E170E0CE010B
:102680000995892BE9F4E881F9810680F781E02D2D
:1026900060E170E0CE010995EC01E8CF8091FF0583
:1026A000909100064091F7055091F805DC01ED91FD
:1026B000FC910480F581E02D69E170E00995EC0161
:1026C0004091D5055091D605E881F9810480F581C6
:1026D000E02D68E170E0CE0109954091D50550915B
:1026E000D60568E070E0CE010E94AA111092F805AC
:1026F0001092F7051092D6051092D50584E090E06F
:1027000090930B0180930A0184E00E94ED098823D5
:10271000C1F01092F8051092F7051092D6051092AC
:10272000D5051092DA051092D9051092DC051092A9
:10273000DB051092DF0584E090E090930B0180931D
:102740000A0190E080E03BCF0F931F93CF93DF937C
:102750002115310579F1E90180EF92E00E945B06D5
:102760008C01E881F9810480F581E02DAC0167E1FD
:1027700070E0CE010995892B19F5A80168E070E099
:10278000CE010E94AA11E881F9810480F581E02D33
:10279000A80168E170E0CE0109958091FD05909156
:1027A000FE05C817D90731F489E090E090930B013A
:1027B00080930A0180E0DF91CF911F910F910895DE
:1027C0000115110551F3D801ED91FC910280F381BF
:1027D000E02DC8010995E1CF0F931F93CF93DF93AD
:1027E0000091FD051091FE050817190709F03EC07C
:1027F000EB0187E090E090930B0180930A017093C6
:10280000DE056093DD050E942F091092D20510921B
:10281000D1051092D0051092CF05D801ED91FC9111
:102820000680F781E02D66E170E0C8010995ECE2D1
:10283000FAE0859194910E949B11EEE2FAE0659195
:10284000749180EA96E00E94C909FE01EE0FFF1F15
:10285000EE5DF54F6591749180EA96E00E94C9099A
:10286000DF91CF911F910F910C94F80950E040E057
:1028700065E070E0DF91CF911F910F910C94AA1148
:102880000F931F93CF93DF938C01232B31F1809112
:10289000FD059091FE0568177907F9F4CA01EB016F
:1028A000DA01ED91FC910480F581E02DA80170E042
:1028B00060E0099570E060E0C8010E94EC138BE1D4
:1028C00093E00E945B06E881F9810480F581E02DA8
:1028D000AC0168E170E0CE01099580E0DF91CF9115
:1028E0001F910F910895AF92BF92CF92DF92EF9216
:1028F000FF920F931F93CF93DF932115310509F4B6
:1029000057C07901EA018B016C0180E193E00E94DC
:102910005B065C01D701ED91FC910480F581E02D0F
:10292000AC0167E170E0C70109957C01A114B10415
:1029300041F0D501ED91FC910280F381E02DC501BC
:102940000995E114F104A1F170E060E0C7010E9473
:10295000EC13E881F9810480F581E02DA70170E096
:1029600060E0CE01099570E060E0C6010E94EC13C2
:10297000E881F9810480F581E02DA60170E060E036
:10298000CE01099585E093E00E945B06EC01AC0165
:1029900068E070E0C8010E94AA11D801ED91FC9195
:1029A0000480F581E02DAE0168E170E0C801099571
:1029B00080E0DF91CF911F910F91FF90EF90DF901A
:1029C000CF90BF90AF900895CF92DF92EF92FF9299
:1029D0000F931F93CF93DF932115310509F440C066
:1029E0008901EA017C018AEF92E00E945B066C019A
:1029F000D801ED91FC910480F581E02DAC0167E1F7
:102A000070E0C80109958C01C114D10441F0D601D0
:102A1000ED91FC910280F381E02DC601099501152D
:102A20001105F1F070E060E0C8010E94EC13E8814C
:102A3000F9810480F581E02DA80170E060E0CE010D
:102A4000099570E060E0C7010E94EC13E881F9810C
:102A50000480F581E02DA70170E060E0CE010995CA
:102A600080E0DF91CF911F910F91FF90EF90DF9069
:102A7000CF9008950F931F93CF93DF938C01EB01B9
:102A8000E881F9810680F781E02D6AE170E0CE01EE
:102A90000995892B71F150E040E06AE070E0CE01C9
:102AA0000E94AA11E881F9810480F581E02D50E0AF
:102AB00040E063E170E0CE010995E881F98106808C
:102AC000F781E02D60E170E0CE010995EC010097FF
:102AD00051F0E881F9810680F781E02D61E170E035
:102AE0000995892BF9F280E0DF91CF911F910F9129
:102AF000089570E060E0C8010E94EC138091FF052A
:102B000090910006DC01ED91FC910480F581E02DAF
:102B1000A80170E060E009951092F8051092F705A1
:102B2000E2CFCF92DF92EF92FF920F931F93CF935A
:102B3000DF93EB017A018AEF92E00E945B068C0141
:102B400080910D01853009F052C080910C018111F6
:102B50004EC0E881F9810480F581E02DA80167E18C
:102B600070E0CE010995892B09F041C0E881F98117
:102B70000480F581E02DA80168E170E0CE0109959F
:102B8000A80168E070E0CE010E94AA1180E193E004
:102B90000E945B068C0180910D01833009F458C0BE
:102BA00080910D01833009F075C080910C01811175
:102BB00071C0E881F9810480F581E02DA80167E109
:102BC00070E0CE010995892B09F464C063E070E0E0
:102BD000CE010E94EC13D701ED91FC910480F581A8
:102BE000E02DAE0170E060E0C701099557C080910B
:102BF0000D01853061F00115110541F2D801ED910B
:102C0000FC910280F381E02DC8010995BFCF80912E
:102C10000C018111F0CFE881F9810480F581E02D6C
:102C2000A80167E170E0CE010995892B21F361E0ED
:102C300070E0CE010E94EC13D701ED91FC9104806D
:102C4000F581E02DAE0170E060E0C70109959ECFEF
:102C500080910C018111A4CFE881F9810480F58174
:102C6000E02DA80167E170E0CE010995892B09F0FC
:102C700097CFE881F9810480F581E02DA80168E112
:102C800070E0CE010995A80168E070E0CE010E94D5
:102C9000AA1104C00115110509F044C083EC92E0AB
:102CA0000E945B068C0180910D01882309F443C0CA
:102CB00080910D01882309F460C00115110509F008
:102CC0008DC088EB92E00E945B068C0180910D0123
:102CD000843009F48CC080910D01843009F0A9C0C2
:102CE00080910C018111A5C0E881F9810480F581F2
:102CF000E02DA80167E170E0CE010995892B09F468
:102D000098C062E070E0CE010E94EC13D701ED9113
:102D1000FC910480F581E02DAE0170E060E0C70118
:102D200009958AC0D801ED91FC910280F381E02DD4
:102D3000C8010995B3CF80910C018111B9CFE88109
:102D4000F9810480F581E02DA80167E170E0CE01F2
:102D50000995892B09F0ACCFE881F9810480F581D0
:102D6000E02DA80168E170E0CE010995A80168E0B6
:102D700070E0CE010E94AA11A4CF80910C018111B4
:102D80009CCFE881F9810480F581E02DA80167E1FD
:102D900070E0CE010995892B09F48FCFD701ED9111
:102DA000FC91C480D580E881F9810480F581E02D13
:102DB000A80167E170E0CE010995AC0170E060E028
:102DC000C701F601099570E060E0C8010E94EC13AC
:102DD0008BE193E00E945B068C01BECFD801ED91A0
:102DE000FC910280F381E02DC80109956ACF8091A2
:102DF0000C01811170CFE881F9810480F581E02D0B
:102E0000A80167E170E0CE010995892B09F063CF35
:102E1000E881F9810480F581E02DA80168E170E086
:102E2000CE010995A80168E070E0CE010E94AA11C8
:102E300003C00115110551F480E0DF91CF911F917E
:102E40000F91FF90EF90DF90CF900895D801ED9112
:102E5000FC910280F381E02DC8010995EDCFAF927E
:102E6000BF92DF92EF92FF920F931F93CF93DF9366
:102E70007C01D62E8FEFE816F80641F480911C01F4
:102E8000815080931C01F12CE12C09C0A1E0EA16CD
:102E9000F104C9F780911C018F5F80931C01809120
:102EA000FF0590910006009769F04091FD05509153
:102EB000FE05DC01ED91FC910480F581E02D60E1DF
:102EC00070E0099580911C0181112CC08EE79BE078
:102ED0000E94E00D182F1123D9F18091FF059091E8
:102EE00000064091FB055091FC05DC01ED91FC9141
:102EF0000480F581E02D65E070E009958091FF0583
:102F0000909100064091FD055091FE05DC01ED9188
:102F1000FC910480F581E02D62E170E00995D0E03C
:102F2000C0E001C18F3F81F480EF9AE00E94E00D84
:102F3000182F50E040E06DE070E08091FD05909129
:102F4000FE050E94AA11C7CF8EEE9AE00E94E00D06
:102F500080911C01D0E0C0E08E3F71F082EE9AE0DB
:102F60000E945B06EC01E881F9810480F581E02D87
:102F7000AC0161E170E0099587ED9AE00E945B0683
:102F80008C01DC01ED91FC910480F581E02DAC0118
:102F900061E170E00995D801ED91FC91A480B580C4
:102FA0008BEC9AE00E945B06AC0160E170E0C80126
:102FB000F50109958091FF05909100064091FD056E
:102FC0005091FE05DC01ED91FC910480F581E02D2E
:102FD00060E170E009958091FF05909100064091B5
:102FE000FB055091FC05DC01ED91FC910480F5811D
:102FF000E02D65E070E009958091FF059091000655
:103000004091F9055091FA05DC01ED91FC910480A5
:10301000F581E02D66E070E009958091FF059091C3
:103020000006DC01ED91FC910480F581E02D50E07B
:1030300040E06BE070E00995892B09F4BBCF8091EB
:103040001C018E3F09F4F6C08091FF0590910006A7
:10305000DC01ED91FC910480F581E02DEF2809F46D
:103060009BC0AE0168E070E009958091FF059091EA
:1030700000064091FB055091FC05DC01ED91FC91AF
:103080000480F581E02D6AE070E009958091FF05EC
:1030900090910006DC01ED91FC910480F581E02D1A
:1030A000AE0162E170E009958091FF059091000604
:1030B000DC01ED91FC910480F581E02DA80168E030
:1030C00070E009958091FF05909100064091FB0505
:1030D0005091FC05DC01ED91FC910480F581E02D1F
:1030E0006AE070E009958091FF0590910006DC018F
:1030F000ED91FC910480F581E02DA80162E170E082
:1031000009958091FF05909100064091FD05509131
:10311000FE05DC01ED91FC910480F581E02D69E074
:1031200070E0099510E08091FD059091FE05DC01AD
:10313000ED91FC910680F781E02D60E170E009954A
:103140009093F8058093F7058091F7059091F80525
:10315000009709F473C0DC01ED91FC910680F781C2
:10316000E02D61E170E00995892B89F08091FF05E0
:10317000909100064091F7055091F805DC01ED9122
:10318000FC910480F581E02D69E070E00995809163
:10319000F7059091F805CBCFA80168E070E009959C
:1031A0008091FF05909100064091FB055091FC0530
:1031B000DC01ED91FC910480F581E02D6AE070E086
:1031C00009958091FF0590910006DC01ED91FC913D
:1031D0000480F581E02DA80162E170E009958091FD
:1031E000FF0590910006DC01ED91FC910480F581D2
:1031F000E02DAE0168E070E009958091FF059091A7
:1032000000064091FB055091FC05DC01ED91FC911D
:103210000480F581E02D6AE070E009958091FF055A
:1032200090910006DC01ED91FC910480F581E02D88
:10323000AE0164CFEF2809F037CFD1CF8091FF05E1
:10324000909100064091FB055091FC05DC01ED9149
:10325000FC910480F581E02D6AE070E00995809191
:10326000FF0590910006DC01ED91FC910480F58151
:10327000E02DAE0162E170E00995DD20A9F11111A8
:1032800033C080911C01CEEFD0E0C81BD10960E0B3
:1032900070E0CB0141F00E94E2359E01DD0F440B4E
:1032A000550B0E946036672BF9F4C091FF05D09151
:1032B0000006E881F9810481158182EC9AE00E9480
:1032C0005B06AC0166E070E0CE01F80109958091E3
:1032D000FF0590910006DC01ED91FC910680F781DD
:1032E000E02D61E170E009958091FF059091000665
:1032F0004091FB055091FC05DC01ED91FC910480AF
:10330000F581E02D6AE070E009958091FF059091CC
:1033100000064091F9055091FA05DC01ED91FC9110
:103320000480F581E02D66E070E0099587EB9AE076
:103330000E948C0FDF91CF911F910F91FF90EF9022
:10334000DF90BF90AF900C946A108091FD05909132
:10335000FE052817390771F480911C0160E0811186
:1033600006C08FEF9FEF0E942F1781E0089581E044
:1033700090E0F9CF80E008950F931F93CF93DF93F0
:103380008A01E9018091FD059091FE052817390712
:1033900059F461E08FEF9FEF0E942F1781E0DF91DA
:1033A000CF911F910F910895209781F070E060E018
:1033B000C9010E94EC13D801ED91FC910480F581C4
:1033C000E02DAE0170E060E0C801099580E0E7CF34
:1033D0000F931F93CF93DF938A01E9018091FD053D
:1033E0009091FE052817390759F461E081E090E0DB
:1033F0000E942F1781E0DF91CF911F910F910895C7
:10340000209781F070E060E0C9010E94EC13D801C0
:10341000ED91FC910480F581E02DAE0170E060E05B
:10342000C801099580E0E7CF2F923F924F925F92BB
:103430006F927F928F929F92AF92BF92CF92DF92C4
:10344000EF92FF920F931F93CF93DF9300D000D0A2
:10345000CDB7DEB79C838B835B01342E29830A832F
:1034600010E000E0F12CE12CAB81BC811A964D916B
:103470005C911B971C962D913C911D97429FC0011A
:10348000439F900D529F900D1124081719070CF0BF
:1034900048C06801CC0CDD1C1E96ED91FC91EC0D32
:1034A000FD1D808191810097C9F1DC01ED91FC91B6
:1034B0000088F189E02D0995982EEB81FC818289A5
:1034C0009389DC01ED91FC910088F189E02D09954B
:1034D000981224C0AB81BC811E96ED91FC91EC0D3D
:1034E000FD1D80819181DC01ED91FC910684F785C1
:1034F000E02D0995E816F9068CF4EB81FC818685B0
:103500009785C80ED91ED6018D919C91DC01ED9155
:10351000FC910684F785E02D09957C010F5F1F4F14
:10352000A3CF32E0432E512C311003C02701F12CE0
:10353000E12C0FEF1FEFE414F50409F4E0C0912C27
:10354000812CD12CC12CEB81FC81428553852485B3
:103550003585429FC001439F900D529F900D1124CD
:10356000881699060CF049C03401660C771C068455
:10357000F785E02DE60DF71D808191810097C9F157
:10358000DC01ED91FC910088F189E02D0995282E50
:10359000EB81FC8182899389DC01ED91FC910088AB
:1035A000F189E02D0995281224C0EB81FC818685E4
:1035B0009785680E791ED3018D919C91DC01ED9168
:1035C000FC910684F785E02D09958E159F0589F4F9
:1035D000BFEFCB1ADB0A0E94E23596010D2C000CDE
:1035E000440B550B0E946036672B682B692B09F43E
:1035F0008401EFEF8E1A9E0AA6CFF981F11121C046
:10360000CD2809F472C0000F111FAB81BC811E963A
:10361000ED91FC91E00FF11F80819181009739F0CD
:10362000DC01ED91FC910280F381E02D0995AB81E5
:10363000BC811E96ED91FC91E00FF11FB182A0823A
:1036400034C0B1E0CB16D10409F047C0000F111F00
:10365000AB81BC811E96ED91FC91E00FF11F808142
:103660009181009739F0DC01ED91FC910280F381AA
:10367000E02D0995EB81FC8184899589E684F784A6
:10368000E00EF11EDC01ED91FC910084F185E02D4E
:103690000995F70191838083AB81BC811E96ED91E2
:1036A000FC91E00FF11FA080B180C5010F900F9039
:1036B0000F900F90DF91CF911F910F91FF90EF909E
:1036C000DF90CF90BF90AF909F908F907F906F9042
:1036D0005F904F903F902F900895BA81BB2329F0BF
:1036E000E2E0CE16D1040CF08ECF332021F0B1E011
:1036F000EB1AF10820CFEFEFEE1AFE0A1CCFB12C27
:10370000A12CD3CF2F923F924F925F926F927F92D4
:103710008F929F92AF92BF92CF92DF92EF92FF92E1
:103720000F931F93CF93DF93CDB7DEB72B970FB6D1
:10373000F894DEBF0FBECDBF9B878A8778876F83E3
:103740002A0179011801DC011A964D915C911B97B1
:103750001C968D919C911D97489F9001499F300D1B
:10376000589F300D1124012BC9F01E964D915C918C
:1037700090E080E0912C812C82179307FCF4FC01EF
:10378000EE0FFF1FE40FF51F60817181EF81F88557
:103790006E177F0709F44C010196EECF4901330FF4
:1037A000AA08BB0881149104A104B10439F00E9455
:1037B000E235A50194010E9460364B019401220F6D
:1037C000331F3E832D83AA85BB851E960D911C91C8
:1037D000020F131FD201ED91FC910084F185E02DC1
:1037E000C2010995F80191838083D701ED91FC9185
:1037F0000480F581E02DA70167E070E0C70109951D
:10380000E1E0F0E0FA83E98353E0852E912CA12CCE
:10381000B12C29813A81232B09F4BEC11C821B8261
:1038200010E000E0712C612CAA85BB851A964D91A1
:103830005C911B971C962D913C911D97429FC00156
:10384000439F900D529F900D1124EB81FC81E8174E
:10385000F9070CF013C16F01CC0CDD1C1E96ED9125
:10386000FC91EC0DFD1D80819181009709F47DC0D4
:10387000DC01ED91FC910088F189E02D09958987A3
:10388000D201ED91FC910088F189E02DC2010995EA
:10389000B985B8136AC0EFEF6E1A7E0AC301800FB4
:1038A000911F45970CF467C02114310409F06EC0D4
:1038B000AA85BB851E96ED91FC911F97EC0DFD1D11
:1038C00060817181970145E050E0CD010E94450C77
:1038D000C301800F911F45970CF46EC02114310471
:1038E00009F075C0AA85BB851E96ED91FC911F97C6
:1038F000EC0DFD1D60817181970145E050E0CD0127
:103900000E94000CC301800F911F45970CF475C0F5
:103910002114310409F07CC0AA85BB851E96ED9167
:10392000FC911F97EC0DFD1D60817181970145E0B1
:1039300050E0CD010E94B80BC301800F911F459745
:103940000CF47CC02114310409F083C0EA85FB85A6
:1039500086859785C80ED91ED6016D917C919701F9
:1039600045E050E0CF010E946A0BEB81FC8131966B
:10397000FC83EB8359CF0E94E235A50194010E949C
:103980006036672B682B692B09F48ECFAA85BB851F
:103990001E96ED91FC911F97EC0DFD1D60817181CC
:1039A0009B0142E050E0CD010E94450C892B09F0BB
:1039B0008FCF0F5F1F4F8CCF0E94E235A50194017E
:1039C0000E946036672B682B692B09F487CFAA8584
:1039D000BB851E96ED91FC911F97EC0DFD1D60813E
:1039E00071819B0142E050E0CD010E94000C892BC7
:1039F00009F088CF0F5F1F4F85CF0E94E235A501E8
:103A000094010E946036672B682B692B09F480CFE4
:103A1000AA85BB851E96ED91FC911F97EC0DFD1DAF
:103A2000608171819B0142E050E0CD010E94B80BA2
:103A3000892B09F081CF0F5F1F4F7ECF0E94E235A7
:103A4000A50194010E946036672B682B692B09F44D
:103A500079CFEA85FB8586859785C80ED91ED60164
:103A60006D917C919B0142E050E0CF010E946A0B76
:103A7000892B09F07ACF0F5F1F4F77CF0115110502
:103A800051F4F4E16F16710424F42114310409F4A3
:103A9000C4C01A821982060D171D063111050CF4D7
:103AA000B8CED12CC12C1A821982AA85BB851A9650
:103AB0004D915C911B971C962D913C911D97429FB7
:103AC000C001439F900D529F900D1124C816D90636
:103AD0000CF09FCE8601000F111F1E96ED91FC91F8
:103AE000E00FF11F80819181009709F451C0DC0142
:103AF000ED91FC910088F189E02D0995782ED20195
:103B0000ED91FC910088F189E02DC20109957812B0
:103B10003FC0AA85BB851E96ED91FC911F97E00FD3
:103B2000F11F60817181970145E050E0CD010E9455
:103B3000450CAA85BB851E96ED91FC911F97E00F61
:103B4000F11F60817181970145E050E0CD010E9435
:103B5000B80BAA85BB851E96ED91FC911F97E00FCF
:103B6000F11F60817181970145E050E0CD010E9415
:103B70006A0BEA85FB8586859785080F191FD80192
:103B80006D917C91970145E050E0CF010E94000CBF
:103B9000BFEFCB1ADB0A89CF0A851B85EF81F88539
:103BA000EF2B09F1AA85BB851E96ED91FC912D8125
:103BB0003E81E20FF31F80819181009739F0DC0193
:103BC000ED91FC910280F381E02D0995AA85BB85DA
:103BD0001E96ED91FC912D813E81E20FF31F8F81A6
:103BE000988591838083C8012B960FB6F894DEBF29
:103BF0000FBECDBFDF91CF911F910F91FF90EF903E
:103C0000DF90CF90BF90AF909F908F907F906F90FC
:103C10005F904F903F902F90089500E010E0BECF4E
:103C20007F928F929F92AF92BF92CF92DF92EF924C
:103C3000FF920F931F93CF93DF93EC017A016D31C5
:103C4000710508F02DC0685D714EFB010C94E336E0
:103C5000631F39224C225F227222C021CB21501EC9
:103C60005F2176217A21E02133223622501E501E18
:103C7000F020501ED621A020501EA31F85220C220A
:103C8000501E251F501E981E451EE881F981048094
:103C9000F581E02D69E170E009958C01892B19F41B
:103CA000F12CE12C14C3E881F9810680F781E02D25
:103CB00063E070E0CE010995892BA9F7E881F981CD
:103CC0000680F781E02D61E070E0CE010995892B37
:103CD000A9F7E881F9810680F781E02D67E170E0BE
:103CE000CE0109950817190709F4F1C2E881F98195
:103CF0000680F781E02D64E070E0CE010995892B04
:103D000041F7E881F9810680F781E02D63E070E0FA
:103D1000CE010995892BA9F7E881F9810680F78101
:103D2000E02D62E070E0CE010995892B91F6B8CFC5
:103D3000E881F9810680F781E02D67E170E009955F
:103D40008C01E881F9810680F781E02D67E170E060
:103D5000CE010995980150E040E0BC01CE010E94DF
:103D6000450CE816F90609F4B2C2E881F98106802B
:103D7000F781E02D67E170E0CE0109958C01E881C3
:103D8000F9810680F781E02D67E170E0CE010995A9
:103D9000980150E040E0BC01CE010E94B80BE8164B
:103DA000F90609F494C2E881F9810680F781E02DD3
:103DB00067E170E0CE0109958C01E881F981068008
:103DC000F781E02D67E170E0CE010995980150E0A0
:103DD00040E0BC01CE010E946A0BE816F90609F426
:103DE00076C2E881F9810680F781E02D67E170E015
:103DF000CE0109958C01E881F9810680F781E02DDB
:103E000067E170E0CE010995980150E040E0BC0107
:103E1000CE010E94000CE816F90609F458C2E881A8
:103E2000F9810680F781E02D67E170E0CE01DF9136
:103E3000CF911F910F91FF90EF90DF90CF90BF90A7
:103E4000AF909F908F907F90099410E000E04A859A
:103E50005B852C853D85429FC001439F900D529FFD
:103E6000900D1124081719070CF01ACF6801CC0C1B
:103E7000DD1CEE85FF85EC0DFD1D80819181009795
:103E8000F9F0DC01ED91FC910680F781E02D60E115
:103E900070E00995EE85FF85EC0DFD1DC080D18099
:103EA000009771F08E159F0509F471C4DC01ED9146
:103EB000FC910680F781E02D60E170E00995F0CF7C
:103EC0000F5F1F4FC4CF452B09F4EACE10E000E08E
:103ED0004A855B852C853D85429FC001439F900D9F
:103EE000529F900D11240817190744F56801CC0C56
:103EF000DD1CEE85FF85EC0DFD1D80819181009715
:103F0000D1F0DC01ED91FC910480F581E02DA70159
:103F100070E060E00995EE85FF85EC0DFD1D808168
:103F200091818E159F0539F48C899D89E816F906D3
:103F300011F0118210820F5F1F4FCACFB701CE015F
:103F40000E94080AADCE9A0150E040E0B7010E94FD
:103F5000450C8C01009709F088C0B12C5FE7C52E95
:103F6000D12C970150E040E0B701CE010E94000C37
:103F70008C01009749F1DC01ED91FC910088F189F9
:103F8000E02D0995A82E8A899B89DC01ED91FC9191
:103F90000088F189E02D0995A81216C0D801ED918D
:103FA000FC910684F785E02DC80109958C159D05C7
:103FB0005CF4D801ED91FC910684F785E02DC801F1
:103FC00009956C0142E0B42E970150E040E0B70142
:103FD000CE010E94B80B8C01009749F1DC01ED91F4
:103FE000FC910088F189E02D0995A82E8A899B898A
:103FF000DC01ED91FC910088F189E02D0995A81272
:1040000016C0D801ED91FC910684F785E02DC8011A
:1040100009958C159D055CF4D801ED91FC91068401
:10402000F785E02DC80109956C0133E0B32E9701A7
:1040300050E040E0B701CE010E946A0B8C0100976E
:1040400009F03EC0B2E0BB1609F46AC0E3E0BE1658
:1040500009F46EC0F1E0BF1261C0970143E050E087
:10406000B701CE010E94450C59C0DC01ED91FC91D5
:104070000088F189E02D0995D82E8A899B89DC0179
:10408000ED91FC910088F189E02D0995D81265CF5A
:10409000D801ED91FC910684F785E02DC8010995C2
:1040A0008F3791050CF059CFD801ED91FC91068422
:1040B000F785E02DC80109956C01BB24B39451CF5D
:1040C000DC01ED91FC910088F189E02D0995A82E85
:1040D0008A899B89DC01ED91FC910088F189E02DB2
:1040E0000995A812AFCFD801ED91FC910684F78510
:1040F000E02DC80109958C159D050CF0A3CFD801C2
:10410000ED91FC910684F785E02DC8010995970192
:1041100043E050E0B701CE010E946A0B7E01D7C098
:10412000970143E050E0B701CE010E94000CF6CFAA
:10413000970143E050E0B701CE010E94B80BEECFEB
:10414000F12CE12C4A855B852C853D85429FC00181
:10415000439F900D529F900D1124E816F9060CF024
:104160009FCD8701000F111FEE85FF85E00FF11F26
:1041700080819181009781F1DC01ED91FC910480B7
:10418000F581E02DAC0163E170E00995EE85FF85D6
:10419000E00FF11F80819181DC01ED91FC9106809F
:1041A000F781E02D60E170E009958C010097A1F0A6
:1041B000DC01ED91FC910480F581E02DAC0163E11F
:1041C00070E00995D801ED91FC910680F781E02D12
:1041D00060E170E0C801E8CFBFEFEB1AFB0AB2CF95
:1041E0008A899B89009739F0DC01ED91FC9102806E
:1041F000F381E02D09951B8A1A8A10E000E04A85B8
:104200005B852C853D85429FC001439F900D529F49
:10421000900D1124081719070CF043C06801CC0C4D
:10422000DD1CEE85FF85EC0DFD1D808191810097E1
:1042300071F18E159F0559F12C893D8982179307DD
:1042400031F1C701BB24B394EE85FF85EC0DFD1D54
:10425000009781F0208131812817390709F4B12CAA
:10426000DC01ED91FC910680F781E02D60E170E0CA
:104270000995EACFBB2059F040815181E881F9814D
:104280000480F581E02D70E060E0CE0109958E8517
:104290009F85C80ED91EF601118210820F5F1F4F35
:1042A000AECF8C899D89009739F0DC01ED91FC91AE
:1042B0000280F381E02D09951D8A1C8A2FCF00E032
:1042C00020E041E0B701CE010E94141A7C01C70131
:1042D000DF91CF911F910F91FF90EF90DF90CF90E2
:1042E000BF90AF909F908F907F90089500E020E066
:1042F00040E0E8CF10E000E04A855B852C853D85F5
:10430000429FC001439F900D529F900D11240817AA
:1043100019070CF003CF6801CC0CDD1CEE85FF857E
:10432000EC0DFD1D80819181009739F1DC01ED914B
:10433000FC910088F189E02D0995B82ED701ED9107
:10434000FC910088F189E02DC7010995B81215C0CC
:10435000EE85FF85EC0DFD1D80819181009739F080
:10436000DC01ED91FC910280F381E02D0995EE8551
:10437000FF85EC0DFD1D118210820F5F1F4FBCCF1A
:10438000DA01ED91FC910084F185E02DCA010995D7
:104390009B8B8A8BC3CEDA01ED91FC910084F18571
:1043A000E02DCA0109959D8B8C8BB8CE2C893D8957
:1043B0004A895B8901E010E0B7010E94821B86CF29
:1043C0002C893D894A895B8910E000E0B7010E9491
:1043D000821B7C012A853B858C859D85289FA001B9
:1043E000299F500D389F500D112490E080E08417D4
:1043F00095070CF06CCFEE85FF859C01220F331FD3
:10440000E20FF31F20813181232B21F42C893D8978
:10441000318320830196EBCF88859985DC01ED916E
:10442000FC910684F785E02D09952A853B85829FBE
:104430008001839F100D929F100D11248E819F810A
:10444000DC01ED91FC910684F785E02D0995800F44
:10445000911F880F991F0E851F85800F911FFC01EA
:10446000F182E08234CF5F834E831ACC598748872C
:1044700017CC9A0143E050E0B701DF91CF911F9133
:104480000F91FF90EF90DF90CF90BF90AF909F90F3
:104490008F907F900C94450C9A0143E050E0B70157
:1044A000DF91CF911F910F91FF90EF90DF90CF9010
:1044B000BF90AF909F908F907F900C94000C9A01CA
:1044C00043E050E0B701DF91CF911F910F91FF9032
:1044D000EF90DF90CF90BF90AF909F908F907F90A4
:1044E0000C94B80B9A0143E050E0B701DF91CF91F3
:1044F0001F910F91FF90EF90DF90CF90BF90AF9002
:104500009F908F907F900C946A0B8E819F81DC012D
:10451000ED91FC910684F785E02D09955C01888575
:104520009985DC01ED91FC910684F785E02D0995D4
:104530004C0110E000E0772473948C859D8508176A
:1045400019070CF0ADCBD12CC12C2A853B85C216A6
:10455000D3060CF017C1CA14DB0439F40815190589
:1045600021F4109204017092BF01209FC001219F8D
:10457000900D309F900D11248C0D9D1D880F991F5B
:104580002E853F85820F931FFC016081718161152B
:10459000710509F485C06E157F05F9F48A859B8540
:1045A000089F9001099F300D189F300D11242C0D8C
:1045B0003D1DC901880F991FEE85FF85E80FF91F82
:1045C00080819181009709F08CC0E889F989E20F18
:1045D000F31F84910E94E8098DC09B0150E040E0E8
:1045E000CE010E94450CE816F906C1F22A853B85EA
:1045F000029FC001039F900D129F900D11248C0DFE
:104600009D1D880F991F2E853F85820F931FDC010A
:104610006D917C919B0150E040E0CE010E94000C26
:10462000E816F90609F4BACF2A853B85029FC00136
:10463000039F900D129F900D11248C0D9D1D880FCE
:10464000991F2E853F85820F931FFC016081718128
:104650009B0150E040E0CE010E946A0BE816F9068B
:1046600009F49CCF2A853B85029FC001039F900DD2
:10467000129F900D11248C0D9D1D880F991F2E8562
:104680003F85820F931FDC016D917C919B0150E06F
:1046900040E0CE010E94B80BE816F90609F47ECF7F
:1046A0002A853B85029FC001039F900D129F900DAC
:1046B00011248C0D9D1D880F991F2E853F85820F1B
:1046C000931FFC0180819181009799F580E20E94FF
:1046D000E809709204011092BF01BFEFCB1ADB0A08
:1046E00034CFDC01ED91FC910680F781E02D66E18D
:1046F00070E009952A853B85029FC001039F900DBC
:10470000129F900D11248C0D9D1D880F991F2E85D1
:104710003F85820F931FFC0180819181DC01ED9127
:10472000FC910480F581E02DAC0167E070E0099513
:10473000D0CFDC01ED91FC910680F781E02D67E0A0
:1047400070E00995892B11F62A853B85029FC001EF
:10475000039F900D129F900D11248C0D9D1D880FAD
:10476000991F2E853F85820F931FFC0180819181C7
:10477000DC01ED91FC910680F781E02D66E170E0AF
:104780000995A7CF0E9493110F5F1F4FD6CE7601D8
:104790009ECDCF93DF93FB013697E531F10538F5D8
:1047A000EC01EB52FC4D0C94E33614241824F7234F
:1047B000F723F723F723F723F723F723F723EA2336
:1047C000F423F723EF23F723F7231C24F723F723FE
:1047D000F723FA238E819F81DF91CF9108958885F9
:1047E00081FF05C0CE01F8CF888582FDFBCF90E028
:1047F00080E0F2CF2885822F82958F70815030E142
:10480000839FC00111242F70282B2887CE01229569
:104810002F7011F7E881F9810480F581E02DAE0158
:104820006AE170E00995E3CF888583FDDBCFDFCFB8
:10483000888580FDD7CFDBCFEC81FD8131968491D7
:10484000803421F482E00E94E809CCCF84918E3438
:1048500011F481E0F8CF8491803711F483E0F3CF35
:104860008491833211F483E1EECF84918F3411F47B
:1048700086E0E9CF8491883611F48EE8E4CF849104
:10488000823411F482E9DFCF84918E3311F48FE109
:10489000DACF84918C3311F48EE1D5CF84918933B2
:1048A00011F48FEDD0CF8491813311F48EEDCBCF05
:1048B0008491823311F48DEDC6CF84918E3781F4CB
:1048C0000E94E23522E030E040E050E00E94603695
:1048D000672B682B692B11F080EBB5CF81EBB3CF41
:1048E0008491B1CFBF92CF92DF92EF92FF920F935C
:1048F0001F93CF93DF93B0901C018FEFB81609F48C
:1049000096C0EA018B010E94E2356B017C01409167
:10491000FB055091FC05E881F9810480F581E02DCB
:104920006AE070E0CE0109952B2D30E02B5F3F4F00
:10493000032E000C440B550BC701B6010E946036D4
:10494000672B09F074C081EE92E00E948C0F892BD6
:1049500009F06DC08BEC9AE00E948C0F892B09F452
:1049600066C0E881F9810480F581E02D50E040E0E7
:104970006BE170E0CE010995892B09F058C089EDF3
:1049800092E00E945B067C01AC0168E070E090E080
:1049900080E00E94AA11E881F9810480F581E02D70
:1049A000A80162E170E0CE010995E881F9810480F7
:1049B000F581E02DA70169E070E0CE010995D701EE
:1049C000ED91FC910480F581E02DA70167E070E096
:1049D000C7010995D701ED91FC91C481D58181EE84
:1049E00092E00E945B06AC0160E170E0C701FE014D
:1049F0000995EC01E881F981048115818FEC92E041
:104A00000E945B06AC0160E170E0CE01F8010995FF
:104A1000EC01E881F981048115818FEF98E00E9413
:104A20005B06AC0160E170E0CE01F801099580E021
:104A3000DF91CF911F910F91FF90EF90DF90CF907A
:104A4000BF900895DC01ED91FC910480F581E02D8B
:104A500050E040E063E170E0099586E090E09093DB
:104A60000B0180930A016091000170910101809116
:104A70000201909103016F5F7F4F8F4F9F4F6093B3
:104A800000017093010180930201909303012AE0D9
:104A900030E040E050E00E94923660930C016111DA
:104AA00005C080910D018F5F80930D0180910D01F4
:104AB0008A3039F480910E0110920D018F5F80933E
:104AC0000E0180910E018A3009F049C010920E014A
:104AD00080910F018F5F80930F018091E0052091FD
:104AE0000701909108013BEA239F312D112436954F
:104AF000409106018217D8F0290F20930801340F46
:104B0000309306010E94E2358091E0059091070103
:104B1000891B8093E0058091080190910901891714
:104B2000D8F48F5F80930901109208010895980FBF
:104B300090930801622F0E94C336839F400D112479
:104B4000409306012150209307012A3010F40E945F
:104B5000E2351092E005DFCF891B809308010895AC
:104B600024E731E0FC013183208386859785009717
:104B700011F00C940D350895CF93DF93EC010E9452
:104B8000B025CE01DF91CF910C940D350C940D35ED
:104B90000C940D350C940D359F92AF92BF92CF922D
:104BA000DF92EF92FF920F931F93CF93DF936831C1
:104BB000710508F074C0FB01EC01EF51FA4D0C9443
:104BC000E336F925DA26FD26212738274F266E26DB
:104BD0004F264F267C264F265927532756274F26E8
:104BE0004F264F265E264F2682264F264F268F279A
:104BF000B426E881F9810680F781E02D67E170E055
:104C000009958C0188859985DC01ED91FC910684DC
:104C1000F785E02D09952A853B85829F7001839F4A
:104C2000F00C929FF00C11248E819F81DC01ED919C
:104C3000FC910684F785E02D09958E0D9F1D4A8510
:104C40005B852C853D85429FD001439FB00D529FCF
:104C5000B00D11242E853F8550E040E070E060E00B
:104C60004A175B0794F4FA01EE0FFF1FE20FF31FE0
:104C70000190F081E02D309729F0E017F10711F451
:104C80006F5F7F4F4F5F5F4FEBCF880F991F280FEC
:104C9000391FF90111821082623071051CF080E029
:104CA00090E01EC001151105D1F3D801ED91FC91E2
:104CB0000280F381E02DC8010995F1CFE881F981E7
:104CC0000680F781E02D66E070E0099501E021E0C3
:104CD00040E0BC01CE010E94141A02C08C899D895B
:104CE000DF91CF911F910F91FF90EF90DF90CF90C8
:104CF000BF90AF909F90089500E021E040E070E009
:104D000060E0E8CFF12CE12C4A855B852C853D8560
:104D1000429FC001439F900D529F900D1124E816B1
:104D2000F9060CF0BCCF8701000F111FEE85FF853F
:104D3000E00FF11F80819181009791F0DC01ED91EE
:104D4000FC910680F781E02D63E170E00995892BE5
:104D500039F0EE85FF85E00FF11F80819181C0CF92
:104D6000BFEFEB1AFB0AD0CF8E819F81DC01ED9162
:104D7000FC910684F785E02D09958C01888599853D
:104D8000DC01ED91FC910684F785E02D09952A85DB
:104D90003B85FC01E29FC001E39F900DF29F900DC7
:104DA0001124800F911F880F991FEE85FF85E80F52
:104DB000F91FD3CF88859985DC01ED91FC910680A0
:104DC000F781E02D62E070E0099588859985DC0126
:104DD000ED91FC910684F785E02D0995A885B985AC
:104DE00097FF5FC0ED91FC9111970680F781E02D50
:104DF00061E070E0CD01099552CF88859985DC018D
:104E0000ED91FC910680F781E02D61E070E009955D
:104E10000C851D8588859985DC01ED91FC910684C2
:104E2000F785E02D0995A885B98580179107CCF104
:104E3000ED91FC9111970680F781E02D62E070E022
:104E4000D9CF8E819F81DC01ED91FC910680F781A5
:104E5000E02D62E070E009958E819F81DC01ED918B
:104E6000FC910684F785E02D0995AE81BF81B8CF0E
:104E70008E819F81DC01ED91FC910680F781E02D10
:104E800061E070E009950A851B858E819F81DC01B8
:104E9000ED91FC910684F785E02D0995AE81BF81E7
:104EA000C4CFCD011DCF8E819F811ACF8885998572
:104EB00017CF8E819F81DC01ED91FC910684F785EF
:104EC000E02D09959B878A8788859985DC01ED917E
:104ED000FC910684F785E02D09959D878C872A85AE
:104EE0003B85829F8001839F100D929F100D11249E
:104EF000C801880F991F0115B0E41B0710F08FEF50
:104F00009FEF0E947134FC010150110917FD03C08D
:104F100011921192F9CF8E879F87CE01E1CE8E81BB
:104F20009F81DC01ED91FC910684F785E02D0995C8
:104F30006C0188859985DC01ED91FC910684F785EB
:104F4000E02D09955C0110E000E0992493948C8594
:104F50009D85081719070CF0A2CEF12CE12C4A858B
:104F60005B85E416F506BCF5EC14FD0439F40A156E
:104F70001B0521F4109204019092BF01409F900103
:104F8000419F300D509F300D11242E0D3F1DC90142
:104F9000880F991FEE85FF85E80FF91F80819181A9
:104FA000009789F0DC01ED91FC910680F781E02DFE
:104FB00066E170E00995909204011092BF01BFEF85
:104FC000EB1AFB0ACCCFE889F989E20FF31F849131
:104FD0000E94E809F0CF0E9493110F5F1F4FB7CFD7
:104FE000CF93DF93EB0186E190E00E947134DC0106
:104FF00015961C921E92149713961C921E9212974D
:105000001092BE0184E791E011969C938E931796BF
:105010001C921E92169719961C921E9218971B9618
:105020001C921E921A971D961C921E921C971F96F8
:105030001C921E921E9751961C921E925097539648
:105040001C921E92529755961C921E925497FE01E6
:1050500084918335A1F421965196DC93CE93509799
:105060008091BE01882339F0109729F0CD010E946C
:10507000BC25B0E0A0E0CD01DF91CF91089589E596
:105080008093BE01EDCFCF93DF93EB0189E090E0F9
:105090000E947134DC0115961C921E92149713968F
:1050A0001C921E9212971092BE018CE591E011960F
:1050B0009C938E9317961C921E92169718961C928C
:1050C0001897FE0184918035C1F43296E49183E013
:1050D000E23409F48BE018968C9318978091BE0106
:1050E000882339F0109729F0CD010E94C625B0E041
:1050F000A0E0CD01DF91CF91089589E58093BE01B5
:10510000EDCF0F931F93CF93DF938B018AE090E055
:105110000E947134EC011D821C821B821A82109243
:10512000BE0184E491E0998388831F821E8281E01E
:1051300090E099878887F8018081833431F4C80131
:1051400001960E943A360097A1F489E58093BE014A
:105150008091BE01882339F0209729F0CE010E946A
:10516000C825D0E0C0E0CE01DF91CF911F910F9113
:1051700008959F838E83ECCFEF92FF920F931F933E
:10518000CF93DF937C018AE090E00E947134EC01C0
:105190001D821C821B821A821092BE0184E491E05F
:1051A000998388831F821E8281E090E09987888797
:1051B00087EB91E00E943A360097B9F489E5809335
:1051C000BE0101E010E0F7018681978108171907F9
:1051D0007CF4E881F9810680F781E02D61E070E0E0
:1051E000CE0109950F5F1F4FEECF9F838E83E9CFCE
:1051F000CE01DF91CF911F910F91FF90EF90089515
:105200001F920F920FB60F9211248F939F9380914C
:10521000E1009091E100937F9093E10083FF0FC044
:105220001092E90091E09093EB001092EC0092E371
:105230009093ED001092F60598E09093F00082FFB5
:1052400022C093E09093E9009091F200992319F025
:105250009AE39093E8009091E705992341F09091AB
:10526000E70591509093E705911101C05D9A9091E7
:10527000F505992341F09091F50591509093F5052E
:10528000911101C0289A84FF18C08091E2008E7E9F
:1052900081608093E2008091E1008F7E8093E10045
:1052A0008091E8058E7E80618093E8059F918F91C3
:1052B0000F900FBE0F901F90189580FFF7CF809131
:1052C000E2008E7E80618093E2008091E1008E7E1C
:1052D0008093E1008091E8058E7E8160E5CF1F928A
:1052E0000F920FB60F921124CF92DF92EF92FF929E
:1052F0000F931F932F933F934F935F936F937F93DE
:105300008F939F93AF93BF93EF93FF93CF93DF93CD
:10531000CDB7DEB76C97DEBFCDBF1092E9008091AC
:10532000E80083FF25C068E0CE0145960E940A0888
:1053300082EF8093E8008D8987FF39C09091E80063
:1053400090FFFCCF982F907609F034C19E894F8949
:10535000588D2F89F88C911131C0803861F580917A
:10536000E6058093F1001092F1008EEF8093E80043
:105370006C960FB6F894DEBF0FBECDBFDF91CF9114
:10538000FF91EF91BF91AF919F918F917F916F911D
:105390005F914F913F912F911F910F91FF90EF904F
:1053A000DF90CF900F900FBE0F901F9018959EEF3B
:1053B0009093E800C7CF1092F100D5CF913059F407
:1053C0008111D3CF4130510581F68091E6058D7F63
:1053D0008093E605CACF933049F48111C6CF41309E
:1053E000510519F68091E6058260F2CF953041F4BF
:1053F0008091E80080FFFCCF20682093E300B5CFC8
:10540000963009F0A9C00B8D1C8D22E01092E900A6
:105410001092E4051092E305F2122EC01092E205FC
:105420001092E1050E94D9071F8299E09983FA82C0
:1054300091E09E8390EA98879AEF99872091E305FF
:105440003091E405275F3F4F3C832B838D8310927F
:10545000E9001092E4051092E3051093E205009331
:10546000E10549E050E0BE016F5F7F4F80E00E94A0
:10547000B3070E94D90779CF1093E2050093E105A5
:105480000E94BD06DC0112960D911C9101151105BB
:1054900009F451C1D801ED91FC910480F581E02D12
:1054A000BE016B5E7F4FC8010995009709F03EC1B0
:1054B000F80100851185EACFF3E0FF120EC08F8955
:1054C000882309F440C0823061F440E860E186EA54
:1054D0009AE00E948007811148CF81E28093EB001F
:1054E00047CF813029F440E86BE08AE99AE0F1CFB8
:1054F000833099F70E94BD06DC011296ED90FC9076
:105500008E010F5F1F4F6801E114F10479F0D7019C
:10551000ED91FC910680F781E02DB801C701099556
:10552000080F111DF701E084F184EECFD8011C9221
:10553000F60101900020E9F73197BF016C197D0950
:1055400040E0C601C6CF64E87AE0FB01449150E038
:1055500080E80E94B30709CF973009F4BECF983096
:1055600021F481E08093F10000CF993009F0FDCE65
:10557000837009F0B2CFE8E2F1E081E031E096E338
:105580002191222371F08093E9003093EB00DF0139
:1055900011972C912093EC009093ED008F5F873052
:1055A00079F78EE78093EA001092EA008F89809362
:1055B000F605DBCE8B8D9C8D1092E9001092E405F0
:1055C0001092E3059093E2058093E105898D8111A6
:1055D00092C08E899D89913A49F4813209F07DCF3C
:1055E00047E050E064E171E080E0B3CF913209F030
:1055F00074CF833269F48F89988DB0E0A0E08093F6
:10560000100190931101A0931201B0931301ADCE3C
:10561000803269F48091E80082FFFCCF67E084E18A
:1056200091E00E940A088BEF8093E8009ECE8232C0
:1056300009F09BCE8F8980931B01EEEFFFE78591E8
:1056400094918B3F9C4D51F1E0E0F8E08091140182
:1056500090911501A0911601B0911701803B9440E3
:10566000A105B105F1F480911B0180FD1AC0EE3F48
:105670008AE0F80789F587E797E79183808380912F
:1056800060008093E50588E19BE00FB6F894A8954B
:10569000809360000FBE9093600067CEEEEFFAE05B
:1056A000D5CF808191818737974709F05ECEA89545
:1056B000809160008861809360008091E50580930F
:1056C0006000EE3F2AE0F20789F08091FE0A909197
:1056D000FF0A9183808349CE808191818737980723
:1056E00051F29093FF0A8093FE0AC5CF1092FF0AF1
:1056F0001092FE0A3ACE0E94BD06DC0112960D9170
:105700001C910115110509F4E8CED801ED91FC9129
:105710000190F081E02DBE016B5E7F4FC8010995BD
:10572000811123CEF80100851185EBCF18161906DB
:105730000CF41BCED2CEF1E0FF12BECE68E87AE0C8
:1057400004CF1F920F920FB60F9211242F933F9305
:105750008F939F93AF93BF938091C5059091C6059A
:10576000A091C705B091C8053091C00523E0230F73
:105770002D3758F50196A11DB11D2093C0058093CA
:10578000C5059093C605A093C705B093C805809141
:10579000C1059091C205A091C305B091C4050196C1
:1057A000A11DB11D8093C1059093C205A093C305AF
:1057B000B093C405BF91AF919F918F913F912F916D
:1057C0000F900FBE0F901F90189526E8230F02969A
:1057D000A11DB11DD2CFCF93DF93E1E0F6E013829C
:1057E000128288EE93E0A0E0B0E084839583A683E4
:1057F000B78382E391E0918380838FEF9FEF95875A
:105800008487E2E8F6E015821482809198069091F0
:1058100099069383828384E791E091838083178242
:1058200016821186108613861286158614861786B0
:105830001686118A108A138A128A158A148AC9E771
:10584000D6E01D821C82FB83EA838CE591E099837C
:1058500088831F821E821886AFE6B6E015961C92DA
:105860001E9214971396DC93CE93129784E491E0E2
:1058700011969C938E9317961C921E92169781E018
:1058800090E019969C938E931897E1E5F6E082E3F9
:1058900096E0918380838EEA9DE09383828381E901
:1058A00095E19583848388EE99E1978386838CEBD9
:1058B00099E19187808782E794E2938782878DE0E0
:1058C00090E1958784878CEA9DE09787868784EAB4
:1058D00093E1918B808B8AE395E1938B828B84EEAD
:1058E00094E1958B848B83E794E1978B868B80E49E
:1058F00094E1918F808F8AEA9DE0938F828F85EA71
:1059000099E1958F848FE0EAF6E01382128284EAAF
:1059100091E091838083EAE9F6E08CE891E091835D
:10592000808315821482B383A283F0939906E09357
:105930009806DF91CF910895CF93DF931F92CDB753
:10594000DEB7789484B5826084BD84B5816084BDFF
:1059500085B5826085BD85B5816085BD80916E000D
:10596000816080936E00109281008091810082603E
:10597000809381008091810081608093810080917B
:10598000800081608093800080919100826080938C
:1059900091008091910081608093910080919000AE
:1059A0008160809390008091C10084608093C100E9
:1059B0008091C10082608093C1008091C1008160AC
:1059C0008093C1008091C30081608093C300809167
:1059D000C00082608093C0008091C200816080938B
:1059E000C20080917A00846080937A0080917A006E
:1059F000826080937A0080917A00816080937A003F
:105A000080917A00806880937A001092F605109257
:105A1000E6051092E8058091D70081608093D70059
:105A200080EA8093D80089B5806189BD89B582609C
:105A300089BD09B400FEFDCF61E070E080E090E038
:105A40000E9469088091D8008F7C80618093D80083
:105A50008091E000807F8093E0008091E1008E7E65
:105A60008093E1008DE08093E200559A209A81ECCA
:105A700080937C0085B1806F85B984B1877E84B9BD
:105A800084B1876E84B95E9A5F988AB1806D8AB955
:105A9000769A6E9881B3806F81BB899880B38D7040
:105AA00080BB80E58CBD81E08DBD0E949C085F9A23
:105AB0000E949C085E985C98E6E5F8E083E698E032
:105AC00024912EBD00000DB407FEFDCF31968E1738
:105AD0009F07B1F75C9A81E880936400809165002C
