:100000000C946B050C9493050C9493050C94930538
:100010000C9493050C9493050C9493050C94930500
:100020000C9493050C9493050C9493050C949305F0
:100030000C9493050C9493050C9493050C949305E0
:100040000C9493050C9493050C9493050C949305D0
:100050000C9493050C9493050C9493050C945827D9
:100060000C9493050C9493050C9493050C949305B0
:100070000C9493050C9493050C9493050C949305A0
:100080000C9493050C9493050C9493050C94930590
:100090000C9493050C9493050C9493050C94930580
:1000A0000C9493050C9493050C9493054445535478
:1000B000524F59EEDB204946204C4F57204D454DBD
:1000C0000053484F57EEDB204F52204F4EEEDB558A
:1000D0005345EE02004E455854204F574E4552EEC0
:1000E0000220414D4F4E47EE020057414954204FE8
:1000F0004E45204D494E55544500494E20524557D6
:1001000041524420594F552043414E0A4F524445D5
:100110005220464F4F4420414E44205049434B53B8
:100120000A46524F4D204F544845522056494C4C98
:10013000414745530A464F52204E45585420594591
:1001400041522E0A0A474F4F44204C55434B210041
:10015000594F55204C49564520494E20434F4D4D4F
:10016000554E4953540A4D494E494E472056494C25
:100170004C4147452E0A0A312059454152204551EC
:1001800055414C203920444159532E0A0A594F55A4
:1001900052205441534B20544F2046554C46494C15
:1001A0004C0A414E4E55414C20434F414C204D4945
:1001B0004E494E470A504C414E2E00484F4D450087
:1001C0005A5A5A0044524F5000474F54004E4F5411
:1001D000204F574E455200415741592046524F4DEE
:1001E0000044495341505045415245440044524F08
:1001F000575359005448495253545900544F494C8D
:1002000045540048554E4752590050324238424FEB
:100210004F4B4B4545504552005031423134484FC9
:1002200055534500507E4230524157205741544566
:100230005200502B6230444F4F52005023623050D6
:100240004152544954494F4E00D5F08D14A1C881F4
:10025000CFD9F1AF20005020423057414C4C0050D4
:10026000636230434F4C4C41520050644230554E13
:100270004445414420444F4700506662314652494C
:10028000454E4400EE202D2027454C454D454E540B
:10029000204F4627002E202D20464C4F4F5220281D
:1002A0004E4F5448494E472900DB202D204F424AEB
:1002B00020554E44455220435552534F5200022080
:1002C000594F5528484F4C44204120544F204D4F02
:1002D00056452900EA00D500C100AC0044454D4F09
:1002E000204D4F44453F2041592F424E005001FAC6
:1002F000005025423130464F4F44005049434B5344
:10030000207C204155544F5049434B555000434F9A
:10031000414C207C204E45454400464F4F44207CB4
:100320002041202D2054414B45004D414E28312085
:10033000464F4F4420454143482900424F4F4B4BC5
:1003400045455045523A003A00440059004C4F5739
:10035000005343454E4500A1050302FC01F401EDA5
:1003600001E101D701CD01C901C401C001A50551B9
:1003700003BB0150406237504C4159455200502058
:1003800042305645494E00533D3D3D3D3D3D3D3D8E
:100390003D3D3D3D3D3D3D3D3D3D3D3D3D202020E4
:1003A000203D3D3D3D3D3D3D3D3D3D3D3D3D3D3D9A
:1003B0003D2B232B233D3D3D3D3D3D3D3D3D3D3DC5
:1003C0003D3D3D3D31402020203D3D3D3D3D3D3DBD
:1003D0003D3D3D3D3D3D3D3D3D202020203D3D3DC1
:1003E0003D3D3D3D3D3D3D3D3D3D3D3D3D2323238B
:1003F000233D3D3D3D3D3D3D3D3D3D3D3D3D3D3D47
:100400003D3D3D3D3D3D3D3D3D3D3D3D3D3D3D3D1C
:100410003D3D3D3D00533D3D3D3D3D3D3D3D7E7EB1
:100420007E3D3D3D3D3D3D3D3D3D3D3D3D3D3D3DBB
:100430003D3D7E397E3D3D3D3D3D3D3D3D3D3D3D6E
:100440003D3D3D3D3D3D2020203D3D3D3D3D3D3D33
:100450003D3D3D3D3D3D3D3D3D32204020313D3D1A
:100460003D3D3D3D3D3D3D3D3D3D3D3D3D3D2020F6
:10047000203D3D3D3D3D3D3D3D3D3D3D3D3D3D3DC9
:100480003D3D3D3E3D3D3D3D3D3D3D3D3D3D3D3D9B
:100490003D3D3D3D3D3D3D3D3D3D3D3D3D3D3D3D8C
:1004A0003D3D003B02730355054A055602320224C6
:1004B000027E03E2048C05D604CB0479026A025F53
:1004C000023405400519020A0253005074423054A8
:1004D0004F494C455400506442313244524F5753B7
:1004E0005900506C42324C4946450A4C4956494ED7
:1004F00047205448494E472E0A4C4946452043411F
:10050000555345532048554E4745522C0A544849A7
:100510005253542C20534C4545502C205741535492
:10052000452E0A594F552043414E204C4F535420DD
:1005300049542E00503942354F55545349444500D3
:10054000506142374D494E455200503C4234415370
:1005500043454E4400503E423344455343454E4488
:10056000005021623131574154455200502F4231E1
:10057000335049434B005068423048554E4745522E
:100580000050214230424F54544C45005074423088
:100590005448495253540050734239534C454550C6
:1005A000002000290042494E44002800192000EE96
:1005B000200029002C412D4F574E4552002C412D33
:1005C00053454C4543540028444F574E2D4E4558F3
:1005D000540000000000003E5B4F5B3E3E6B4F6BE3
:1005E0003E1C3E7C3E1C183C7E3C181C577D571C14
:1005F0001C5E7F5E1C00183C1800FFE7C3E7FF008D
:1006000018241800FFE7DBE7FF30483A060E2629DA
:10061000792926407F050507407F05253F5A3CE79D
:100620003C5A7F3E1C1C08081C1C3E7F14227F2263
:10063000145F5F005F5F06097F017F006689956A2E
:10064000606060606094A2FFA29408047E040810B9
:10065000207E201008082A1C08081C2A08081E10E2
:100660001010100C1E0C1E0C30383E3830060E3E9A
:100670000E06000000000000005F000000070007F9
:1006800000147F147F14242A7F2A12231308646223
:1006900036495620500008070300001C2241000084
:1006A00041221C002A1C7F1C2A08083E08080080E2
:1006B000703000080808080800006060002010087A
:1006C00004023E5149453E00427F4000724949497B
:1006D000462141494D331814127F102745454539AD
:1006E0003C4A4949314121110907364949493646B1
:1006F0004949291E00001400000040340000000891
:100700001422411414141414004122140802015933
:1007100009063E415D594E7C1211127C7F494949C0
:10072000363E414141227F4141413E7F4949494155
:100730007F090909013E414151737F0808087F0084
:10074000417F41002040413F017F081422417F400A
:100750004040407F021C027F7F0408107F3E4141E1
:10076000413E7F090909063E4151215E7F09192951
:1007700046264949493203017F01033F4040403F3B
:100780001F2040201F3F4038403F6314081463037C
:10079000047804036159494D43007F4141410204FB
:1007A000081020004141417F040201020440404002
:1007B0004040000307080020545478407F284444F8
:1007C000383844444428384444287F385454541812
:1007D00000087E090218A4A49C787F08040478000D
:1007E000447D40002040403D007F102844000041EF
:1007F0007F40007C047804787C0804047838444402
:100800004438FC1824241818242418FC7C080404F8
:1008100008485454542404043F44243C4040207C61
:100820001C2040201C3C4030403C44281028444CB4
:100830009090907C4464544C440008364100000081
:10084000770000004136080002010204023C262322
:10085000263C1EA1A161123A4040207A38545455DA
:1008600059215555794121545478412155547840A6
:1008700020545579400C1E5272123955555559392C
:100880005454545939555454580000457C41000281
:10089000457D420001457C40F0292429F0F02825BF
:1008A00028F07C545545002054547C547C0A097F20
:1008B0004932494949323248484832324A48483038
:1008C0003A4141217A3A42402078009DA0A07D39EA
:1008D000444444393D4040403D3C24FF2424487E6C
:1008E0004943662B2FFC2F2BFF0929F620C0887E59
:1008F000090320545479410000447D413048484A5E
:1009000032384040227A007A0A0A727D0D19317D10
:100910002629292F28262929292630484D402038E4
:100920000808080808080808382F10C8ACBA2F10A3
:100930002834FA00007B000008142A142222142A0A
:1009400014089500220095AA005500AAAA55AA5598
:10095000AA000000FF00101010FF00141414FF0084
:100960001010FF00FF1010F010F0141414FC00140D
:1009700014F700FF0000FF00FF1414F404FC14142B
:1009800017101F10101F101F1414141F0010101028
:10099000F0000000001F101010101F10101010F0B9
:1009A00010000000FF101010101010101010FF1099
:1009B000000000FF140000FF00FF00001F101700E0
:1009C00000FC04F414141710171414F404F40000B9
:1009D000FF00F714141414141414F700F71414146B
:1009E000171410101F101F141414F4141010F0100A
:1009F000F000001F101F0000001F14000000FC1476
:100A00000000F010F01010FF10FF141414FF141069
:100A100010101F00000000F010FFFFFFFFFFF0F0BC
:100A2000F0F0F0FFFFFF0000000000FFFF0F0F0FCE
:100A30000F0F38444438447C2A2A3E147E020206B2
:100A400006027E027E0263554941633844443C04F9
:100A5000407E201E2006027E020299A5E7A5991C71
:100A60002A492A1C4C7201724C304A4D4D30304894
:100A7000784830BC625A463D3E494949007E0101F2
:100A8000017E2A2A2A2A2A44445F444440514A4487
:100A90004040444A51400000FF0103E080FF000055
:100AA00008086B6B083612362436060F090F06004D
:100AB0000018180000001010003040FF0101001F56
:100AC00001011E00191D1712003C3C3C3C000000B7
:100AD0000000A227003011241FBECFEFDAE0DEBFF6
:100AE000CDBF11E0A0E0B1E0EAE3F5E602C0059079
:100AF0000D92AE3AB107D9F726E0AEEAB1E001C0F7
:100B00001D92A234B207E1F715E0CAE6D5E004C0B1
:100B10002197FE010E947632C936D107C9F70E949B
:100B20004D280C9490320C94000080E008950F93AF
:100B30001F93CF93DF938B01C0913006D091310684
:100B4000209791F086E0C233D807A1F0E881F981BF
:100B50000288F389E02DB801CE010995009751F084
:100B6000FC0117830683EC01CE01DF91CF911F9129
:100B70000F9108950C80DD81C02DE2CF0F931F935C
:100B8000CF93DF938C01C0913006D091310620972E
:100B900091F086E0C233D807A1F0E881F98102889C
:100BA000F389E02DB801CE010995009751F0FC01C1
:100BB00017830683EC01CE01DF91CF911F910F9136
:100BC00008950C80DD81C02DE2CFEF92FF920F934C
:100BD0001F93CF93DF936115710511F420E024C0BA
:100BE000142FEB017C01E881F981008CF18DE02D5F
:100BF000CB010995082FD70154968D919C91DC016A
:100C0000ED91FC91008CF18DE02D09950813E6CF54
:100C1000E881F9810688F789E02DCE01099521E068
:100C200018171906D9F2D4F2822FDF91CF911F91B4
:100C30000F91FF90EF900895AF92BF92CF92DF9205
:100C4000EF92FF920F931F93CF93DF936C017B0181
:100C50008B01040F151FEB015E01AE18BF08C01712
:100C6000D10759F06991D601ED91FC910190F08185
:100C7000E02DC6010995892B79F7C501DF91CF9148
:100C80001F910F91FF90EF90DF90CF90BF90AF90AA
:100C900008953FB7F8948091DB059091DC05A09111
:100CA000DD05B091DE0526B5A89B05C02F3F19F0E4
:100CB0000196A11DB11D3FBFBA2FA92F982F8827DC
:100CC000BC01CD01620F711D811D911D42E0660FB7
:100CD000771F881F991F4A95D1F708958F929F9289
:100CE000AF92BF92CF92DF92EF92FF926C01F12C04
:100CF000E12C0E9449064B015C010E9449066819DB
:100D000079098A099B09683E734081059105A8F31A
:100D100021E0C21AD108E108F10888EE880E83E0CC
:100D2000981EA11CB11CC114D104E104F10429F7DF
:100D3000FF90EF90DF90CF90BF90AF909F908F90FB
:100D400008958FB18095807F669B88601C9B84602E
:100D5000089580E0E2EDF1E081118FEF00248193AE
:100D60008193819381930394D1F71092D5051092CA
:100D7000D4051092D3051092D20508956F927F92F8
:100D80008F929F92AF92BF92CF92DF92EF92FF929B
:100D90000F931F93CF93DF936D3079F0C091D405FB
:100DA000D091D5056A30D1F41092D3051092D205B6
:100DB0002896D093D505C093D40581E090E0DF91CB
:100DC000CF911F910F91FF90EF90DF90CF90BF9048
:100DD000AF909F908F907F906F900895C090D101B9
:100DE000B09011014091D2055091D30585E0689FE4
:100DF000F0011124EE52FA4F9A01812C90E1D92E84
:100E000095E010E0891629F0BF016F5F7F4F1491C4
:100E1000FB01BE0188E0A82E10FD16C09C2CCB1053
:100E200014C01695AA946F5F7F4FA110F5CF8394DD
:100E30002F5F3F4F96E08912E3CF4A5F5F4F509399
:100E4000D3054093D205B9CF9B2C2038310548F704
:100E50006034710530F7CB0101E081FD04E080FDD5
:100E6000000F82FD0295887FD89ED0011124A20F29
:100E7000AE52BE4F8C9190FE03C0802B8C93D1CF8D
:100E800000958023FBCF8AE396E00C94BE06682F82
:100E90008AE396E00C94BE060F931F93CF93DF93E3
:100EA0008C01D0E0C0E0F801EC0FFD1F64916623D7
:100EB00041F08AE396E00E94BE06892B11F021964C
:100EC000F2CFCE01DF91CF911F910F9108959091B4
:100ED000D001982329F49091CF01982381E009F45F
:100EE00080E00895E2EDF1E080E0A0E0B8E000806D
:100EF0000EBC8111012C1197A0FDFDCF0192B9F715
:100F00000DB40895DF92EF92FF920F931F93CF934A
:100F1000DF938C01EB01F12CE12CDD24D394D8017B
:100F20001C964D915C911D971E962D913C911F979B
:100F3000429FC001439F900D529F900D1124E816CF
:100F4000F906F4F45096ED91FC91C701880F991FB2
:100F5000E80FF91F80819181009771F08C179D0730
:100F600009F4D12CDC01ED91FC910684F785E02D8C
:100F700060E170E00995F0CFBFEFEB1AFB0ACFCF2D
:100F8000E881F9810684F785E02D60E170E0CE010B
:100F90000995009721F0BC01C8010E948207DD205D
:100FA00071F0E881F9810284F385E02DCE01DF91B3
:100FB000CF911F910F91FF90EF90DF900994DF91F7
:100FC000CF911F910F91FF90EF90DF9008950895BA
:100FD00090E080E0089590E080E008954F925F9265
:100FE0006F927F928F929F92AF92BF92CF92DF9239
:100FF000EF92FF920F931F93CF93DF935C013B011E
:101000002A016901CC0CDD1CDC0150968D909C906E
:1010100051978C0C9D1CF401C081D18103301105C6
:1010200009F4A8C0D0F40130110509F44AC0023017
:10103000110509F47EC0CE01DF91CF911F910F9170
:10104000FF90EF90DF90CF90BF90AF909F908F90E8
:101050007F906F905F904F9008950430110541F09C
:101060000530110541F7209731F7F182E082E3CF97
:101070002097A9F056968D919C918C179D0739F079
:10108000E881F9810284F385E02DCE010995D5012F
:101090005096ED91FC91EC0DFD1D11821082F50131
:1010A00080899189FC01EC0DFD1D71826082440CE8
:1010B000551C840D951DDC011D921C92D0E0C0E0F2
:1010C000BACF2097A9F0FC01868997898C179D07D4
:1010D00039F0E881F9810284F385E02DCE0109958C
:1010E000D5015096ED91FC91EC0DFD1D1182108201
:1010F000F501C089D189CC0DDD1DD701ED91FC91A1
:101100000088F189E02DC701099599838883F5014D
:1011100020893189C20ED31ED6018D919C91DC01AC
:10112000ED91FC910684F785E02D61E070E0099572
:10113000C5CF209709F07FCFD701ED91FC910088B2
:10114000F189E02DC7010995F40191838083D501D0
:1011500050962D913C91C20ED31EF6018081918153
:10116000DC01ED91FC910684F785E02D61E070E0F3
:10117000099561CF2097A9F0E881F9810684F78568
:10118000E02D66E070E0CE010995892B51F0D50184
:1011900050962D913C91C20ED31EF601C081D18193
:1011A0004ACFD50150968D919C91FC01EC0DFD1D0F
:1011B00020813181440C551C840D951DDC012D933B
:1011C0003C93718260827ACF8F929F92AF92BF924E
:1011D000CF92DF92EF92FF920F931F93CF93DF9303
:1011E000FC01EB018A016485758546855785649FFE
:1011F000C001659F900D749F900D1124D12CC12CBE
:10120000C816D9066CF5A089B189A601440F551FEF
:10121000A40FB51FAD90BC9046014FEF841A940AFD
:10122000AC16BD06D9F4C4010E946232892B41F08C
:101230007901BE01CF019401A6010E94EE075C0175
:10124000C501DF91CF911F910F91FF90EF90DF903B
:10125000CF90BF90AF909F908F9008956401D0CFB2
:101260005E01EECFAF92BF92CF92DF92EF92FF92EC
:101270000F931F93CF93DF93EC016B018A016C8571
:101280007D854E855F85649FC001659F900D749F2D
:10129000900D1124F0E0E0E0E817F9074CF5A8897B
:1012A000B989AF01440F551FA40FB51FAD90BC9075
:1012B000AC14BD04D9F4CF010E946232892B51F0E5
:1012C0007901B601CE019F0121503109AF010E9481
:1012D000EE075C01C501DF91CF911F910F91FF9047
:1012E000EF90DF90CF90BF90AF9008953196D4CF1C
:1012F0005601F0CFCF92DF92EF92FF920F931F93A0
:10130000CF93DF93DC0179011C96CD90DC901D9783
:101310001E968D919C911F97C89E8001C99E100DAD
:10132000D89E100D1124F0E0E0E0E017F1072CF555
:1013300050968D919C9151979F01220F331F820FE0
:10134000931FEC018881998186179707A1F4960174
:101350002E0F3F1F201731072CF48A01CD01AF015A
:101360000E94EE07DF91CF911F910F91FF90EF90B8
:10137000DF90CF9008953196D8CFCB01F3CFEF9285
:10138000FF920F931F93CF93DF93DC0179011C969B
:101390002D913C911D971E968D919C911F97289F92
:1013A0008001299F100D389F100D1124F0E0E0E01E
:1013B000E017F10714F55096CD91DC915197CF01CC
:1013C000880F991FC80FD91F8881998186179707A1
:1013D00091F4EF01C21BD30B9E01D7FD05C08A011A
:1013E000CD01AF010E94EE07DF91CF911F910F91C8
:1013F000FF90EF9008953196DBCFCB01F5CF83E5D9
:10140000089590E080E0089590E080E008950895C8
:10141000DC011696ED91FC913196E49181E0E613A2
:1014200080E00895EF92FF920F931F93CF93DF9385
:10143000EC018A016B31710508F0A4C06D5D754F38
:10144000FB010C9476323E0AA60AC20AC20AC20AFC
:10145000C20AA80AFA0AC20AC20AC20AC20AC20A0E
:10146000C20AC20AC20AD60AEC0AC20AF30AA60AC9
:10147000C20AC20AAE0AD90AC20AA00A209709F40F
:101480004BC0E881F9810684F785E02D60E170E0CA
:10149000CE010995F12CE12C0817190709F47E01FA
:1014A000E881F9810684F785E02D60E170E0CE01E6
:1014B0000995EC01E114F10409F3E881F98106844E
:1014C000F785E02D60E170E0CE010995EC01892BF4
:1014D000C1F0D801ED91FC910684F785E02D61E122
:1014E00070E0C8010995892BF9F4D801ED91FC91C0
:1014F0000684F785E02D61E170E0C8010995892B2C
:10150000E1F6D701ED91FC910484F585E02DAE0163
:1015100060E170E0C7010995C801DF91CF911F918B
:101520000F91FF90EF900895E881F9810684F78587
:10153000E02D61E170E0CE010995892BB1F2E1CF98
:101540008A858F70452B09F0806F8A878E01E4CFE2
:101550008A85877F452BC9F38860F7CF2E813F812D
:10156000FA01868197812817390781F3E881F9818B
:101570000684F785E02D60E170E0CE010995EC016D
:10158000009719F410E000E0C7CFE881F9810684E4
:10159000F785E02D61E170E00995892B99F72E819F
:1015A0003F81D80116968D919C91DDCF5987488750
:1015B000B3CF48855985198708874115510509F426
:1015C000ABCFD801ED91FC910484F585E02D60E16D
:1015D00070E0C8010995BACF8A858B7F452B09F445
:1015E000B4CF8460B2CF8A858D7F452B09F4ADCF0F
:1015F0008260ABCF8A858E7F452B09F0A6CF8160B4
:10160000A4CFFC01868197810C94BE0580E50895E6
:10161000DC011696ED91FC91339680E04AE024912E
:101620002053330B2A30310540F49491849F900D60
:101630001124892F80533196F2CF90E00895FC0158
:10164000868197810396FC0124912053330B2A3025
:10165000310510F40196F7CF0895089580E00895BC
:1016600080E00895EF92FF920F931F93CF93DF9343
:101670008C017B01EA014091BF015091C001E881DA
:10168000F9810484F585E02D6AE070E0CE010995CA
:10169000E881F9810484F585E02DA70162E170E01D
:1016A000CE010995E881F9810484F585E02DA80132
:1016B00065E170E0CE01099580E0DF91CF911F9147
:1016C0000F91FF90EF9008954F925F926F927F92EB
:1016D0008F929F92AF92BF92CF92DF92EF92FF9242
:1016E0000F931F93CF93DF93EC018091C6019091EC
:1016F000C701009739F0DC01ED91FC910284F3857C
:10170000E02D09958091BD019091BE01009739F0BF
:10171000DC01ED91FC910284F385E02D0995809127
:10172000BB019091BC01009739F0DC01ED91FC9177
:101730000284F385E02D099580EA91E00E94BE05C0
:101740009093BE018093BD0184EA91E00E94BE05A2
:101750009093BC018093BB01CE010E94BE05909383
:10176000C7018093C6014091BD015091BE01DC01CB
:10177000ED91FC910484F585E02D6CE070E0099515
:101780008091C6019091C7014091BB015091BC016D
:10179000DC01ED91FC910484F585E02D6DE070E0B5
:1017A00009958091C6019091C701DC01ED91FC91F2
:1017B0000684F785E02D6BE070E009958091C60105
:1017C0009091C701DC01ED91FC910684F785E02D35
:1017D00063E070E00995892B89F78091C6019091AB
:1017E000C701DC01ED91FC910684F785E02D61E0F5
:1017F00070E00995892B89F78091BD019091BE0118
:10180000DC01ED91FC910688F789E02D09957C01BA
:101810008091BB019091BC01DC01ED91FC910688A7
:10182000F789E02D09955C01B4E0C93CDB0709F4B8
:101830008CC02196512C84E1482E99EC692E94E0BD
:10184000792E4A9CF0014B9CF00D1124EE0DFF1DEA
:10185000EC0FFD1F8491803229F1F4E0C93CDF07D1
:1018600009F1882E082E000C99084091CC01509166
:10187000CD01DA011696ED91FC913196E491E815CF
:10188000190409F065C08091C6019091C701DC017F
:10189000ED91FC910484F585E02D67E170E00995F8
:1018A000552453948091C6019091C701DC01ED91BC
:1018B000FC910684F785E02D64E070E00995EFEF78
:1018C000EE1AFE0A892B09F0BCCF8091C6019091D7
:1018D000C701DC01ED91FC910684F785E02D63E002
:1018E00070E00995892B89F78091BD019091BE0127
:1018F000DC01ED91FC910688F789E02D09957C01CA
:10190000BFEFAB1ABB0A8091C6019091C701DC0101
:10191000ED91FC910684F785E02D62E070E0099579
:10192000892B09F08ECF852DDF91CF911F910F91DB
:10193000FF90EF90DF90CF90BF90AF909F908F90EF
:101940007F906F905F904F900895C9ECD4E072CF74
:1019500003EA14E08D33B9F58091C6019091C70177
:10196000DC01ED91FC910684F785E02D66E070E0E6
:101970000995892B89F48091C6019091C701409106
:10198000B9015091BA01DC01ED91FC910484F58517
:10199000E02D66E070E009950091C6011091C70145
:1019A000D801ED91FC91C484D5840684F785E02D9F
:1019B00066E070E0C8010995AC0167E170E0C8011C
:1019C000F60109956FCFF80185919491FC0131964C
:1019D000E491E8151904F1F4F801859194910E94BD
:1019E000BE056C01DC01ED91FC910484F585E02DD0
:1019F000AC0167E070E009958091C6019091C70144
:101A0000DC01ED91FC910484F585E02DA60167E1F0
:101A100070E009950E5F1F4F60167106A1F642CF68
:101A2000CF93DF93EC018091C6019091C701DC0157
:101A3000ED91FC910684F785E02D63E070E0099557
:101A4000892B89F78091C6019091C701DC01ED9146
:101A5000FC910684F785E02D61E070E00995892B03
:101A600089F78091C6019091C701DC01ED91FC914D
:101A70000684F785E02D67E170E009950097F1F0A5
:101A8000FC01268137812C173D0779F48091C6012E
:101A90009091C701DC01ED91FC910684F785E02D62
:101AA00067E170E0DF91CF9109940190F081E02D22
:101AB0000684F785E02D60E170E0DFCF8091C601FC
:101AC0009091C701DC01ED91FC910684F785E02D32
:101AD00064E070E00995892B21F68091C601909110
:101AE000C701DC01ED91FC910684F785E02D63E0F0
:101AF00070E00995892B89F78091C6019091C70103
:101B0000DC01ED91FC910684F785E02D62E070E048
:101B10000995892B09F0A5CF90E080E0DF91CF9166
:101B200008958F929F92AF92BF92CF92DF92EF92E1
:101B3000FF920F931F93CF93DF932091CC013091AD
:101B4000CD012817390729F480910D01882309F464
:101B5000A4C08A01EB018CE895E00E94BE057C01DF
:101B6000E881F9810484F585E02DAC0167E170E03E
:101B7000CE0109954C01892B09F49CC081E695E0C2
:101B80000E94BE056C01E881F9810484F585E02D91
:101B9000AC0167E170E0CE0109955C01892B71F120
:101BA000D601ED91FC910688F789E02DC6010995D3
:101BB000880F991FFC01E152FA4F0190F081E02D4E
:101BC0009401A801BE01C5010995E114F10441F099
:101BD000D701ED91FC910284F385E02DC7010995B1
:101BE000C114D10441F0D601ED91FC910284F3853A
:101BF000E02DC601099585E595E018C0C114D10412
:101C000041F0D601ED91FC910284F385E02DC601EF
:101C10000995E114F10441F0D701ED91FC910284A2
:101C2000F385E02DC70109958AE495E00E94100D27
:101C30007C01892B09F46EC0D801ED91FC910484DC
:101C4000F585E02DAE016BE170E0C8010995C8177C
:101C5000D907E1F5D701ED91FC910688F789E02DD0
:101C6000C7010995880F991FFC01E152FA4F0190B5
:101C7000F081E02D9E01A801B701C7010995E88117
:101C8000F9810484F585E02D50E040E063E170E0E7
:101C9000CE0109950E94720782E0DF91CF911F91DA
:101CA0000F91FF90EF90DF90CF90BF90AF909F90FB
:101CB0008F900895E114F10409F49DCFD701ED91BF
:101CC000FC910284F385E02DC70194CF4091BF01C0
:101CD0005091C001D801ED91FC910484F585E02D6F
:101CE0006AE070E0C8010995D801ED91FC91048487
:101CF000F585E02DA70162E170E0C8010995D801E2
:101D0000ED91FC910484F585E02DAE0165E170E074
:101D1000C8010995E881F9810484F585E02D50E03A
:101D200040E063E170E0CE0109950E94720780E017
:101D3000B4CF1092B8011092B7018091C601909172
:101D4000C701DC01ED91FC910684F785E02D63E08D
:101D500070E00995892B31F08091B8018F5F8093F5
:101D6000B801EBCF8091C6019091C701DC01ED91E4
:101D7000FC910684F785E02D61E070E00995892BE0
:101D800031F08091B7018F5F8093B701EBCF089559
:101D9000CF93DF93EC0162307105F9F030F46130DC
:101DA0007105A9F080E090E00FC06730710539F04F
:101DB00066317105B9F78EE20E94470704C08A8533
:101DC0009B85892B79F3CE01DF91CF91089588858A
:101DD0009985019699878887F6CF88859985019797
:101DE000F9CFEF92FF920F931F93CF93DF938C0164
:101DF000EA016E30710531F06F30710591F1D0E07C
:101E0000C0E027C0E881F9810688F789E02DCA0182
:101E100009957C01D801ED91FC910688F789E02DA8
:101E2000C80109958E159F05A4F0E881F9810688FF
:101E3000F789E02DCE010995EC01D801ED91FC91D7
:101E40000688F789E02DC8010995C817D907BCF69F
:101E5000E801CE01DF91CF911F910F91FF90EF909C
:101E60000895E881F9810688F789E02DCA0109956E
:101E70007C01D801ED91FC910688F789E02DC8011D
:101E800009958E159F0524F3E881F9810688F78965
:101E9000E02DCE0109957C01D801ED91FC910688D9
:101EA000F789E02DC8010995E816F90694F2A7CF45
:101EB00083E40895FC0180859185089580E008956C
:101EC000FC01868197810C94BE05089590E080E026
:101ED00008958F929F92AF92BF920F931F93CF93CB
:101EE000DF93CDB7DEB7A1970FB6F894DEBF0FBE74
:101EF000CDBF19A2423008F44AE08E010F5D1F4F9A
:101F0000842E912CB12CA12CA50194010E94253284
:101F1000E62FB901CA01EA3044F5E05DD801EE933D
:101F20008D01232B242B252B79F790E080E010974F
:101F300069F0FD0101900020E9F73197AF014A1BDC
:101F40005B0BBD0182E396E00E941C06A1960FB6D2
:101F5000F894DEBF0FBECDBFDF91CF911F910F91DF
:101F6000BF90AF909F908F900895E95CD7CF682F76
:101F700070E090E080E04AE00C94690F42E050E0AD
:101F800067EA71E082E396E00C941C06CF93DF933E
:101F90000E944C07EC010E94BE0F8C0F9D1FDF9129
:101FA000CF910895CF92DF92EF92FF920F931F93FC
:101FB000CF93DF937C016A01660F771FEB01C95A4B
:101FC000DC4F04E610E00E94A9061092D30510929F
:101FD000D2051092D5051092D405E114F10461F1F7
:101FE000D701ED91FC910684F785E02D66E170E064
:101FF000C70109950E94BE0FFE01859194910E9430
:10200000C60FC114D10451F0D601ED91FC910488A2
:10201000F589E02DC60109950E944C070E947207C0
:102020000150110981F6DF91CF911F910F91FF901F
:10203000EF90DF90CF90089581E593E00E944C07E8
:10204000D9CF1F93CF93DF93EC01162F0E94A906DF
:102050001092D3051092D2051092D5051092D40596
:1020600087EC95E00E944C078DEB95E0111109C0BB
:102070008091CC019091CD018C179D0721F484EBC8
:1020800095E00E944C0782EB95E00E94C60F80917C
:10209000CA019091CB01892BB9F48091C80190912C
:1020A000C901892B89F4D093CB01C093CA01E8817F
:1020B000F9810684F785E02D60E170E0CE01099595
:1020C0009093C9018093C8018FEA95E00E944C0764
:1020D0008091CA019091CB01DC01ED91FC910488C3
:1020E000F589E02D09950E94C60F8CEA95E00E94C3
:1020F0004C078091C8019091C901009749F1DC011A
:10210000ED91FC910684F785E02D61E170E0099581
:10211000892BF1F48091C8019091C901DC01ED9106
:10212000FC910684F785E02D66E070E00995892B27
:1021300009F064C08091C8019091C901DC01ED9162
:10214000FC910488F589E02D09950E94C60F06C010
:102150008091C8019091C901009781F780E10E94A8
:102160006707882369F18091C8019091C9010097A0
:1021700039F1DC01ED91FC910684F785E02D61E1F8
:1021800070E00995A091C801B091C901892B21F097
:10219000B093CB01A093CA01ED91FC9111970684F5
:1021A000F785E02D60E170E0CD0109959093C901BC
:1021B0008093C801892B21F4D093C901C093C80131
:1021C00088E00E946707882309F4B1C0112339F120
:1021D0008091C8019091C901009721F48091CA01B2
:1021E0009091CB011092CB011092CA011092C901BB
:1021F0001092C801DF91CF911F9108958AEA95E06E
:102200000E944C0785EA95E00E944C0783EA95E01E
:102210000E944C0781EA95E00E944C078BCF809189
:10222000CC019091CD018C179D0709F080C0809161
:10223000C8019091C901009709F479C0DC01ED91C2
:10224000FC910684F785E02D66E070E00995892B06
:1022500009F06DC08091CA019091CB01DC01ED9134
:10226000FC910684F785E02D60E170E00995EC01B2
:102270008091CA019091CB014091C8015091C90150
:10228000DC01ED91FC910484F585E02D70E060E0C7
:1022900009952097B1F0E881F9810684F785E02D52
:1022A00061E170E0CE010995892BE9F4E881F981BB
:1022B0000684F785E02D60E170E0CE010995EC0120
:1022C000E8CF8091C6019091C7014091CA01509119
:1022D000CB01DC01ED91FC910484F585E02D69E1F1
:1022E00070E00995EC014091C8015091C901E88165
:1022F000F9810484F585E02D68E170E0CE0109954F
:102300004091C8015091C90168E070E0CE010E947F
:10231000D20F1092CB011092CA011092C9011092F3
:10232000C80184E090E09093100180930F0184E055
:102330000E9467078823C1F01092CB011092CA0156
:102340001092C9011092C8011092C5011092C401E7
:102350001092C3011092C2011092C10184E090E07A
:102360009093100180930F0190E080E043CF0F9392
:102370001F93CF93DF932115310579F1E9018CE6A5
:1023800095E00E94BE058C01E881F9810484F58501
:10239000E02DAC0167E170E0CE010995892B19F5BC
:1023A000A80168E070E0CE010E94D20FE881F981B7
:1023B0000484F585E02DA80168E170E0CE0109955F
:1023C0008091CC019091CD01C817D90731F489E0F3
:1023D00090E09093100180930F0180E0DF91CF9106
:1023E0001F910F9108950115110551F3D801ED9139
:1023F000FC910284F385E02DC8010995E1CF0F938C
:102400001F93CF93DF930091CC011091CD0108175A
:10241000190709F046C0EB0187E090E090931001A6
:1024200080930F017093B5016093B4010E94A906D7
:102430001092D3051092D2051092D5051092D405B2
:10244000D801ED91FC910684F785E02D66E170E0FE
:10245000C801099507E513E0F801859194910E9460
:10246000C60FE1E6F3E0859194910E94C60FE3E682
:10247000F3E0859194910E944C07F8018591949125
:102480000E94C60FFE01EE0FFF1FE95AFC4F859117
:1024900094910E944C07DF91CF911F910F910C9462
:1024A000720750E040E065E070E0DF91CF911F914E
:1024B0000F910C94D20F0F931F93CF93DF938C0146
:1024C000232B31F18091CC019091CD0168177907D0
:1024D000F9F4CA01EB01DA01ED91FC910484F58570
:1024E000E02DA80170E060E0099570E060E0C801AF
:1024F0000E94FF1187E995E00E94BE05E881F981FD
:102500000484F585E02DAC0168E170E0CE01099509
:1025100080E0DF91CF911F910F910895AF92BF920C
:10252000CF92DF92EF92FF920F931F93CF93DF939F
:102530002115310509F457C07901EA018B016C01BD
:102540008CE895E00E94BE055C01D701ED91FC91FD
:102550000484F585E02DAC0167E170E0C7010995C1
:102560007C01A114B10441F0D501ED91FC910284EC
:10257000F385E02DC5010995E114F104A1F170E0A6
:1025800060E0C7010E94FF11E881F9810484F585AC
:10259000E02DA70170E060E0CE01099570E060E0F9
:1025A000C6010E94FF11E881F9810484F585E02DC0
:1025B000A60170E060E0CE01099581E895E00E94F7
:1025C000BE05EC01AC0168E070E0C8010E94D20FCA
:1025D000D801ED91FC910484F585E02DAE0168E110
:1025E00070E0C801099580E0DF91CF911F910F91B4
:1025F000FF90EF90DF90CF90BF90AF900895CF9273
:10260000DF92EF92FF920F931F93CF93DF932115E9
:10261000310509F440C08901EA017C0186E795E0B3
:102620000E94BE056C01D801ED91FC910484F585F2
:10263000E02DAC0167E170E0C80109958C01C1147F
:10264000D10441F0D601ED91FC910284F385E02D97
:10265000C601099501151105F1F070E060E0C801AF
:102660000E94FF11E881F9810484F585E02DA8011D
:1026700070E060E0CE01099570E060E0C7010E9463
:10268000FF11E881F9810484F585E02DA70170E050
:1026900060E0CE01099580E0DF91CF911F910F910D
:1026A000FF90EF90DF90CF9008950F931F93CF93FB
:1026B000DF938C01EB01E881F9810684F785E02D39
:1026C0006AE170E0CE010995892B71F150E040E09C
:1026D0006AE070E0CE010E94D20FE881F9810484A3
:1026E000F585E02D50E040E063E170E0CE01099512
:1026F000E881F9810684F785E02D60E170E0CE0184
:102700000995EC01009751F0E881F9810684F7857D
:10271000E02D61E170E00995892BF9F280E0DF910D
:10272000CF911F910F91089570E060E0C8010E9461
:10273000FF118091C6019091C701DC01ED91FC91E0
:102740000484F585E02DA80170E060E00995109201
:10275000CB011092CA01E2CFCF92DF92EF92FF92AB
:102760000F931F93CF93DF93EB017A0186E795E0F8
:102770000E94BE058C0180910C01853009F052C089
:1027800080910B0181114EC0E881F9810484F585A7
:10279000E02DA80167E170E0CE010995892B09F0D1
:1027A00041C0E881F9810484F585E02DA80168E144
:1027B00070E0CE010995A80168E070E0CE010E94AA
:1027C000D20F8CE895E00E94BE058C0180910C012F
:1027D000833009F458C080910C01833009F075C032
:1027E00080910B01811171C0E881F9810484F58524
:1027F000E02DA80167E170E0CE010995892B09F46D
:1028000064C063E070E0CE010E94FF11D701ED913A
:10281000FC910484F585E02DAE0170E060E0C70115
:10282000099557C080910C01853061F001151105A3
:1028300041F2D801ED91FC910284F385E02DC801AD
:102840000995BFCF80910B018111F0CFE881F9810B
:102850000484F585E02DA80167E170E0CE010995BB
:10286000892B21F361E070E0CE010E94FF11D701B6
:10287000ED91FC910484F585E02DAE0170E060E0FF
:10288000C70109959ECF80910B018111A4CFE881EA
:10289000F9810484F585E02DA80167E170E0CE019F
:1028A0000995892B09F097CFE881F9810484F58592
:1028B000E02DA80168E170E0CE010995A80168E06B
:1028C00070E0CE010E94D20F04C00115110509F07D
:1028D00044C086ED94E00E94BE058C0180910C01FD
:1028E000882309F443C080910C01882309F460C057
:1028F0000115110509F08DC08BEC94E00E94BE0516
:102900008C0180910C01843009F48CC080910C0101
:10291000843009F0A9C080910B018111A5C0E88124
:10292000F9810484F585E02DA80167E170E0CE010E
:102930000995892B09F498C062E070E0CE010E94ED
:10294000FF11D701ED91FC910484F585E02DAE01D6
:1029500070E060E0C70109958AC0D801ED91FC9153
:102960000284F385E02DC8010995B3CF80910B0156
:102970008111B9CFE881F9810484F585E02DA801A2
:1029800067E170E0CE010995892B09F0ACCFE881B1
:10299000F9810484F585E02DA80168E170E0CE019D
:1029A0000995A80168E070E0CE010E94D20FA4CF83
:1029B00080910B0181119CCFE881F9810484F58518
:1029C000E02DA80167E170E0CE010995892B09F49B
:1029D0008FCFD701ED91FC91C484D584E881F98132
:1029E0000484F585E02DA80167E170E0CE0109952A
:1029F000AC0170E060E0C701F601099570E060E0AD
:102A0000C8010E94FF1187E995E00E94BE058C0174
:102A1000BECFD801ED91FC910284F385E02DC80171
:102A200009956ACF80910B01811170CFE881F981FE
:102A30000484F585E02DA80167E170E0CE010995D9
:102A4000892B09F063CFE881F9810484F585E02DB5
:102A5000A80168E170E0CE010995A80168E070E086
:102A6000CE010E94D20F03C00115110551F480E080
:102A7000DF91CF911F910F91FF90EF90DF90CF905A
:102A80000895D801ED91FC910284F385E02DC801F1
:102A90000995EDCF2CE531E0FC013183208380895D
:102AA0009189009711F00C94A0300895CF93DF9393
:102AB000EC010E944A15CE01DF91CF910C94A03019
:102AC0000C94A0300C94A0300C94A030CF93DF93E2
:102AD000EB018CE190E00E940430DC0113961C9223
:102AE0001E92129717961C921E92169715961C927C
:102AF0001E9214971092CE018CE591E011969C9352
:102B00008E9319961C921E9218971B961C921E92D9
:102B10001A971D961C921E921C971F961C921E922D
:102B20001E9751961C921E92509753961C921E927D
:102B3000529755961C921E92549757961C921E922D
:102B4000569759961C921E9258975B961C921E920D
:102B50005A97FE0184918335A1F421965396DC9314
:102B6000CE9352978091CE01882339F0109729F0A7
:102B7000CD010E945615B0E0A0E0CD01DF91CF91CC
:102B8000089589E58093CE01EDCFCF93DF93EB01DC
:102B90008BE090E00E940430DC0113961C921E92A0
:102BA000129717961C921E92169715961C921E92BB
:102BB00014971092CE018EE391E011969C938E9320
:102BC00019961C921E9218971A961C921A97FE013B
:102BD00084918035C1F43296E49183E0E23409F4C3
:102BE0008BE01A968C931A978091CE01882339F046
:102BF000109729F0CD010E946015B0E0A0E0CD0152
:102C0000DF91CF91089589E58093CE01EDCFAF920A
:102C1000BF92DF92EF92FF920F931F93CF93DF93B8
:102C20007C01D62E8FEFE816F80641F480910E0154
:102C3000815080930E01F12CE12C09C0A1E0EA162D
:102C4000F104C9F780910E018F5F80930E0180918E
:102C5000C6019091C701009769F04091CC01509155
:102C6000CD01DC01ED91FC910484F585E02D60E15E
:102C700070E0099580910E0181112CC085E194E0EE
:102C80000E94640B182F1123D9F18091C6019091F5
:102C9000C7014091BF015091C001DC01ED91FC9151
:102CA0000484F585E02D65E070E009958091C6010A
:102CB0009091C7014091CC015091CD01DC01ED9183
:102CC000FC910484F585E02D62E170E00995D0E087
:102CD000C0E040C18F3F81F487E893E00E94640B1D
:102CE000182F50E040E06DE070E08091CC019091B1
:102CF000CD010E94D20FC7CF89EC94E00E94640BF3
:102D000080910E01D0E0C0E08E3F71F085E595E046
:102D10000E94BE05EC01E881F9810484F585E02D6F
:102D2000AC0161E170E009958AE495E00E94BE057E
:102D30008C01DC01ED91FC910484F585E02DAC0162
:102D400061E170E00995D801ED91FC91A484B5840E
:102D500084E395E00E94BE05AC0160E170E0C8012B
:102D6000F50109958091C6019091C7014091CC0170
:102D70005091CD01DC01ED91FC910484F585E02DAD
:102D800060E170E009958091C6019091C701409182
:102D9000BF015091C001DC01ED91FC910484F585E7
:102DA000E02D65E070E009958091C6019091C70122
:102DB0004091B9015091BA01DC01ED91FC9104847C
:102DC000F585E02D66E070E009958091BB0190915A
:102DD000BC01009739F0DC01ED91FC910284F38590
:102DE000E02D099584EA91E00E94BE059093BC0114
:102DF0008093BB01A091C601B091C701ED91FC91F8
:102E000011970484F585E02DAC016EE070E0CD01F2
:102E100009958091C6019091C7014091BB015091E5
:102E2000BC01DC01ED91FC910484F585E02D6FE09F
:102E300070E009954091CC015091CD0168E070E0BF
:102E400090E080E00E94D20F8091C6019091C7016E
:102E5000DC01ED91FC910484F585E02D50E040E02B
:102E60006BE070E00995892B09F47CCF80910E010D
:102E70008E3F09F4F6C08091C6019091C701DC0134
:102E8000ED91FC910484F585E02DEF2809F49BC0B9
:102E9000AE0168E070E009958091C6019091C7018C
:102EA0004091BF015091C001DC01ED91FC9104847F
:102EB000F585E02D6AE070E009958091C60190915A
:102EC000C701DC01ED91FC910484F585E02DAE0194
:102ED00062E170E009958091C6019091C701DC0123
:102EE000ED91FC910484F585E02DA80168E070E087
:102EF00009958091C6019091C7014091BF01509101
:102F0000C001DC01ED91FC910484F585E02D6AE0BF
:102F100070E009958091C6019091C701DC01ED91A7
:102F2000FC910484F585E02DA80162E170E009952B
:102F30008091C6019091C7014091CC015091CD0183
:102F4000DC01ED91FC910484F585E02D69E070E0F1
:102F5000099510E08091CC019091CD01DC01ED91BB
:102F6000FC910684F785E02D60E170E0099590936F
:102F7000CB018093CA018091CA019091CB01009747
:102F800009F473C0DC01ED91FC910684F785E02D16
:102F900061E170E00995892B89F08091C6019091DB
:102FA000C7014091CA015091CB01DC01ED91FC9128
:102FB0000484F585E02D69E070E009958091CA01EF
:102FC0009091CB01CBCFA80168E070E0099580918A
:102FD000C6019091C7014091BF015091C001DC0131
:102FE000ED91FC910484F585E02D6AE070E009958F
:102FF0008091C6019091C701DC01ED91FC910484A0
:10300000F585E02DA80162E170E009958091C60187
:103010009091C701DC01ED91FC910484F585E02DD0
:10302000AE0168E070E009958091C6019091C701FA
:103030004091BF015091C001DC01ED91FC910484ED
:10304000F585E02D6AE070E009958091C6019091C8
:10305000C701DC01ED91FC910484F585E02DAE0102
:1030600064CFEF2809F037CFD1CF8091C60190917E
:10307000C7014091BF015091C001DC01ED91FC916D
:103080000484F585E02D6AE070E009958091C60121
:103090009091C701DC01ED91FC910484F585E02D50
:1030A000AE0162E170E00995DD20A9F1111133C094
:1030B00080910E01CEEFD0E0C81BD10960E070E036
:1030C000CB0141F00E9475319E01DD0F440B550B81
:1030D0000E94F331672BF9F4C091C601D091C7016A
:1030E000E881F981048515858EE793E00E94BE058D
:1030F000AC0166E070E0CE01F80109958091C6014F
:103100009091C701DC01ED91FC910684F785E02DDB
:1031100061E170E009958091C6019091C7014091ED
:10312000BF015091C001DC01ED91FC910484F58553
:10313000E02D6AE070E009958091C6019091C70189
:103140004091B9015091BA01DC01ED91FC910484E8
:10315000F585E02D66E070E0099583E793E00E9435
:10316000100DDF91CF911F910F91FF90EF90DF90A5
:10317000BF90AF900C94990E8091CC019091CD01AD
:103180002817390771F480910E0160E0811106C0A3
:103190008FEF9FEF0E94071681E0089581E090E095
:1031A000F9CF80E008950F931F93CF93DF938A01A7
:1031B000E9018091CC019091CD012817390759F48C
:1031C00061E08FEF9FEF0E94071681E0DF91CF91C2
:1031D0001F910F910895209781F070E060E0C90180
:1031E0000E94FF11D801ED91FC910484F585E02D3A
:1031F000AE0170E060E0C801099580E0E7CF0F9371
:103200001F93CF93DF938A01E9018091CC019091C4
:10321000CD012817390759F461E081E090E00E9460
:10322000071681E0DF91CF911F910F9108952097AC
:1032300081F070E060E0C9010E94FF11D801ED91BA
:10324000FC910484F585E02DAE0170E060E0C801DA
:10325000099580E0E7CF2F923F924F925F926F9255
:103260007F928F929F92AF92BF92CF92DF92EF9216
:10327000FF920F931F93CF93DF9300D000D0CDB771
:10328000DEB79C838B835B01342E29830A8310E095
:1032900000E0F12CE12CAB81BC811C964D915C913E
:1032A0001D971E962D913C911F97429FC001439FF1
:1032B000900D529F900D1124081719070CF048C06B
:1032C0006801CC0CDD1C5096ED91FC91EC0DFD1DC0
:1032D000808191810097C9F1DC01ED91FC91008C16
:1032E000F18DE02D0995982EEB81FC8184899589DB
:1032F000DC01ED91FC91008CF18DE02D0995981287
:1033000024C0AB81BC815096ED91FC91EC0DFD1D6C
:1033100080819181DC01ED91FC910688F789E02D97
:103320000995E816F9068CF4EB81FC818089918976
:10333000C80ED91ED6018D919C91DC01ED91FC91B6
:103340000688F789E02D09957C010F5F1F4FA3CFF9
:1033500032E0432E512C311003C02701F12CE12C17
:103360000FEF1FEFE414F50409F4E0C0912C812C59
:10337000D12CC12CEB81FC81448555852685378570
:10338000429FC001439F900D529F900D11248816BB
:1033900099060CF049C03401660C771C0088F1894D
:1033A000E02DE60DF71D808191810097C9F1DC01C8
:1033B000ED91FC91008CF18DE02D0995282EEB818B
:1033C000FC8184899589DC01ED91FC91008CF18D63
:1033D000E02D0995281224C0EB81FC818089918918
:1033E000680E791ED3018D919C91DC01ED91FC91C9
:1033F0000688F789E02D09958E159F0589F4BFEFA2
:10340000CB1ADB0A0E94753196010D2C000C440B7F
:10341000550B0E94F331672B682B692B09F484014B
:10342000EFEF8E1A9E0AA6CFF981F11121C0CD28A7
:1034300009F472C0000F111FAB81BC815096ED9151
:10344000FC91E00FF11F80819181009739F0DC0140
:10345000ED91FC910284F385E02D0995AB81BC814F
:103460005096ED91FC91E00FF11FB182A08234C023
:10347000B1E0CB16D10409F047C0000F111FAB819A
:10348000BC815096ED91FC91E00FF11F80819181FC
:10349000009739F0DC01ED91FC910284F385E02D79
:1034A0000995EB81FC8186899789E088F188E00E97
:1034B000F11EDC01ED91FC910088F189E02D099568
:1034C000F70191838083AB81BC815096ED91FC9193
:1034D000E00FF11FA080B180C5010F900F900F90F9
:1034E0000F90DF91CF911F910F91FF90EF90DF90A0
:1034F000CF90BF90AF909F908F907F906F905F9094
:103500004F903F902F900895BA81BB2329F0E2E0BD
:10351000CE16D1040CF08ECF332021F0B1E0EB1A9F
:10352000F10820CFEFEFEE1AFE0A1CCFB12CA12C30
:10353000D3CF9F92AF92BF92CF92DF92EF92FF9242
:103540000F931F93CF93DF936831710508F074C018
:10355000FB01EC01E255F54E0C947632C61AA71B1E
:10356000CA1BEE1B051C1C1B3B1B1C1B1C1B491BED
:103570001C1B261C201C231C1C1B1C1B1C1B2B1B6C
:103580001C1B4F1B1C1B1C1B5C1C811BE881F98135
:103590000684F785E02D67E170E009958C018A8546
:1035A0009B85DC01ED91FC910688F789E02D09955A
:1035B0002C853D85829F7001839FF00C929FF00CBB
:1035C000112488859985DC01ED91FC910688F789A5
:1035D000E02D09958E0D9F1D4C855D852E853F85BF
:1035E000429FD001439FB00D529FB00D11242889F6
:1035F000398950E040E070E060E04A175B0794F4DE
:10360000FA01EE0FFF1FE20FF31F0190F081E02D92
:10361000309729F0E017F10711F46F5F7F4F4F5F8C
:103620005F4FEBCF880F991F280F391FF9011182C7
:103630001082623071051CF080E090E01EC0011520
:103640001105D1F3D801ED91FC910284F385E02DB1
:10365000C8010995F1CFE881F9810684F785E02D4D
:1036600066E070E0099501E021E040E0BC01CE0198
:103670000E942B1902C08E899F89DF91CF911F91E3
:103680000F91FF90EF90DF90CF90BF90AF909F9001
:10369000089500E021E040E070E060E0E8CFF12C28
:1036A000E12C4C855D852E853F85429FC001439F5F
:1036B000900D529F900D1124E816F9060CF0BCCF26
:1036C0008701000F111FE889F989E00FF11F808140
:1036D0009181009791F0DC01ED91FC910684F785D2
:1036E000E02D63E170E00995892B39F0E889F989CB
:1036F000E00FF11F80819181C0CFBFEFEB1AFB0A71
:10370000D0CF88859985DC01ED91FC910688F789F9
:10371000E02D09958C018A859B85DC01ED91FC915A
:103720000688F789E02D09952C853D85FC01E29FEF
:10373000C001E39F900DF29F900D1124800F911F07
:10374000880F991FE889F989E80FF91FD3CF8A8577
:103750009B85DC01ED91FC910684F785E02D62E00C
:1037600070E009958A859B85DC01ED91FC910688C6
:10377000F789E02D0995AA85BB8597FF5FC0ED917C
:10378000FC9111970684F785E02D61E070E0CD0192
:10379000099552CF8A859B85DC01ED91FC910684C9
:1037A000F785E02D61E070E009950E851F858A851B
:1037B0009B85DC01ED91FC910688F789E02D099548
:1037C000AA85BB8580179107CCF1ED91FC911197EB
:1037D0000684F785E02D62E070E0D9CF8885998571
:1037E000DC01ED91FC910684F785E02D62E070E04C
:1037F000099588859985DC01ED91FC910688F7890A
:10380000E02D0995A885B985B8CF88859985DC0113
:10381000ED91FC910684F785E02D61E070E009955B
:103820000C851D8588859985DC01ED91FC910688C4
:10383000F789E02D0995A885B985C4CFCD011DCFA5
:10384000888599851ACF8A859B8517CF8885998524
:10385000DC01ED91FC910688F789E02D09959D87A3
:103860008C878A859B85DC01ED91FC910688F78920
:10387000E02D09959F878E872C853D85829F80014D
:10388000839F100D929F100D1124C801880F991F5E
:103890000115B0E41B0710F08FEF9FEF0E9404307A
:1038A000FC010150110917FD03C011921192F9CFCB
:1038B000888B998BCE01E1CE88859985DC01ED91CD
:1038C000FC910688F789E02D09956C018A859B8516
:1038D000DC01ED91FC910688F789E02D09955C01EA
:1038E00010E000E0992493948E859F8508171907AE
:1038F0000CF0A2CEF12CE12C4C855D85E416F5068A
:10390000BCF5EC14FD0439F40A151B0521F41092E2
:1039100011019092D101409F9001419F300D509F25
:10392000300D11242E0D3F1DC901880F991FE88904
:10393000F989E80FF91F80819181009789F0DC01F6
:10394000ED91FC910684F785E02D66E170E0099524
:10395000909211011092D101BFEFEB1AFB0ACCCF6C
:10396000EA89FB89E20FF31F84910E944707F0CF99
:103970000E94BE0F0F5F1F4FB7CF2F923F924F9203
:103980005F926F927F928F929F92AF92BF92CF92EF
:10399000DF92EF92FF920F931F93CF93DF93CDB7F8
:1039A000DEB72F970FB6F894DEBF0FBECDBF9F874F
:1039B0008E877A8769875A83498379011801DC01E8
:1039C0001C964D915C911D971E968D919C911F9711
:1039D000489F9001499F300D589F300D1124012BB5
:1039E000C9F050964D915C9190E080E0912C812C33
:1039F00082179307FCF4FC01EE0FFF1FE40FF51F85
:103A000060817181E985FA856E177F0709F44C01A1
:103A10000196EECF4901330FAA08BB088114910427
:103A2000A104B10439F00E947531A50194010E94EE
:103A3000F3314B019401220F331F38872F83AE855A
:103A4000BF8550960D911C91020F131FA981BA8159
:103A5000ED91FC9111970088F189E02DCD01099538
:103A6000F80191838083D701ED91FC910484F58561
:103A7000E02DA70167E070E0C7010995EE85FF859D
:103A8000808D918DDC01ED91FC910688F789E02D08
:103A900009952C01EE85FF85828D938DDC01ED91DA
:103AA000FC910688F789E02D09959C878B87E1E0DA
:103AB000F0E0FC83EB8353E0852E912CA12CB12CFC
:103AC0002B813C81232B09F4C7C11E821D8210E08B
:103AD00000E0712C612CAE85BF851C964D915C91E8
:103AE0001D971E962D913C911F97429FC001439FA9
:103AF000900D529F900D1124ED81FE81E817F9077A
:103B00000CF019C16F01CC0CDD1C5096ED91FC91AD
:103B1000EC0DFD1D80819181009709F483C0DC01CB
:103B2000ED91FC91008CF18DE02D09958D87A98197
:103B3000BA81ED91FC911197008CF18DE02DCD01B2
:103B40000995BD85B8136EC0EFEF6E1A7E0AC301EA
:103B5000800F911F841595050CF46AC0211431045F
:103B600009F071C0AE85BF855096ED91FC915197DB
:103B7000EC0DFD1D60817181970145E050E0CD01A4
:103B80000E94BF09C301800F911F841595050CF495
:103B900070C02114310409F077C0AE85BF855096FE
:103BA000ED91FC915197EC0DFD1D608171819701A4
:103BB00045E050E0CD010E947A09C301800F911FBA
:103BC000841595050CF476C02114310409F07DC0EC
:103BD000AE85BF855096ED91FC915197EC0DFD1D82
:103BE00060817181970145E050E0CD010E9432096A
:103BF000C301800F911F841595050CF47CC021141E
:103C0000310409F083C0EE85FF8580899189C80E53
:103C1000D91ED6016D917C91970145E050E0CF010E
:103C20000E94E408ED81FE813196FE83ED8353CF3F
:103C30000E947531A50194010E94F331672B682B16
:103C4000692B09F48BCFAE85BF855096ED91FC9121
:103C50005197EC0DFD1D608171819B0142E050E0A8
:103C6000CD010E94BF09892B09F08CCF0F5F1F4F38
:103C700089CF0E947531A50194010E94F331672B11
:103C8000682B692B09F485CFAE85BF855096ED91E1
:103C9000FC915197EC0DFD1D608171819B0142E00B
:103CA00050E0CD010E947A09892B09F086CF0F5F81
:103CB0001F4F83CF0E947531A50194010E94F331FB
:103CC000672B682B692B09F47FCFAE85BF85509693
:103CD000ED91FC915197EC0DFD1D608171819B016F
:103CE00042E050E0CD010E943209892B09F080CFDB
:103CF0000F5F1F4F7DCF0E947531A50194010E9477
:103D0000F331672B682B692B09F479CFEE85FF859A
:103D100080899189C80ED91ED6016D917C919B0135
:103D200042E050E0CF010E94E408892B09F07ACFED
:103D30000F5F1F4F77CF0115110559F42B853C8577
:103D40006216730624F42114310409F4C6C01C82DF
:103D50001B82060D171D401651060CF0B1CED12C5A
:103D6000C12C1C821B82AE85BF851C964D915C9137
:103D70001D971E962D913C911F97429FC001439F16
:103D8000900D529F900D1124C816D9060CF098CEB4
:103D90008601000F111F5096ED91FC91E00FF11F6D
:103DA00080819181009709F453C0DC01ED91FC9171
:103DB000008CF18DE02D0995782EA981BA81ED91C5
:103DC000FC911197008CF18DE02DCD0109957812B1
:103DD0003FC0AE85BF855096ED91FC915197E00FA5
:103DE000F11F60817181970145E050E0CD010E9493
:103DF000BF09AE85BF855096ED91FC915197E00FBC
:103E0000F11F60817181970145E050E0CD010E9472
:103E10003209AE85BF855096ED91FC915197E00F28
:103E2000F11F60817181970145E050E0CD010E9452
:103E3000E408EE85FF8580899189080F191FD80154
:103E40006D917C91970145E050E0CF010E947A0985
:103E5000BFEFCB1ADB0A87CF0E851F85E985FA8570
:103E6000EF2B09F1AE85BF855096ED91FC912F8126
:103E70003885E20FF31F80819181009739F0DC01D2
:103E8000ED91FC910284F385E02D0995AE85BF8507
:103E90005096ED91FC912F813885E20FF31F8985B3
:103EA0009A8591838083C8012F960FB6F894DEBF60
:103EB0000FBECDBFDF91CF911F910F91FF90EF907B
:103EC000DF90CF90BF90AF909F908F907F906F903A
:103ED0005F904F903F902F90089500E010E0BECF8C
:103EE0007F928F929F92AF92BF92CF92DF92EF928A
:103EF000FF920F931F93CF93DF93EC017A016D3103
:103F0000710508F052C06857704EFB010C94763270
:103F1000E82067237A238D23A023EE22F922D51FE0
:103F20009B22A422A8220E2361236423A51FBF1F66
:103F30001222D51F0423C221D51F2821B3233A23DF
:103F4000D51FAA20D51F1D20CA1FDA01ED91FC91B3
:103F50000088F189E02DCA0109959B8F8A8F7E0127
:103F6000C701DF91CF911F910F91FF90EF90DF90EC
:103F7000CF90BF90AF909F908F907F900895DA017F
:103F8000ED91FC910088F189E02DCA010995998F86
:103F9000888FE5CFE881F9810484F585E02D69E11A
:103FA00070E009958C01892B19F4F12CE12CD8CF04
:103FB000E881F9810684F785E02D63E070E0CE01A9
:103FC0000995892BA9F7E881F9810684F785E02D09
:103FD00061E070E0CE010995892BA9F7E881F981AC
:103FE0000684F785E02D67E170E0CE01099508179A
:103FF000190709F4B5CFE881F9810684F785E02D2A
:1040000064E070E0CE010995892B41F7E881F981E0
:104010000684F785E02D63E070E0CE010995892BD9
:10402000A9F7E881F9810684F785E02D62E070E068
:10403000CE010995892B91F6B8CFE881F9810684E4
:10404000F785E02D67E170E009958C01E881F98141
:104050000684F785E02D67E170E0CE0109959801AF
:1040600050E040E0BC01CE010E94BF09E816F9060D
:1040700009F476CFE881F9810684F785E02D67E1C0
:1040800070E0CE0109958C01E881F9810684F785FD
:10409000E02D67E170E0CE010995980150E040E025
:1040A000BC01CE010E943209E816F90609F458CF86
:1040B000E881F9810684F785E02D67E170E0CE01A3
:1040C00009958C01E881F9810684F785E02D67E187
:1040D00070E0CE010995980150E040E0BC01CE01AE
:1040E0000E94E408E816F90609F43ACFE881F9815C
:1040F0000684F785E02D67E170E0CE0109958C011B
:10410000E881F9810684F785E02D67E170E0CE0152
:104110000995980150E040E0BC01CE010E947A0967
:10412000E816F90609F41CCFE881F9810684F785C1
:10413000E02D67E170E0CE01DF91CF911F910F91EB
:10414000FF90EF90DF90CF90BF90AF909F908F90B7
:104150007F90099410E000E04C855D852E853F85B9
:10416000429FC001439F900D529F900D112408174C
:1041700019070CF01ACF6801CC0CDD1CE889F9890D
:10418000EC0DFD1D808191810097F9F0DC01ED912E
:10419000FC910684F785E02D60E170E00995E889DF
:1041A000F989EC0DFD1DC080D180009771F08E154E
:1041B0009F0509F41AC4DC01ED91FC910684F78592
:1041C000E02D60E170E00995F0CF0F5F1F4FC4CF85
:1041D000452B09F4EACE10E000E04C855D852E8584
:1041E0003F85429FC001439F900D529F900D112427
:1041F0000817190744F56801CC0CDD1CE889F9891A
:10420000EC0DFD1D808191810097D1F0DC01ED91D5
:10421000FC910484F585E02DA70170E060E009952C
:10422000E889F989EC0DFD1D808191818E159F052E
:1042300039F48E899F89E816F90611F011821082EF
:104240000F5F1F4FCACFB701CE010E948207ADCECC
:104250009A0150E040E0B7010E94BF096C014FE7AE
:10426000BC01CE010E94E505182F0FE7882351F00D
:10427000D601ED91FC910688F789E02DC6010995DC
:10428000082F11E0970150E040E0B701CE010E94F5
:104290007A096C01402FBC01CE010E94E5058823FC
:1042A00051F0D601ED91FC910688F789E02DC60109
:1042B0000995082F12E0970150E040E0B701CE01C8
:1042C0000E9432096C01402FBC01CE010E94E5051D
:1042D000882351F0D601ED91FC910688F789E02DF5
:1042E000C6010995082F13E0970150E040E0B7019F
:1042F000CE010E94E4086C01402FBC01CE010E9457
:10430000E505882381F0D601ED91FC910688F789B7
:10431000E02DC6010995970143E050E0B701CE01B9
:104320000E94E4081CCE111109C00E94753125E0DD
:1043300030E040E050E00E94F331162F123091F04F
:1043400058F4113009F00BCE970143E050E0B7016B
:10435000CE010E94BF0903CE133061F0143009F082
:10436000FECDD9CF970143E050E0B701CE010E94C6
:104370007A09F5CD970143E050E0B701CE010E94E4
:104380003209EDCDF12CE12C4C855D852E853F85E4
:10439000429FC001439F900D529F900D1124E8163B
:1043A000F9060CF002CE8701000F111FE889F98988
:1043B000E00FF11F80819181009781F1DC01ED9187
:1043C000FC910484F585E02DAC0163E170E0099572
:1043D000E889F989E00FF11F80819181DC01ED917D
:1043E000FC910684F785E02D60E170E009958C0171
:1043F0000097A1F0DC01ED91FC910484F585E02D9E
:10440000AC0163E170E00995D801ED91FC9106845F
:10441000F785E02D60E170E0C801E8CFBFEFEB1A4F
:10442000FB0AB2CF8C899D89009739F0DC01ED91B0
:10443000FC910284F385E02D09951D8A1C8A10E009
:1044400000E04C855D852E853F85429FC001439FDE
:10445000900D529F900D1124081719070CF043C0BE
:104460006801CC0CDD1CE889F989EC0DFD1D80810B
:104470009181009771F18E159F0559F12E893F8921
:104480008217930731F1C701BB24B394E889F989F6
:10449000EC0DFD1D009781F020813181281739072F
:1044A00009F4B12CDC01ED91FC910684F785E02D37
:1044B00060E170E00995EACFBB2059F0408151815D
:1044C000E881F9810484F585E02D70E060E0CE019B
:1044D000099588899989C80ED91EF6011182108222
:1044E0000F5F1F4FAECF8E899F89009739F0DC0197
:1044F000ED91FC910284F385E02D0995888D998DCD
:10450000009739F0DC01ED91FC910284F385E02DF8
:1045100009958A8D9B8D009739F0DC01ED91FC9116
:104520000284F385E02D09951F8A1E8A198E188E44
:104530001B8E1A8E14CD00E020E041E0B701CE01C1
:104540000E942B197C010CCD00E020E040E0F6CF6A
:1045500010E000E04C855D852E853F85429FC001BF
:10456000439F900D529F900D1124081719070CF0CE
:10457000F6CC6801CC0CDD1CE889F989EC0DFD1D39
:1045800080819181009739F1DC01ED91FC91008CE3
:10459000F18DE02D0995B82ED701ED91FC91008C9D
:1045A000F18DE02DC7010995B81215C0E889F98988
:1045B000EC0DFD1D80819181009739F0DC01ED91BA
:1045C000FC910284F385E02D0995E889F989EC0DC9
:1045D000FD1D118210820F5F1F4FBCCFDA01ED91DC
:1045E000FC910088F189E02DCA0109959D8B8C8B87
:1045F000B6CCDA01ED91FC910088F189E02DCA0179
:1046000009959F8B8E8BABCC2E893F894C895D8918
:1046100001E010E0B7010E94BD1C94CF2E893F89B4
:104620004C895D8910E000E0B7010E94BD1C7C014F
:104630002C853D858E859F85289FA001299F500D43
:10464000389F500D112490E080E0841795070CF0FE
:1046500087CCE889F9899C01220F331FE20FF31FF1
:1046600020813181232B21F42E893F8931832083BE
:104670000196EBCF8A859B85DC01ED91FC91068844
:10468000F789E02D09952C853D85829F8001839FC8
:10469000100D929F100D112488859985DC01ED91F4
:1046A000FC910688F789E02D0995800F911F880FEE
:1046B000991F08891989800F911FFC01F182E082FE
:1046C0004FCC5987488771CC5B874A876ECC9A015B
:1046D00043E050E0B701DF91CF911F910F91FF9020
:1046E000EF90DF90CF90BF90AF909F908F907F9092
:1046F0000C94BF099A0143E050E0B701DF91CF91DC
:104700001F910F91FF90EF90DF90CF90BF90AF90EF
:104710009F908F907F900C947A099A0143E050E02B
:10472000B701DF91CF911F910F91FF90EF90DF9034
:10473000CF90BF90AF909F908F907F900C94320954
:104740009A0143E050E0B701DF91CF911F910F91A3
:10475000FF90EF90DF90CF90BF90AF909F908F90A1
:104760007F900C94E40888859985DC01ED91FC919B
:104770000688F789E02D09955C018A859B85DC0117
:10478000ED91FC910688F789E02D09954C0110E028
:1047900000E0772473948E859F85081719070CF025
:1047A00004CCD12CC12C2C853D85C216D3060CF02F
:1047B00017C1CA14DB0439F40815190521F4109245
:1047C00011017092D101209FC001219F900D309F57
:1047D000900D11248C0D9D1D880F991F28893989F2
:1047E000820F931FFC01608171816115710509F4CD
:1047F00085C06E157F05F9F48C859D85089F900115
:10480000099F300D189F300D11242C0D3D1DC9013D
:10481000880F991FE889F989E80FF91F8081918134
:10482000009709F08CC0EA89FB89E20FF31F84919D
:104830000E9447078DC09B0150E040E0CE010E94DE
:10484000BF09E816F906C1F22C853D85029FC0011B
:10485000039F900D129F900D11248C0D9D1D880FAC
:10486000991F28893989820F931FDC016D917C91F2
:104870009B0150E040E0CE010E947A09E816F9065B
:1048800009F4BACF2C853D85029FC001039F900D8E
:10489000129F900D11248C0D9D1D880F991F288942
:1048A0003989820F931FFC01608171819B0150E067
:1048B00040E0CE010E94E408E816F90609F49CCF16
:1048C0002C853D85029FC001039F900D129F900D86
:1048D00011248C0D9D1D880F991F28893989820FFD
:1048E000931FDC016D917C919B0150E040E0CE0173
:1048F0000E943209E816F90609F47ECF2C853D8521
:10490000029FC001039F900D129F900D11248C0DEA
:104910009D1D880F991F28893989820F931FFC01DB
:1049200080819181009799F580E20E9447077092FB
:1049300011011092D101BFEFCB1ADB0A34CFDC0199
:10494000ED91FC910684F785E02D66E170E0099514
:104950002C853D85029FC001039F900D129F900DF5
:1049600011248C0D9D1D880F991F28893989820F6C
:10497000931FFC0180819181DC01ED91FC91048405
:10498000F585E02DAC0167E070E00995D0CFDC0142
:10499000ED91FC910684F785E02D67E070E00995C4
:1049A000892B11F62C853D85029FC001039F900D38
:1049B000129F900D11248C0D9D1D880F991F288921
:1049C0003989820F931FFC0180819181DC01ED9177
:1049D000FC910684F785E02D66E170E00995A7CF8C
:1049E0000E94BE0F0F5F1F4FD6CE7601B9CACF937C
:1049F000DF93FB013697E531F10538F5EC01ED5F0A
:104A0000FA4D0C9476324225462525252525252567
:104A10002525252525252525252518252225252556
:104A20001D25252525254A25252525252525282516
:104A300088859985DF91CF9108958A8581FF05C08A
:104A4000CE01F8CF8A8582FDFBCF90E080E0F2CFE7
:104A50002A85822F82958F70815030E1839FC0011B
:104A600011242F70282B2A87CE0122952F7011F741
:104A7000E881F9810484F585E02DAE016AE170E0FA
:104A80000995E3CF8A8583FDDBCFDFCF8A8580FD63
:104A9000D7CFDBCF60E40E94080A882321F082E0B0
:104AA0000E944707CDCF61E6CE010E94080A882305
:104AB00011F081E0F5CF66E6CE010E94080A882356
:104AC00011F083E0EDCF63E2CE010E94080A882353
:104AD00011F083E1E5CF6EE3CE010E94080A88233E
:104AE00011F08FE1DDCF6CE3CE010E94080A88232C
:104AF00011F08EE1D5CF69E3CE010E94080A882328
:104B000011F08FEDCDCF61E3CE010E94080A88231A
:104B100011F08EEDC5CF62E3CE010E94080A882312
:104B200011F08DEDBDCF6EE7CE010E94080A8823FB
:104B300081F00E94753122E030E040E050E00E94B8
:104B4000F331672B682B692B11F080EBA9CF81EB38
:104B5000A7CFEE81FF8131968491A2CF4F925F92D1
:104B60006F927F92AF92BF92CF92DF92EF92FF92BD
:104B70000F931F93CF93DF935B01EA01C0900E0167
:104B8000D12C85E0C80ED11C0D2C000CEE08FF08BE
:104B90000E9475312B013C014091BF015091C00131
:104BA000E881F9810484F585E02D6AE070E0CE01AA
:104BB0000995C301B201A70196010E94F331672B49
:104BC00009F055C080E495E00E94100D892B09F092
:104BD0004EC084E395E00E94100D892B09F447C074
:104BE000E881F9810484F585E02D50E040E06BE137
:104BF00070E0CE010995892BD1F580E495E00E9403
:104C0000BE058C01AC0168E070E090E080E00E949D
:104C1000D20FE881F9810484F585E02DA50162E1D8
:104C200070E0CE010995E881F9810484F585E02DD5
:104C3000A80169E070E0CE010995D801ED91FC91E1
:104C40000484F585E02DA80167E070E0C8010995AE
:104C5000D801ED91FC91C485D58582EE94E00E9447
:104C6000BE05AC0160E170E0C801FE01099580E07D
:104C7000DF91CF911F910F91FF90EF90DF90CF9038
:104C8000BF90AF907F906F905F904F900895DC0140
:104C9000ED91FC910484F585E02D50E040E063E166
:104CA00070E0099586E090E09093100180930F01E9
:104CB00060910701709108018091090190910A01AA
:104CC0006F5F7F4F8F4F9F4F609307017093080175
:104CD0008093090190930A012AE030E040E050E01F
:104CE0000E94253260930B01611105C080910C0177
:104CF0008F5F80930C0180910C018A3039F4809190
:104D0000060110920C018F5F8093060180910601CD
:104D10008A3009F049C010920601809105018F5F29
:104D2000809305018091B6012091040190910301C7
:104D30003BEA239F312D11243695409102018217C1
:104D4000D8F0290F20930301340F309302010E9401
:104D500075318091B60190910401891B8093B60151
:104D600080910301909101018917D8F48F5F80939E
:104D70000101109203010895980F90930301622F8F
:104D80000E945632839F400D11244093020121500E
:104D9000209304012A3010F40E9475311092B6015C
:104DA000DFCF891B8093030108950F931F93CF9347
:104DB000DF938B018CE090E00E940430EC011B82B9
:104DC0001A821F821E821D821C821092CE0180E2F6
:104DD00091E0998388831986188681E090E09B870B
:104DE0008A87F8018081833431F4C80101960E94DA
:104DF000CD310097A1F489E58093CE018091CE0159
:104E0000882339F0209729F0CE010E946215D0E066
:104E1000C0E0CE01DF91CF911F910F910895998746
:104E20008887ECCFEF92FF920F931F93CF93DF937E
:104E30007C018CE090E00E940430EC011B821A821D
:104E40001F821E821D821C821092CE0180E291E0A0
:104E5000998388831986188681E090E09B878A87EA
:104E60008BEA91E00E94CD310097B9F489E58093F7
:104E7000CE0101E010E0F701808591850817190740
:104E80007CF4E881F9810684F785E02D61E070E02B
:104E9000CE0109950F5F1F4FEECF99878887E9CF25
:104EA000CE01DF91CF911F910F91FF90EF90089568
:104EB0001F920F920FB60F9211242F933F938F934F
:104EC0009F93AF93BF938091D7059091D805A09100
:104ED000D905B091DA053091D60523E0230F2D379F
:104EE00058F50196A11DB11D2093D6058093D705D5
:104EF0009093D805A093D905B093DA058091DB058E
:104F00009091DC05A091DD05B091DE050196A11D13
:104F1000B11D8093DB059093DC05A093DD05B09374
:104F2000DE05BF91AF919F918F913F912F910F908F
:104F30000FBE0F901F90189526E8230F0296A11D13
:104F4000B11DD2CFCF93DF93E4E1F6E0138212825A
:104F50001782168280913006909131069583848362
:104F60008CE591E0918380831186108613861286EA
:104F70001586148617861686118A108A138A128A55
:104F8000158A148A178A168A118E108E138E128E25
:104F9000C9E0D6E01B821A821F821E82FD83EC8349
:104FA0008EE391E099838883198618861A86ADEF7F
:104FB000B5E013961C921E92129717961C921E92A1
:104FC00016971596DC93CE93149780E291E0119694
:104FD0009C938E9319961C921E92189781E090E0F4
:104FE0001B969C938E931A97EFEDF5E085E995E07B
:104FF0009183808382E39BE0938382838CEA93E1B5
:10500000958384838FEF98E19783868383ED98E17E
:10501000918780878EEA95E29387828780E39BE081
:105020009587848781E99DE09787868787EB91E163
:10503000918B808B85E593E1938B828B8FEF92E14F
:10504000958B848B8EE892E1978B868B8BE592E132
:10505000918F808F8EE29BE0938F828F8CEB98E113
:10506000958F848FEAE3F6E01382128288E991E05B
:1050700091838083E2E3F6E0138212828AE791E073
:105080009183808317821682B583A483F0933106BF
:10509000E0933006DF91CF9108951F92CDB7DEB730
:1050A00011E01093E0001092E2001092E10080E223
:1050B0008093D8001092D70080916500806880931B
:1050C0006500789484B5826084BD84B5816084BDB8
:1050D00085B5826085BD85B5816085BD80916E0096
:1050E000816080936E0010928100809181008260C7
:1050F0008093810080918100816080938100809104
:105100008000816080938000809191008260809314
:105110009100809191008160809391008091900036
:105120008160809390008091C10084608093C10071
:105130008091C10082608093C1008091C100816034
:105140008093C1008091C30081608093C3008091EF
:10515000C00082608093C0008091C2008160809313
:10516000C20080917A00846080937A0080917A00F6
:10517000826080937A0080917A00816080937A00C7
:1051800080917A00806880937A00559A209A5D9A7F
:10519000289A8C9A84988AE090E00E946E067C9906
:1051A0000EC0F89487E78093000880930108A895C3
:1051B00088E18093600088E080936000FFCF81ECFD
:1051C00080937C0085B1806F85B984B1877E84B976
:1051D00084B1876E84B95E9A5F988AB1806D8AB90E
:1051E000769A6E9881B3806F81BB899880B38D70F9
:1051F00080BB80E58CBD1DBD85E090E00E946E0601
:105200005F9A85E090E00E946E065E985C98E9E403
:10521000F2E086E592E024912EBD00000DB407FE79
:10522000FDCF31968E179F07B1F75C9A81E8809386
:105230006400809165008160809365000E94720720
:105240000E94A10687FF15C05C9885EA8EBD00000C
:105250000DB407FEFDCF5C9A2E982F982D98809163
:10526000640080628093640081E083BF889513BEF0
:10527000FCCF82E480930001809164008E7F809354
:10528000640080917A00806480937A0080917A0033
:1052900086FDFCCF00917800109179000E944906AC
:1052A000AB01BC01C801B0E0A0E0DC019927882770
:1052B0008C019D01040F151F261F371FC901B8015E
:1052C00020916400216020936400611571058105BF
:1052D000910511F00E94C43183E793E00E94BE055E
:1052E0009093CD018093CC01DC01ED91FC9104847D
:1052F000F585E02DAC0161E170E009950091CC01EC
:105300001091CD011093CB010093CA01D801ED910A
:10531000FC91E484F58482EE94E00E94BE05AC0129
:1053200060E170E0C801F70109958C019093CB0111
:105330008093CA01DC01ED91FC91E484F58481E65F
:1053400095E00E94BE05AC0160E170E0C801F70184
:1053500009958C019093CB018093CA01DC01ED91FA
:10536000FC91E484F58489E792E00E94BE05AC01DB
:1053700060E170E0C801F70109959093CB0180933B
:10538000CA01DC01ED91FC910484F585E02DAC01AE
:1053900061E170E009958091CA019091CB01DC0137
:1053A000ED91FC910484F585E02DAC0167E070E09F
:1053B00009950091CA011091CB01D801ED91FC91A2
:1053C000E484F5848AE692E00E94BE05AC0160E1C7
:1053D00070E0C801F70109958C019093CB0180938F
:1053E000CA01DC01ED91FC91E484F5848FE592E043
:1053F0000E94BE05AC0160E170E0C801F7010995AB
:105400001092CB011092CA0186E592E00E94BE057F
:105410009093BA018093B901DC01ED91FC91048471
:10542000F585E02DAC0161E170E009958AEA91E033
:105430000E94BE059093C0018093BF0160E081E0AF
:1054400090E00E9407163324339444244394FE01D1
:1054500031963F0117E5C12E13E0D12E5524539408
:10546000760105E0A02EB12C8FB7F8944091D705B6
:105470005091D8056091D9057091DA058FBF809160
:10548000B001882319F01092B001EECF8091B101E4
:10549000F42FF81B8F2F90910001F91738F48F5FCC
:1054A000891710F733BE889513BEDECF5092B00136
:1054B0004093B1018091AE019091AF01019690931C
:1054C000AF018093AE018091CF018093D0010E9403
:1054D000A1068093CF010E94A9061092D3051092D5
:1054E000D2051092D5051092D4058091C6019091F5
:1054F000C7014091CC015091CD01DC01ED91FC91AF
:105500000484F585E02D62E170E009958091C60183
:105510009091C7014091CC015091CD01DC01ED91FA
:10552000FC910484F585E02D66E170E00995809199
:105530003E0690913F06B301681B790B71F06F3FF7
:10554000710511F008F05DC08DE493E00E944C07F6
:10555000F601859194910E944C078091C60190912B
:10556000C7014091BF015091C001DC01ED91FC9158
:105570000484F585E02D6AE070E0099580910501CD
:105580000E94B70F8BE493E00E944C0780910601C4
:105590000E94B70F89E493E00E944C07F6018591C1
:1055A00094910E944C0780910C010E94B70F87E4F0
:1055B00093E00E944C0780910B010E94B70FF60107
:1055C000859194910E944C0780910E010E94B70F23
:1055D0000E94BE0FE0910F01F0911001EB30F10538
:1055E00008F042CFEA50F54D0C947632712CA62D7E
:1055F000F52BED2C372DD42DB62EE82B922B072B27
:10560000C52B90E080E04AE00E94690FA1CF109284
:10561000D3051092D2051092D5051092D4058BE3D4
:1056200093E00E94C60F809101010E94B70FF7011D
:10563000859194910E944C078AE293E00E94C60FE4
:10564000809103010E94B70FF701859194910E9408
:105650004C078AE193E00E94C60F8091B6010E9438
:10566000B70FF701859194910E944C078EE093E06B
:105670000E944C07F701859194910E944C078091FC
:1056800004010E94B70F0E94BE0F809102010E9488
:10569000B70FF701859194910E944C078BEF92E030
:1056A0000E944C07F701859194910E94C60F0E94B9
:1056B000720788E00E946707882339F1809103010F
:1056C000882309F4D1CE81EF92E00E94BE058C01BF
:1056D000AC0168E070E08091CC019091CD010E9416
:1056E000D20F8091CC019091CD01DC01ED91FC9124
:1056F0000484F585E02DA80168E170E009958091AA
:105700000301815080930301AFCE84E00E946707BC
:10571000882309F4A9CE8091CC019091CD010E94FB
:105720004726A2CE0E94A9061092D3051092D20558
:105730001092D5051092D4051091C101E12FF0E02F
:10574000EE0FFF1FE351FD4F859194910E944C078E
:105750000E94720784E00E946707811105C088E0FB
:105760000E946707882319F01F5F1093C101809181
:10577000C101823009F078CE1092C1018AE090E038
:105780009093100180930F016FCE0E94A906109292
:10579000D3051092D2051092D5051092D4058CED48
:1057A00092E00E944C070E94720784E00E94670703
:1057B000882339F010920D011092C10186E090E02B
:1057C000DFCF88E00E946707882309F44DCEF4CF2D
:1057D0006091B4017091B5018091CC019091CD019F
:1057E0000E94FF110E9472073FCE8091C2019091EA
:1057F000C301892B09F07EC08091C10181117AC05B
:105800008091C6019091C701DC01ED91FC91068465
:10581000F785E02D67E170E009958C010097C9F0EC
:10582000DC01ED91FC910684F785E02D67E070E0E6
:105830000995892B41F461E0C8010E9421109093E1
:10584000C3018093C2018091C2019091C301892B51
:1058500011F04092C1018091C4019091C50100975F
:1058600009F4C0CF2091C101222309F4BBCF40919C
:10587000C2015091C301DC01ED91FC91411551052C
:1058800009F46DC02091CC013091CD012817390762
:1058900009F443C00688F789E02D09952091C201DB
:1058A0003091C3014091C6015091C7016091CC0174
:1058B0007091CD01880F991FFC01E152FA4F0190C0
:1058C000F081E02D8091C4019091C501099510925D
:1058D000C5011092C4011092C3011092C20110922E
:1058E000C1010E94990E8091CC019091CD010E943E
:1058F000472678CF8091C4019091C501009709F0A7
:10590000B1CF61E08091CC019091CD010E94211036
:105910009093C5018093C4019ECF0484F585E02D4A
:1059200068E170E009958091C6019091C701DC01A2
:10593000ED91FC910484F585E02D50E040E067E1B5
:1059400070E009954091C2015091C30168E070E098
:105950008091CC019091CD010E94D20FB8CF0684E6
:10596000F785E02D66E070E009952091C401309143
:10597000C501892B61F5A90169E070E08091CC0136
:105980009091CD010E94D20F8091CC019091CD01D8
:105990004091C4015091C501DC01ED91FC9104845A
:1059A000F585E02D70E060E009958091C601909149
:1059B000C7014091C4015091C501DC01ED91FC91FA
:1059C0000484F585E02D67E170E0099580CF50E013
:1059D00040E06BE070E0C901BFCF8091C4019091BD
:1059E000C501009721F58091C6019091C701DC01A6
:1059F000ED91FC910684F785E02D67E170E0099553
:105A0000892B71F18091C6019091C701DC01ED9164
:105A1000FC910684F785E02D67E170E0099561E06F
:105A20000E9421109093C5018093C401DBCE70E0E9
:105A300060E00E94FF118091C6019091C7014091E2
:105A4000C4015091C501DC01ED91FC910484F58500
:105A5000E02D70E060E009951092C5011092C4013C
:105A600084E090E09093100180930F01BBCE0E94E0
:105A7000A9061092D3051092D2051092D505109266
:105A8000D405F4ED8F2EF2E09F2E10E000E080911F
:105A9000B2019091B3018017910709F055C08AE1D6
:105AA0000E944707F401859194910E94C60F0F5FF1
:105AB0001F4FB2E08B0E911C0430110541F78EEBA5
:105AC00092E00E94C60F89EA92E00E94C60F85E923
:105AD00092E00E94C60F84E892E00E94C60F80E127
